S015000058426565426F745F6B6E6F776E2E73726563FA
S11300000C940B030C9428030C9428030C942803DD
S11300100C94CE0A0C94F70A0C94200B0C94490B04
S11300200C9428030C94AF090C94D8090C94010A7D
S11300300C947C0A0C942A0A0C94530A0C94A50A76
S11300400C9434090C945D090C9486090C942803CF
S11300500C9428030C9428030C9428030C94280370
S11300600C9428030C9428030C9428030C94280360
S11300700C9428030C9428030C9428030763423639
S1130080B79BD8A71A39685618AEBAAB558C1D3C25
S1130090B7CC5763BD6DEDFD753EF6177231BF00E9
S11300A00000803F08000000BE922449123EABAA23
S11300B0AA2ABECDCCCC4C3E00000080BEABAAAA7E
S11300C0AA3E00000000BF000000803F00000000C6
S11300D000084178D3BB4387D1133D190E3CC3BDFF
S11300E04282AD2B3E68EC8276BED98FE1A93E4CAC
S11300F080EFFFBE01C4FF7F3F00000000006E617F
S11301006E00696E660000407A10F35A00A0724EC9
S113011018090010A5D4E80000E87648170000E4A8
S11301200B54020000CA9A3B000000E1F5050000F0
S113013080969800000040420F000000A086010055
S11301400000102700000000E80300000000640025
S1130150000000000A000000000001000000000090
S11301602C76D888DC674F0823DFC1DFAE59E1B1B4
S1130170B796E5E3E453C63AE651997696E8E6C2C3
S11301808426EB898C9B62ED407C6FFCEFBC9C9FCA
S113019040F2BAA56FA5F490055A2AF75C936B6CEC
S11301A0F9676DC11BFCE0E40D47FEF520E6B500E0
S11301B0D0ED902E0300943577050080841E08004E
S11301C000204E0A000000C80C333333330F986EFE
S11301D012831141EF8D2114893BE65516CFFEE6BB
S11301E0DB18D1844B381BF77C1D901DA4BBE42481
S11301F0203284725E228100C9F124ECA1E53D27FE
S113020016050100000000000000FA000000E000F4
S1130210E00028FE28FE282454FE5448C4C81026B2
S1130220466C92AA44A000A0C0000000384482009A
S1130230008244380028107C102810107C10100014
S11302400A0C00001010101010000606000004082C
S11302501020407C8A92A27C0042FE020042868AE0
S113026092628482A2D28C182848FE08E4A2A2A238
S11302709C3C5292920C808E90A0C06C9292926C94
S11302806092929478006C6C0000006A6C0000101C
S113029028448200282828282800824428104080E6
S11302A08A90604C929E827C7E8888887EFE9292A0
S11302B0926C7C82828244FE82824438FE929292C4
S11302C082FE909090807C8292925EFE101010FECE
S11302D00082FE8200040282FC80FE10284482FE1A
S11302E002020202FE403040FEFE201008FE7C8224
S11302F082827CFE909090607C828A847AFE9098C0
S11303009462629292928C8080FE8080FC0202024F
S1130310FCF8040204F8FC021C02FCC6281028C6DF
S1130320E0100E10E0868A92A2C200FE8282004093
S113033020100804008282FE002040804020020237
S11303400202020080402000042A2A2A1EFE1222F1
S1130350221C1C222222041C222212FE1C2A2A2ACB
S113036018107E908040304A4A4A7CFE1020201E9D
S11303700022BE0200040222BC00FE081422000077
S113038082FE02003E2018201E3E1020201E1C2249
S113039022221C3E28282810102828183E3E10200F
S11303A02010122A2A2A0420FC2202043C020204FD
S11303B03E38040204383C020C023C221408142285
S11303C0300A0A0A3C22262A322200106C820000DB
S11303D000FE000000826C100008101008100000DD
S11303E00000007F8181817F7F8383837F7F878774
S11303F0877F7F8F8F8F7F7F9F9F9F7F7FBFBFBFB1
S11304007F7FFFFFFF7F2040FF40206215171565A7
S113041000FBFB00000000000000C0FF0300E0FF41
S11304200700F0FF0F00F8FF1F0078001E0078009F
S11304301E0078001E0078001E0078001E00780060
S11304401E0078001E0078001E0078001E000000C8
S113045000000000000080FF0300E0FF0700F0FF41
S11304600F00F8FF1F00F83C1F00783C1E00783C8A
S11304701E00783C1E00783C1E00783C1E00783C30
S11304801E00783C1E00783C1E00783C1E00783C20
S11304901E000000000000000000E0FF0300F0FF69
S11304A00700F8FF0F00F8FF1F00783C1E00783C9F
S11304B01E00783C1E00783C1E00783C1E00783CF0
S11304C01E00783C1E00783C1E00783C1E00783CE0
S11304D01E000000000000000000F8FF0300F8FF09
S11304E00F00F8FF1F00F8FF1F0000001E000000AF
S11304F01E0000801F0000F01F0000FF0F00E0FF3F
S11305000700F0FF0000F80F0000F800000078007A
S1130510000078000000F8FF1F00F8FF1F00F0FF44
S11305201F00E0FF1F000000000000000000F8FFB3
S11305301F00F8FF1F00F8FF1F00F8FF1F007800DE
S11305401E00783C1E00783C1E00783C1E00783C5F
S11305501E00783C1E00783C1E00F87E1F00F8FF49
S11305601F00F0FF0F00E0E70300000000000000A0
S11305703800EEFF6C002A8045003A0047FC03FF78
S11305806CFC83FF3900DEFF0B7CD0810BFCD08137
S11305900BC0D0810BFCD0810B7CDEFF0B0082FFF3
S11305A0397002FF6CF83A0047DC2A8045CCEEFF34
S11305B06CCC000038000000000C00001E0C000091
S11305C01E0000001E0000001E0000001E00F8FFB8
S11305D01F00F8FF1F00F8FF1F00F8FF1F000000B6
S11305E01E0000001E0000001E0000001E0000008F
S11305F05E000000400000007C000000400000009D
S1130600400000007C0000003000000010000000EA
S1130610300000007C0011241FBECFEFD8E0DEBF05
S1130620CDBF11E0A0E0B1E0ECE8FEE302C005902C
S11306300D92A634B107D9F722E0A6E4B1E001C0D7
S11306401D92A834B207E1F70E949F030C94441F43
S11306500C9400008FE00E941106882311F082E0C0
S113066008950E94940381E008958FE00E941E067D
S1130670882319F420E030E013C080917A0080646C
S113068080937A0080917A0086FDFCCF30917800C7
S113069020917900922F80E0232F30E0282B392BF2
S11306A0C9010895ECE7F0E090818295880F880FE6
S11306B0807C9F73982B90830895582F809100011C
S11306C08830D8F440917E0021E030E0B90102C0C6
S11306D0660F771F8A95E2F7CB0180958423809378
S11306E07E0080917E00052E02C0220F331F0A94E3
S11306F0E2F7822B80937E000DC020917E0081E082
S113070090E0052E02C0880F991F0A94E2F7282B67
S113071020937E005093000180917C005F71807E65
S1130720852B80937C0008958FE180937C00EAE719
S1130730F0E087E0808380818068808308950E9450
S113074032090E9424090E94211480E090E0089557
S11307500F931F9385E00E941E068823C1F080E456
S113076060E00E94BC0400E0802F60E00E9450041E
S113077010E080E061E00E94BC041F5F1038C9F7FC
S11307800F5F043089F783E060E00E94AA041F91A0
S11307900F9108950F931F9385E00E9411068823FB
S11307A011F082E07AC00E94D904182F0E942A0610
S11307B01150123008F06DC08150823008F069C0C9
S11307C00E94D7048EEA60E00E94BC0482EA60E0E2
S11307D00E94BC0480EA60E00E94BC0400E513ECC3
S11307E0C8010197F1F780EC60E00E94BC048FE23D
S11307F060E00E94BC0481E860E00E94BC0486E1E1
S113080060E00E94BC0482E260E00E94BC04C80173
S11308100197F1F78FEA60E00E94BC0486EA60E089
S11308200E94BC0485EA60E00E94BC0480E090E081
S113083028E833E1F9013197F1F7019643E0883E66
S11308409407C1F783EB60E00E94BC0480E460E09D
S11308500E94BC0483E060E00E94500483E060E0F6
S11308600E94AA041092E0011092E2011092E101A8
S113087081E091E0909345028093440288E10E94D4
S113088089040E94A80384EA60E00E94BC0481E019
S113089004C085E00E94010687E01F910F9108952E
S11308A0FF920F931F93082FF62E85E00E941E06D9
S11308B08823A1F01F2D1F770370802F806B60E0C9
S11308C00E94BC0412951F70812F806160E00E9419
S11308D0BC048F2D8F7060E00E94BC041F910F91A7
S11308E0FF9008950F931F93082F162F85E00E9401
S11308F01E06882359F0812F153108F084E166E043
S1130900869FB0011124802F0E94AA041F910F9189
S113091008951F93182F85E00E941E068823C1F0B6
S113092087E00E941B0582E06AE00E946C0582E079
S113093061EB0E946C05612F113208F060E282E0E5
S11309400E946C0589EE8A95F1F787E00E941B05E9
S11309501F9108950F931F93082F162F85E00E946F
S11309601E06882331F003701F771093DE01009375
S1130970DF011F910F9108950F931F93082F162FD6
S113098085E00E941E06882379F0112319F01130A6
S113099021F402C02B9801C02B9A86E08A95F1F7C6
S11309A080E0602F0E946C051F910F910895239A97
S11309B0089582E00E941106882311F082E00895D0
S11309C00E947B0580E066EA7CE00E94120581E0DB
S11309D06EE97CE00E94120582E066E97CE00E94F8
S11309E0120586E06EEA7CE00E94120583E06EE860
S11309F07CE00E94120584E06EE87CE00E9412050F
S1130A0085E06EE87CE00E94120587E06EE87CE0F9
S1130A100E9412058FEF8093E30187E00E941B057B
S1130A2081E00895E82FF0E0EE0FFF1FEA57FE4F34
S1130A307183608308951F93182F82E00E941E061D
S1130A40882309F447C0912F97708091E301981788
S1130A5009F440C09093E30185B1887F892B85B95F
S1130A60933011F1943028F4913051F0923090F495
S1130A700CC0953019F19530E0F0963021F50FC097
S1130A80E0918801F091890122C0E0918601F09102
S1130A9087011DC0E0918A01F0918B0118C0E0919B
S1130AA09201F091930113C0E0918C01F0918D01BA
S1130AB00EC0E0918E01F0918F0109C0E091900188
S1130AC0F091910104C0E0919401F0919501309767
S1130AD009F009951F9108951F93162F0E941B0575
S1130AE082E00E941E06882321F01EBD0DB407FE7D
S1130AF0FDCF1F910895259A2698279A209A219A26
S1130B00229A089587E00E941106882311F082E05A
S1130B1008950E94F70581E080931A021092E4017F
S1130B201092E5011092E7011092E6011092E9019A
S1130B301092E8011092EB011092EA011092ED017B
S1130B401092EC011092EF011092EE011092F1015B
S1130B501092F0011092F3011092F2011092F5013B
S1130B601092F4011092F7011092F6011092F9011B
S1130B701092F8011092FB011092FA011092FD01FB
S1130B801092FC01109202021092030210920402CD
S1130B9010920502109207021092080210920902A4
S1130BA010920A0210920B0210920C0210920D0283
S1130BB010920F0210920E02109211021092100263
S1130BC01092130210921202109215021092140243
S1130BD01092FF011092FE01109201021092000285
S1130BE0109219021092180210921A0208953A9A59
S1130BF03B9A3C9A3D9A3E9A3F9A88B1837088B951
S1130C000895853160F4E82FF0E0E355FE4F8081CC
S1130C10882329F0808181508083808108958FEF1B
S1130C200895853110F080E00895E82FF0E0E35551
S1130C30FE4F80818F5F808381500895853110F04D
S1130C4080E00895E82FF0E0E355FE4F80818111A4
S1130C5081E00895DF93CF9300D00F92CDB7DEB734
S1130C6081E00E941106882311F082E011C00E94E5
S1130C70D9048150823040F40E944E06CE01019680
S1130C800E943D0E81E004C081E00E94010687E0DD
S1130C900F900F900F90CF91DF9108951092320230
S1130CA010923102109234021092330210923602E2
S1130CB010923502109238021092370210923A02C2
S1130CC01092390280E991E090931E0280931D02F4
S1130CD09093200280931F0290932202809321021A
S1130CE090932402809323029093260280932502FA
S1130CF084E398E0909328028093270290932A0239
S1130D008093290290932C0280932B0290932E02BD
S1130D1080932D029093300280932F020895CF92F6
S1130D20DF92EF92FF920F931F93CF93DF937B0198
S1130D308C01EA01690181E0E81681EEF80680E0A1
S1130D40080780E0180740F444E0EE0CFF1C001F85
S1130D50111F4A95D1F707C033E0EE0CFF1C001FAA
S1130D60111F3A95D1F760E072EC8BEE9BE0A8017D
S1130D7097010E940A1C79018A0186EF9FEFAFEF69
S1130D80BFEFE80EF91E0A1F1B1FC801B7012AE0B6
S1130D9030E040E050E00E940A1C65307105810596
S1130DA0910540F08AE090E0A0E0B0E0E80EF91E82
S1130DB00A1F1B1FC801B7012AE030E040E050E0E1
S1130DC00E940A1CC901DA012883892F9A2FAB2FAC
S1130DD0BB27F6018083DF91CF911F910F91FF9084
S1130DE0EF90DF90CF900895BF92CF92DF92EF9271
S1130DF0FF920F931F93DF93CF9300D0CDB7DEB74D
S1130E00B62EC42ED22E882321F0813009F077C06B
S1130E103CC08DE00E941E06882309F470C01A822B
S1130E2019821092C0001092C1001092C200C80131
S1130E30B701AE014E5F5F4F9E012F5F3F4F0E948F
S1130E408F06BB0CDD0CDD0CDD0CDD0CDB28CC0CC3
S1130E50CC0CCC0CCD288A818093C40089818093EA
S1130E60C500C092C20081E0E81681EEF80680E079
S1130E70080780E0180728F08091C0008260809302
S1130E80C00081E08093D6013AC08EE00E941E0625
S1130E908823A9F119821A821092C8001092C900FD
S1130EA01092CA00C801B701AE014F5F5F4F9E01A7
S1130EB02E5F3F4F0E948F06BB0CDD0CDD0CDD0C5A
S1130EC0DD0CDB28CC0CCC0CCC0CCD288981809398
S1130ED0CC008A818093CD00C092CA0081E0E816DC
S1130EE081EEF80680E0080780E0180728F080917A
S1130EF0C80082608093C80081E08093DB010F907A
S1130F000F90CF91DF911F910F91FF90EF90DF90A1
S1130F10CF90BF900895882319F08130A1F408C0C0
S1130F208DE00E941E06882371F08091C00007C0E6
S1130F308EE00E941E06882331F08091C800881F2D
S1130F408827881F089580E00895882321F0813040
S1130F50B9F084E008958DE00E941106882369F5B4
S1130F601092D6011092D4011092D5010E94170953
S1130F7080E065E070E00E94C1088BEC91E015C050
S1130F808EE00E9411068823C1F41092DB011092B6
S1130F90D9011092DA0181E00E94170981E065E02D
S1130FA070E00E94C10882EC91E061E041E028EE2B
S1130FB033E00E94A70E81E0089582E00895CF9364
S1130FC0DF93EB01882321F0813009F046C022C071
S1130FD08DE00E941E06882309F43FC02091D701AA
S1130FE03091D8018091D5018130B9F50FC080913D
S1130FF0D101882321F0215030401092D1018091F9
S1131000C00087FF03C08091C60020C012161306DB
S113101074F325C08EE00E941E068823F1F020910F
S1131020DC013091DD018091DA018130B1F411C02D
S11310308091C801882321F0215030401092C801CA
S11310408091C80087FF05C08091CE00888380E02E
S113105007C01216130664F302C081E001C083E0E6
S1131060DF91CF9108950F931F93182F062F882394
S113107011F48DE003C0813029F48EE00E941E0635
S11310808823A9F10023F9F0013089F5112319F01F
S1131090113069F50CC08091D601813041F5809101
S11310A0C10080618093C1000093D50120C080916C
S11310B0DB018130E1F48091C90080618093C90033
S11310C00093DA0114C0112319F0113081F408C01F
S11310D08091C1008F7E8093C1001092D50107C01A
S11310E08091C9008F7E8093C9001092DA011F910C
S11310F00F9108950F931F93182F062F882311F42F
S11311008DE003C0813029F48EE00E941E068823FE
S1131110A9F10023F9F0013089F5112319F01130F8
S113112069F50CC08091D601813041F58091C100F0
S113113088608093C1000093D40120C08091DB01BA
S11311408130E1F48091C90088608093C9000093E4
S1131150D90114C0112319F0113081F408C0809111
S1131160C100877F8093C1001092D40107C0809191
S1131170C900877F8093C9001092D9011F910F91F4
S1131180089577FF03C060E070E005C06F3171051A
S113119014F06EE170E0882319F0813051F405C039
S11311A07093D8016093D70108957093DD01609323
S11311B0DC0108951F93162F882319F08130A1F5BF
S11311C019C08DE00E941E06882371F18091D4011C
S11311D0813051F58091C00085FFFCCF1093C6008B
S11311E08091C00086FFFCCF8091C0008064809312
S11311F0C00018C08EE00E941E068823A9F08091CA
S1131200D901813089F48091C80085FFFCCF109307
S1131210CE008091C80086FFFCCF8091C800806416
S11312208093C80080E001C081E01F910895882365
S113123019F0813041F404C0519A5098599A089594
S1131240539A52985B9A08950E94260E0E94300C7D
S11312500E94720B0E94E50E0E94D9040E942A0685
S113126078940895000008951F920F920FB60F927C
S113127011242F933F934F935F936F937F938F9397
S11312809F93AF93BF93EF93FF93E0916601F09127
S11312906701309709F00995FF91EF91BF91AF91E4
S11312A09F918F917F916F915F914F913F912F917A
S11312B00F900FBE0F901F9018951F920F920FB6AC
S11312C00F9211242F933F934F935F936F937F93C8
S11312D08F939F93AF93BF93EF93FF93E091680134
S11312E0F0916901309709F00995FF91EF91BF9151
S11312F0AF919F918F917F916F915F914F913F91AA
S11313002F910F900FBE0F901F9018951F920F9260
S11313100FB60F9211242F933F934F935F936F93C4
S11313207F938F939F93AF93BF93EF93FF93E0913A
S11313306A01F0916B01309709F00995FF91EF91E3
S1131340BF91AF919F918F917F916F915F914F91D9
S11313503F912F910F900FBE0F901F9018951F92E1
S11313600F920FB60F9211242F933F934F935F93D5
S11313706F937F938F939F93AF93BF93EF93FF9359
S1131380E0915801F0915901309709F00995FF91C6
S1131390EF91BF91AF919F918F917F916F915F91E9
S11313A04F913F912F910F900FBE0F901F90189562
S11313B01F920F920FB60F9211242F933F934F93C6
S11313C05F936F937F938F939F93AF93BF93EF93A9
S11313D0FF93E0915A01F0915B01309709F0099570
S11313E0FF91EF91BF91AF919F918F917F916F91F9
S11313F05F914F913F912F910F900FBE0F901F90CF
S113140018951F920F920FB60F9211242F933F93AA
S11314104F935F936F937F938F939F93AF93BF93F8
S1131420EF93FF93E0915C01F0915D01309709F037
S11314300995FF91EF91BF91AF919F918F917F910A
S11314406F915F914F913F912F910F900FBE0F902D
S11314501F9018951F920F920FB60F9211242F937D
S11314603F934F935F936F937F938F939F93AF9328
S1131470BF93EF93FF93E0916001F0916101309786
S113148009F00995FF91EF91BF91AF919F918F91D1
S11314907F916F915F914F913F912F910F900FBE6C
S11314A00F901F9018951F920F920FB60F92112450
S11314B02F933F934F935F936F937F938F939F9358
S11314C0AF93BF93EF93FF93E0916201F0916301B7
S11314D0309709F00995FF91EF91BF91AF919F91DA
S11314E08F917F916F915F914F913F912F910F90C9
S11314F00FBE0F901F9018951F920F920FB60F9268
S113150011242F933F934F935F936F937F938F9304
S11315109F93AF93BF93EF93FF93E0915E01F0919C
S11315205F01309709F00995FF91EF91BF91AF9159
S11315309F918F917F916F915F914F913F912F91E7
S11315400F900FBE0F901F9018951F920F920FB619
S11315500F9211242F933F934F935F936F937F9335
S11315608F939F93AF93BF93EF93FF93E0916401A5
S1131570F0916501309709F00995FF91EF91BF91C2
S1131580AF919F918F917F916F915F914F913F9117
S11315902F910F900FBE0F901F9018951F920F92CE
S11315A00FB60F9211242F933F934F935F936F9332
S11315B07F938F939F93AF93BF93EF93FF93E091A8
S11315C04E01F0914F01309709F00995FF91EF9189
S11315D0BF91AF919F918F917F916F915F914F9147
S11315E03F912F910F900FBE0F901F9018951F924F
S11315F00F920FB60F9211242F933F934F935F9343
S11316006F937F938F939F93AF93BF93EF93FF93C6
S1131610E0915001F0915101309709F00995FF9143
S1131620EF91BF91AF919F918F917F916F915F9156
S11316304F913F912F910F900FBE0F901F901895CF
S11316401F920F920FB60F9211242F933F934F9333
S11316505F936F937F938F939F93AF93BF93EF9316
S1131660FF93E0915201F0915301309709F00995ED
S1131670FF91EF91BF91AF919F918F917F916F9166
S11316805F914F913F912F910F900FBE0F901F903C
S113169018951F920F920FB60F9211242F933F9318
S11316A04F935F936F937F938F939F93AF93BF9366
S11316B0EF93FF93E0915401F0915501309709F0B5
S11316C00995FF91EF91BF91AF919F918F917F9178
S11316D06F915F914F913F912F910F900FBE0F909B
S11316E01F90189580E10E941106882311F082E072
S11316F00895E6E4F1E01192119281E0E638F807EA
S1131700D1F781E00895FF920F931F93CF93DF9356
S1131710F82E8AE0F816B1F08F1548F0E8E0FE16CE
S1131720B9F1EF1538F1F7E0FF1651F43BC08DE045
S1131730F81659F0EBE1FE1689F0FCE0FF1641F0D3
S113174001E041C01092DE0103C01092DE013AC0F4
S11317508091DF0181508093DF0134C00E94A8038F
S113176014C080E061E00E94BC048091DE018F5FC0
S11317708093DE018091DE0187FFF3CF1092DE01BA
S11317808091DF0181508093DF0100E011E01CC0F3
S11317908091DE018823B1F08091DE018650809330
S11317A0DE0110C081E00E94780D64EF71E080E0FA
S11317B090E04DE750E024E630E00E94840D81E0A3
S11317C00E94DF0C00E010E08091DF016091DE01F7
S11317D00E945004002351F185E0F89EC0011124B9
S11317E0EC01CD59DE4F8C0108591E4FFE01849146
S11317F061E00E94BC042196C017D107B9F780E0CC
S113180061E00E94BC048091DE018A5F8093DE0166
S11318108091DE0190E08C3791053CF01092DE015E
S11318208091DF0181508093DF0111E08091DF011D
S113183083708093DF01113059F48091E00181308D
S113184039F4E091E101F091E201309709F0099552
S113185080E090E0DF91CF911F910F91FF90089568
S1131860F8940E948B0C81E00E94380C81E008956A
S1131870813049F0F894813020F18230B1F0833026
S113188009F045C017C02C9A80E88093610010923B
S1131890610080E090E00000019688329105D9F75C
S11318A01092680010926B00089580E880936100A4
S11318B083E004C080E88093610088E08093610045
S11318C028C080E090E0000001962DE68036920763
S11318D0D1F72C9880E090E0000001962DE6803648
S11318E09207D1F710927A008FEF80936400809171
S11318F0680081608093680080916B0084608093AD
S11319006B00789483B7816083BF88950895823093
S113191008F078940895249A2C9A089583E58CBD50
S113192081E08DBD8DE08A95F1F7089583E58CBD46
S11319301DBC84EF91E00197F1F708958FE78CBD0A
S11319401DBC84EF91E00197F1F7089583E58CBD08
S113195081E08DBD8DE08A95F1F7089583E58CBD16
S113196081E08DBD84EF91E00197F1F708958AE05D
S11319700E940106882329F481E00E94DA0D109266
S11319809701089589E00E9401068823B9F48091A3
S11319909601882311F00E94200E82E00E94DA0D45
S11319A08091A4019091A501009731F00E94121D2D
S11319B01092A5011092A40110929601089581300D
S11319C029F0823029F40E94C20C08950E94B70CB9
S11319D008950F931F93CF93DF9380E291E00E94C9
S11319E07D1C9C019093A5018093A401892B11F483
S11319F080E039C08901C0E0D0E0BE0180E090E021
S1131A000E94D01820E030E040EA51E40E942F18F0
S1131A1027EF35E740E05FE30E949B199B01AC018F
S1131A2060E070E080E291E40E94081A9B01AC013E
S1131A30CA01B9012DEC3CEC42E851E40E949B1927
S1131A400E945E192AE030E040E050E00E94FA1B58
S1131A50F80161937193819391938F012196C83416
S1131A60D10559F681E0DF91CF911F910F9108952F
S1131A708AE00E941106882311F082E008951092F2
S1131A80A1011092A00181E00E94F60D81E08093F3
S1131A90970108951F9389E00E941106882311F08D
S1131AA082E024C08BE00E941E068823D9F40E94A1
S1131AB0E90C182F813011F086E018C010929801BB
S1131AC01092990110929A0110929B018DE06EEA96
S1131AD07FE00E94790F82E00E94F60D1093960138
S1131AE081E004C089E00E94010687E01F91089507
S1131AF0813021F0823029F084E008950E94380D6D
S1131B0008950E944A0D08956F927F928F929F923A
S1131B10AF92BF92CF92DF92EF92FF920F931F93F7
S1131B20CF93DF933B014C015A01E9018AE00E9403
S1131B301E06882381F1209741F19501442737FD42
S1131B404095542FBE01C536D10510F064E670E00F
S1131B5080E090E00E94FA1B24E630E040E050E090
S1131B600E940A1C79018A01C401B3010E94B10FC9
S1131B70C7010E947A0E60E070E080E090E00E946D
S1131B80B10FC5018E199F0904C0A114B10419F045
S1131B90C5010E947A0EDF91CF911F910F91FF90A2
S1131BA0EF90DF90CF90BF90AF909F908F907F90F9
S1131BB06F900895823029F4809181008E7F809304
S1131BC0810080919601813031F4809197018130B8
S1131BD011F40000089580919601813021F08091E4
S1131BE09701813011F45F9857980895982F809148
S1131BF09601882331F480919701882311F4579A30
S1131C005F98809196018823D1F49230C1F41092A8
S1131C10800010928100809181008860809381000F
S1131C2080918100816080938100109285001092E0
S1131C30840081E08093890080E98093880008957E
S1131C40EFE6F0E080818D7F80830895CF93DF936A
S1131C50C0E0D0E08C2F60E00E94350E2196C531A3
S1131C60D105C1F7DF91CF910895853128F4E82F8C
S1131C70F0E0E355FE4F608308951F93CF93DF9305
S1131C80EC01009799F181E00E941E06882351F12E
S1131C9087E00E941B0518EC812F8A95F1F782E0FA
S1131CA06AE00E946C0582E064EB0E946C05812F5F
S1131CB08A95F1F782E060E00E949E0F8883812F6D
S1131CC08A95F1F782E060E00E949E0F89831A955D
S1131CD0F1F782E060E00E949E0F8A8387E00E9411
S1131CE01B0504C0188219828DE28A83DF91CF918B
S1131CF01F9108950F931F93DF93CF93CDB7DEB752
S1131D0029970FB6F894DEBF0FBECDBF8C0188E0D3
S1131D100E941E06882311F491E00DC0CE010196A5
S1131D2061E040E098010E94A70E982F882319F4DF
S1131D308F818823E9F3892F29960FB6F894DEBFA3
S1131D400FBECDBFCF91DF911F910F910895EF92F8
S1131D50FF920F931F93CF93DF93EC01F62EE42EA3
S1131D60890188E00E941E06882311F481E026C0C0
S1131D7084E090E00E947D1CFC01009711F482E055
S1131D801DC0F982F0FC1E8281E0E81619F48981F5
S1131D90846089838981886089831B830A831D8386
S1131DA00C83D183C0831382128281E08093A601C5
S1131DB0CF010E940A0F1092A60180E0DF91CF911B
S1131DC01F910F91FF90EF90089588E00E941106F3
S1131DD0882311F082E0089510923B0210923D0294
S1131DE010923C021092A6011092A70180E166E1D4
S1131DF070E10E948D0F0E94010F0E94730F81E019
S1131E00089584B5826084BD85B5846085BD8EE403
S1131E1087BD0895CF92DF92EF92FF920F931F93A5
S1131E20CF93DF93EC0180913B02882339F4D09364
S1131E303D02C0933C020E941D1047C0C0903C026A
S1131E40D0903D0200E010E0EE24FF2437C0A881CA
S1131E50B981FD0164817581F60140815181FA01E6
S1131E60848195819B01281B390B37FF0FC0861B8A
S1131E70970B95838483DB82CA82012B29F4D09348
S1131E803D02C0933C0221C0F7010CC0F6018281DF
S1131E9093812115310549F4FD01158214829B8338
S1131EA08A83F601D383C28310C0FD013583248362
S1131EB00097B9F30F5F1F4F76016C0180913B02CD
S1131EC090E00817190718F2ECCF80913B028F5F5E
S1131ED080933B02DF91CF911F910F91FF90EF9080
S1131EE0DF90CF900895EEE6F0E0808182608083F9
S1131EF00895E82F803268F48051833050F0F0E088
S1131F00EE0FFF1FEA5BFE4F2081318171836083F6
S1131F1002C020E030E0C9010895803218F020E0CA
S1131F2030E00AC0E82FF0E0EE0FFF1FEA5BFE4F3F
S1131F302081318171836083C90108951F93162F15
S1131F400E941B0582E00E941E06882329F01EBD04
S1131F500DB407FEFDCF8EB51F9108950E94D50FD5
S1131F600895EF92FF920F931F937B018C018AE0F7
S1131F700E941E068823A1F080919701882381F096
S1131F80D801C701880F991FAA1FBB1F9093A301F3
S1131F908093A201E114F1040105110509F45F988D
S1131FA01F910F91FF90EF90089580919801909167
S1131FB09901A0919A01B0919B0120919C013091CB
S1131FC09D0140919E0150919F01280F391F4A1F86
S1131FD05B1F209398013093990140939A01509389
S1131FE09B018091980190919901A0919A01B091DF
S1131FF09B018851964FA040B040BCF08BB18058F3
S11320008BB98091980190919901A0919A01B09116
S11320109B018851964FA040B040809398019093C3
S11320209901A0939A01B0939B0108950E942110F5
S11320300E9461100E943A10089581E08093A701E4
S1132040089588E00E941E06882311F484E0089510
S11320508091A701882311F483E008958091A6015B
S1132060882311F082E008950E9400138130E1F387
S113207080E0089580919701813011F58091A0014D
S11320809091A1012091A2013091A301280F391F41
S11320903093A1012093A0018091A0019091A1010E
S11320A0885E93406CF08BB180588BB98091A0010D
S11320B09091A101885E93409093A1018093A00127
S11320C0089587E00E941E06882309F4AAC080911F
S11320D0EE019091EF01892B09F180911202909108
S11320E013022091EE013091EF01820F931F909320
S11320F01302809312028091120290911302885E5F
S11321009340A4F08091120290911302885E934050
S1132110909313028093120241E009C08091E6017A
S11321209091E7019093EB018093EA0140E0809164
S1132130F0019091F101892B09F1809114029091A1
S113214015022091F0013091F101820F931F9093B9
S11321501502809314028091140290911502885EF6
S11321609340A4F08091140290911502885E9340EC
S1132170909315028093140261E009C08091E801F4
S11321809091E9019093ED018093EC0160E0842F3C
S11321900E94121180910E0290910F022091EA0187
S11321A03091EB01280F391F30930F0220930E0258
S11321B080910E0290910F02885E934014F440E0E7
S11321C00BC080910E0290910F02885E9340909311
S11321D00F0280930E0241E080911002909111024F
S11321E02091EC013091ED01280F391F3093110239
S11321F0209310028091100290911102885E934006
S113220014F460E00BC08091100290911102885E7A
S11322109340909311028093100261E0842F0E94F6
S1132220571108958823F1F02091E6013091E701D8
S11322308091EA019091EB01281B390B12161306C9
S113224034F48091EA019091EB01019607C0232BAD
S113225049F08091EA019091EB0101979093EB0191
S11322608093EA01662311F12091E8013091E9019C
S11322708091EC019091ED01281B390B1216130685
S113228054F48091EC019091ED0101969093ED014D
S11322908093EC010895232B49F08091EC019091F7
S11322A0ED0101979093ED018093EC0108950F9354
S11322B01F93182F062F80911A02882309F0E7C074
S11322C080910202882309F05AC08091EA0190911A
S11322D0EB01892BE9F48091A801837E8093A80106
S11322E010920B0280911602882309F45DC060915C
S11322F0040280E00E94DB12E0911802F0911902BE
S1132300309709F451C081E08083109216024CC0CA
S11323108091E401813041F48091F6019091F701BC
S1132320019711F411E002C01123F1F1E0910902C7
S1132330F0E0E15FFE4F9091A801937E8081892BAC
S11323408093A80180910702882321F480910902D7
S11323508F5F03C0809109028150809309028091AC
S1132360090283708093090281E080930B028091BB
S1132370E4018130C9F480E00E945A1215C09091A2
S1132380A801937E9093A801E0910902F0E0E15F37
S1132390FE4F8081892B8093A80182E080930B02F9
S11323A01092EB011092EA0180910302882309F054
S11323B059C08091EC019091ED01892BE9F4809151
S11323C0A8018F718093A80110920C0280911702CA
S11323D0882309F45CC06091050281E00E94DB124D
S11323E0E0911802F0911902309709F450C081E08D
S11323F08183109217024BC08091E501813041F432
S11324008091F8019091F901019711F401E002C063
S11324100023E9F1E0910A02F0E0ED5EFE4F9091B5
S1132420A8019F718081892B8093A8018091080263
S1132430882321F480910A028F5F03C080910A02ED
S1132440815080930A0280910A02837080930A0269
S113245081E080930C028091E5018130C1F40E94F7
S11324605A1215C09091A8019F719093A801E09110
S11324700A02F0E0ED5EFE4F8081892B8093A80173
S113248082E080930C021092ED011092EC01809195
S11324900D02882331F488EA91E0612F402F0E94D5
S11324A06E1388B183709091A801892B88B91F910C
S11324B00F910895882321F0813009F04EC027C080
S11324C08091F6019091F701892B49F08091F601F2
S11324D09091F70101979093F7018093F601809111
S11324E016028823D1F52091F6013091F7018091ED
S11324F0FA019091FB012817390779F580E060E033
S113250070E00E94AE1281E08093160208958091DB
S1132510F8019091F901892B49F08091F80190918B
S1132520F90101979093F9018093F80180911702C2
S1132530882399F42091F8013091F9018091FC01EC
S11325409091FD012817390741F481E060E070E0C3
S11325500E94AE1281E0809317020895482F81E013
S113256080931A02CB0121E06139720710F080E9EF
S113257091E0413061F0413018F04230C9F40EC0AE
S1132580F8949093E7018093E601789411C0F8944D
S11325909093E9018093E80178940AC0F8949093A9
S11325A0E7018093E6019093E9018093E801789430
S11325B010921A0208950F931F93182F062F662363
S11325C049F460E070E00E94AE12812F60E070E098
S11325D00E94061481E080931A02113051F01130E8
S11325E018F0123041F403C00093020204C00093B7
S11325F002020093030210921A021F910F91089590
S1132600FF920F931F93CF93DF9380913B02882314
S113261009F459C000913C0210913D02F801C081B7
S1132620D1818C819D8101979D838C831816190615
S11326300CF449C0898180FF05C08E81882311F480
S113264081E08E83898181FF03C0EF81F88509953C
S113265080913B028230A8F0F801828193819093AB
S11326603D0280933C0213821282E0910000F091BB
S1132670010084819581181619063CF0FF24F39417
S113268005C010923D0210923C02FF2480913B024F
S1132690815080933B0280913B02882311F40E9475
S11326A06B13898182FF08C08A819B819D838C83FF
S11326B0C8010E940A0F08C0C8010E94121D898126
S11326C08F7E898301C0FF248F2DDF91CF911F91CD
S11326D00F91FF9008951092A7010895FC01809135
S11326E00B02823069F48091AC0191E089278093D8
S11326F0AC01882309F03EC08081837E80833AC088
S11327008091EA019091EB01C397A4F56623D1F07F
S11327102091EA013091EB0180E690E0BC01269F14
S1132720C001279F900D369F900D1124880F892F8B
S1132730881F990B9093FF018093FE0181E08093A1
S1132740AA0118C08091AA018823A1F08091FE01FA
S11327509091FF0101979093FF018093FE01809176
S1132760FE019091FF01892B29F48081837E80836F
S11327701092AA0180910C02823069F48091AB011D
S113278091E089278093AB01882309F03EC08081C2
S11327908F71808308958091EC019091ED01C3972E
S11327A0A4F54423D1F02091EC013091ED0180E6B1
S11327B090E0AC01249FC001259F900D349F900DA3
S11327C01124880F892F881F990B909301028093FD
S11327D0000281E08093A90108958091A9018823D2
S11327E0A1F080910002909101020197909301025F
S11327F0809300028091000290910102892B29F4B8
S113280080818F7180831092A9010895982F81E0AF
S113281080931A02913071F0913018F0923071F473
S113282005C07093F7016093F60108C07093F70137
S11328306093F6017093F9016093F80110921A0203
S11328400895CF93DF931F92CDB7DEB70E94CA03DA
S11328508DE191E09F938F930E94D01E19820E9474
S11328602A0381E00E94520383E00E945D0381E019
S11328700E94A50710E8E12E15E2F12E00E010E019
S113288020E040E063E081E00E94F40661E070E053
S113289081E00E94C10861E081E00E947A0861E061
S11328A081E00E9433080E9482050F9A0F900F90D6
S11328B094E2E92E91E0F92E0CE311E00E94350335
S11328C0BC0180E090E00E94D0182DE232EB4DE193
S11328D05EE30E949B190E94A118D62E81E00E94FB
S11328E0DA08C98081E00E948B07882339F0BE0191
S11328F06F5F7F4F81E00E94DF07F4CF89818536C7
S113290008F0C9820E94A80360E083E00E94720478
S11329101F92DF92FF92EF920E94D01E60E081E04E
S11329200E94720489811F928F931F930F930E94B8
S1132930D01E2FE78AE196E0215080409040E1F7D5
S113294000C0000017982FE78AE196E021508040EC
S11329509040E1F700C000000FB6F894DEBF0FBE50
S1132960CDBF179AABCFA3E1B0E0E9EBF4E10C944F
S1132970371C6C014B012A01FC01178216828381EA
S113298081FF43C3AE014F5F5F4F3A01F60193816C
S1132990F40193FD859193FF81914F01882309F4FC
S11329A030C3853239F493FD859193FF81914F01B2
S11329B0853239F4B60190E00E94981E5201250137
S11329C0E5CF10E0F12C20E02032A0F48B3269F046
S11329D030F4803259F0833269F420612CC08D3296
S11329E039F0803339F4216026C02260246023C08A
S11329F0286021C027FD27C030ED380F3A3078F425
S1132A0026FF06C0FAE01F9F300D1124132F13C0B8
S1132A104AE0F49E300D1124F32E20620CC08E3255
S1132A2021F426FDEEC2206406C08C3611F4206821
S1132A3002C0883641F4F40193FD859193FF81919E
S1132A404F018111C1CF9BEB980F933018F4206193
S1132A50805E06C09BE9980F933008F071C12F7E09
S1132A6026FF16E02F73322E853619F42064322E99
S1132A7008C0863621F4F22FF0683F2E02C01111EF
S1132A80115037FE07C01C3350F4EE24E394E10EDA
S1132A9027E00BC0183038F027E017E005C027E026
S1132AA04CE3E42E02C0212FE12C520144E0A40E99
S1132AB0B11CF20160817181828193810E2DA30189
S1132AC00E94AA1D2C01098100FF02C003FF07C058
S1132AD031FC08C032FE09C030E2232E07C02DE2CB
S1132AE0222E04C09BE2292E01C0212C802F8C7041
S1132AF019F0211068C2A8C237FE0FC0E40C04FF0D
S1132B0004C08A81813309F4EA941E1474F5F8E050
S1132B10FE1578F588E0E82E2CC036FC2AC0812FFB
S1132B2090E0841595059CF02CEF42162FEF520689
S1132B3074F0432D4068342E0AC0E2E0F0E0EC0F5C
S1132B40FD1FE10FF11D8081803319F41150111123
S1132B50F4CF37FE0EC0EE24E394E10E812F90E013
S1132B60481659062CF4141904C0EE24E39401C049
S1132B7010E037FE06C01414150434F4C2010196A3
S1132B8005C085E090E002C081E090E0211001964C
S1132B90112331F0212F30E02F5F3F4F820F931F1D
S1132BA02F2D30E08217930714F4F81A01C0F12C8A
S1132BB0832D897049F4FF2039F0B60180E290E05A
S1132BC00E94981EFA94F7CF222029F0B601822D94
S1132BD090E00E94981E33FC09C0FF2039F0B60132
S1132BE080E390E00E94981EFA94F7CF37FE5AC013
S1132BF0942D852D57FE02C090E080E0292E382EBA
S1132C0020E030E0A2014E1951095D874C87A201F2
S1132C10421953095F874E87612F70E04427552777
S1132C20461B570B598B488B5FEF2516350649F425
S1132C30B6018EE290E02A8B3B8B0E94981E3B8962
S1132C402A89421453046CF04C855D854215530562
S1132C5044F4EE85FF85E20FF31FE60DF71D818135
S1132C6001C080E351E0251A31082F5F3F4F4889A6
S1132C705989241635064CF0B60190E02A8B3B8B1B
S1132C800E94981E2A893B89CFCF2414350439F435
S1132C909A81963318F4953311F404FF81E3B60155
S1132CA090E04BC08A81813309F00F7EB60190E039
S1132CB00E94981E111105C034FC18C085E690E0EE
S1132CC017C0B6018EE290E00E94981E82E0EE24C6
S1132CD0E394E80EF301E80FF11D8081B60190E062
S1132CE00E94981E11508E2D91F7E6CF85E490E056
S1132CF0B6010E94981E57FC05C04114510439F4D2
S1132D0004FF05C05194419451088DE201C08BE247
S1132D10B60190E00E94981E80E39AE0491651049F
S1132D202CF08F5F5AE0451A5108F7CFB60190E0B6
S1132D300E94981EB601C201C0960E94981E57C1F7
S1132D40833631F0833779F0833509F058C021C0D8
S1132D505201E2E0AE0EB11CF2018081898301E0F0
S1132D6010E0230114C05201F2E0AF0EB11CF201D5
S1132D704080518026FF03C0612F70E002C06FEFD6
S1132D807FEFC2012A8B0E948D1E8C012A892F7726
S1132D9015C05201F2E0AF0EB11CF2014080518027
S1132DA026FF03C0612F70E002C06FEF7FEFC20106
S1132DB02A8B0E94821E8C012A892068322E23FDD0
S1132DC01AC08F2D90E008171907A8F4B60180E205
S1132DD090E00E94981EFA94F4CFF20137FC85919A
S1132DE037FE81912F01B60190E00E94981EF110E8
S1132DF0FA94015011090115110579F7F8C08436C8
S1132E0011F0893659F5520127FF09C0F4E0AF0EDD
S1132E10B11CF20160817181828193810AC0F2E068
S1132E20AF0EB11CF20160817181072E000C880B7A
S1132E30990B2F76322E97FF09C090958095709547
S1132E4061957F4F8F4F9F4F2068322E2AE030E0EC
S1132E50A3010E94E61EE82EE6183FC0022F853724
S1132E6021F40F7E2AE030E01DC0097F8F3691F0F7
S1132E7018F4883559F0C5C0803719F0883711F037
S1132E80C0C0006104FF09C0046007C024FF08C07B
S1132E90066006C028E030E005C020E130E002C052
S1132EA020E132E0520107FF09C0F4E0AF0EB11C8B
S1132EB0F201608171818281938108C0F2E0AF0EDA
S1132EC0B11CF2016081718180E090E0A3010E9455
S1132ED0E61EE82EE6180F77302E36FE0BC0332D93
S1132EE03E7FE11650F434FE0AC032FC08C0332D94
S1132EF03E7E05C00E2D332D03C00E2D01C0012FC3
S1132F0034FF0CC0FE01EE0DF11D8081803311F4FD
S1132F10397E08C032FF05C00E5F04C0832F867857
S1132F2009F00F5F33FD13C030FF06C01E2D0F15CF
S1132F3018F41F0D101B0F2D0F1568F4B60180E255
S1132F4090E03B8B0E94981E0F5F3B89F5CF0F15D5
S1132F5010F4F01A01C0F12C34FF12C0B60180E362
S1132F6090E03B8B0E94981E3B8932FF17C031FDD5
S1132F7003C088E790E002C088E590E0B6010CC089
S1132F80832F867859F031FF02C08BE201C080E2C2
S1132F9037FD8DE2B60190E00E94981EE11638F4E8
S1132FA0B60180E390E00E94981E1150F7CFEA9496
S1132FB0F301EE0DF11D8081B60190E00E94981E90
S1132FC0E110F5CF14C0F4E0FF1558F584E0F81AC9
S1132FD033FE1EC0211026C003FF2AC00EEF10E0EE
S1132FE0F32DF0713F2EF8018491811124C0FF204C
S1132FF009F4E5CCB60180E290E00E94981EFA94B0
S1133000F6CFF6018681978126C08FEF9FEF23C00C
S1133010B60180E290E00E94981EFA94F110F8CF75
S1133020D9CFF12CB601822D90E00E94981ED4CF06
S113303002E011E0D5CF31108052B60190E00E9439
S1133040981E0F5F1F4FCFCF23E02F1510F483E09E
S1133050BECFF12CC1CF6396E2E10C94531C0E94C5
S113306043180C9424190E941D1958F00E94161933
S113307040F029F45F3F29F00C940D1951110C9480
S113308058190C9413190E94351968F39923B1F354
S1133090552391F3951B550BBB27AA27621773077A
S11330A0840738F09F5F5F4F220F331F441FAA1F0E
S11330B0A9F335D00E2E3AF0E0E832D091505040CA
S11330C0E695001CCAF72BD0FE2F29D0660F771F78
S11330D0881FBB1F261737074807AB07B0E809F05E
S11330E0BB0B802DBF01FF2793585F4F3AF09E3FE3
S11330F0510578F00C940D190C9458195F3FE4F3C2
S1133100983ED4F3869577956795B795F7959F5F25
S1133110C9F7880F911D9695879597F90895E1E071
S1133120660F771F881FBB1F621773078407BA07D0
S113313020F0621B730B840BBA0BEE1F88F7E0952B
S113314008950E943D1988F09F5798F0B92F992748
S1133150B751B0F0E1F0660F771F881F991F1AF07E
S1133160BA95C9F714C0B13091F00E945719B1E073
S113317008950C945719672F782F8827B85F39F072
S1133180B93FCCF3869577956795B395D9F73EF417
S113319090958095709561957F4F8F4F9F4F0895BF
S11331A0E89409C097FB3EF49095809570956195DD
S11331B07F4F8F4F9F4F9923A9F0F92F96E9BB2793
S11331C09395F695879577956795B795F111F8CF0F
S11331D0FAF4BB0F11F460FF1BC06F5F7F4F8F4F7A
S11331E09F4F16C0882311F096E911C0772321F070
S11331F09EE8872F762F05C0662371F096E8862F08
S113320070E060E02AF09A95660F771F881FDAF75E
S1133210880F9695879597F9089597F99F6780E8A1
S113322070E060E008959FEF80EC089500240A9414
S11332301616170618060906089500240A9412168D
S11332401306140605060895092E0394000C11F4C0
S1133250882352F0BB0F40F4BF2B11F460FF04C06D
S11332606F5F7F4F8F4F9F4F089557FD9058440FC6
S1133270551F59F05F3F71F04795880F97FB991FD1
S113328061F09F3F79F0879508951216130614068E
S1133290551FF2CF4695F1DF08C01616170618061B
S11332A0991FF1CF86957105610508940895E894F6
S11332B0BB2766277727CB0197F908950E943D190C
S11332C0A8F19E57B0F1985160F039F1983070F53B
S11332D0092E9927660F771F881F991F0A94D1F723
S11332E01CC0BB27993F4CF4B111B1E0B62B672F3A
S11332F0782F8827985FB1F708C0869577956795EA
S1133300B79508F4B1609395C1F7BB0F30F411F48D
S113331060FF03C06F5F7F4F8F4F3EF490958095A1
S1133320709561957F4F8F4F9F4F089568940C94CB
S113333058190C9457190E94AE190C9424190E9420
S1133340161938F00E941D1920F0952311F00C94E1
S11333500D190C94131911240C9458190E94351941
S113336070F3959FC1F3950F50E0551F629FF001D4
S1133370729FBB27F00DB11D639FAA27F00DB11DED
S1133380AA1F649F6627B00DA11D661F829F222776
S1133390B00DA11D621F739FB00DA11D621F839FFD
S11333A0A00D611D221F749F3327A00D611D231FD3
S11333B0849F600D211D822F762F6A2F11249F5721
S11333C050409AF0F1F088234AF0EE0FFF1FBB1F24
S11333D0661F771F881F91505040A9F79E3F5105E3
S11333E080F00C940D190C9458195F3FE4F3983E47
S11333F0D4F3869577956795B795F795E7959F5F8D
S1133400C1F7FE2B880F911D9695879597F908951E
S1133410FA01EE0FFF1F309621053105A1F1611568
S1133420710561F48038BFE39B0749F168949038D3
S1133430810561F08038BFEF9B0741F099234AF57D
S1133440FF3FE1053105210519F1E8940894E7955A
S1133450D901AA2329F4AB2FBE2FF85FD0F310C0F3
S1133460FF5F70F4A695E0F7F73950F019F0FF3AD2
S113347038F49F779F930DD00F9007FC90580895D0
S113348046F00C94131960E070E080E89FE308951F
S11334904FE79F775F934F933F932F930E94031BB4
S11334A02F913F914F915F910E949B190C94601A48
S11334B029F416F00C940D190C9457190C94131943
S11334C00E943D19A8F39638A0F707F80F92E894E4
S11334D02BE33AEA48EB5FE70E94B1190F920F928F
S11334E00F924DB75EB70F920E944B1BECE7F0E0D2
S11334F00E94921A4F915F91EF91FF91E595EE1F13
S1133500FF1F49F0FE57E0684427EE0F441FFA9569
S1133510E1F74195550B0E94C51A0F9007FE0C94D4
S1133520B91A0895DF93CF931F930F93FF92EF92ED
S1133530DF927B018C01689406C0DA2EEF010E94B1
S1133540AE19FE01E894A5912591359145915591C7
S1133550A6F3EF010E94971BFE019701A801DA94DC
S113356069F7DF90EF90FF900F911F91CF91DF915A
S113357008959B01AC0160E070E080E89FE30C9447
S11335802F180C940D190C94EC1B0E943D19D8F3C0
S11335909923C9F3940F511DA3F39150504094F013
S11335A059F0882332F0660F771F881F91505040DE
S11335B0C1F79E3F51052CF7880F911D969587956D
S11335C097F908955F3FACF0983E9CF0BB27869531
S11335D077956795B79508F4B1609395C1F7BB0FDC
S11335E058F711F460FFE8CF6F5F7F4F8F4F9F4F05
S11335F0E3CF0C94581916F00C94EC1B0C9413198B
S113360068940C940D190E943D19A8F39923C1F3F1
S1133610AEF3DF93CF931F930F93FF92C92FDD2750
S113362088232AF02197660F771F881FDAF720E096
S113363030E040E85FEB9FE3883920F0803E38F0CB
S113364021968F770E94801BE4EAF0E004C00E9478
S1133650801BE1EDF0E00E94921A8B01BE01EC01A7
S1133660FB2E6F5771097595771F880B990B0E9474
S1133670D21828E132E741E35FE30E94AE19AF2D8F
S11336809801AE01FF900F911F91CF91DF910E949D
S1133690971B0C942419FA01DC01AA0FBB1F9B0190
S11336A0AC01BF5728F4222733274427507820C081
S11336B0B75190F4AB2F0024469537952795011CFC
S11336C0A395D2F3002071F0220F331F441FB3954A
S11336D0DAF30ED00C947F1B61307105A0E88A07E1
S11336E0B94630F49B01AC01662777278827907888
S11336F0309621F0208331834283538308955058B8
S1133700BB27AA270E94971B0C9424190E94161900
S113371038F00E941D1920F039F49F3F19F426F463
S11337200C9413190EF4E095E7FB0C940D19E92F92
S11337300E94351958F3BA1762077307840795076F
S113374020F079F4A6F50C9457190EF4E0950B2E9D
S1133750BA2FA02D0B01B90190010C01CA01A001DF
S11337601124FF27591B99F0593F50F4503E68F13A
S11337701A16F040A22F232F342F4427585FF3CF7B
S1133780469537952795A795F0405395C9F77EF44C
S11337901F16BA0B620B730B840BBAF09150A1F095
S11337A0FF0FBB1F661F771F881FC2F70EC0BA0F1B
S11337B0621F731F841F48F4879577956795B795A3
S11337C0F7959E3F08F0B0CF9395880F08F099279E
S11337D0EE0F9795879508959F3F31F0915020F40F
S11337E0879577956795B795880F911D96958795D9
S11337F097F90895DB018F939F930E942C1CBF912E
S1133800AF91A29F800D911DA39F900DB29F900D2B
S113381011240895A1E21A2EAA1BBB1BFD010DC0A1
S1133820AA1FBB1FEE1FFF1FA217B307E407F5076C
S113383020F0A21BB30BE40BF50B661F771F881F48
S1133840991F1A9469F760957095809590959B01DE
S1133850AC01BD01CF0108950E946E1CA59F900D7F
S1133860B49F900DA49F800D911D112408952F9253
S11338703F924F925F926F927F928F929F92AF92FC
S1133880BF92CF92DF92EF92FF920F931F93CF9349
S1133890DF93CDB7DEB7CA1BDB0B0FB6F894DEBFE0
S11338A00FBECDBF09942A88398848885F846E8406
S11338B07D848C849B84AA84B984C884DF80EE8050
S11338C0FD800C811B81AA81B981CE0FD11D0FB659
S11338D0F894DEBF0FBECDBFED010895A29FB001E5
S11338E0B39FC001A39F700D811D1124911DB29F30
S11338F0700D811D1124911D0895CF93DF938230A3
S1133900910510F482E090E0E0914002F0914102D0
S113391020E030E0C0E0D0E0309711F140815181E7
S113392048175907C0F04817590761F482819381F9
S1133930209719F09B838A832BC090934102809334
S1133940400226C02115310519F04217530718F417
S11339509A01BE01DF01EF010280F381E02DDCCF8B
S11339602115310509F1281B390B2430310590F458
S113397012968D919C9113976115710521F0FB01AD
S11339809383828304C09093410280934002FD019B
S1133990329644C0FD01E20FF31F819391932250AC
S11339A031092D933C933AC020913E0230913F025D
S11339B0232B41F42091190130911A0130933F02D5
S11339C020933E02209117013091180121153105F1
S11339D041F42DB73EB740911B0150911C01241BAB
S11339E0350BE0913E02F0913F02E217F307A0F499
S11339F02E1B3F0B2817390778F0AC014E5F5F4F41
S1133A002417350748F04E0F5F1F50933F02409331
S1133A103E028193919302C0E0E0F0E0CF01DF9198
S1133A20CF9108950F931F93CF93DF93009709F4D9
S1133A308CC0FC01329713821282009140021091D3
S1133A4041020115110581F420813181820F931FF8
S1133A5020913E0230913F022817390779F5F093FF
S1133A603F02E0933E0271C0D80140E050E0AE173F
S1133A70BF0750F412962D913C911397AD01211577
S1133A80310509F1D901F3CF9D01DA013383228392
S1133A9060817181860F971F8217930769F4EC0187
S1133AA028813981260F371F2E5F3F4F31832083B2
S1133AB08A819B8193838283452B29F4F09341026D
S1133AC0E093400242C01396FC93EE931297ED01EB
S1133AD0499159919E01240F351FE217F30771F4A0
S1133AE080819181840F951F029611969C938E93E9
S1133AF08281938113969C938E931297E0E0F0E079
S1133B00D80112968D919C911397009719F0F801A2
S1133B108C01F6CF8D919C9198012E5F3F4F820FBF
S1133B20931F20913E0230913F022817390769F410
S1133B30309729F4109241021092400202C013827D
S1133B40128210933F0200933E02DF91CF911F91A6
S1133B500F910895283008F027E03327DA01990FF0
S1133B60311D87FD916000966105710539F432605D
S1133B702E5F3D9330E32A95E1F708959F3F30F09F
S1133B8080387105610509F03C5F3C5F3D939130DD
S1133B9008F08068911DDF93CF931F930F93FF92DA
S1133BA0EF92192F987F9695E92F96959695E90FA0
S1133BB0FF27E05AFE4F99273327EE24FF24A7015D
S1133BC0E70105900894079428F4360FE71EF81EC1
S1133BD0491F511D660F771F881F991F0694A1F76F
S1133BE00590079428F4E70EF81E491F561FC11DBF
S1133BF0770F881F991F661F0694A1F705900794F5
S1133C0028F4F80E491F561FC71FD11D880F991F8E
S1133C10661F771F0694A1F70590079420F4490FB7
S1133C20561FC71FD81F990F661F771F881F06943A
S1133C30A9F784911095177041F0D695C7955795BB
S1133C404795F794E7941A95C1F7E6E0F1E0689494
S1133C501590159135916591959105907FE2739535
S1133C60E118F10A430B560BC90BD009C0F7E10C5C
S1133C70F11E431F561FC91FD01D7EF4703311F46B
S1133C808A95E6CFE894015030F0080F0AF4002733
S1133C90021708F4202F2395022F7A3328F079E3B2
S1133CA07D932A95E9F710C07D932A9589F60694A9
S1133CB097956795379517951794E118F10A430B73
S1133CC0560BC90BD00998F023957E9173957A33DE
S1133CD008F070E37C932013B8F77E9170617D93B4
S1133CE030F0839571E37D9370E32A95E1F7112415
S1133CF0EF90FF900F911F91CF91DF91992787FD4E
S1133D0090950895FC010590615070400110D8F71A
S1133D10809590958E0F9F1F0895FC01615070400F
S1133D2001900110D8F7809590958E0F9F1F0895EC
S1133D300F931F93CF93DF93FB01238121FD03C0D6
S1133D408FEF9FEF28C022FF16C046815781248140
S1133D5035814217530744F4A081B1819D012F5F3F
S1133D603F4F318320838C93268137812F5F3F4FD0
S1133D703783268310C0EB01092F182F0084F185A7
S1133D80E02D0995892BE1F68E819F8101969F8311
S1133D908E83812F902FDF91CF911F910F910895E2
S1133DA0A0E0B0E0E6EDFEE10C94471CAE014B5FF1
S1133DB05F4FFA0161917191AF018091440290913A
S1133DC045020E94B314E2E00C94631CFA01AA2792
S1133DD0283051F1203181F1E8946F936E7F6E5F4A
S1133DE07F4F8F4F9F4FAF4FB1E03ED0B4E03CD0F8
S1133DF0670F781F891F9A1FA11D680F791F8A1FDB
S1133E00911DA11D6A0F711D811D911DA11D20D041
S1133E1009F468943F912AE0269F11243019305DFB
S1133E203193DEF6CF010895462F4770405D4193EC
S1133E30B3E00FD0C9F7F6CF462F4F70405D4A3339
S1133E4018F0495D31FD4052419302D0A9F7EACF01
S1133E50B4E0A6959795879577956795BA95C9F730
S1133E6000976105710508959B01AC010A2E069423
S1133E705795479537952795BA95C9F7620F731FDC
S10F3E80841F951FA01D0895F894FFCF27
S1133E8C1F0000000200000000830B00000000185B
S1133E9C0C041060C08020000048022000686920D7
S1133EAC61766500426967204170706C65204D61D4
S1133EBC63696E746F73683A202564004D696C6590
S1093ECC793A2025640090
S9030000FC
