:100000000C940B030C9428030C9428030C942803E1
:100010000C94F9090C94220A0C944B0A0C94740A5F
:100020000C9428030C94DA080C9403090C942C0902
:100030000C94A7090C9455090C947E090C94D009D2
:100040000C945F080C9488080C94B1080C94280355
:100050000C9428030C9428030C9428030C94280374
:100060000C9428030C9428030C9428030C94280364
:100070000C9428030C9428030C942803076342363D
:10008000B79BD8A71A39685618AEBAAB558C1D3C29
:10009000B7CC5763BD6DEDFD753EF6177231BF00ED
:1000A0000000803F08000000BE922449123EABAA27
:1000B000AA2ABECDCCCC4C3E00000080BEABAAAA82
:1000C000AA3E00000000BF000000803F00000000CA
:1000D00000084178D3BB4387D1133D190E3CC3BD03
:1000E0004282AD2B3E68EC8276BED98FE1A93E4CB0
:1000F00080EFFFBE01C4FF7F3F00000000006E6183
:100100006E00696E660000407A10F35A00A0724ECD
:1001100018090010A5D4E80000E87648170000E4AC
:100120000B54020000CA9A3B000000E1F5050000F4
:1001300080969800000040420F000000A086010059
:100140000000102700000000E80300000000640029
:10015000000000000A000000000001000000000094
:100160002C76D888DC674F0823DFC1DFAE59E1B1B8
:10017000B796E5E3E453C63AE651997696E8E6C2C7
:100180008426EB898C9B62ED407C6FFCEFBC9C9FCE
:1001900040F2BAA56FA5F490055A2AF75C936B6CF0
:1001A000F9676DC11BFCE0E40D47FEF520E6B500E4
:1001B000D0ED902E0300943577050080841E080052
:1001C00000204E0A000000C80C333333330F986E02
:1001D00012831141EF8D2114893BE65516CFFEE6BF
:1001E000DB18D1844B381BF77C1D901DA4BBE42485
:1001F000203284725E228100C9F124ECA1E53D2702
:1002000016050100000000000000FA000000E000F8
:10021000E00028FE28FE282454FE5448C4C81026B6
:10022000466C92AA44A000A0C0000000384482009E
:10023000008244380028107C102810107C10100018
:100240000A0C000010101010100006060000040830
:100250001020407C8A92A27C0042FE020042868AE4
:1002600092628482A2D28C182848FE08E4A2A2A23C
:100270009C3C5292920C808E90A0C06C9292926C98
:100280006092929478006C6C0000006A6C00001020
:1002900028448200282828282800824428104080EA
:1002A0008A90604C929E827C7E8888887EFE9292A4
:1002B000926C7C82828244FE82824438FE929292C8
:1002C00082FE909090807C8292925EFE101010FED2
:1002D0000082FE8200040282FC80FE10284482FE1E
:1002E00002020202FE403040FEFE201008FE7C8228
:1002F00082827CFE909090607C828A847AFE9098C4
:100300009462629292928C8080FE8080FC02020253
:10031000FCF8040204F8FC021C02FCC6281028C6E3
:10032000E0100E10E0868A92A2C200FE8282004097
:1003300020100804008282FE00204080402002023B
:100340000202020080402000042A2A2A1EFE1222F5
:10035000221C1C222222041C222212FE1C2A2A2ACF
:1003600018107E908040304A4A4A7CFE1020201EA1
:100370000022BE0200040222BC00FE08142200007B
:1003800082FE02003E2018201E3E1020201E1C224D
:1003900022221C3E28282810102828183E3E102013
:1003A0002010122A2A2A0420FC2202043C02020401
:1003B0003E38040204383C020C023C221408142289
:1003C000300A0A0A3C22262A322200106C820000DF
:1003D00000FE000000826C100008101008100000E1
:1003E0000000007F8181817F7F8383837F7F878778
:1003F000877F7F8F8F8F7F7F9F9F9F7F7FBFBFBFB5
:100400007F7FFFFFFF7F2040FF40206215171565AB
:1004100000FBFB00000000000000C0FF0300E0FF45
:100420000700F0FF0F00F8FF1F0078001E007800A3
:100430001E0078001E0078001E0078001E00780064
:100440001E0078001E0078001E0078001E000000CC
:1004500000000000000080FF0300E0FF0700F0FF45
:100460000F00F8FF1F00F83C1F00783C1E00783C8E
:100470001E00783C1E00783C1E00783C1E00783C34
:100480001E00783C1E00783C1E00783C1E00783C24
:100490001E000000000000000000E0FF0300F0FF6D
:1004A0000700F8FF0F00F8FF1F00783C1E00783CA3
:1004B0001E00783C1E00783C1E00783C1E00783CF4
:1004C0001E00783C1E00783C1E00783C1E00783CE4
:1004D0001E000000000000000000F8FF0300F8FF0D
:1004E0000F00F8FF1F00F8FF1F0000001E000000B3
:1004F0001E0000801F0000F01F0000FF0F00E0FF43
:100500000700F0FF0000F80F0000F800000078007E
:10051000000078000000F8FF1F00F8FF1F00F0FF48
:100520001F00E0FF1F000000000000000000F8FFB7
:100530001F00F8FF1F00F8FF1F00F8FF1F007800E2
:100540001E00783C1E00783C1E00783C1E00783C63
:100550001E00783C1E00783C1E00F87E1F00F8FF4D
:100560001F00F0FF0F00E0E70300000000000000A4
:100570003800EEFF6C002A8045003A0047FC03FF7C
:100580006CFC83FF3900DEFF0B7CD0810BFCD0813B
:100590000BC0D0810BFCD0810B7CDEFF0B0082FFF7
:1005A000397002FF6CF83A0047DC2A8045CCEEFF38
:1005B0006CCC000038000000000C00001E0C000095
:1005C0001E0000001E0000001E0000001E00F8FFBC
:1005D0001F00F8FF1F00F8FF1F00F8FF1F000000BA
:1005E0001E0000001E0000001E0000001E00000093
:1005F0005E000000400000007C00000040000000A1
:10060000400000007C0000003000000010000000EE
:10061000300000007C0011241FBECFEFD8E0DEBF09
:10062000CDBF11E0A0E0B1E0ECE6FCE302C0059034
:100630000D92A633B107D9F722E0A6E3B1E001C0DD
:100640001D92AA33B207E1F70E942A030C94341ECC
:100650000C9400000E945D080E944F080E94A513A0
:1006600080E090E008950F931F9385E00E94490574
:100670008823C1F080E460E00E94300400E0802F15
:1006800060E00E94DB0310E080E061E00E94300443
:100690001F5F1038C9F70F5F043089F783E060E00F
:1006A0000E941E041F910F9108950F931F9385E0E0
:1006B0000E943C05882311F082E07AC00E948304E6
:1006C000182F0E9455051150123008F06DC081504E
:1006D000823008F069C00E944B048EEA60E00E94FC
:1006E000300482EA60E00E94300480EA60E00E9408
:1006F000300400E513ECC8010197F1F780EC60E0ED
:100700000E9430048FE260E00E94300481E860E0E3
:100710000E94300486E160E00E94300482E260E0E2
:100720000E943004C8010197F1F78FEA60E00E944F
:10073000300486EA60E00E94300485EA60E00E94AE
:10074000300480E090E028E833E1F9013197F1F7D7
:10075000019643E0883E9407C1F783EB60E00E9476
:10076000300480E460E00E94300483E060E00E9496
:10077000DB0383E060E00E941E041092D20110921D
:10078000D4011092D30180E091E0909337028093DE
:10079000360288E10E94FD030E94330384EA60E090
:1007A0000E94300481E004C085E00E942C0587E0AF
:1007B0001F910F910895FF920F931F93082FF62E0C
:1007C00085E00E9449058823A1F01F2D1F77037043
:1007D000802F806B60E00E94300412951F70812F83
:1007E000806160E00E9430048F2D8F7060E00E9475
:1007F00030041F910F91FF9008951F93182F85E0EB
:100800000E9449058823C1F087E00E94C50482E068
:100810006AE00E94160582E061EB0E941605612FD6
:10082000113208F060E282E00E94160589EE8A9596
:10083000F1F787E00E94C5041F9108950F931F935D
:10084000082F162F85E00E944905882331F0037098
:100850001F771093D0010093D1011F910F9108953C
:100860000F931F93082F162F85E00E9449058823B8
:1008700079F0112319F0113021F402C02B9801C036
:100880002B9A86E08A95F1F780E0602F0E9416058A
:100890001F910F910895239A08951F93182F86E0B2
:1008A0000E944905882319F0812F0E9470041F912E
:1008B000089586E00E943C05882311F082E00895A7
:1008C0000E94750481E008951F93182F86E00E940E
:1008D0004905882319F0812F0E947E041F910895F5
:1008E00085FD5D9886FD5E980895559A569A80E23A
:1008F0000E944D0480E40E944D04089585FD5D9A98
:1009000086FD5E9A089582E00E943C05882311F0DE
:1009100082E008950E94250580E061ED7BE00E9461
:10092000BC0481E069EC7BE00E94BC0482E061ECE5
:100930007BE00E94BC0486E069ED7BE00E94BC0481
:1009400083E069EB7BE00E94BC0484E069EB7BE020
:100950000E94BC0485E069EB7BE00E94BC0487E058
:1009600069EB7BE00E94BC048FEF8093D50187E0A8
:100970000E94C50481E00895E82FF0E0EE0FFF1F0C
:10098000EA58FE4F7183608308951F93182F82E009
:100990000E944905882309F447C0912F97708091E0
:1009A000D501981709F440C09093D50185B1887F8F
:1009B000892B85B9933011F1943028F4913051F09E
:1009C000923090F40CC0953019F19530E0F09630EB
:1009D00021F50FC0E0917801F091790122C0E091FA
:1009E0007601F09177011DC0E0917A01F0917B01D1
:1009F00018C0E0918201F091830113C0E0917C0165
:100A0000F0917D010EC0E0917E01F0917F0109C05F
:100A1000E0918001F091810104C0E0918401F091A6
:100A20008501309709F009951F9108951F93162F9E
:100A30000E94C50482E00E944905882321F01EBD62
:100A40000DB407FEFDCF1F910895259A2698279A89
:100A5000209A219A229A0895853160F4E82FF0E0D7
:100A6000E156FE4F8081882329F080818150808368
:100A7000808108958FEF0895853110F080E008950A
:100A8000E82FF0E0E156FE4F80818F5F8083815038
:100A90000895853110F080E00895E82FF0E0E156E8
:100AA000FE4F8081811181E00895DF93CF9300D0C4
:100AB0000F92CDB7DEB781E00E943C05882311F08C
:100AC00082E011C00E9483048150823040F40E9471
:100AD0007905CE0101960E94680D81E004C081E095
:100AE0000E942C0587E00F900F900F90CF91DF911F
:100AF00008951092EB011092EA011092ED0110920C
:100B0000EC011092EF011092EE011092F10110929F
:100B1000F0011092F3011092F20180E991E09093BC
:100B2000D7018093D6019093D9018093D8019093F7
:100B3000DB018093DA019093DD018093DC019093D7
:100B4000DF018093DE0184E398E09093E1018093DC
:100B5000E0019093E3018093E2019093E50180939B
:100B6000E4019093E7018093E6019093E90180937B
:100B7000E8010895CF92DF92EF92FF920F931F93B7
:100B8000CF93DF937B018C01EA01690181E0E816D4
:100B900081EEF80680E0080780E0180740F444E0A2
:100BA000EE0CFF1C001F111F4A95D1F707C033E060
:100BB000EE0CFF1C001F111F3A95D1F760E072EC9C
:100BC0008BEE9BE0A80197010E94FA1A79018A0135
:100BD00086EF9FEFAFEFBFEFE80EF91E0A1F1B1F56
:100BE000C801B7012AE030E040E050E00E94FA1A64
:100BF000653071058105910540F08AE090E0A0E044
:100C0000B0E0E80EF91E0A1F1B1FC801B7012AE059
:100C100030E040E050E00E94FA1AC901DA0128836E
:100C2000892F9A2FAB2FBB27F6018083DF91CF91BD
:100C30001F910F91FF90EF90DF90CF900895BF929A
:100C4000CF92DF92EF92FF920F931F93DF93CF9398
:100C500000D0CDB7DEB7B62EC42ED22E882321F019
:100C6000813009F077C03CC08DE00E94490588239F
:100C700009F470C01A8219821092C0001092C1004B
:100C80001092C200C801B701AE014E5F5F4F9E01D6
:100C90002F5F3F4F0E94BA05BB0CDD0CDD0CDD0C55
:100CA000DD0CDB28CC0CCC0CCC0CCD288A818093BD
:100CB000C40089818093C500C092C20081E0E8161B
:100CC00081EEF80680E0080780E0180728F08091A0
:100CD000C00082608093C00081E08093C8013AC068
:100CE0008EE00E9449058823A9F119821A82109288
:100CF000C8001092C9001092CA00C801B701AE0125
:100D00004F5F5F4F9E012E5F3F4F0E94BA05BB0CA5
:100D1000DD0CDD0CDD0CDD0CDB28CC0CCC0CCC0CA4
:100D2000CD2889818093CC008A818093CD00C092A8
:100D3000CA0081E0E81681EEF80680E0080780E04E
:100D4000180728F08091C80082608093C80081E075
:100D50008093CD010F900F90CF91DF911F910F9154
:100D6000FF90EF90DF90CF90BF900895882319F007
:100D70008130A1F408C08DE00E944905882371F0FC
:100D80008091C00007C08EE00E944905882331F0A1
:100D90008091C800881F8827881F089580E00895E3
:100DA000882321F08130B9F084E008958DE00E941D
:100DB0003C05882369F51092C8011092C601109273
:100DC000C7010E94420880E065E070E00E94EC07E5
:100DD0008DEB91E015C08EE00E943C058823C1F4A4
:100DE0001092CD011092CB011092CC0181E00E94B3
:100DF000420881E065E070E00E94EC0784EB91E03E
:100E000061E041E028EE33E00E94D20D81E00895D8
:100E100082E00895CF93DF93EB01882321F08130A6
:100E200009F046C022C08DE00E944905882309F4DC
:100E30003FC02091C9013091CA018091C701813022
:100E4000B9F50FC08091C301882321F021503040B3
:100E50001092C3018091C00087FF03C08091C6003B
:100E600020C01216130674F325C08EE00E944905B7
:100E70008823F1F02091CE013091CF018091CC01F7
:100E80008130B1F411C08091BA01882321F0215042
:100E900030401092BA018091C80087FF05C0809150
:100EA000CE00888380E007C01216130664F302C0E8
:100EB00081E001C083E0DF91CF9108950F931F93EC
:100EC000182F062F882311F48DE003C0813029F4F8
:100ED0008EE00E9449058823A9F10023F9F0013032
:100EE00089F5112319F0113069F50CC08091C80102
:100EF000813041F58091C10080618093C1000093F1
:100F0000C70120C08091CD018130E1F48091C900FA
:100F100080618093C9000093CC0114C0112319F0A3
:100F2000113081F408C08091C1008F7E8093C10090
:100F30001092C70107C08091C9008F7E8093C900BD
:100F40001092CC011F910F9108950F931F93182FAA
:100F5000062F882311F48DE003C0813029F48EE040
:100F60000E9449058823A9F10023F9F0013089F591
:100F7000112319F0113069F50CC08091C80181303E
:100F800041F58091C10088608093C1000093C60143
:100F900020C08091CD018130E1F48091C90088604A
:100FA0008093C9000093CB0114C0112319F01130B4
:100FB00081F408C08091C100877F8093C1001092A6
:100FC000C60107C08091C900877F8093C900109235
:100FD000CB011F910F91089577FF03C060E070E08F
:100FE00005C06F31710514F06EE170E0882319F0CF
:100FF000813051F405C07093CA016093C90108950E
:101000007093CF016093CE0108951F93162F88230C
:1010100019F08130A1F519C08DE00E94490588239F
:1010200071F18091C601813051F58091C00085FF3A
:10103000FCCF1093C6008091C00086FFFCCF80914A
:10104000C00080648093C00018C08EE00E944905F3
:101050008823A9F08091CB01813089F48091C80068
:1010600085FFFCCF1093CE008091C80086FFFCCF97
:101070008091C80080648093C80080E001C081E056
:101080001F910895882319F0813041F404C0519ACA
:101090005098599A0895539A52985B9A08950E94CD
:1010A000510D0E945B0B0E949D0A0E94100E0E942F
:1010B00083040E94550578940895000008951F92B6
:1010C0000F920FB60F9211242F933F934F935F937C
:1010D0006F937F938F939F93AF93BF93EF93FF9300
:1010E000E0915601F0915701309709F00995FF9171
:1010F000EF91BF91AF919F918F917F916F915F9190
:101100004F913F912F910F900FBE0F901F90189508
:101110001F920F920FB60F9211242F933F934F936C
:101120005F936F937F938F939F93AF93BF93EF934F
:10113000FF93E0915801F0915901309709F009951A
:10114000FF91EF91BF91AF919F918F917F916F919F
:101150005F914F913F912F910F900FBE0F901F9075
:1011600018951F920F920FB60F9211242F933F9351
:101170004F935F936F937F938F939F93AF93BF939F
:10118000EF93FF93E0915A01F0915B01309709F0E2
:101190000995FF91EF91BF91AF919F918F917F91B1
:1011A0006F915F914F913F912F910F900FBE0F90D4
:1011B0001F9018951F920F920FB60F9211242F9324
:1011C0003F934F935F936F937F938F939F93AF93CF
:1011D000BF93EF93FF93E0914801F091490130975D
:1011E00009F00995FF91EF91BF91AF919F918F9178
:1011F0007F916F915F914F913F912F910F900FBE13
:101200000F901F9018951F920F920FB60F921124F6
:101210002F933F934F935F936F937F938F939F93FE
:10122000AF93BF93EF93FF93E0914A01F0914B018D
:10123000309709F00995FF91EF91BF91AF919F9180
:101240008F917F916F915F914F913F912F910F906F
:101250000FBE0F901F9018951F920F920FB60F920E
:1012600011242F933F934F935F936F937F938F93AB
:101270009F93AF93BF93EF93FF93E0914C01F09155
:101280004D01309709F00995FF91EF91BF91AF9112
:101290009F918F917F916F915F914F913F912F918E
:1012A0000F900FBE0F901F9018951F920F920FB6C0
:1012B0000F9211242F933F934F935F936F937F93DC
:1012C0008F939F93AF93BF93EF93FF93E091500160
:1012D000F0915101309709F00995FF91EF91BF917D
:1012E000AF919F918F917F916F915F914F913F91BE
:1012F0002F910F900FBE0F901F9018951F920F9275
:101300000FB60F9211242F933F934F935F936F93D8
:101310007F938F939F93AF93BF93EF93FF93E0914E
:101320005201F0915301309709F00995FF91EF9127
:10133000BF91AF919F918F917F916F915F914F91ED
:101340003F912F910F900FBE0F901F9018951F92F5
:101350000F920FB60F9211242F933F934F935F93E9
:101360006F937F938F939F93AF93BF93EF93FF936D
:10137000E0914E01F0914F01309709F00995FF91EE
:10138000EF91BF91AF919F918F917F916F915F91FD
:101390004F913F912F910F900FBE0F901F90189576
:1013A0001F920F920FB60F9211242F933F934F93DA
:1013B0005F936F937F938F939F93AF93BF93EF93BD
:1013C000FF93E0915401F0915501309709F0099590
:1013D000FF91EF91BF91AF919F918F917F916F910D
:1013E0005F914F913F912F910F900FBE0F901F90E3
:1013F00018951F920F920FB60F9211242F933F93BF
:101400004F935F936F937F938F939F93AF93BF930C
:10141000EF93FF93E0913E01F0913F01309709F087
:101420000995FF91EF91BF91AF919F918F917F911E
:101430006F915F914F913F912F910F900FBE0F9041
:101440001F9018951F920F920FB60F9211242F9391
:101450003F934F935F936F937F938F939F93AF933C
:10146000BF93EF93FF93E0914001F09141013097DA
:1014700009F00995FF91EF91BF91AF919F918F91E5
:101480007F916F915F914F913F912F910F900FBE80
:101490000F901F9018951F920F920FB60F92112464
:1014A0002F933F934F935F936F937F938F939F936C
:1014B000AF93BF93EF93FF93E0914201F09143010B
:1014C000309709F00995FF91EF91BF91AF919F91EE
:1014D0008F917F916F915F914F913F912F910F90DD
:1014E0000FBE0F901F9018951F920F920FB60F927C
:1014F00011242F933F934F935F936F937F938F9319
:101500009F93AF93BF93EF93FF93E0914401F091CA
:101510004501309709F00995FF91EF91BF91AF9187
:101520009F918F917F916F915F914F913F912F91FB
:101530000F900FBE0F901F90189580E10E943C0500
:10154000882311F082E00895E6E3F1E01192119210
:1015500081E0E637F807D1F781E00895FF920F9315
:101560001F93CF93DF93F82E8AE0F816B1F08F1512
:1015700048F0E8E0FE16B9F1EF1538F1F7E0FF1694
:1015800051F43BC08DE0F81659F0EBE1FE1689F0FE
:10159000FCE0FF1641F001E041C01092D00103C011
:1015A0001092D0013AC08091D10181508093D10135
:1015B00034C00E94330314C080E061E00E94300414
:1015C0008091D0018F5F8093D0018091D00187FFFF
:1015D000F3CF1092D0018091D10181508093D1013D
:1015E00000E011E01CC08091D0018823B1F080910F
:1015F000D00186508093D00110C081E00E94A30CDE
:1016000064EF71E080E090E04DE750E024E630E0E8
:101610000E94AF0C81E00E940A0C00E010E0809173
:10162000D1016091D0010E94DB03002351F185E0DC
:10163000F89EC0011124EC01CD59DE4F8C010859F0
:101640001E4FFE01849161E00E9430042196C01774
:10165000D107B9F780E061E00E9430048091D001A9
:101660008A5F8093D0018091D00190E08C37910502
:101670003CF01092D0018091D10181508093D10132
:1016800011E08091D10183708093D101113059F420
:101690008091D201813039F4E091D301F091D401ED
:1016A000309709F0099580E090E0DF91CF911F918C
:1016B0000F91FF900895F8940E94B60B81E00E946C
:1016C000630B81E00895813049F0F894813020F176
:1016D0008230B1F0833009F045C017C02C9A80E801
:1016E000809361001092610080E090E0000001961C
:1016F00088329105D9F71092680010926B00089516
:1017000080E88093610083E004C080E880936100FA
:1017100088E08093610028C080E090E0000001969E
:101720002DE680369207D1F72C9880E090E00000FB
:1017300001962DE680369207D1F710927A008FEF4E
:10174000809364008091680081608093680080913C
:101750006B00846080936B00789483B7816083BF53
:1017600088950895823008F078940895249A2C9AE8
:10177000089583E58CBD81E08DBD8DE08A95F1F7FC
:10178000089583E58CBD1DBC84EF91E00197F1F7CE
:1017900008958FE78CBD1DBC84EF91E00197F1F7B0
:1017A000089583E58CBD81E08DBD8DE08A95F1F7CC
:1017B000089583E58CBD81E08DBD84EF91E00197B4
:1017C000F1F708958AE00E942C05882329F481E02E
:1017D0000E94050D10928701089589E00E942C0552
:1017E0008823B9F480918601882311F00E944B0D63
:1017F00082E00E94050D80919401909195010097DF
:1018000031F00E94021C10929501109294011092E6
:1018100086010895813029F0823029F40E94ED0B71
:1018200008950E94E20B08950F931F93CF93DF93C7
:1018300080E291E00E946D1B9C0190939501809342
:101840009401892B11F480E039C08901C0E0D0E017
:10185000BE0180E090E00E94C01720E030E040EA46
:1018600051E40E944E1727EF35E740E05FE30E9406
:101870008B189B01AC0160E070E080E291E40E9473
:10188000F8189B01AC01CA01B9012DEC3CEC42E80F
:1018900051E40E948B180E944E182AE030E040E08C
:1018A00050E00E94EA1AF801619371938193919339
:1018B0008F012196C834D10559F681E0DF91CF918F
:1018C0001F910F9108958AE00E943C05882311F032
:1018D00082E00895109291011092900181E00E949F
:1018E000210D81E08093870108951F9389E00E9474
:1018F0003C05882311F082E024C08BE00E9449055A
:101900008823D9F40E94140C182F813011F086E03E
:1019100018C0109288011092890110928A011092C9
:101920008B018DE069ED7EE00E94A40E82E00E94B2
:10193000210D1093860181E004C089E00E942C05EE
:1019400087E01F910895813021F0823029F084E0F2
:1019500008950E94630C08950E94750C08956F927B
:101960007F928F929F92AF92BF92CF92DF92EF922F
:10197000FF920F931F93CF93DF933B014C015A01CA
:10198000E9018AE00E944905882381F1209741F10D
:101990009501442737FD4095542FBE01C536D1052A
:1019A00010F064E670E080E090E00E94EA1A24E61D
:1019B00030E040E050E00E94FA1A79018A01C40147
:1019C000B3010E94DC0EC7010E94A50D60E070E02B
:1019D00080E090E00E94DC0EC5018E199F0904C0D2
:1019E000A114B10419F0C5010E94A50DDF91CF919A
:1019F0001F910F91FF90EF90DF90CF90BF90AF902D
:101A00009F908F907F906F900895823029F48091FD
:101A100081008E7F8093810080918601813031F436
:101A200080918701813011F4000008958091860132
:101A3000813021F080918701813011F45F985798AF
:101A40000895982F80918601882331F48091870131
:101A5000882311F4579A5F98809186018823D1F4E6
:101A60009230C1F410928000109281008091810028
:101A700088608093810080918100816080938100E3
:101A8000109285001092840081E08093890080E9A3
:101A9000809388000895EFE6F0E080818D7F808359
:101AA0000895CF93DF93C0E0D0E08C2F60E00E94D8
:101AB000600D2196C531D105C1F7DF91CF91089511
:101AC000853128F4E82FF0E0E156FE4F6083089559
:101AD0001F93CF93DF93EC01009799F181E00E946F
:101AE0004905882351F187E00E94C50418EC812F35
:101AF0008A95F1F782E06AE00E94160582E064EBC5
:101B00000E941605812F8A95F1F782E060E00E941D
:101B1000C90E8883812F8A95F1F782E060E00E94E8
:101B2000C90E89831A95F1F782E060E00E94C90E20
:101B30008A8387E00E94C50404C0188219828DE25E
:101B40008A83DF91CF911F9108950F931F93DF93A5
:101B5000CF93CDB7DEB729970FB6F894DEBF0FBE8F
:101B6000CDBF8C0188E00E944905882311F491E0E3
:101B70000DC0CE01019661E040E098010E94D20DB7
:101B8000982F882319F48F818823E9F3892F2996C8
:101B90000FB6F894DEBF0FBECDBFCF91DF911F917E
:101BA0000F910895EF92FF920F931F93CF93DF93BE
:101BB000EC01F62EE42E890188E00E944905882375
:101BC00011F481E026C084E090E00E946D1BFC01CE
:101BD000009711F482E01DC0F982F0FC1E8281E0C2
:101BE000E81619F4898184608983898188608983F2
:101BF0001B830A831D830C83D183C08313821282CB
:101C000081E080939601CF010E94350E10929601DB
:101C100080E0DF91CF911F910F91FF90EF90089599
:101C200088E00E943C05882311F082E0089510921C
:101C3000F4011092F6011092F501109296011092A3
:101C4000970180E161E47FE00E94B80E0E942C0EB3
:101C50000E949E0E81E0089584B5826084BD85B5A2
:101C6000846085BD8EE487BD0895CF92DF92EF92A8
:101C7000FF920F931F93CF93DF93EC018091F401B8
:101C8000882339F4D093F601C093F5010E94480FE0
:101C900047C0C090F501D090F60100E010E0EE24BE
:101CA000FF2437C0A881B981FD0164817581F601E7
:101CB00040815181FA01848195819B01281B390B58
:101CC00037FF0FC0861B970B95838483DB82CA8204
:101CD000012B29F4D093F601C093F50121C0F7013F
:101CE0000CC0F601828193812115310549F4FD0173
:101CF000158214829B838A83F601D383C28310C02A
:101D0000FD01358324830097B9F30F5F1F4F7601E0
:101D10006C018091F40190E00817190718F2ECCFDC
:101D20008091F4018F5F8093F401DF91CF911F9137
:101D30000F91FF90EF90DF90CF900895EEE6F0E0E6
:101D40008081826080830895E82F803268F480511A
:101D5000833050F0F0E0EE0FFF1FEA5CFE4F208171
:101D600031817183608302C020E030E0C9010895B1
:101D7000803218F020E030E00AC0E82FF0E0EE0FEB
:101D8000FF1FEA5CFE4F2081318171836083C901AE
:101D900008951F93162F0E94C50482E00E944905F2
:101DA000882329F01EBD0DB407FEFDCF8EB51F910F
:101DB00008950E94000F0895EF92FF920F931F93D2
:101DC0007B018C018AE00E9449058823A1F0809163
:101DD0008701882381F0D801C701880F991FAA1FA6
:101DE000BB1F9093930180939201E114F1040105CC
:101DF000110509F45F981F910F91FF90EF900895DE
:101E00008091880190918901A0918A01B0918B0104
:101E100020918C0130918D0140918E0150918F0164
:101E2000280F391F4A1F5B1F2093880130938901B7
:101E300040938A0150938B01809188019091890190
:101E4000A0918A01B0918B018851964FA040B0407B
:101E5000BCF08BB180588BB9809188019091890139
:101E6000A0918A01B0918B018851964FA040B0405B
:101E70008093880190938901A0938A01B0938B018C
:101E800008950E944C0F0E948C0F0E94650F0895C8
:101E900081E080939701089588E00E944905882396
:101EA00011F484E0089580919701882311F483E070
:101EB000089580919601882311F082E008950E9490
:101EC0002B128130E1F380E0089580918701813009
:101ED00011F58091900190919101209192013091A2
:101EE0009301280F391F3093910120939001809125
:101EF000900190919101885E93406CF08BB1805875
:101F00008BB98091900190919101885E934090935C
:101F1000910180939001089587E00E9449058823EC
:101F200009F4AAC08091010290910202892B09F163
:101F300080912502909126022091010230910202A7
:101F4000820F931F90932602809325028091250291
:101F500090912602885E9340A4F080912502909192
:101F60002602885E9340909326028093250241E0EA
:101F700009C08091F9019091FA019093FE0180933C
:101F8000FD0140E08091030290910402892B09F148
:101F9000809127029091280220910302309104023F
:101FA000820F931F9093280280932702809127022B
:101FB00090912802885E9340A4F08091270290912E
:101FC0002802885E9340909328028093270261E064
:101FD00009C08091FB019091FC01909300028093D5
:101FE000FF0160E0842F0E943D10809121029091BA
:101FF00022022091FD013091FE01280F391F3093FC
:102000002202209321028091210290912202885E77
:10201000934014F440E00BC0809121029091220281
:10202000885E9340909322028093210241E0809148
:102030002302909124022091FF0130910002280F89
:10204000391F309324022093230280912302909120
:102050002402885E934014F460E00BC08091230258
:1020600090912402885E93409093240280932302EF
:1020700061E0842F0E94821008958823F1F020915E
:10208000F9013091FA018091FD019091FE01281B28
:10209000390B1216130634F48091FD019091FE0164
:1020A000019607C0232B49F08091FD019091FE011C
:1020B00001979093FE018093FD01662311F1209119
:1020C000FB013091FC018091FF0190910002281BDF
:1020D000390B1216130654F48091FF0190910002FF
:1020E0000196909300028093FF010895232B49F0FD
:1020F0008091FF01909100020197909300028093DC
:10210000FF0108950F931F93182F062F80912D0222
:10211000882309F0E7C080911502882309F05AC08E
:102120008091FD019091FE01892BE9F48091980145
:10213000837E8093980110921E0280912902882349
:1021400009F45DC06091170280E00E940612E091E0
:102150002B02F0912C02309709F451C081E080836A
:10216000109229024CC08091F701813041F4809196
:10217000090290910A02019711F411E002C01123A3
:10218000F1F1E0911C02F0E0E25FFE4F90919801C6
:10219000937E8081892B8093980180911A028823F5
:1021A00021F480911C028F5F03C080911C0281503A
:1021B00080931C0280911C02837080931C0281E03A
:1021C00080931E028091F7018130C9F480E00E9463
:1021D000851115C090919801937E90939801E0919C
:1021E0001C02F0E0E25FFE4F8081892B8093980112
:1021F00082E080931E021092FE011092FD018091F8
:102200001602882309F059C08091FF0190910002C5
:10221000892BE9F4809198018F7180939801109235
:102220001F0280912A02882309F45CC06091180281
:1022300081E00E940612E0912B02F0912C0230976F
:1022400009F450C081E0818310922A024BC0809132
:10225000F801813041F480910B0290910C020197BA
:1022600011F401E002C00023E9F1E0911D02F0E069
:10227000EE5EFE4F909198019F718081892B809333
:10228000980180911B02882321F480911D028F5FA9
:1022900003C080911D02815080931D0280911D0218
:1022A000837080931D0281E080931F028091F8016A
:1022B0008130C1F40E94851115C0909198019F71E1
:1022C00090939801E0911D02F0E0EE5EFE4F808158
:1022D000892B8093980182E080931F021092000264
:1022E0001092FF0180912002882331F488E991E067
:1022F000612F402F0E94991288B1837090919801AC
:10230000892B88B91F910F910895882321F081307E
:1023100009F04EC027C08091090290910A02892BD2
:1023200049F08091090290910A02019790930A0264
:1023300080930902809129028823D1F52091090216
:1023400030910A0280910D0290910E0228173907F0
:1023500079F580E060E070E00E94D91181E080931F
:102360002902089580910B0290910C02892B49F06B
:1023700080910B0290910C02019790930C02809334
:102380000B0280912A02882399F420910B0230914C
:102390000C0280910F02909110022817390741F426
:1023A00081E060E070E00E94D91181E080932A0210
:1023B0000895482F81E080932D02CB0121E06139FF
:1023C000720710F080E991E0413061F0413018F07F
:1023D0004230C9F40EC0F8949093FA018093F90149
:1023E000789411C0F8949093FC018093FB01789449
:1023F0000AC0F8949093FA018093F9019093FC013C
:102400008093FB01789410922D0208950F931F93EF
:10241000182F062F662349F460E070E00E94D9115E
:10242000812F60E070E00E94311381E080932D02E3
:10243000113051F0113018F0123041F403C0009304
:10244000150204C0009315020093160210922D028B
:102450001F910F910895FF920F931F93CF93DF93D6
:102460008091F401882309F459C00091F50110917D
:10247000F601F801C081D1818C819D8101979D83F6
:102480008C83181619060CF449C0898180FF05C099
:102490008E81882311F481E08E83898181FF03C0BE
:1024A000EF81F88509958091F4018230A8F0F80158
:1024B000828193819093F6018093F50113821282B9
:1024C000E0910000F09101008481958118161906B1
:1024D0003CF0FF24F39405C01092F6011092F50130
:1024E000FF248091F40181508093F4018091F401E4
:1024F000882311F40E949612898182FF08C08A8184
:102500009B819D838C83C8010E94350E08C0C80141
:102510000E94021C89818F7E898301C0FF248F2D38
:10252000DF91CF911F910F91FF9008951092970125
:102530000895FC0180911E02823069F480919C0113
:1025400091E0892780939C01882309F03EC0808117
:10255000837E80833AC08091FD019091FE01C397F4
:10256000A4F56623D1F02091FD013091FE0180E6B3
:1025700090E0BC01269FC001279F900D369F900DD3
:102580001124880F892F881F990B90931202809332
:10259000110281E080939A0118C080919A018823EA
:1025A000A1F0809111029091120201979093120272
:1025B000809311028091110290911202892B29F4CB
:1025C0008081837E808310929A0180911F028230E5
:1025D00069F480919B0191E0892780939B01882376
:1025E00009F03EC080818F71808308958091FF0142
:1025F00090910002C397A4F54423D1F02091FF01EC
:102600003091000280E690E0AC01249FC001259F3C
:10261000900D349F900D1124880F892F881F990BDE
:10262000909314028093130281E08093990108959E
:10263000809199018823A1F0809113029091140256
:10264000019790931402809313028091130290914A
:102650001402892B29F480818F7180831092990153
:102660000895982F81E080932D02913071F0913080
:1026700018F0923071F405C070930A026093090259
:1026800008C070930A026093090270930C02609371
:102690000B0210922D020895CF93682F81E00E94C3
:1026A0000508C82F80E20E944D04C11104C080E2D9
:1026B000CF910C946404CF910895CF93DF931F9230
:1026C000CDB7DEB780E40E944D0481E00E94B606DB
:1026D000813049F480E40E946404BE016F5F7F4F43
:1026E00081E00E940A07898190E00F90DF91CF91ED
:1026F0000895CF93DF9300D000D0CDB7DEB76B83C2
:102700007C8389839A830E9433039A819F93898172
:102710008F938CE191E09F938F930E94C01D7C81E9
:102720007F936B816F9389E291E09F938F930E94D7
:10273000C01D0FB6F894DEBF0FBECDBF0F900F9037
:102740000F900F90DF91CF9108950E9455030E9442
:10275000590481E00E94D00610E8E12E15E2F12E26
:1027600000E010E020E040E063E081E00E941F060E
:1027700061E081E00E94A50761E081E00E945E07C0
:10278000C1E0C0939E0181E00E944C130E945D1342
:1027900080939D01BC01772780919E0190E00E946B
:1027A0007913EFCFA3E1B0E0E8EDF3E10C94271B40
:1027B0006C014B012A01FC0117821682838181FF83
:1027C00043C3AE014F5F5F4F3A01F6019381F401BD
:1027D00093FD859193FF81914F01882309F430C3C4
:1027E000853239F493FD859193FF81914F018532B4
:1027F00039F4B60190E00E94881D52012501E5CF11
:1028000010E0F12C20E02032A0F48B3269F030F49B
:10281000803259F0833269F420612CC08D3239F056
:10282000803339F4216026C02260246023C02860F0
:1028300021C027FD27C030ED380F3A3078F426FF4D
:1028400006C0FAE01F9F300D1124132F13C04AE079
:10285000F49E300D1124F32E20620CC08E3221F430
:1028600026FDEEC2206406C08C3611F4206802C03A
:10287000883641F4F40193FD859193FF81914F01D6
:102880008111C1CF9BEB980F933018F42061805ECB
:1028900006C09BE9980F933008F071C12F7E26FF88
:1028A00016E02F73322E853619F42064322E08C0BC
:1028B000863621F4F22FF0683F2E02C0111111501C
:1028C00037FE07C01C3350F4EE24E394E10E27E0FA
:1028D0000BC0183038F027E017E005C027E04CE3C4
:1028E000E42E02C0212FE12C520144E0A40EB11CC1
:1028F000F20160817181828193810E2DA3010E947A
:102900009A1C2C01098100FF02C003FF07C031FCA3
:1029100008C032FE09C030E2232E07C02DE2222E6D
:1029200004C09BE2292E01C0212C802F8C7019F04D
:10293000211068C2A8C237FE0FC0E40C04FF04C017
:102940008A81813309F4EA941E1474F5F8E0FE15C7
:1029500078F588E0E82E2CC036FC2AC0812F90E064
:10296000841595059CF02CEF42162FEF520674F05B
:10297000432D4068342E0AC0E2E0F0E0EC0FFD1F6A
:10298000E10FF11D8081803319F411501111F4CF42
:1029900037FE0EC0EE24E394E10E812F90E048163E
:1029A00059062CF4141904C0EE24E39401C010E07D
:1029B00037FE06C01414150434F4C201019605C094
:1029C00085E090E002C081E090E0211001961123A3
:1029D00031F0212F30E02F5F3F4F820F931F2F2DBB
:1029E00030E08217930714F4F81A01C0F12C832DFC
:1029F000897049F4FF2039F0B60180E290E00E942E
:102A0000881DFA94F7CF222029F0B601822D90E09C
:102A10000E94881D33FC09C0FF2039F0B60180E315
:102A200090E00E94881DFA94F7CF37FE5AC0942D8B
:102A3000852D57FE02C090E080E0292E382E20E040
:102A400030E0A2014E1951095D874C87A20142195D
:102A500053095F874E87612F70E044275527461B37
:102A6000570B598B488B5FEF2516350649F4B60195
:102A70008EE290E02A8B3B8B0E94881D3B892A893D
:102A8000421453046CF04C855D854215530544F4A3
:102A9000EE85FF85E20FF31FE60DF71D818101C072
:102AA00080E351E0251A31082F5F3F4F488959894B
:102AB000241635064CF0B60190E02A8B3B8B0E9421
:102AC000881D2A893B89CFCF2414350439F49A8193
:102AD000963318F4953311F404FF81E3B60190E0C6
:102AE0004BC08A81813309F00F7EB60190E00E94CD
:102AF000881D111105C034FC18C085E690E017C090
:102B0000B6018EE290E00E94881D82E0EE24E394FC
:102B1000E80EF301E80FF11D8081B60190E00E94FC
:102B2000881D11508E2D91F7E6CF85E490E0B60117
:102B30000E94881D57FC05C04114510439F404FF5C
:102B400005C05194419451088DE201C08BE2B60159
:102B500090E00E94881D80E39AE0491651042CF011
:102B60008F5F5AE0451A5108F7CFB60190E00E94F6
:102B7000881DB601C201C0960E94881D57C18336C8
:102B800031F0833779F0833509F058C021C0520104
:102B9000E2E0AE0EB11CF2018081898301E010E019
:102BA000230114C05201F2E0AF0EB11CF2014080CB
:102BB000518026FF03C0612F70E002C06FEF7FEFEE
:102BC000C2012A8B0E947D1D8C012A892F7715C096
:102BD0005201F2E0AF0EB11CF2014080518026FF9D
:102BE00003C0612F70E002C06FEF7FEFC2012A8B3C
:102BF0000E94721D8C012A892068322E23FD1AC082
:102C00008F2D90E008171907A8F4B60180E290E034
:102C10000E94881DFA94F4CFF20137FC859137FEAB
:102C200081912F01B60190E00E94881DF110FA9465
:102C3000015011090115110579F7F8C0843611F01A
:102C4000893659F5520127FF09C0F4E0AF0EB11CD7
:102C5000F20160817181828193810AC0F2E0AF0E3E
:102C6000B11CF20160817181072E000C880B990B59
:102C70002F76322E97FF09C09095809570956195BB
:102C80007F4F8F4F9F4F2068322E2AE030E0A30104
:102C90000E94D61DE82EE6183FC0022F853721F48A
:102CA0000F7E2AE030E01DC0097F8F3691F018F4C6
:102CB000883559F0C5C0803719F0883711F0C0C089
:102CC000006104FF09C0046007C024FF08C006605B
:102CD00006C028E030E005C020E130E002C020E17D
:102CE00032E0520107FF09C0F4E0AF0EB11CF2015F
:102CF000608171818281938108C0F2E0AF0EB11CC6
:102D0000F2016081718180E090E0A3010E94D61DF4
:102D1000E82EE6180F77302E36FE0BC0332D3E7F9F
:102D2000E11650F434FE0AC032FC08C0332D3E7E5A
:102D300005C00E2D332D03C00E2D01C0012F34FF11
:102D40000CC0FE01EE0DF11D8081803311F4397E3F
:102D500008C032FF05C00E5F04C0832F867809F0DB
:102D60000F5F33FD13C030FF06C01E2D0F1518F482
:102D70001F0D101B0F2D0F1568F4B60180E290E0B7
:102D80003B8B0E94881D0F5F3B89F5CF0F1510F418
:102D9000F01A01C0F12C34FF12C0B60180E390E0BC
:102DA0003B8B0E94881D3B8932FF17C031FD03C059
:102DB00088E790E002C088E590E0B6010CC0832F60
:102DC000867859F031FF02C08BE201C080E237FD06
:102DD0008DE2B60190E00E94881DE11638F4B6013C
:102DE00080E390E00E94881D1150F7CFEA94F30130
:102DF000EE0DF11D8081B60190E00E94881DE1106A
:102E0000F5CF14C0F4E0FF1558F584E0F81A33FE4E
:102E10001EC0211026C003FF2AC00EEF10E0F32DC4
:102E2000F0713F2EF8018491811124C0FF2009F434
:102E3000E5CCB60180E290E00E94881DFA94F6CFBE
:102E4000F6018681978126C08FEF9FEF23C0B601E0
:102E500080E290E00E94881DFA94F110F8CFD9CF5B
:102E6000F12CB601822D90E00E94881DD4CF02E0A3
:102E700011E0D5CF31108052B60190E00E94881D3C
:102E80000F5F1F4FCFCF23E02F1510F483E0BECF8D
:102E9000F12CC1CF6396E2E10C94431B0E946217B0
:102EA0000C9414180E940D1858F00E94061840F057
:102EB00029F45F3F29F00C94FD1751110C94481828
:102EC0000C9403180E94251868F39923B1F3552335
:102ED00091F3951B550BBB27AA276217730784072D
:102EE00038F09F5F5F4F220F331F441FAA1FA9F3C3
:102EF00035D00E2E3AF0E0E832D091505040E695B1
:102F0000001CCAF72BD0FE2F29D0660F771F881F11
:102F1000BB1F261737074807AB07B0E809F0BB0B04
:102F2000802DBF01FF2793585F4F3AF09E3F510518
:102F300078F00C94FD170C9448185F3FE4F3983E2A
:102F4000D4F3869577956795B795F7959F5FC9F701
:102F5000880F911D9695879597F90895E1E0660F82
:102F6000771F881FBB1F621773078407BA0720F0FB
:102F7000621B730B840BBA0BEE1F88F7E095089564
:102F8000E89409C097FB3EF4909580957095619503
:102F90007F4F8F4F9F4F9923A9F0F92F96E9BB27B9
:102FA0009395F695879577956795B795F111F8CF35
:102FB000FAF4BB0F11F460FF1BC06F5F7F4F8F4FA0
:102FC0009F4F16C0882311F096E911C0772321F096
:102FD0009EE8872F762F05C0662371F096E8862F2E
:102FE00070E060E02AF09A95660F771F881FDAF785
:102FF000880F9695879597F9089597F99F6780E8C8
:1030000070E060E008959FEF80EC089500240A943A
:103010001616170618060906089500240A941216B3
:103020001306140605060895092E0394000C11F4E6
:10303000882352F0BB0F40F4BF2B11F460FF04C093
:103040006F5F7F4F8F4F9F4F089557FD9058440FEC
:10305000551F59F05F3F71F04795880F97FB991FF7
:1030600061F09F3F79F087950895121613061406B4
:10307000551FF2CF4695F1DF08C016161706180641
:10308000991FF1CF86957105610508940895E8941C
:10309000BB2766277727CB0197F908950E942D1843
:1030A000A8F19E57B0F1985160F039F1983070F561
:1030B000092E9927660F771F881F991F0A94D1F749
:1030C0001CC0BB27993F4CF4B111B1E0B62B672F60
:1030D000782F8827985FB1F708C086957795679510
:1030E000B79508F4B1609395C1F7BB0F30F411F4B4
:1030F00060FF03C06F5F7F4F8F4F3EF490958095C8
:10310000709561957F4F8F4F9F4F089568940C94F1
:1031100048180C9447180E949E180C9414180E948A
:10312000061838F00E940D1820F0952311F00C9429
:10313000FD170C94031811240C9448180E942518AC
:1031400070F3959FC1F3950F50E0551F629FF001FA
:10315000729FBB27F00DB11D639FAA27F00DB11D13
:10316000AA1F649F6627B00DA11D661F829F22279C
:10317000B00DA11D621F739FB00DA11D621F839F23
:10318000A00D611D221F749F3327A00D611D231FF9
:10319000849F600D211D822F762F6A2F11249F5747
:1031A00050409AF0F1F088234AF0EE0FFF1FBB1F4A
:1031B000661F771F881F91505040A9F79E3F510509
:1031C00080F00C94FD170C9448185F3FE4F3983E90
:1031D000D4F3869577956795B795F795E7959F5FB3
:1031E000C1F7FE2B880F911D9695879597F9089545
:1031F000FA01EE0FFF1F309621053105A1F161158F
:10320000710561F48038BFE39B0749F168949038F9
:10321000810561F08038BFEF9B0741F099234AF5A3
:10322000FF3FE1053105210519F1E8940894E79580
:10323000D901AA2329F4AB2FBE2FF85FD0F310C019
:10324000FF5F70F4A695E0F7F73950F019F0FF3AF8
:1032500038F49F779F930DD00F9007FC90580895F6
:1032600046F00C94031860E070E080E89FE3089556
:103270004FE79F775F934F933F932F930E94F319EC
:103280002F913F914F915F910E948B180C94501990
:1032900029F416F00C94FD170C9447180C9403189D
:1032A0000E942D18A8F39638A0F707F80F92E8941B
:1032B0002BE33AEA48EB5FE70E94A1180F920F92C6
:1032C0000F924DB75EB70F920E943B1AECE7F0E009
:1032D0000E9482194F915F91EF91FF91E595EE1F4A
:1032E000FF1F49F0FE57E0684427EE0F441FFA9590
:1032F000E1F74195550B0E94B5190F9007FE0C940C
:10330000A9190895DF93CF931F930F93FF92EF9224
:10331000DF927B018C01689406C0DA2EEF010E94D7
:103320009E18FE01E894A5912591359145915591FE
:10333000A6F3EF010E94871AFE019701A801DA9413
:1033400069F7DF90EF90FF900F911F91CF91DF9180
:1033500008959B01AC0160E070E080E89FE30C946D
:103360004E170C94FD170C94DC1A0E942D18D8F3FC
:103370009923C9F3940F511DA3F39150504094F039
:1033800059F0882332F0660F771F881F9150504004
:10339000C1F79E3F51052CF7880F911D9695879593
:1033A00097F908955F3FACF0983E9CF0BB27869557
:1033B00077956795B79508F4B1609395C1F7BB0F02
:1033C00058F711F460FFE8CF6F5F7F4F8F4F9F4F2B
:1033D000E3CF0C94481816F00C94DC1A0C940318E4
:1033E00068940C94FD170E942D18A8F39923C1F33B
:1033F000AEF3DF93CF931F930F93FF92C92FDD2777
:1034000088232AF02197660F771F881FDAF720E0BC
:1034100030E040E85FEB9FE3883920F0803E38F0F1
:1034200021968F770E94701AE4EAF0E004C00E94AF
:10343000701AE1EDF0E00E9482198B01BE01EC01EF
:10344000FB2E6F5771097595771F880B990B0E949A
:10345000C21728E132E741E35FE30E949E18AF2DD7
:103460009801AE01FF900F911F91CF91DF910E94C3
:10347000871A0C941418FA01DC01AA0FBB1F9B01D8
:10348000AC01BF5728F4222733274427507820C0A7
:10349000B75190F4AB2F0024469537952795011C22
:1034A000A395D2F3002071F0220F331F441FB39570
:1034B000DAF30ED00C946F1A61307105A0E88A0718
:1034C000B94630F49B01AC016627772788279078AE
:1034D000309621F0208331834283538308955058DE
:1034E000BB27AA270E94871A0C9414180E9406185A
:1034F00038F00E940D1820F039F49F3F19F426F49B
:103500000C9403180EF4E095E7FB0C94FD17E92FDB
:103510000E94251858F3BA176207730784079507A6
:1035200020F079F4A6F50C9447180EF4E0950B2ED4
:10353000BA2FA02D0B01B90190010C01CA01A00105
:103540001124FF27591B99F0593F50F4503E68F160
:103550001A16F040A22F232F342F4427585FF3CFA1
:10356000469537952795A795F0405395C9F77EF472
:103570001F16BA0B620B730B840BBAF09150A1F0BB
:10358000FF0FBB1F661F771F881FC2F70EC0BA0F41
:10359000621F731F841F48F4879577956795B795C9
:1035A000F7959E3F08F0B0CF9395880F08F09927C4
:1035B000EE0F9795879508959F3F31F0915020F435
:1035C000879577956795B795880F911D96958795FF
:1035D00097F90895DB018F939F930E941C1BBF9165
:1035E000AF91A29F800D911DA39F900DB29F900D52
:1035F00011240895A1E21A2EAA1BBB1BFD010DC0C8
:10360000AA1FBB1FEE1FFF1FA217B307E407F50792
:1036100020F0A21BB30BE40BF50B661F771F881F6E
:10362000991F1A9469F760957095809590959B0104
:10363000AC01BD01CF0108950E945E1BA59F900DB6
:10364000B49F900DA49F800D911D112408952F9279
:103650003F924F925F926F927F928F929F92AF9222
:10366000BF92CF92DF92EF92FF920F931F93CF936F
:10367000DF93CDB7DEB7CA1BDB0B0FB6F894DEBF06
:103680000FBECDBF09942A88398848885F846E842C
:103690007D848C849B84AA84B984C884DF80EE8076
:1036A000FD800C811B81AA81B981CE0FD11D0FB67F
:1036B000F894DEBF0FBECDBFED010895A29FB0010B
:1036C000B39FC001A39F700D811D1124911DB29F56
:1036D000700D811D1124911D0895CF93DF938230C9
:1036E000910510F482E090E0E0913202F091330213
:1036F00020E030E0C0E0D0E0309711F1408151810E
:1037000048175907C0F04817590761F4828193811F
:10371000209719F09B838A832BC090933302809368
:10372000320226C02115310519F04217530718F44B
:103730009A01BE01DF01EF010280F381E02DDCCFB1
:103740002115310509F1281B390B2430310590F47E
:1037500012968D919C9113976115710521F0FB01D3
:103760009383828304C09093330280933202FD01DD
:10377000329644C0FD01E20FF31F819391932250D2
:1037800031092D933C933AC020913002309131029F
:10379000232B41F42091180130911901309331020B
:1037A0002093300220911601309117012115310527
:1037B00041F42DB73EB740911A0150911B01241BD3
:1037C000350BE0913002F0913102E217F307A0F4DB
:1037D0002E1B3F0B2817390778F0AC014E5F5F4F67
:1037E0002417350748F04E0F5F1F50933102409366
:1037F00030028193919302C0E0E0F0E0CF01DF91CD
:10380000CF9108950F931F93CF93DF93009709F4FF
:103810008CC0FC0132971382128200913202109107
:1038200033020115110581F420813181820F931F2C
:1038300020913002309131022817390779F5F09341
:103840003102E093300271C0D80140E050E0AE1781
:10385000BF0750F412962D913C911397AD0121159D
:10386000310509F1D901F3CF9D01DA0133832283B8
:1038700060817181860F971F8217930769F4EC01AD
:1038800028813981260F371F2E5F3F4F31832083D8
:103890008A819B8193838283452B29F4F0933302A1
:1038A000E093320242C01396FC93EE931297ED011F
:1038B000499159919E01240F351FE217F30771F4C6
:1038C00080819181840F951F029611969C938E930F
:1038D0008281938113969C938E931297E0E0F0E09F
:1038E000D80112968D919C911397009719F0F801C9
:1038F0008C01F6CF8D919C9198012E5F3F4F820FE6
:10390000931F20913002309131022817390769F452
:10391000309729F4109233021092320202C01382BF
:1039200012821093310200933002DF91CF911F91E8
:103930000F910895283008F027E03327DA01990F16
:10394000311D87FD916000966105710539F4326083
:103950002E5F3D9330E32A95E1F708959F3F30F0C5
:1039600080387105610509F03C5F3C5F3D93913003
:1039700008F08068911DDF93CF931F930F93FF9200
:10398000EF92192F987F9695E92F96959695E90FC6
:10399000FF27E05AFE4F99273327EE24FF24A70183
:1039A000E70105900894079428F4360FE71EF81EE7
:1039B000491F511D660F771F881F991F0694A1F795
:1039C0000590079428F4E70EF81E491F561FC11DE5
:1039D000770F881F991F661F0694A1F7059007941B
:1039E00028F4F80E491F561FC71FD11D880F991FB5
:1039F000661F771F0694A1F70590079420F4490FDE
:103A0000561FC71FD81F990F661F771F881F069460
:103A1000A9F784911095177041F0D695C7955795E1
:103A20004795F794E7941A95C1F7E6E0F1E06894BA
:103A30001590159135916591959105907FE273955B
:103A4000E118F10A430B560BC90BD009C0F7E10C82
:103A5000F11E431F561FC91FD01D7EF4703311F491
:103A60008A95E6CFE894015030F0080F0AF4002759
:103A7000021708F4202F2395022F7A3328F079E3D8
:103A80007D932A95E9F710C07D932A9589F60694CF
:103A900097956795379517951794E118F10A430B99
:103AA000560BC90BD00998F023957E9173957A3304
:103AB00008F070E37C932013B8F77E9170617D93DA
:103AC00030F0839571E37D9370E32A95E1F711243B
:103AD000EF90FF900F911F91CF91DF91992787FD74
:103AE00090950895FC010590615070400110D8F741
:103AF000809590958E0F9F1F0895FC016150704036
:103B000001900110D8F7809590958E0F9F1F089512
:103B10000F931F93CF93DF93FB01238121FD03C0FC
:103B20008FEF9FEF28C022FF16C046815781248166
:103B300035814217530744F4A081B1819D012F5F65
:103B40003F4F318320838C93268137812F5F3F4FF6
:103B50003783268310C0EB01092F182F0084F185CD
:103B6000E02D0995892BE1F68E819F8101969F8337
:103B70008E83812F902FDF91CF911F910F91089508
:103B8000A0E0B0E0E6ECFDE10C94371BAE014B5F2A
:103B90005F4FFA0161917191AF018091360290916E
:103BA00037020E94D213E2E00C94531BFA01AA27B9
:103BB000283051F1203181F1E8946F936E7F6E5F70
:103BC0007F4F8F4F9F4FAF4FB1E03ED0B4E03CD01E
:103BD000670F781F891F9A1FA11D680F791F8A1F01
:103BE000911DA11D6A0F711D811D911DA11D20D068
:103BF00009F468943F912AE0269F11243019305D22
:103C00003193DEF6CF010895462F4770405D419312
:103C1000B3E00FD0C9F7F6CF462F4F70405D4A335F
:103C200018F0495D31FD4052419302D0A9F7EACF27
:103C3000B4E0A6959795879577956795BA95C9F756
:103C400000976105710508959B01AC010A2E069449
:103C50005795479537952795BA95C9F7620F731F02
:0C3C6000841F951FA01D0895F894FFCF4D
:103C6C000000000200000000AE0A00000000180C6A
:103C7C00041060C0802000003A0220004D792054CE
:103C8C00656D703A2025640A0052782054656D7079
:063C9C003A2025640A0035
:00000001FF
