S015000058626565426F545F74657374312E7372656336
S11300000C940B030C9428030C9428030C942803DD
S11300100C94F7090C94200A0C94490A0C94720A63
S11300200C9428030C94D8080C9401090C942A0904
S11300300C94A5090C9453090C947C090C94CE09D6
S11300400C945D080C9486080C94AF080C94280357
S11300500C9428030C9428030C9428030C94280370
S11300600C9428030C9428030C9428030C94280360
S11300700C9428030C9428030C9428030763423639
S1130080B79BD8A71A39685618AEBAAB558C1D3C25
S1130090B7CC5763BD6DEDFD753EF6177231BF00E9
S11300A00000803F08000000BE922449123EABAA23
S11300B0AA2ABECDCCCC4C3E00000080BEABAAAA7E
S11300C0AA3E00000000BF000000803F00000000C6
S11300D000084178D3BB4387D1133D190E3CC3BDFF
S11300E04282AD2B3E68EC8276BED98FE1A93E4CAC
S11300F080EFFFBE01C4FF7F3F00000000006E617F
S11301006E00696E660000407A10F35A00A0724EC9
S113011018090010A5D4E80000E87648170000E4A8
S11301200B54020000CA9A3B000000E1F5050000F0
S113013080969800000040420F000000A086010055
S11301400000102700000000E80300000000640025
S1130150000000000A000000000001000000000090
S11301602C76D888DC674F0823DFC1DFAE59E1B1B4
S1130170B796E5E3E453C63AE651997696E8E6C2C3
S11301808426EB898C9B62ED407C6FFCEFBC9C9FCA
S113019040F2BAA56FA5F490055A2AF75C936B6CEC
S11301A0F9676DC11BFCE0E40D47FEF520E6B500E0
S11301B0D0ED902E0300943577050080841E08004E
S11301C000204E0A000000C80C333333330F986EFE
S11301D012831141EF8D2114893BE65516CFFEE6BB
S11301E0DB18D1844B381BF77C1D901DA4BBE42481
S11301F0203284725E228100C9F124ECA1E53D27FE
S113020016050100000000000000FA000000E000F4
S1130210E00028FE28FE282454FE5448C4C81026B2
S1130220466C92AA44A000A0C0000000384482009A
S1130230008244380028107C102810107C10100014
S11302400A0C00001010101010000606000004082C
S11302501020407C8A92A27C0042FE020042868AE0
S113026092628482A2D28C182848FE08E4A2A2A238
S11302709C3C5292920C808E90A0C06C9292926C94
S11302806092929478006C6C0000006A6C0000101C
S113029028448200282828282800824428104080E6
S11302A08A90604C929E827C7E8888887EFE9292A0
S11302B0926C7C82828244FE82824438FE929292C4
S11302C082FE909090807C8292925EFE101010FECE
S11302D00082FE8200040282FC80FE10284482FE1A
S11302E002020202FE403040FEFE201008FE7C8224
S11302F082827CFE909090607C828A847AFE9098C0
S11303009462629292928C8080FE8080FC0202024F
S1130310FCF8040204F8FC021C02FCC6281028C6DF
S1130320E0100E10E0868A92A2C200FE8282004093
S113033020100804008282FE002040804020020237
S11303400202020080402000042A2A2A1EFE1222F1
S1130350221C1C222222041C222212FE1C2A2A2ACB
S113036018107E908040304A4A4A7CFE1020201E9D
S11303700022BE0200040222BC00FE081422000077
S113038082FE02003E2018201E3E1020201E1C2249
S113039022221C3E28282810102828183E3E10200F
S11303A02010122A2A2A0420FC2202043C020204FD
S11303B03E38040204383C020C023C221408142285
S11303C0300A0A0A3C22262A322200106C820000DB
S11303D000FE000000826C100008101008100000DD
S11303E00000007F8181817F7F8383837F7F878774
S11303F0877F7F8F8F8F7F7F9F9F9F7F7FBFBFBFB1
S11304007F7FFFFFFF7F2040FF40206215171565A7
S113041000FBFB00000000000000C0FF0300E0FF41
S11304200700F0FF0F00F8FF1F0078001E0078009F
S11304301E0078001E0078001E0078001E00780060
S11304401E0078001E0078001E0078001E000000C8
S113045000000000000080FF0300E0FF0700F0FF41
S11304600F00F8FF1F00F83C1F00783C1E00783C8A
S11304701E00783C1E00783C1E00783C1E00783C30
S11304801E00783C1E00783C1E00783C1E00783C20
S11304901E000000000000000000E0FF0300F0FF69
S11304A00700F8FF0F00F8FF1F00783C1E00783C9F
S11304B01E00783C1E00783C1E00783C1E00783CF0
S11304C01E00783C1E00783C1E00783C1E00783CE0
S11304D01E000000000000000000F8FF0300F8FF09
S11304E00F00F8FF1F00F8FF1F0000001E000000AF
S11304F01E0000801F0000F01F0000FF0F00E0FF3F
S11305000700F0FF0000F80F0000F800000078007A
S1130510000078000000F8FF1F00F8FF1F00F0FF44
S11305201F00E0FF1F000000000000000000F8FFB3
S11305301F00F8FF1F00F8FF1F00F8FF1F007800DE
S11305401E00783C1E00783C1E00783C1E00783C5F
S11305501E00783C1E00783C1E00F87E1F00F8FF49
S11305601F00F0FF0F00E0E70300000000000000A0
S11305703800EEFF6C002A8045003A0047FC03FF78
S11305806CFC83FF3900DEFF0B7CD0810BFCD08137
S11305900BC0D0810BFCD0810B7CDEFF0B0082FFF3
S11305A0397002FF6CF83A0047DC2A8045CCEEFF34
S11305B06CCC000038000000000C00001E0C000091
S11305C01E0000001E0000001E0000001E00F8FFB8
S11305D01F00F8FF1F00F8FF1F00F8FF1F000000B6
S11305E01E0000001E0000001E0000001E0000008F
S11305F05E000000400000007C000000400000009D
S1130600400000007C0000003000000010000000EA
S1130610300000007C0011241FBECFEFD8E0DEBF05
S1130620CDBF11E0A0E0B1E0E4E5FCE302C0059039
S11306300D92A234B107D9F722E0A2E4B1E001C0DF
S11306401D92A434B207E1F70E942A030C94281ED9
S11306500C9400000E945B080E944D080E94A213A3
S113066080E090E008951F93CF93DF9385E00E948C
S11306702A058823D1F060E080E40E943604C0E0BB
S1130680D0E060E08C2F0E94E10310E061E080E0A4
S11306900E9436041F5F1038C9F72196C430D10573
S11306A081F760E083E00E942404DF91CF911F91E1
S11306B008950F931F9385E00E941C05882311F071
S11306C082E07BC00E945304182F0E94370511500A
S11306D0123008F06EC08150823008F06AC00E9467
S11306E0510460E08EEA0E94360460E082EA0E94CF
S11306F0360460E080EA0E94360400E513ECC80189
S11307000197F1F760E080EC0E94360460E08FE22C
S11307100E94360460E081E80E94360460E086E1CD
S11307200E94360460E082E20E943604C801019708
S1130730F1F760E08FEA0E94360460E086EA0E94E6
S1130740360460E085EA0E94360420E030E0E8E800
S1130750F3E1CF010197F1F72F5F3F4F93E0283E7C
S11307603907B9F760E083EB0E94360460E080E467
S11307700E94360460E083E00E94E10360E083E0CD
S11307800E9424041092DC011092DE011092DD011B
S113079080E091E0909341028093400288E10E94BE
S11307A003040E94330360E084EA0E94360481E07B
S11307B004C085E00E940B0587E099271F910F91E3
S11307C00895FF920F931F93082FF62E85E00E9441
S11307D02A058823A1F01F2D1F77037060E0802F66
S11307E0806B0E94360412951F7060E0812F806137
S11307F00E94360460E08F2D8F700E9436041F9192
S11308000F91FF9008951F93182F85E00E942A05E9
S11308108823C1F087E00E9496046AE082E00E9487
S1130820F50461EB82E00E94F504612F113208F0B7
S113083060E282E00E94F50489EE8A95F1F787E090
S11308400E9496041F9108950F931F93082F162F4B
S113085085E00E942A05882331F003701F771093E6
S1130860DA010093DB011F910F9108950F931F93F9
S1130870082F162F85E00E942A05882379F011237A
S113088019F0113021F402C02B9801C02B9A86E094
S11308908A95F1F7602F80E00E94F5041F910F9173
S11308A00895239A089582E00E941C05882311F07C
S11308B082E031C00E94040564EE7BE080E00E9487
S11308C08D046CED7BE081E00E948D0464ED7BE09F
S11308D082E00E948D0463EC7BE086E00E948D043C
S11308E06CEC7BE083E00E948D046CEC7BE084E0A4
S11308F00E948D046CEC7BE085E00E948D046CEC1E
S11309007BE087E00E948D048FEF8093DF0187E016
S11309100E94960481E099270895E82FFF27EE0F9F
S1130920FF1FEE57FE4F7183608308951F93182FA6
S113093082E00E942A05882309F455C0912F9770FC
S11309408091DF01981709F44EC09093DF0185B1BF
S1130950887F892B85B9933051F1943028F49130F4
S113096051F09230B0F40EC0953079F1953030F1F9
S1130970963091F515C0E0918401F091850130978E
S113098091F130C0E0918201F0918301309759F1E7
S113099029C0E0918601F0918701309721F122C0AE
S11309A0E0918E01F0918F013097E9F01BC0E09146
S11309B08801F09189013097B1F014C0E0918A0167
S11309C0F0918B01309779F00DC0E0918C01F0919A
S11309D08D01309741F006C0E0919001F0919101B2
S11309E0309709F009951F9108951F93162F0E94BF
S11309F0960482E00E942A05882321F01EBD0DB4CE
S1130A0007FEFDCF1F910895259A2698279A209ACC
S1130A10219A229A0895853160F4E82FFF27E7553B
S1130A20FE4F8081882329F08081815080838081DA
S1130A3001C08FEF99270895853110F080E008C038
S1130A40E82FFF27E755FE4F80818F5F8083815019
S1130A5099270895853110F080E007C0E82FFF271B
S1130A60E755FE4F8081811181E099270895CF9346
S1130A70DF93CDB7DEB723970FB6F894DEBF0FBE72
S1130A80CDBF81E00E941C05882311F082E011C0D3
S1130A900E9453048150823040F40E946305CE01C9
S1130AA001960E94890D81E004C081E00E940B053B
S1130AB087E0992723960FB6F894DEBF0FBECDBF0B
S1130AC0DF91CF9108951092F5011092F4011092E4
S1130AD0F7011092F6011092F9011092F8011092A8
S1130AE0FB011092FA011092FD011092FC0180E9C1
S1130AF091E09093E1018093E0019093E30180936E
S1130B00E2019093E5018093E4019093E7018093DF
S1130B10E6019093E9018093E80184E398E09093DF
S1130B20EB018093EA019093ED018093EC019093A3
S1130B30EF018093EE019093F1018093F001909383
S1130B40F3018093F2010895882319F08130C1F5EF
S1130B501CC08DE00E940B05882391F587EC91E081
S1130B600E94500E8091CD018823E1F360E080E083
S1130B700E94820760E080E00E94370780E00E94C4
S1130B80E70680E00E94330808958EE00E940B057A
S1130B908823B1F48EEB91E00E94500E8091C40141
S1130BA08823E1F360E081E00E94820760E081E055
S1130BB00E94370781E00E94E70681E00E94330823
S1130BC00895CF92DF92EF92FF920F931F93CF93EA
S1130BD0DF937B018C01EA01690181E0E81681EE73
S1130BE0F80680E0080780E0180740F424E0EE0CE3
S1130BF0FF1C001F111F2A95D1F707C093E0EE0CCC
S1130C00FF1C001F111F9A95D1F760E072EC8BEE68
S1130C109BE0A80197010E94EE1A79018A0186EFF0
S1130C209FEFAFEFBFEFE80EF91E0A1F1B1FC801AD
S1130C30B7012AE030E040E050E00E94EE1A65304F
S1130C4071058105910540F08AE090E0A0E0B0E0F4
S1130C50E80EF91E0A1F1B1FC801B7012AE030E085
S1130C6040E050E00E94EE1A2883232F342F452FB2
S1130C705527D6012C93DF91CF911F910F91FF90AF
S1130C80EF90DF90CF900895AF92BF92CF92DF9212
S1130C90EF92FF920F931F93CF93DF93CDB7DEB7FD
S1130CA022970FB6F894DEBF0FBECDBFA82EB62E86
S1130CB0D42EC22E882329F081E0A81609F076C02C
S1130CC03CC08DE00E942A05882309F46FC01A8273
S1130CD019821092C0001092C1001092C2009E01AD
S1130CE02F5F3F4FAE014E5F5F4FC801B7010E94B7
S1130CF0E105BB0CDD0CDD0CDD0CDB28CC0CCC0CD5
S1130D00CC0CCC0CCD288A818093C400898180933B
S1130D10C500C092C20081E0E81681EEF80680E0CA
S1130D20080780E0180728F08091C0008260809353
S1130D30C00081E08093D20139C08EE00E942A0570
S1130D408823A1F119821A821092C8001092C90056
S1130D501092CA009E012E5F3F4FAE014F5F5F4F5E
S1130D60C801B7010E94E105BB0CDD0CDD0CDD0CF4
S1130D70DB28CC0CCC0CCC0CCC0CCD2889818093FA
S1130D80CC008A818093CD00C092CA0081E0E8162D
S1130D9081EEF80680E0080780E0180728F08091CB
S1130DA0C80082608093C800A092D70122960FB633
S1130DB0F894DEBF0FBECDBFDF91CF911F910F918D
S1130DC0FF90EF90DF90CF90BF90AF90089588236D
S1130DD019F0813061F406C08091C1008F7780934F
S1130DE0C10008958091C9008F778093C900089548
S1130DF0882321F08130D9F084E037C08DE00E944F
S1130E001C05882389F51092D2011092D00110920A
S1130E10D1010E94400865E070E080E00E94CD07A7
S1130E2028EE33E041E061E087EC91E019C08EE008
S1130E300E941C058823C1F41092D7011092D50199
S1130E401092D60181E00E94400865E070E081E0E4
S1130E500E94CD0728EE33E041E061E08EEB91E0A3
S1130E600E94F40D81E001C082E0992708950F9358
S1130E701F93182F062F882331F48DE00E942A0532
S1130E80882341F43CC0813029F48EE00E942A0575
S1130E908823A9F10023F9F0013089F5112319F011
S1130EA0113069F50CC09091D201913041F58091D7
S1130EB0C10080618093C1009093D10120C08091D2
S1130EC0D7018130E1F48091C90080618093C90029
S1130ED01093D60114C0112319F0113081F408C005
S1130EE08091C1008F7E8093C1001092D10107C010
S1130EF08091C9008F7E8093C9001092D6011F9102
S1130F000F9108950F931F93182F062F882331F400
S1130F108DE00E942A05882341F43CC0813029F4E5
S1130F208EE00E942A058823A9F10023F9F00130FC
S1130F3089F5112319F0113069F50CC09091D20193
S1130F40913041F58091C10088608093C1009093F5
S1130F50D00120C08091D7018130E1F48091C90093
S1130F6088608093C9001093D50114C0112319F02F
S1130F70113081F408C08091C100877F8093C10043
S1130F801092D00107C08091C900877F8093C90067
S1130F901092D5011F910F91089577FF03C060E06F
S1130FA070E005C06F31710514F06EE170E08823C4
S1130FB019F0813051F405C07093D4016093D301CA
S1130FC008957093D9016093D80108951F93162F43
S1130FD0882321F0813009F042C020C08DE00E94B6
S1130FE02A058823E1F18091D0018130C1F58091F7
S1130FF0C00082958695877080FFF9CF1093C60054
S11310008091C000829586958695837080FFF8CF85
S11310108091C00080648093C0001FC08DE00E9456
S11310202A058823E1F08091D5018130C1F48091B3
S1131030C80082958695877080FFF9CF1093CE0003
S11310408091C800829586958695837080FFF8CF3D
S11310508091C80080648093C80080E001C081E072
S113106099271F910895882319F0813041F404C011
S1131070599A519850980895599A539852980895A6
S1131080882319F0813041F404C0519A5098599A38
S11310900895539A52985B9A08950E94720D0E9483
S11310A0610B0E949B0A0E94330E0E9453040E940B
S11310B0370578940895000008951F920F920FB693
S11310C00F9211242F933F934F935F936F937F93CA
S11310D08F939F93AF93BF93EF93FF93E09162013C
S11310E0F0916301309709F00995FF91EF91BF9159
S11310F0AF919F918F917F916F915F914F913F91AC
S11311002F910F900FBE0F901F9018951F920F9262
S11311100FB60F9211242F933F934F935F936F93C6
S11311207F938F939F93AF93BF93EF93FF93E0913C
S11311306401F0916501309709F00995FF91EF91F1
S1131140BF91AF919F918F917F916F915F914F91DB
S11311503F912F910F900FBE0F901F9018951F92E3
S11311600F920FB60F9211242F933F934F935F93D7
S11311706F937F938F939F93AF93BF93EF93FF935B
S1131180E0916601F0916701309709F00995FF91AC
S1131190EF91BF91AF919F918F917F916F915F91EB
S11311A04F913F912F910F900FBE0F901F90189564
S11311B01F920F920FB60F9211242F933F934F93C8
S11311C05F936F937F938F939F93AF93BF93EF93AB
S11311D0FF93E0915401F0915501309709F009957E
S11311E0FF91EF91BF91AF919F918F917F916F91FB
S11311F05F914F913F912F910F900FBE0F901F90D1
S113120018951F920F920FB60F9211242F933F93AC
S11312104F935F936F937F938F939F93AF93BF93FA
S1131220EF93FF93E0915601F0915701309709F045
S11312300995FF91EF91BF91AF919F918F917F910C
S11312406F915F914F913F912F910F900FBE0F902F
S11312501F9018951F920F920FB60F9211242F937F
S11312603F934F935F936F937F938F939F93AF932A
S1131270BF93EF93FF93E0915801F0915901309798
S113128009F00995FF91EF91BF91AF919F918F91D3
S11312907F916F915F914F913F912F910F900FBE6E
S11312A00F901F9018951F920F920FB60F92112452
S11312B02F933F934F935F936F937F938F939F935A
S11312C0AF93BF93EF93FF93E0915C01F0915D01C5
S11312D0309709F00995FF91EF91BF91AF919F91DC
S11312E08F917F916F915F914F913F912F910F90CB
S11312F00FBE0F901F9018951F920F920FB60F926A
S113130011242F933F934F935F936F937F938F9306
S11313109F93AF93BF93EF93FF93E0915E01F0919E
S11313205F01309709F00995FF91EF91BF91AF915B
S11313309F918F917F916F915F914F913F912F91E9
S11313400F900FBE0F901F9018951F920F920FB61B
S11313500F9211242F933F934F935F936F937F9337
S11313608F939F93AF93BF93EF93FF93E0915A01B1
S1131370F0915B01309709F00995FF91EF91BF91CE
S1131380AF919F918F917F916F915F914F913F9119
S11313902F910F900FBE0F901F9018951F920F92D0
S11313A00FB60F9211242F933F934F935F936F9334
S11313B07F938F939F93AF93BF93EF93FF93E091AA
S11313C06001F0916101309709F00995FF91EF9167
S11313D0BF91AF919F918F917F916F915F914F9149
S11313E03F912F910F900FBE0F901F9018951F9251
S11313F00F920FB60F9211242F933F934F935F9345
S11314006F937F938F939F93AF93BF93EF93FF93C8
S1131410E0914A01F0914B01309709F00995FF9151
S1131420EF91BF91AF919F918F917F916F915F9158
S11314304F913F912F910F900FBE0F901F901895D1
S11314401F920F920FB60F9211242F933F934F9335
S11314505F936F937F938F939F93AF93BF93EF9318
S1131460FF93E0914C01F0914D01309709F00995FB
S1131470FF91EF91BF91AF919F918F917F916F9168
S11314805F914F913F912F910F900FBE0F901F903E
S113149018951F920F920FB60F9211242F933F931A
S11314A04F935F936F937F938F939F93AF93BF9368
S11314B0EF93FF93E0914E01F0914F01309709F0C3
S11314C00995FF91EF91BF91AF919F918F917F917A
S11314D06F915F914F913F912F910F900FBE0F909D
S11314E01F9018951F920F920FB60F9211242F93ED
S11314F03F934F935F936F937F938F939F93AF9398
S1131500BF93EF93FF93E0915001F0915101309715
S113151009F00995FF91EF91BF91AF919F918F9140
S11315207F916F915F914F913F912F910F900FBEDB
S11315300F901F90189580E10E941C05882311F0DC
S113154082E009C0E2E4F1E01192119281E0E23814
S1131550F807D1F781E0992708950F931F93CF934C
S1131560DF93082F11278A3091F08B3040F48830B4
S113157091F1893020F5873009F049C037C08D30AA
S113158049F08B3181F08C3009F041C006C01092D3
S1131590DA0103C01092DA017AC08091DB01815034
S11315A08093DB0174C00E9433037DC061E080E05E
S11315B00E9436048091DA018F5F8093DA01809172
S11315C0DA0187FFF3CF1092DA018091DB018150B9
S11315D08093DB0168C08091DA01882309F457C045
S11315E08091DA0186508093DA0151C081E00E9433
S11315F0C30C24E630E04DE750E064EF71E080E096
S113160090E00E94D00C81E00E94140C40C06091D4
S1131610DA018091DB010E94E103E801CC0FDD1FB8
S1131620CC0FDD1FC00FD11FCD59DE4F10E0FE01DE
S1131630849161E00E9436041F5F21961530B9F74A
S113164061E080E00E9436048091DA018A5F809331
S1131650DA018091DA0199278C3791053CF01092D8
S1131660DA018091DB0181508093DB018091DB0101
S113167083708093DB018091DC018130D9F4E091A7
S1131680DD01F091DE013097A9F0099513C0609156
S1131690DA018091DB010E94E1038091DB01837018
S11316A08093DB0107C06091DA018091DB010E9425
S11316B0E103DCCF80E090E0DF91CF911F910F91A7
S11316C00895F8940E94C00B81E00E946A0B81E0A7
S11316D090E00895813071F0F894813059F08130B0
S11316E030F08230C9F0833009F046C01AC080E07F
S11316F090E020C02C9A80E88093610010926100F1
S113170080E090E00000019688329105D9F71092AC
S1131710680010926B00089580E88093610083E074
S113172004C080E88093610088E08093610026C053
S1131730000001962DE680369207D1F72C9880E0C0
S113174090E0000001962DE680369207D1F71092C2
S11317507A008FEF809364008091680081608093A9
S1131760680080916B00846080936B00789483B7E9
S1131770816083BF88950895823008F07894089535
S1131780249A2C9A089583E58CBD81E08DBD84EF65
S113179091E00197F1F7089583E58CBD81E08DBD5B
S11317A08DE08A95F1F7089583E58CBD1DBC84EF27
S11317B091E00197F1F708958FE78CBD1DBC84EF8C
S11317C091E00197F1F7089583E58CBD81E08DBD2B
S11317D08DE08A95F1F708958AE00E940B0588232D
S11317E029F481E00E94260D10929301089589E066
S11317F00E940B058823B9F480919201882311F08B
S11318000E946C0D82E00E94260D8091A0019091AF
S1131810A101009731F00E94F61B1092A1011092D1
S1131820A001109292010895813029F0823029F4A8
S11318300E94F70B08950E94EC0B0895CF92DF925B
S1131840EF92FF920F931F93CF93DF9380E291E087
S11318500E94611BEC019093A1018093A001892B4C
S113186011F480E044C0CC24DD24EE24FF2487015D
S1131870C801B7010E942318D7FE06C020E030E05B
S113188040E857E40E94431720E030E040EA51E486
S11318900E94AF1727EF35E740E05FE30E94EC18A2
S11318A09B01AC0160E070E080E291E40E94591970
S11318B02DEC3CEC42E851E40E94EC180E94AF1875
S11318C02AE030E040E050E00E94DE1A6993799308
S11318D0899399930894C11CD11C0894E11CF11CB0
S11318E0011D111D88E4C816D10411F681E0992761
S11318F0DF91CF911F910F91FF90EF90DF90CF90E8
S113190008958AE00E941C05882311F082E00AC031
S113191010929D0110929C0181E00E94420D81E091
S113192080939301992708951F9389E00E941C05D1
S1131930882311F082E024C08BE00E942A058823CA
S1131940D9F40E941E0C182F813011F086E018C0C3
S113195010929401109295011092960110929701A1
S113196062E17FE08DE00E94DE0E82E00E94420D83
S11319701093920181E004C089E00E940B0587E086
S113198099271F910895813021F0823029F084E055
S113199005C00E94810C02C00E94940C99270895EE
S11319A06F927F928F929F92AF92BF92CF92DF926B
S11319B0EF92FF920F931F93CF93DF933B014C0160
S11319C05A01E9018AE00E942A05882381F12097BF
S11319D041F1B501882777FD8095982F9E01C53682
S11319E0D10510F024E630E0442755270E94DE1A82
S11319F024E630E040E050E00E94EE1A79018A01CA
S1131A00C401B3010E94150FC7010E94C60D60E016
S1131A1070E080E090E00E94150FC5018E199F09C7
S1131A2004C0A114B10419F0C5010E94C60DDF91D0
S1131A30CF911F910F91FF90EF90DF90CF90BF90C7
S1131A40AF909F908F907F906F900895823029F48B
S1131A50809181008E7F80938100809192018130FA
S1131A6031F480919301813011F400000895809144
S1131A709201813021F080919301813011F45F98BB
S1131A8057980895982F80919201882331F480917A
S1131A909301882311F4579A5F98809192018823C7
S1131AA0D1F49230C1F410928000109281008091A0
S1131AB0810088608093810080918100816080939F
S1131AC08100109285001092840081E08093890047
S1131AD080E9809388000895EFE6F0E080818D7FAF
S1131AE080830895CF93DF93C0E0D0E060E08C2F33
S1131AF00E94810D2196C531D105C1F7DF91CF91A7
S1131B000895853128F4E82FFF27E755FE4F6083B9
S1131B1008951F93CF93DF93EC01892B99F181E012
S1131B200E942A05882351F187E00E94960418EC4C
S1131B30812F8A95F1F76AE082E00E94F50464EB54
S1131B4082E00E94F504812F8A95F1F760E082E03B
S1131B500E94010F8883812F8A95F1F760E082E06B
S1131B600E94010F89831A95F1F760E082E00E94D8
S1131B70010F8A8387E00E94960404C018821982A8
S1131B808DE28A83DF91CF911F9108950F931F9364
S1131B90CF93DF93CDB7DEB729970FB6F894DEBFA6
S1131BA00FBECDBF8C0188E00E942A05882311F462
S1131BB091E00DC0980140E061E0CE0101960E94E1
S1131BC0F40D982F882319F48F818823E9F3892F42
S1131BD0992729960FB6F894DEBF0FBECDBFDF91CB
S1131BE0CF911F910F910895EF92FF920F931F933E
S1131BF0CF93DF93EC01F62EE42E890188E00E9456
S1131C002A05882311F481E026C084E090E00E9434
S1131C10611BFC01892B11F482E01DC0F982F0FCE8
S1131C201E8281E0E81619F48981846089838981A0
S1131C30886089831B830A831D830C83D183C083BB
S1131C401382128281E08093A201CF010E946F0E61
S1131C501092A20180E09927DF91CF911F910F91FB
S1131C60FF90EF90089588E00E941C05882311F0EE
S1131C7082E014C01092FE01109200021092FF0143
S1131C801092A2011092A3016AE77FE080E10E9412
S1131C90F10E0E94660E0E94D80E81E099270895E5
S1131CA0CF93DF93EC0188E00E942A05882359F042
S1131CB0209749F081E08093A20189818B7F806124
S1131CC089831092A201DF91CF91089584B5826037
S1131CD084BD85B5846085BD8EE487BD0895CF92AB
S1131CE0DF92EF92FF920F931F93CF93DF93EC0158
S1131CF08091FE01882339F4D0930002C093FF0140
S1131D000E94810F47C0C090FF01D090000200E004
S1131D1010E0EE24FF2429C0A881B981FD0164816B
S1131D207581F60140815181FA01848195819B017D
S1131D30281B390B37FF0AC0861B970B95838483B6
S1131D40DB82CA82012BF1F0F70122C0F601828105
S1131D5093812115310581F0FD013583248300979A
S1131D60B1F00F5F1F4F76016C018091FE0199273E
S1131D700817190788F20BC0FD01158214829B8392
S1131D808A8305C0D0930002C093FF0103C0F6010B
S1131D90D383C2838091FE018F5F8093FE01DF9124
S1131DA0CF911F910F91FF90EF90DF90CF90089506
S1131DB0EEE6F0E08081826080830895E82F80322F
S1131DC068F48051833050F0FF27EE0FFF1FEE5B65
S1131DD0FE4F8081918171836083089580E090E05B
S1131DE00895803218F080E090E00895E82FFF27EE
S1131DF0EE0FFF1FEE5BFE4F808191817183608344
S1131E0008951F93162F0E94960482E00E942A05CB
S1131E10882329F01EBD0DB407FEFDCF8EB599278A
S1131E201F9108950E94390F0895EF92FF920F9326
S1131E301F937B018C018AE00E942A058823A1F06C
S1131E4080919301882381F0D801C701880F991FDD
S1131E50AA1FBB1F90939F0180939E01E114F1047C
S1131E600105110509F45F981F910F91FF90EF9000
S1131E7008958091940190919501A0919601B0915B
S1131E809701209198013091990140919A015091C4
S1131E909B01820F931FA41FB51F809394019093FD
S1131EA09501A0939601B09397018091940190912C
S1131EB09501A0919601B09197018851964FA04049
S1131EC0B040BCF08BB180588BB980919401909153
S1131ED09501A0919601B09197018851964FA04029
S1131EE0B0408093940190939501A0939601B09390
S1131EF0970108950E94850F0E94C60F0E949F0FAC
S1131F00089581E08093A301089588E00E942A0542
S1131F10882311F484E011C08091A301882311F473
S1131F2083E00BC08091A201882311F082E005C0F8
S1131F300E9462128130E1F380E099270895809134
S1131F409301813011F580919C0190919D01209124
S1131F509E0130919F01820F931F90939D01809366
S1131F609C0180919C0190919D01885E93406CF04E
S1131F708BB180588BB980919C0190919D01885EB2
S1131F80934090939D0180939C01089587E00E9463
S1131F902A05882309F4AAC080910B0290910C02AF
S1131FA0892B09F180912F029091300220910B022C
S1131FB030910C02820F931F9093300280932F0272
S1131FC080912F0290913002885E9340A4F080911A
S1131FD02F0290913002885E934090933002809358
S1131FE02F0241E009C08091030290910402909372
S1131FF008028093070240E080910D0290910E0246
S1132000892B09F1809131029091320220910D02C5
S113201030910E02820F931F90933202809331020B
S11320208091310290913202885E9340A4F08091B5
S1132030310290913202885E9340909332028093F1
S1132040310261E009C080910502909106029093EB
S11320500A028093090260E0842F0E947710809125
S11320602B0290912C022091070230910802820FDA
S1132070931F90932C0280932B0280912B029091BA
S11320802C02885E934014F440E00BC080912B0234
S113209090912C02885E934090932C0280932B02A3
S11320A041E080912D0290912E02209109023091FD
S11320B00A02820F931F90932E0280932D02809127
S11320C02D0290912E02885E934014F460E00BC0C0
S11320D080912D0290912E02885E934090932E025F
S11320E080932D0261E0842F0E94BC100895882300
S11320F0F1F0209103023091040280910702909143
S11321000802281B390B1216130634F480910702B7
S113211090910802019607C0232B49F08091070291
S11321209091080201979093080280930702662316
S113213011F12091050230910602809109029091DB
S11321400A02281B390B1216130654F48091090253
S113215090910A02019690930A02809309020895CD
S1132160232B49F08091090290910A0201979093E0
S11321700A028093090208950F931F93082F162FC4
S113218080913702882309F0E3C080911F028823DD
S113219009F05AC08091070290910802892BE9F452
S11321A08091A401837E8093A401109228028091DF
S11321B03302882309F45BC06091210280E00E940D
S11321C03D12E0913502F0913602309709F44FC088
S11321D081E08083109233024AC0809101028130F1
S11321E041F48091130290911402019711F401E0DB
S11321F002C00023E1F19091A401937EE0912602B4
S1132200FF27E25FFE4F8081982B9093A401809179
S11322102402882321F4809126028F5F03C08091D9
S11322202602815080932602809126028370809337
S1132230260281E080932802809101028130B9F462
S113224080E00E94BB1113C09091A401937EE091A1
S11322502602FF27E25FFE4F8081982B9093A40112
S113226082E0809328021092080210920702809163
S11322702002882309F059C08091090290910A0232
S1132280892BE9F48091A4018F718093A4011092A9
S1132290290280913402882309F45AC060912202F1
S11322A081E00E943D12E0913502F09136023097B0
S11322B009F44EC081E081831092340249C08091B8
S11322C00202813041F48091150290911602019727
S11322D011F411E002C01123D9F19091A4019F716E
S11322E0E0912702FF27EE5EFE4F8081982B9093AA
S11322F0A40180912502882321F4809127028F5F15
S113230003C0809127028150809327028091270285
S113231083708093270281E08093290280910202D6
S11323208130B1F40E94BB1113C09091A4019F713C
S1132330E0912702FF27EE5EFE4F8081982B909359
S1132340A40182E08093290210920A0210920902E9
S113235080912A02882331F4412F602F84EA91E08E
S11323600E94D11288B183709091A401892B88B9FD
S11323701F910F9108951F93182F882321F0813006
S113238009F04DC027C08091130290911402892B4B
S113239049F08091130290911402019790931402D2
S11323A080931302809133028823C9F5209113028C
S11323B0309114028091170290911802281739075E
S11323C071F560E070E080E00E94111281E080937A
S11323D0330225C08091150290911602892B49F091
S11323E080911502909116020197909316028093A2
S11323F0150280913402882391F4209115023091C2
S113240016028091190290911A022817390739F49B
S113241060E070E081E00E941112109334021F9179
S11324200895982F81E08093370281E0613978071D
S113243010F060E971E0913061F0913018F0923061
S1132440C9F40EC0F8947093040260930302789464
S113245011C0F894709306026093050278940AC040
S1132460F8947093040260930302709306026093DD
S1132470050278941092370208950F931F93182F32
S1132480062F662349F460E070E00E94111260E0B8
S113249070E0812F0E94691381E08093370211302C
S11324A051F0113018F0123041F403C000931F02B0
S11324B004C000931F0200932002109237021F9160
S11324C00F910895FF920F931F93CF93DF93809101
S11324D0FE01882309F459C00091FF011091000204
S11324E0F801C081D1818C819D8101979D838C836A
S11324F0181619060CF449C0898180FF05C08E8125
S1132500882311F481E08E83898181FF03C0EF81E8
S1132510F88509958091FE018230A8F0F801828146
S11325209381909300028093FF0113821282E091C1
S11325300000F091010084819581181619063CF081
S113254081E0F82E05C0109200021092FF01FF24D2
S11325508091FE0181508093FE018091FE018823C9
S113256011F40E94CE12898182FF08C08A819B8166
S11325709D838C83C8010E946F0E08C0C8010E940D
S1132580F61B89818F7E898301C0FF248F2D9927B3
S1132590DF91CF911F910F91FF9008951092A301A5
S11325A00895FC0180912802823069F48091A80189
S11325B091E089278093A801882309F03EC0808197
S11325C0837E80833AC08091070290910802C3976A
S11325D0A4F56623D1F0209107023091080280E629
S11325E090E0BC01269FC001279F900D369F900D5F
S11325F01124880F892F881F990B90931C028093B4
S11326001B0281E08093A60118C08091A601882353
S1132610A1F080911B0290911C02019790931C02DF
S113262080931B0280911B0290911C02892B29F438
S11326308081837E80831092A6018091290282305A
S113264069F48091A70191E089278093A7018823E9
S113265009F03EC080818F718083089580910902C2
S113266090910A02C397A4F54423D1F02091090262
S113267030910A0280E690E0AC01249FC001259FBE
S1132680900D349F900D1124880F892F881F990B6A
S113269090931E0280931D0281E08093A50108950A
S11326A08091A5018823A1F080911D0290911E02C2
S11326B0019790931E0280931D0280911D029091B8
S11326C01E02892B29F480818F7180831092A501C9
S11326D00895982F81E080933702913071F0913002
S11326E018F0923071F405C07093140260931302D1
S11326F008C07093140260931302709316026093DF
S1132700150210923702089564E081E00E94E60702
S1132710811103C08CE191E00EC0813019F48FE186
S113272091E009C0823019F485E291E004C083305D
S113273041F48DE291E09F938F930E94B41D0F901A
S11327400F900895EF92FF920F931F930E945903E5
S113275081E00E94A40581E00E94F8068130F1F72F
S113276010E8E12E15E2F12E00E010E020E040E058
S113277063E00E94440661E081E00E94820785E0F4
S11327801F910F91FF90EF900C948413A3E1B0E09C
S1132790ECECF3E10C941B1B6C014B012A01FC01D2
S11327A017821682838181FF43C3AE014F5F5F4F5F
S11327B03A01F6019381F40193FD859193FF819190
S11327C04F01882309F430C3853239F493FD859190
S11327D093FF81914F01853239F4B60190E00E9454
S11327E07C1D52012501E5CF10E0F12C20E02032C0
S11327F0A0F48B3269F030F4803259F0833269F4FA
S113280020612CC08D3239F0803339F4216026C028
S11328102260246023C0286021C027FD27C030ED3A
S1132820380F3A3078F426FF06C0FAE01F9F300DC7
S11328301124132F13C04AE0F49E300D1124F32EFB
S113284020620CC08E3221F426FDEEC2206406C044
S11328508C3611F4206802C0883641F4F40193FDEB
S1132860859193FF81914F018111C1CF9BEB980F0B
S1132870933018F42061805E06C09BE9980F933072
S113288008F071C12F7E26FF16E02F73322E853695
S113289019F42064322E08C0863621F4F22FF06831
S11328A03F2E02C01111115037FE07C01C3350F4E3
S11328B0EE24E394E10E27E00BC0183038F027E053
S11328C017E005C027E04CE3E42E02C0212FE12CE1
S11328D0520144E0A40EB11CF20160817181828135
S11328E093810E2DA3010E948E1C2C01098100FFEF
S11328F002C003FF07C031FC08C032FE09C030E249
S1132900232E07C02DE2222E04C09BE2292E01C0F3
S1132910212C802F8C7019F0211068C2A8C237FEB8
S11329200FC0E40C04FF04C08A81813309F4EA94E3
S11329301E1474F5F8E0FE1578F588E0E82E2CC036
S113294036FC2AC0812F90E0841595059CF02CEF6D
S113295042162FEF520674F0432D4068342E0AC0FD
S1132960E2E0F0E0EC0FFD1FE10FF11D8081803308
S113297019F411501111F4CF37FE0EC0EE24E39474
S1132980E10E812F90E0481659062CF4141904C066
S1132990EE24E39401C010E037FE06C014141504BD
S11329A034F4C201019605C085E090E002C081E0E4
S11329B090E021100196112331F0212F30E02F5F98
S11329C03F4F820F931F2F2D30E08217930714F48B
S11329D0F81A01C0F12C832D897049F4FF2039F0D5
S11329E0B60180E290E00E947C1DFA94F7CF222089
S11329F029F0B601822D90E00E947C1D33FC09C0B1
S1132A00FF2039F0B60180E390E00E947C1DFA9427
S1132A10F7CF37FE5AC0942D852D57FE02C090E0A3
S1132A2080E0292E382E20E030E0A2014E19510911
S1132A305D874C87A201421953095F874E87612F36
S1132A4070E044275527461B570B598B488B5FEF83
S1132A502516350649F4B6018EE290E02A8B3B8BAD
S1132A600E947C1D3B892A89421453046CF04C85D6
S1132A705D854215530544F4EE85FF85E20FF31F8F
S1132A80E60DF71D818101C080E351E0251A31086C
S1132A902F5F3F4F48895989241635064CF0B601FB
S1132AA090E02A8B3B8B0E947C1D2A893B89CFCFE7
S1132AB02414350439F49A81963318F4953311F4B7
S1132AC004FF81E3B60190E04BC08A81813309F0B1
S1132AD00F7EB60190E00E947C1D111105C034FCEC
S1132AE018C085E690E017C0B6018EE290E00E941F
S1132AF07C1D82E0EE24E394E80EF301E80FF11D5F
S1132B008081B60190E00E947C1D11508E2D91F7BA
S1132B10E6CF85E490E0B6010E947C1D57FC05C019
S1132B204114510439F404FF05C0519441945108EF
S1132B308DE201C08BE2B60190E00E947C1D80E32F
S1132B409AE0491651042CF08F5F5AE0451A510857
S1132B50F7CFB60190E00E947C1DB601C201C09679
S1132B600E947C1D57C1833631F0833779F0833559
S1132B7009F058C021C05201E2E0AE0EB11CF201CE
S1132B808081898301E010E0230114C05201F2E046
S1132B90AF0EB11CF2014080518026FF03C0612FAB
S1132BA070E002C06FEF7FEFC2012A8B0E94711D9B
S1132BB08C012A892F7715C05201F2E0AF0EB11CA7
S1132BC0F2014080518026FF03C0612F70E002C0F3
S1132BD06FEF7FEFC2012A8B0E94661D8C012A8948
S1132BE02068322E23FD1AC08F2D90E00817190794
S1132BF0A8F4B60180E290E00E947C1DFA94F4CF20
S1132C00F20137FC859137FE81912F01B60190E0E6
S1132C100E947C1DF110FA9401501109011511054F
S1132C2079F7F8C0843611F0893659F5520127FF37
S1132C3009C0F4E0AF0EB11CF201608171818281A0
S1132C4093810AC0F2E0AF0EB11CF2016081718180
S1132C50072E000C880B990B2F76322E97FF09C094
S1132C6090958095709561957F4F8F4F9F4F206809
S1132C70322E2AE030E0A3010E94CA1DE82EE61895
S1132C803FC0022F853721F40F7E2AE030E01DC0BB
S1132C90097F8F3691F018F4883559F0C5C0803714
S1132CA019F0883711F0C0C0006104FF09C0046046
S1132CB007C024FF08C0066006C028E030E005C055
S1132CC020E130E002C020E132E0520107FF09C0F8
S1132CD0F4E0AF0EB11CF2016081718182819381B5
S1132CE008C0F2E0AF0EB11CF2016081718180E096
S1132CF090E0A3010E94CA1DE82EE6180F77302E3B
S1132D0036FE0BC0332D3E7FE11650F434FE0AC06C
S1132D1032FC08C0332D3E7E05C00E2D332D03C07A
S1132D200E2D01C0012F34FF0CC0FE01EE0DF11D6C
S1132D308081803311F4397E08C032FF05C00E5FF4
S1132D4004C0832F867809F00F5F33FD13C030FF72
S1132D5006C01E2D0F1518F41F0D101B0F2D0F1577
S1132D6068F4B60180E290E03B8B0E947C1D0F5F0B
S1132D703B89F5CF0F1510F4F01A01C0F12C34FF84
S1132D8012C0B60180E390E03B8B0E947C1D3B891E
S1132D9032FF17C031FD03C088E790E002C088E528
S1132DA090E0B6010CC0832F867859F031FF02C041
S1132DB08BE201C080E237FD8DE2B60190E00E9413
S1132DC07C1DE11638F4B60180E390E00E947C1D7E
S1132DD01150F7CFEA94F301EE0DF11D8081B60195
S1132DE090E00E947C1DE110F5CF14C0F4E0FF15C3
S1132DF058F584E0F81A33FE1EC0211026C003FFE4
S1132E002AC00EEF10E0F32DF0713F2EF8018491EB
S1132E10811124C0FF2009F4E5CCB60180E290E0E2
S1132E200E947C1DFA94F6CFF6018681978126C014
S1132E308FEF9FEF23C0B60180E290E00E947C1DDB
S1132E40FA94F110F8CFD9CFF12CB601822D90E08D
S1132E500E947C1DD4CF02E011E0D5CF3110805206
S1132E60B60190E00E947C1D0F5F1F4FCFCF23E07F
S1132E702F1510F483E0BECFF12CC1CF6396E2E1AD
S1132E800C94371B5058BB27AA270E945A170C943E
S1132E9075180E94671838F00E946E1820F039F4F3
S1132EA09F3F19F426F40C9464180EF4E095E7FBA4
S1132EB00C945E18E92F0E94861858F3BA1762071B
S1132EC073078407950720F079F4A6F50C94A818E5
S1132ED00EF4E0950B2EBA2FA02D0B01B901900131
S1132EE00C01CA01A0011124FF27591B99F0593F75
S1132EF050F4503E68F11A16F040A22F232F342FBD
S1132F004427585FF3CF469537952795A795F0400A
S1132F105395C9F77EF41F16BA0B620B730B840B1F
S1132F20BAF09150A1F0FF0FBB1F661F771F881FD7
S1132F30C2F70EC0BA0F621F731F841F48F487952F
S1132F4077956795B795F7959E3F08F0B0CF939521
S1132F50880F08F09927EE0F9795879508950E949A
S1132F60C3170C9475180E946E1858F00E946718C5
S1132F7040F029F45F3F29F00C945E1851110C9431
S1132F80A9180C9464180E94861868F39923B1F365
S1132F90552391F3951B550BBB27AA27621773077B
S1132FA0840738F09F5F5F4F220F331F441FAA1F0F
S1132FB0A9F335D00E2E3AF0E0E832D091505040CB
S1132FC0E695001CCAF72BD0FE2F29D0660F771F79
S1132FD0881FBB1F261737074807AB07B0E809F05F
S1132FE0BB0B802DBF01FF2793585F4F3AF09E3FE4
S1132FF0510578F00C945E180C94A9185F3FE4F323
S1133000983ED4F3869577956795B795F7959F5F26
S1133010C9F7880F911D9695879597F90895E1E072
S1133020660F771F881FBB1F621773078407BA07D1
S113303020F0621B730B840BBA0BEE1F88F7E0952C
S11330400895E89409C097FB3EF490958095709597
S113305061957F4F8F4F9F4F9923A9F0F92F96E9E0
S1133060BB279395F695879577956795B795F11155
S1133070F8CFFAF4BB0F11F460FF1BC06F5F7F4FF2
S11330808F4F9F4F16C0882311F096E911C0772304
S113309021F09EE8872F762F05C0662371F096E80D
S11330A0862F70E060E02AF09A95660F771F881FDC
S11330B0DAF7880F9695879597F9089597F99F679A
S11330C080E870E060E008959FEF80EC08950024AC
S11330D00A941616170618060906089500240A9479
S11330E012161306140605060895092E0394000CFF
S11330F011F4882352F0BB0F40F4BF2B11F460FF8E
S113310004C06F5F7F4F8F4F9F4F089557FD9058B6
S1133110440F551F59F05F3F71F04795880F97FB97
S1133120991F61F09F3F79F0879508951216130651
S11331301406551FF2CF4695F1DF08C01616170680
S11331401806991FF1CF86957105610508940895B5
S1133150E894BB2766277727CB0197F908950E9447
S11331608E18A8F19E57B0F1985160F039F198305B
S113317070F5092E9927660F771F881F991F0A94E7
S1133180D1F71CC0BB27993F4CF4B111B1E0B62B69
S1133190672F782F8827985FB1F708C086957795B1
S11331A06795B79508F4B1609395C1F7BB0F30F4F8
S11331B011F460FF03C06F5F7F4F8F4F3EF4909513
S11331C08095709561957F4F8F4F9F4F08956894B8
S11331D00C94A9180C94A8180E94FF180C94751844
S11331E00E94671838F00E946E1820F0952311F0A1
S11331F00C945E180C94641811240C94A9180E9461
S1133200861870F3959FC1F3950F50E0551F629F88
S1133210F001729FBB27F00DB11D639FAA27F00D2B
S1133220B11DAA1F649F6627B00DA11D661F829F52
S11332302227B00DA11D621F739FB00DA11D621F37
S1133240839FA00D611D221F749F3327A00D611D54
S1133250231F849F600D211D822F762F6A2F112436
S11332609F5750409AF0F1F088234AF0EE0FFF1F69
S1133270BB1F661F771F881F91505040A9F79E3FC0
S1133280510580F00C945E180C94A9185F3FE4F388
S1133290983ED4F3869577956795B795F795E79516
S11332A09F5FC1F7FE2B880F911D9695879597F91F
S11332B00895FA01EE0FFF1F309621053105A1F1A3
S11332C06115710561F48038BFE39B0749F1689487
S11332D09038810561F08038BFEF9B0741F0992356
S11332E04AF5FF3FE1053105210519F1E8940894F9
S11332F0E795D901AA2329F4AB2FBE2FF85FD0F3A9
S113330010C0FF5F70F4A695E0F7F73950F019F09C
S1133310FF3A38F49F779F930DD00F9007FC905895
S1133320089546F00C94641860E070E080E89FE330
S113333008954FE79F775F934F933F932F930E9496
S1133340541A2F913F914F915F910E94EC180C9465
S1133350B11929F416F00C945E180C94A8180C9466
S113336064180E948E18A8F39638A0F707F80F92F5
S1133370E8942BE33AEA48EB5FE70E9402190F92C4
S11333800F920F924DB75EB70F920E949C1AECE712
S1133390F0E00E94E3194F915F91EF91FF91E59561
S11333A0EE1FFF1F49F0FE57E0684427EE0F441F4D
S11333B0FA95E1F74195550B0E94161A0F9007FEF6
S11333C00C940A1A0895DF93CF931F930F93FF92DF
S11333D0EF92DF927B018C01689406C0DA2EEF0134
S11333E00E94FF18FE01E894A5912591359145911D
S11333F05591A6F3EF010E945A17FE019701A80107
S1133400DA9469F7DF90EF90FF900F911F91CF91BD
S1133410DF9108959B01AC0160E070E080E89FE3D8
S11334200C94AF170C945E180C94D01A0E948E184A
S1133430D8F39923C9F3940F511DA3F3915050402D
S113344094F059F0882332F0660F771F881F91504B
S11334505040C1F79E3F51052CF7880F911D96955A
S1133460879597F908955F3FACF0983E9CF0BB2791
S1133470869577956795B79508F4B1609395C1F7EC
S1133480BB0F58F711F460FFE8CF6F5F7F4F8F4F8A
S11334909F4FE3CF0C94A91816F00C94D01A0C94F7
S11334A0641868940C945E180E948E18A8F39923EB
S11334B0C1F3AEF3DF93CF931F930F93FF92C92F02
S11334C0DD2788232AF02197660F771F881FDAF7F4
S11334D020E030E040E85FEB9FE3883920F0803E55
S11334E038F021968F770E944317E4EAF0E004C095
S11334F00E944317E1EDF0E00E94E3198B01BE0145
S1133500EC01FB2E6F5771097595771F880B990B8A
S11335100E94231828E132E741E35FE30E94FF1889
S1133520AF2D9801AE01FF900F911F91CF91DF91C4
S11335300E945A170C947518FA01DC01AA0FBB1FDC
S11335409B01AC01BF5728F4222733274427507826
S113355020C0B75190F4AB2F00244695379527959A
S1133560011CA395D2F3002071F0220F331F441FD6
S1133570B395DAF30ED00C94421761307105A0E8CC
S11335808A07B94630F49B01AC0166277727882760
S11335909078309621F020833183428353830895B9
S11335A09F3F31F0915020F4879577956795B795B3
S11335B0880F911D9695879597F90895DB018F9350
S11335C09F930E94101BBF91AF91A29F800D911DEC
S11335D0A39F900DB29F900D11240895A1E21A2E7D
S11335E0AA1BBB1BFD010DC0AA1FBB1FEE1FFF1FA3
S11335F0A217B307E407F50720F0A21BB30BE40BF3
S1133600F50B661F771F881F991F1A9469F7609539
S11336107095809590959B01AC01BD01CF010895F3
S11336200E94521BA59F900DB49F900DA49F800DE6
S1133630911D112408952F923F924F925F926F92A1
S11336407F928F929F92AF92BF92CF92DF92EF922E
S1133650FF920F931F93CF93DF93CDB7DEB7CA1BAF
S1133660DB0B0FB6F894DEBF0FBECDBF09942A88DA
S1133670398848885F846E847D848C849B84AA8482
S1133680B984C884DF80EE80FD800C811B81AA810F
S1133690B981CE0FD11D0FB6F894DEBF0FBECDBFDA
S11336A0ED010895A29FB001B39FC001A39F700DC7
S11336B0811D1124911DB29F700D811D1124911D36
S11336C00895CF93DF938230910510F482E090E067
S11336D0E0913C02F0913D0220E030E0C0E0D0E017
S11336E0309711F14081518148175907C0F04817AC
S11336F0590761F482819381209719F09B838A830F
S11337002BC090933D0280933C0226C021153105C5
S113371019F04217530718F49A01BE01DF01EF01B3
S11337200280F381E02DDCCF2115310509F1281B3E
S1133730390B2430310590F412968D919C91139796
S11337406115710521F0FB019383828304C090937A
S11337503D0280933C02FD01329644C0FD01E20F1C
S1133760F31F81939193225031092D933C933AC0D6
S113377020913A0230913B02232B41F4209118010D
S11337803091190130933B0220933A0220911601A3
S1133790309117012115310541F42DB73EB7409101
S11337A01A0150911B01241B350BE0913A02F09150
S11337B03B02E217F307A0F42E1B3F0B281739072F
S11337C078F0AC014E5F5F4F2417350748F04E0F79
S11337D05F1F50933B0240933A028193919302C03E
S11337E0E0E0F0E0CF01DF91CF9108950F931F93B4
S11337F0CF93DF93009709F48CC0FC0132971382B6
S1133800128200913C0210913D020115110581F4D0
S113381020813181820F931F20913A0230913B0223
S11338202817390779F5F0933B02E0933A0271C007
S1133830D80140E050E0AE17BF0750F412962D9126
S11338403C911397AD012115310509F1D901F3CF4D
S11338509D01DA013383228360817181860F971F72
S11338608217930769F4EC0128813981260F371FE9
S11338702E5F3F4F318320838A819B819383828390
S1133880452B29F4F0933D02E0933C0242C0139689
S1133890FC93EE931297ED01499159919E01240FE7
S11338A0351FE217F30771F480819181840F951F0E
S11338B0029611969C938E938281938113969C9386
S11338C08E931297E0E0F0E0D80112968D919C91CE
S11338D01397009719F0F8018C01F6CF8D919C9104
S11338E098012E5F3F4F820F931F20913A0230912F
S11338F03B022817390769F4309729F410923D02E6
S113390010923C0202C01382128210933B02009375
S11339103A02DF91CF911F910F910895283008F05A
S113392027E03327DA01990F311D87FD9160009656
S11339306105710539F432602E5F3D9330E32A95B9
S1133940E1F708959F3F30F080387105610509F073
S11339503C5F3C5F3D93913008F08068911DDF939C
S1133960CF931F930F93FF92EF92192F987F969501
S1133970E92F96959695E90FFF27E05AFE4F992770
S11339803327EE24FF24A701E70105900894079448
S113399028F4360FE71EF81E491F511D660F771FC6
S11339A0881F991F0694A1F70590079428F4E70E41
S11339B0F81E491F561FC11D770F881F991F661FC8
S11339C00694A1F70590079428F4F80E491F561F92
S11339D0C71FD11D880F991F661F771F0694A1F773
S11339E00590079420F4490F561FC71FD81F990F3D
S11339F0661F771F881F0694A9F784911095177086
S1133A0041F0D695C79557954795F794E7941A953D
S1133A10C1F7E6E0F1E06894159015913591659150
S1133A20959105907FE27395E118F10A430B560BCB
S1133A30C90BD009C0F7E10CF11E431F561FC91F63
S1133A40D01D7EF4703311F48A95E6CFE8940150CA
S1133A5030F0080F0AF40027021708F4202F2395EA
S1133A60022F7A3328F079E37D932A95E9F710C081
S1133A707D932A9589F606949795679537951795BA
S1133A801794E118F10A430B560BC90BD00998F0AF
S1133A9023957E9173957A3308F070E37C93201319
S1133AA0B8F77E9170617D9330F0839571E37D93D7
S1133AB070E32A95E1F71124EF90FF900F911F9185
S1133AC0CF91DF91992787FD90950895FC0105908A
S1133AD0615070400110D8F7809590958E0F9F1F0C
S1133AE00895FC016150704001900110D8F7809551
S1133AF090958E0F9F1F08950F931F93CF93DF937D
S1133B00FB01238121FD03C08FEF9FEF28C022FF1B
S1133B1016C046815781248135814217530744F4E6
S1133B20A081B1819D012F5F3F4F318320838C930E
S1133B30268137812F5F3F4F3783268310C0EB01E7
S1133B40092F182F0084F185E02D0995892BE1F6C2
S1133B508E819F8101969F838E83812F902FDF9189
S1133B60CF911F910F910895A0E0B0E0EAEBFDE141
S1133B700C942B1BAE014B5F5F4FFA016191719165
S1133B80AF0180914002909141020E94C613E2E08D
S1133B900C94471BFA01AA27283051F1203181F1F6
S1133BA0E8946F936E7F6E5F7F4F8F4F9F4FAF4F41
S1133BB0B1E03ED0B4E03CD0670F781F891F9A1F54
S1133BC0A11D680F791F8A1F911DA11D6A0F711D08
S1133BD0811D911DA11D20D009F468943F912AE014
S1133BE0269F11243019305D3193DEF6CF010895FC
S1133BF0462F4770405D4193B3E00FD0C9F7F6CF2D
S1133C00462F4F70405D4A3318F0495D31FD4052F4
S1133C10419302D0A9F7EACFB4E0A695979587958A
S1133C2077956795BA95C9F7009761057105089569
S1133C309B01AC010A2E0694579547953795279515
S1133C40BA95C9F7620F731F841F951FA01D0895AD
S1073C50F894FFCF12
S1133C540000000200000000AD0A00000000180C7F
S1133C64041060C080200000440220004F4B004533
S1133C7472726F720054582046756C6C0054696DEE
S1133C84656F7574004D792054656D703A20256410
S1053C940A0020
S9030000FC
