S00F000058426565426F542E73726563AC
S11300000AC3000024C3000022C3000020C3000070
S11300100C942C0B0C94550B0C947E0B0C94A70B8A
S113002016C300000C940D0A0C94360A0C945F0A53
S11300300C94DA0A0C94880A0C94B10A0C94030BFD
S11300400C9492090C94BB090C94E40900C30000BD
S1130050FEC20000FCC20000FAC20000F8C20000A8
S1130060F6C20000F4C20000F2C20000F0C20000B8
S1130070EEC20000ECC20000EAC200000763423690
S1130080B79BD8A71A39685618AEBAAB558C1D3C25
S1130090B7CC5763BD6DEDFD753EF6177231BF00E9
S11300A00000803F08000000BE922449123EABAA23
S11300B0AA2ABECDCCCC4C3E00000080BEABAAAA7E
S11300C0AA3E00000000BF000000803F00000000C6
S11300D000084178D3BB4387D1133D190E3CC3BDFF
S11300E04282AD2B3E68EC8276BED98FE1A93E4CAC
S11300F080EFFFBE01C4FF7F3F00000000006E617F
S11301006E00696E660000407A10F35A00A0724EC9
S113011018090010A5D4E80000E87648170000E4A8
S11301200B54020000CA9A3B000000E1F5050000F0
S113013080969800000040420F000000A086010055
S11301400000102700000000E80300000000640025
S1130150000000000A000000000001000000000090
S11301602C76D888DC674F0823DFC1DFAE59E1B1B4
S1130170B796E5E3E453C63AE651997696E8E6C2C3
S11301808426EB898C9B62ED407C6FFCEFBC9C9FCA
S113019040F2BAA56FA5F490055A2AF75C936B6CEC
S11301A0F9676DC11BFCE0E40D47FEF520E6B500E0
S11301B0D0ED902E0300943577050080841E08004E
S11301C000204E0A000000C80C333333330F986EFE
S11301D012831141EF8D2114893BE65516CFFEE6BB
S11301E0DB18D1844B381BF77C1D901DA4BBE42481
S11301F0203284725E228100C9F124ECA1E53D27FE
S113020016050100000000000000FA000000E000F4
S1130210E00028FE28FE282454FE5448C4C81026B2
S1130220466C92AA44A000A0C0000000384482009A
S1130230008244380028107C102810107C10100014
S11302400A0C00001010101010000606000004082C
S11302501020407C8A92A27C0042FE020042868AE0
S113026092628482A2D28C182848FE08E4A2A2A238
S11302709C3C5292920C808E90A0C06C9292926C94
S11302806092929478006C6C0000006A6C0000101C
S113029028448200282828282800824428104080E6
S11302A08A90604C929E827C7E8888887EFE9292A0
S11302B0926C7C82828244FE82824438FE929292C4
S11302C082FE909090807C8292925EFE101010FECE
S11302D00082FE8200040282FC80FE10284482FE1A
S11302E002020202FE403040FEFE201008FE7C8224
S11302F082827CFE909090607C828A847AFE9098C0
S11303009462629292928C8080FE8080FC0202024F
S1130310FCF8040204F8FC021C02FCC6281028C6DF
S1130320E0100E10E0868A92A2C200FE8282004093
S113033020100804008282FE002040804020020237
S11303400202020080402000042A2A2A1EFE1222F1
S1130350221C1C222222041C222212FE1C2A2A2ACB
S113036018107E908040304A4A4A7CFE1020201E9D
S11303700022BE0200040222BC00FE081422000077
S113038082FE02003E2018201E3E1020201E1C2249
S113039022221C3E28282810102828183E3E10200F
S11303A02010122A2A2A0420FC2202043C020204FD
S11303B03E38040204383C020C023C221408142285
S11303C0300A0A0A3C22262A322200106C820000DB
S11303D000FE000000826C100008101008100000DD
S11303E00000007F8181817F7F8383837F7F878774
S11303F0877F7F8F8F8F7F7F9F9F9F7F7FBFBFBFB1
S11304007F7FFFFFFF7F2040FF40206215171565A7
S113041000FBFB00000000000000C0FF0300E0FF41
S11304200700F0FF0F00F8FF1F0078001E0078009F
S11304301E0078001E0078001E0078001E00780060
S11304401E0078001E0078001E0078001E000000C8
S113045000000000000080FF0300E0FF0700F0FF41
S11304600F00F8FF1F00F83C1F00783C1E00783C8A
S11304701E00783C1E00783C1E00783C1E00783C30
S11304801E00783C1E00783C1E00783C1E00783C20
S11304901E000000000000000000E0FF0300F0FF69
S11304A00700F8FF0F00F8FF1F00783C1E00783C9F
S11304B01E00783C1E00783C1E00783C1E00783CF0
S11304C01E00783C1E00783C1E00783C1E00783CE0
S11304D01E000000000000000000F8FF0300F8FF09
S11304E00F00F8FF1F00F8FF1F0000001E000000AF
S11304F01E0000801F0000F01F0000FF0F00E0FF3F
S11305000700F0FF0000F80F0000F800000078007A
S1130510000078000000F8FF1F00F8FF1F00F0FF44
S11305201F00E0FF1F000000000000000000F8FFB3
S11305301F00F8FF1F00F8FF1F00F8FF1F007800DE
S11305401E00783C1E00783C1E00783C1E00783C5F
S11305501E00783C1E00783C1E00F87E1F00F8FF49
S11305601F00F0FF0F00E0E70300000000000000A0
S11305703800EEFF6C002A8045003A0047FC03FF78
S11305806CFC83FF3900DEFF0B7CD0810BFCD08137
S11305900BC0D0810BFCD0810B7CDEFF0B0082FFF3
S11305A0397002FF6CF83A0047DC2A8045CCEEFF34
S11305B06CCC000038000000000C00001E0C000091
S11305C01E0000001E0000001E0000001E00F8FFB8
S11305D01F00F8FF1F00F8FF1F00F8FF1F000000B6
S11305E01E0000001E0000001E0000001E0000008F
S11305F05E000000400000007C000000400000009D
S1130600400000007C0000003000000010000000EA
S1130610300000007C0011241FBECFEFD8E0DEBF05
S1130620CDBF11E0A0E0B1E0E8E1FDE302C0059038
S11306300D92AC33B107D9F722E0ACE3B1E001C0CD
S11306401D92AE33B207E1F775D00C948A1ED8CC54
S11306508FE0BDD2882311F082E0089560D081E05C
S113066008958FE0C1D2882319F420E030E013C04C
S113067080917A00806480937A0080917A0086FD6C
S1130680FCCF3091780020917900922F80E0232FC5
S113069030E0282B392BC9010895ECE7F0E0908174
S11306A08295880F880F807C9F73982B9083089580
S11306B0582F809100018830D8F440917E0021E0C9
S11306C030E0B90102C0660F771F8A95E2F7CB01CB
S11306D08095842380937E0080917E00052E02C045
S11306E0220F331F0A94E2F7822B80937E000DC001
S11306F020917E0081E090E0052E02C0880F991FB2
S11307000A94E2F7282B20937E00509300018091F5
S11307107C005F71807E852B80937C0008958FE13F
S113072080937C00EAE7F0E087E080838081806842
S113073080830895F5D5ECD50E943E1480E090E0C6
S113074008950F931F9385E04FD28823A1F080E48E
S113075060E0CDD000E0802F60E07FD010E080E04A
S113076061E0C5D01F5F1038D1F70F5F043099F7EF
S113077083E060E0ABD01F910F9108950F931F9316
S113078085E025D2882311F082E064C0CBD0182FF5
S113079037D21150123008F05AC08150823008F01C
S11307A056C0BED08EEA60E0A2D082EA60E09FD05C
S11307B080EA60E09CD000E513ECC8010197F1F7F2
S11307C080EC60E094D08FE260E091D081E860E05A
S11307D08ED086E160E08BD082E260E088D0C801F0
S11307E00197F1F78FEA60E082D086EA60E07FD07B
S11307F085EA60E07CD080E090E028E833E1F9010C
S11308003197F1F7019643E0883E9407C1F783EBF3
S113081060E06DD080E460E06AD083E060E01DD0E9
S113082083E060E053D01092D6011092D801109268
S1130830D70181E091E090933B0280933A0288E1F2
S11308402AD07FDF84EA60E052D081E003C085E0F3
S1130850AED187E01F910F910895FF920F931F93DC
S1130860082FF62E85E0C0D1882389F01F2D1F772D
S11308700370802F806B60E03AD012951F70812F37
S1130880806160E034D08F2D8F7060E030D01F9194
S11308900F91FF9008951F93182F85E0A5D1882309
S11308A099F087E076D082E06AE0C3D082E061EB21
S11308B0C0D0612F113208F060E282E0BAD089EE34
S11308C08A95F1F787E065D01F9108950F931F93E0
S11308D0082F162F85E088D1882331F003701F7705
S11308E01093D4010093D5011F910F9108950F9394
S11308F01F93082F162F85E077D1882371F01123D9
S113090019F0113021F402C02B9801C02B9A86E013
S11309108A95F1F780E0602F8CD01F910F91089594
S1130920239A089582E053D1882311F082E0089538
S11309308DD080E06BEF7CE023D081E063EF7CE03E
S11309401FD082E06BEE7CE01BD086E063E07DE0AC
S113095017D083E063EE7CE013D084E063EE7CE0A8
S11309600FD085E063EE7CE00BD087E063EE7CE0A3
S113097007D08FEF8093D90187E00BD081E00895F1
S1130980E82FF0E0EE0FFF1FE458FE4F7183608301
S113099008951F93182F82E027D1882309F447C0B4
S11309A0912F97708091D901981709F440C09093C2
S11309B0D90185B1887F892B85B9933011F19430A1
S11309C028F4913051F0923090F40CC0953019F124
S11309D09530E0F0963021F50FC0E0917E01F09162
S11309E07F0122C0E0917C01F0917D011DC0E09166
S11309F08001F091810118C0E0918801F091890192
S1130A0013C0E0918201F09183010EC0E091840152
S1130A10F091850109C0E0918601F091870104C03D
S1130A20E0918A01F0918B01309709F009951F91AB
S1130A3008951F93162FADDF82E0D6D0882321F0CE
S1130A401EBD0DB407FEFDCF1F910895259A26986B
S1130A50279A209A219A229A089587E0B8D0882369
S1130A6011F082E0089599D081E0809310021092F1
S1130A70DA011092DB011092DD011092DC01109278
S1130A80DF011092DE011092E1011092E001109258
S1130A90E3011092E2011092E5011092E401109238
S1130AA0E7011092E6011092E9011092E801109218
S1130AB0EB011092EA011092ED011092EC011092F8
S1130AC0EF011092EE011092F1011092F0011092D8
S1130AD0F3011092F2011092F8011092F9011092B0
S1130AE0FA011092FB011092FD011092FE01109286
S1130AF0FF01109200021092010210920202109261
S1130B00030210920502109204021092070210923E
S1130B100602109209021092080210920B0210921F
S1130B200A021092F5011092F4011092F70110924A
S1130B30F60110920F0210920E0210921002089504
S1130B40482F81E080931002CB0121E061397207C4
S1130B5010F080E991E0413061F0413018F042300A
S1130B60C9F40EC0F8949093DD018093DC0178946D
S1130B7011C0F8949093DF018093DE0178940AC049
S1130B80F8949093DD018093DC019093DF018093CE
S1130B90DE0178941092100208953A9A3B9A3C9A96
S1130BA03D9A3E9A3F9A88B1837088B908958531F9
S1130BB060F4E82FF0E0ED55FE4F8081882329F0A2
S1130BC0808181508083808108958FEF08958531DD
S1130BD010F080E00895E82FF0E0ED55FE4F80819D
S1130BE08F5F808381500895853110F080E00895EF
S1130BF0E82FF0E0ED55FE4F8081811181E00895EA
S1130C00DF93CF9300D00F92CDB7DEB781E0DFDF63
S1130C10882311F082E00EC085DE8150823038F4E2
S1130C200FD0CE0101960E94A20E81E003C081E0A4
S1130C30BEDF87E00F900F900F90CF91DF91089562
S1130C40109228021092270210922A02109229026E
S1130C5010922C0210922B0210922E0210922D024E
S1130C601092300210922F0280E991E090931402C6
S1130C7080931302909316028093150290931802A6
S1130C808093170290931A028093190290931C0286
S1130C9080931B0284E398E090931E0280931D02CC
S1130CA09093200280931F0290932202809321024A
S1130CB0909324028093230290932602809325022A
S1130CC00895EF92FF920F931F93CF93DF93EC015C
S1130CD0F62EE42E890188E087DF882311F481E071
S1130CE025C084E090E00E94C51BFC01009711F42C
S1130CF082E01CC0F982F0FC1E8281E0E81619F43F
S1130D008981846089838981886089831B830A83BC
S1130D101D830C83D183C0831382128281E080936C
S1130D209C01CF010AD010929C0180E0DF91CF9109
S1130D301F910F91FF90EF900895CF92DF92EF9261
S1130D40FF920F931F93CF93DF93EC0180913102B5
S1130D50882339F4D0933302C09332020E94220FC5
S1130D6047C0C0903202D090330200E010E0EE247D
S1130D70FF2437C0A881B981FD0164817581F60122
S1130D8040815181FA01848195819B01281B390B93
S1130D9037FF0FC0861B970B95838483DB82CA823F
S1130DA0012B29F4D0933302C093320221C0F701FE
S1130DB00CC0F601828193812115310549F4FD01AE
S1130DC0158214829B838A83F601D383C28310C065
S1130DD0FD01358324830097B9F30F5F1F4F76011C
S1130DE06C018091310290E00817190718F2ECCFDA
S1130DF0809131028F5F80933102DF91CF911F91F7
S1130E000F91FF90EF90DF90CF900895CF92DF92F3
S1130E10EF92FF920F931F93CF93DF937B018C018B
S1130E20EA01690181E0E81681EEF80680E008072E
S1130E3080E0180740F444E0EE0CFF1C001F111F73
S1130E404A95D1F707C033E0EE0CFF1C001F111FB9
S1130E503A95D1F760E072EC8BEE9BE0A801970124
S1130E600E94531B79018A0186EF9FEFAFEFBFEF1A
S1130E70E80EF91E0A1F1B1FC801B7012AE030E063
S1130E8040E050E00E94531B6530710581059105D7
S1130E9040F08AE090E0A0E0B0E0E80EF91E0A1FFE
S1130EA01B1FC801B7012AE030E040E050E00E9477
S1130EB0531BC901DA012883892F9A2FAB2FBB2733
S1130EC0F6018083DF91CF911F910F91FF90EF90F6
S1130ED0DF90CF900895BF92CF92DF92EF92FF926E
S1130EE00F931F93DF93CF9300D0CDB7DEB7B62E09
S1130EF0C42ED22E882321F0813009F073C03AC069
S1130F008DE072DE882309F46DC01A821982109272
S1130F10C0001092C1001092C200C801B701AE0116
S1130F204E5F5F4F9E012F5F3F4F70DFBB0CDD0CA8
S1130F30DD0CDD0CDD0CDB28CC0CCC0CCC0CCD2872
S1130F408A818093C40089818093C500C092C200C5
S1130F5081E0E81681EEF80680E0080780E01807D3
S1130F6028F08091C00082608093C00081E080936B
S1130F70CC0138C08EE038DE8823A1F119821A82B0
S1130F801092C8001092C9001092CA00C801B7019B
S1130F90AE014F5F5F4F9E012E5F3F4F37DFBB0CAB
S1130FA0DD0CDD0CDD0CDD0CDB28CC0CCC0CCC0C0E
S1130FB0CD2889818093CC008A818093CD00C09212
S1130FC0CA0081E0E81681EEF80680E0080780E0B8
S1130FD0180728F08091C80082608093C80081E0DF
S1130FE08093D1010F900F90CF91DF911F910F91BA
S1130FF0FF90EF90DF90CF90BF900895882319F071
S1131000813091F407C08DE0EFDD882369F0809191
S1131010C00006C08EE0E8DD882331F08091C8006E
S1131020881F8827881F089580E00895882321F069
S11310308130A1F084E008958DE0C9DD882339F57D
S11310401092CC011092CA011092CB0154D180E0CD
S113105065E070E0FCD081EC91E012C08EE0B7DD79
S11310608823A9F41092D1011092CF011092D001DB
S113107081E041D181E065E070E0E9D088EB91E066
S113108061E041E028EE33E01CDE81E0089582E077
S11310900895CF93DF93EB01882321F0813009F089
S11310A044C021C08DE0A0DD882309F43EC0209116
S11310B0CD013091CE018091CB018130B1F50FC0CB
S11310C08091C701882321F0215030401092C7013C
S11310D08091C00087FF03C08091C6001FC0121614
S11310E0130674F324C08EE07FDD8823F1F0209191
S11310F0D2013091D3018091D0018130B1F411C07B
S11311008091BE01882321F0215030401092BE010D
S11311108091C80087FF05C08091CE00888380E05D
S113112007C01216130664F302C081E001C083E015
S1131130DF91CF9108950F931F93182F062F8823C3
S113114011F48DE003C0813021F48EE04DDD88235D
S1131150A9F10023F9F0013089F5112319F01130B8
S113116069F50CC08091CC01813041F58091C100BA
S113117080618093C1000093CB0120C08091D10194
S11311808130E1F48091C90080618093C9000093AB
S1131190D00114C0112319F0113081F408C08091DA
S11311A0C1008F7E8093C1001092CB0107C0809153
S11311B0C9008F7E8093C9001092D0011F910F91B6
S11311C008950F931F93182F062F882311F48DE091
S11311D003C0813021F48EE007DD8823A9F10023C8
S11311E0F9F0013089F5112319F0113069F50CC0BB
S11311F08091CC01813041F58091C1008860809359
S1131200C1000093CA0120C08091D1018130E1F472
S11312108091C90088608093C9000093CF0114C0F5
S1131220112319F0113081F408C08091C100877F27
S11312308093C1001092CA0107C08091C900877FC2
S11312408093C9001092CF011F910F91089577FFE9
S113125003C060E070E005C06F31710514F06EE109
S113126070E0882319F0813051F405C07093CE01E9
S11312706093CD0108957093D3016093D2010895D2
S11312801F93162F882319F0813091F518C08DE033
S1131290ABDC882369F18091CA01813049F58091E2
S11312A0C00085FFFCCF1093C6008091C00086FF6C
S11312B0FCCF8091C00080648093C00017C08EE092
S11312C093DC8823A9F08091CF01813089F4809147
S11312D0C80085FFFCCF1093CE008091C80086FF24
S11312E0FCCF8091C80080648093C80080E001C076
S11312F081E01F910895882319F0813041F404C0DE
S1131300519A5098599A0895539A52985B9A08950D
S113131003D5FDD245D27DD505DB72DC78940895E2
S1131320000008951F920F920FB60F9211242F936D
S11313303F934F935F936F937F938F939F93AF9359
S1131340BF93EF93FF93E0915C01F0915D013097BF
S113135009F00995FF91EF91BF91AF919F918F9102
S11313607F916F915F914F913F912F910F900FBE9D
S11313700F901F9018951F920F920FB60F92112481
S11313802F933F934F935F936F937F938F939F9389
S1131390AF93BF93EF93FF93E0915E01F0915F01F0
S11313A0309709F00995FF91EF91BF91AF919F910B
S11313B08F917F916F915F914F913F912F910F90FA
S11313C00FBE0F901F9018951F920F920FB60F9299
S11313D011242F933F934F935F936F937F938F9336
S11313E09F93AF93BF93EF93FF93E0916001F091CC
S11313F06101309709F00995FF91EF91BF91AF9189
S11314009F918F917F916F915F914F913F912F9118
S11314100F900FBE0F901F9018951F920F920FB64A
S11314200F9211242F933F934F935F936F937F9366
S11314308F939F93AF93BF93EF93FF93E0914E01EC
S1131440F0914F01309709F00995FF91EF91BF9109
S1131450AF919F918F917F916F915F914F913F9148
S11314602F910F900FBE0F901F9018951F920F92FF
S11314700FB60F9211242F933F934F935F936F9363
S11314807F938F939F93AF93BF93EF93FF93E091D9
S11314905001F0915101309709F00995FF91EF91B6
S11314A0BF91AF919F918F917F916F915F914F9178
S11314B03F912F910F900FBE0F901F9018951F9280
S11314C00F920FB60F9211242F933F934F935F9374
S11314D06F937F938F939F93AF93BF93EF93FF93F8
S11314E0E0915201F0915301309709F00995FF9171
S11314F0EF91BF91AF919F918F917F916F915F9188
S11315004F913F912F910F900FBE0F901F90189500
S11315101F920F920FB60F9211242F933F934F9364
S11315205F936F937F938F939F93AF93BF93EF9347
S1131530FF93E0915601F0915701309709F0099516
S1131540FF91EF91BF91AF919F918F917F916F9197
S11315505F914F913F912F910F900FBE0F901F906D
S113156018951F920F920FB60F9211242F933F9349
S11315704F935F936F937F938F939F93AF93BF9397
S1131580EF93FF93E0915801F0915901309709F0DE
S11315900995FF91EF91BF91AF919F918F917F91A9
S11315A06F915F914F913F912F910F900FBE0F90CC
S11315B01F9018951F920F920FB60F9211242F931C
S11315C03F934F935F936F937F938F939F93AF93C7
S11315D0BF93EF93FF93E0915401F091550130973D
S11315E009F00995FF91EF91BF91AF919F918F9170
S11315F07F916F915F914F913F912F910F900FBE0B
S11316000F901F9018951F920F920FB60F921124EE
S11316102F933F934F935F936F937F938F939F93F6
S1131620AF93BF93EF93FF93E0915A01F0915B0165
S1131630309709F00995FF91EF91BF91AF919F9178
S11316408F917F916F915F914F913F912F910F9067
S11316500FBE0F901F9018951F920F920FB60F9206
S113166011242F933F934F935F936F937F938F93A3
S11316709F93AF93BF93EF93FF93E0914401F09155
S11316804501309709F00995FF91EF91BF91AF9112
S11316909F918F917F916F915F914F913F912F9186
S11316A00F900FBE0F901F9018951F920F920FB6B8
S11316B00F9211242F933F934F935F936F937F93D4
S11316C08F939F93AF93BF93EF93FF93E091460162
S11316D0F0914701309709F00995FF91EF91BF917F
S11316E0AF919F918F917F916F915F914F913F91B6
S11316F02F910F900FBE0F901F9018951F920F926D
S11317000FB60F9211242F933F934F935F936F93D0
S11317107F938F939F93AF93BF93EF93FF93E09146
S11317204801F0914901309709F00995FF91EF9133
S1131730BF91AF919F918F917F916F915F914F91E5
S11317403F912F910F900FBE0F901F9018951F92ED
S11317500F920FB60F9211242F933F934F935F93E1
S11317606F937F938F939F93AF93BF93EF93FF9365
S1131770E0914A01F0914B01309709F00995FF91EE
S1131780EF91BF91AF919F918F917F916F915F91F5
S11317904F913F912F910F900FBE0F901F9018956E
S11317A080E115DA882311F082E00895ECE3F1E09A
S11317B01192119281E0EC37F807D1F781E0089596
S11317C0FF920F931F93CF93DF93F82E8AE0F816BE
S11317D0B1F08F1548F0E8E0FE16B1F1EF1530F1E5
S11317E0F7E0FF1651F43AC08DE0F81659F0EBE13A
S11317F0FE1689F0FCE0FF1641F001E03DC01092B6
S1131800D40103C01092D40136C08091D501815017
S11318108093D50130C00E94A10313C080E061E031
S113182066D88091D4018F5F8093D4018091D401D4
S113183087FFF4CF1092D4018091D5018150809319
S1131840D50100E011E019C08091D401882399F0FA
S11318508091D40186508093D4010DC081E09CD145
S113186064EF71E080E090E04DE750E024E630E082
S11318709BD181E003D100E010E08091D50160911B
S1131880D4010E942D04002341F185E0F89EC0019B
S11318901124EC01CD59DE4F8C0108591E4FFE0175
S11318A0849161E024D82196C017D107C1F780E064
S11318B061E01DD88091D4018A5F8093D401809126
S11318C0D40190E08C3791053CF01092D4018091C2
S11318D0D50181508093D50111E08091D5018370A9
S11318E08093D501113059F48091D601813039F4B7
S11318F0E091D701F091D801309709F0099580E083
S113190090E0DF91CF911F910F91FF900895F8948B
S113191057D081E002D081E00895813049F0F894F5
S1131920813020F18230B1F0833009F045C017C016
S11319302C9A80E8809361001092610080E090E02E
S11319400000019688329105D9F710926800109230
S11319506B00089580E88093610083E004C080E810
S11319608093610088E08093610028C080E090E06B
S1131970000001962DE680369207D1F72C9880E07E
S113198090E0000001962DE680369207D1F7109280
S11319907A008FEF80936400809168008160809367
S11319A0680080916B00846080936B00789483B7A7
S11319B0816083BF88950895823008F078940895F3
S11319C0249A2C9A089583E58CBD81E08DBD8DE029
S11319D08A95F1F7089583E58CBD1DBC84EF91E0F1
S11319E00197F1F708958FE78CBD1DBC84EF91E05A
S11319F00197F1F7089583E58CBD81E08DBD8DE0FD
S1131A008A95F1F7089583E58CBD81E08DBD84EF5F
S1131A1091E00197F1F708951F93162F0E94C904CE
S1131A2082E0E2D8882329F01EBD0DB407FEFDCF65
S1131A308EB51F9108958AE0BAD8882321F481E0F5
S1131A4004D110928D01089589E0B1D88823A9F4B6
S1131A5080918C01882309F03ED182E0F6D08091F8
S1131A609A0190919B01009731F00E945A1C1092A8
S1131A709B0110929A0110928C010895813019F003
S1131A80823011F4E1CFD7CF08950F931F93CF93F2
S1131A90DF9380E291E00E94C51B9C0190939B011F
S1131AA080939A01892B11F480E039C08901C0E048
S1131AB0D0E0BE0180E090E00E944F1820E030E0CA
S1131AC040EA51E40E94E71727EF35E740E05FE37F
S1131AD00E9417199B01AC0160E070E080E291E480
S1131AE00E947A199B01AC01CA01B9012DEC3CECAE
S1131AF042E851E40E9417190E94DD182AE030E000
S1131B0040E050E00E94441BF8016193719381937B
S1131B1091938F012196C834D10559F681E0DF9164
S1131B20CF911F910F9108958AE051D8882311F025
S1131B3082E00895109297011092960181E0A1D05D
S1131B4081E080938D0108951F9389E040D8882314
S1131B5011F082E01FC08BE047D88823C1F495DFE1
S1131B60182F813011F086E015C010928E0110926A
S1131B708F0110929001109291018DE06AE57FE04F
S1131B8074D182E07ED010938C0181E003C089E09F
S1131B900ED887E01F910895813021F0823019F02A
S1131BA084E00895C1CFD0CF6F927F928F929F929D
S1131BB0AF92BF92CF92DF92EF92FF920F931F9357
S1131BC0CF93DF933B014C015A01E9018AE00CD821
S1131BD0882361F1209729F19501442737FD409529
S1131BE0542FBE01C536D10510F064E670E080E0E4
S1131BF090E00E94441B24E630E040E050E00E9464
S1131C00531B79018A01C401B30156D1C701D4D051
S1131C1060E070E080E090E04FD1C5018E199F092B
S1131C2004C0A114B10411F0C501C6D0DF91CF9155
S1131C301F910F91FF90EF90DF90CF90BF90AF90E6
S1131C409F908F907F906F900895823029F48091B7
S1131C5081008E7F8093810080918C01813031F4EA
S1131C6080918D01813011F40000089580918C01E0
S1131C70813021F080918D01813011F45F98579863
S1131C800895982F80918C01882331F480918D01DF
S1131C90882311F4579A5F9880918C018823D1F49A
S1131CA09230C1F4109280001092810080918100E2
S1131CB0886080938100809181008160809381009D
S1131CC0109285001092840081E08093890080E95D
S1131CD0809388000895EFE6F0E080818D7F808313
S1131CE00895982F81E080931002913071F0913023
S1131CF018F0923071F405C07093ED016093EC011B
S1131D0008C07093ED016093EC017093EF01609350
S1131D10EE01109210020895CF93DF93C0E0D0E05B
S1131D208C2F60E007D02196C531D105C9F7DF912A
S1131D30CF910895853128F4E82FF0E0ED55FE4F5A
S1131D40608308951F93CF93DF93EC01009781F193
S1131D5081E00E94F405882339F187E00E94C904D8
S1131D6018EC812F8A95F1F782E06AE00E94190548
S1131D7082E064EB0E941905812F8A95F1F782E0D5
S1131D8060E04ADE8883812F8A95F1F782E060E083
S1131D9043DE89831A95F1F782E060E03DDE8A83B1
S1131DA087E00E94C90404C0188219828DE28A83E4
S1131DB0DF91CF911F9108950F931F93DF93CF93DA
S1131DC0CDB7DEB729970FB6F894DEBF0FBECDBFEF
S1131DD08C0188E00E94F405882311F491E00DC081
S1131DE0CE01019661E040E098010E946106982FBF
S1131DF0882319F48F818823E9F3892F29960FB654
S1131E00F894DEBF0FBECDBFCF91DF911F910F912C
S1131E10089588E00E94E705882311F082E0089580
S1131E2010923102109233021092320210929C01ED
S1131E3010929D0180E161EC7FE02BD007D00FD0A0
S1131E4081E0089581E080939D01089584B58260C6
S1131E5084BD85B5846085BD8EE487BD0895EEE6B6
S1131E60F0E08081826080830895E82F803268F4F6
S1131E708051833050F0F0E0EE0FFF1FE45CFE4F22
S1131E80208131817183608302C020E030E0C90188
S1131E900895803218F020E030E00AC0E82FF0E026
S1131EA0EE0FFF1FE45CFE4F20813181718360835C
S1131EB0C901089525C00895EF92FF920F931F93CF
S1131EC07B018C018AE00E94F4058823A1F08091B3
S1131ED08D01882381F0D801C701880F991FAA1F9B
S1131EE0BB1F9093990180939801E114F1040105BB
S1131EF0110509F45F981F910F91FF90EF900895D9
S1131F0080918E0190918F01A0919001B0919101E7
S1131F102091920130919301409194015091950147
S1131F20280F391F4A1F5B1F20938E0130938F01A6
S1131F30409390015093910180918E0190918F0173
S1131F40A0919001B09191018851964FA040B0406A
S1131F50BCF08BB180588BB980918E0190918F0128
S1131F60A0919001B09191018851964FA040B0404A
S1131F7080938E0190938F01A0939001B09391016F
S1131F80089502D040D018C088E00E94F405882348
S1131F9011F484E0089580919D01882311F483E075
S1131FA0089580919C01882311F082E0089595D2D0
S1131FB08130E9F380E0089580918D01813011F53D
S1131FC08091960190919701209198013091990107
S1131FD0280F391F30939701209396018091960121
S1131FE090919701885E93406CF08BB180588BB9C7
S1131FF08091960190919701885E93409093970108
S113200080939601089587E00E94F405882309F4DB
S1132010A8C08091E4019091E501892B09F1809198
S11320200802909109022091E4013091E501820FA8
S1132030931F909309028093080280910802909163
S11320400902885E9340A4F08091080290910902ED
S1132050885E9340909309028093080241E009C08E
S11320608091DC019091DD019093E1018093E00186
S113207040E08091E6019091E701892B09F180917C
S11320800A0290910B022091E6013091E701820F40
S1132090931F90930B0280930A0280910A029091FD
S11320A00B02885E9340A4F080910A0290910B0287
S11320B0885E934090930B0280930A0261E009C00A
S11320C08091DE019091DF019093E3018093E2011E
S11320D060E0842F47D08091040290910502209102
S11320E0E0013091E101280F391F3093050220935C
S11320F004028091040290910502885E934014F4D6
S113210040E00BC08091040290910502885E9340E8
S1132110909305028093040241E08091060290911D
S113212007022091E2013091E301280F391F309317
S11321300702209306028091060290910702885EAE
S1132140934014F460E00BC0809106029091070262
S1132150885E9340909307028093060261E0842F87
S113216046C008958823F1F02091DC013091DD010F
S11321708091E0019091E101281B390B121613069E
S113218034F48091E0019091E101019607C0232B82
S113219049F08091E0019091E10101979093E10170
S11321A08093E001662311F12091DE013091DF017B
S11321B08091E2019091E301281B390B121613065A
S11321C054F48091E2019091E30101969093E3012C
S11321D08093E2010895232B49F08091E2019091CC
S11321E0E30101979093E3018093E20108950F9333
S11321F01F93182F062F80911002882309F0E3C043
S11322008091F801882309F058C08091E0019091F1
S1132210E101892BE1F480919E01837E80939E01EC
S11322201092010280910C02882309F45BC0609132
S1132230FA0180E02ED1E0910E02F0910F02309766
S113224009F450C081E0808310920C024BC080914D
S1132250DA01813041F48091EC019091ED01019714
S113226011F411E002C01123E9F1E091FF01F0E063
S1132270E15FFE4F90919E01937E8081892B809334
S11322809E018091FD01882321F48091FF018F5FDD
S113229003C08091FF0181508093FF018091FF0171
S11322A083708093FF0181E0809301028091DA01C1
S11322B08130C1F480E099D015C090919E01937E45
S11322C090939E01E091FF01F0E0E15FFE4F808179
S11322D0892B80939E0182E0809301021092E10198
S11322E01092E0018091F901882309F057C0809190
S11322F0E2019091E301892BE1F480919E018F71B9
S113230080939E011092020280910D02882309F4A9
S11323105AC06091FB0181E0BCD0E0910E02F091C3
S11323200F02309709F44FC081E0818310920D02AF
S11323304AC08091DB01813041F48091EE0190919B
S1132340EF01019711F401E002C00023E1F1E091F3
S11323500002F0E0ED5EFE4F90919E019F7180813E
S1132360892B80939E018091FE01882321F4809122
S113237000028F5F03C080910002815080930002AD
S11323808091000283708093000281E080930202B6
S11323908091DB018130B9F428D015C090919E0161
S11323A09F7190939E01E0910002F0E0ED5EFE4F7C
S11323B08081892B80939E0182E080930202109297
S11323C0E3011092E20180910302882329F48EE94B
S11323D091E0612F402FEED088B1837090919E01DF
S11323E0892B88B91F910F910895882321F081309A
S11323F009F04EC027C08091EC019091ED01892B2A
S113240049F08091EC019091ED0101979093ED01D9
S11324108093EC0180910C028823D1F52091EC018A
S11324203091ED018091F0019091F1012817390765
S113243079F580E060E070E00E94A00581E080937F
S11324400C0208958091EE019091EF01892B49F0DF
S11324508091EE019091EF0101979093EF018093A9
S1132460EE0180910D02882399F42091EE013091C0
S1132470EF018091F2019091F3012817390741F49B
S113248081E060E070E00E94A00581E080930D028D
S113249008950F931F93182F062F662341F460E0CD
S11324A070E00E94A005812F60E070E01ADC81E0FA
S11324B080931002113051F0113018F0123041F4B1
S11324C003C00093F80104C00093F8010093F901DC
S11324D0109210021F910F910895FF920F931F9372
S11324E0CF93DF9380913102882309F458C000917F
S11324F0320210913302F801C081D1818C819D8117
S113250001979D838C83181619060CF448C08981A1
S113251080FF05C08E81882311F481E08E83898138
S113252081FF03C0EF81F8850995809131028230E3
S1132530A8F0F80182819381909333028093320250
S113254013821282E0910000F09101008481958150
S1132550181619063CF0FF24F39405C010923302B8
S113256010923202FF248091310281508093310213
S113257080913102882309F41AD0898182FF08C02E
S11325808A819B819D838C83C8010E949D0608C01B
S1132590C8010E945A1C89818F7E898301C0FF244F
S11325A08F2DDF91CF911F910F91FF90089510927D
S11325B09D010895FC0180910102823069F48091AB
S11325C0A20191E089278093A201882309F03EC0EB
S11325D08081837E80833AC08091E0019091E10103
S11325E0C397A4F56623D1F02091E0013091E10175
S11325F080E690E0BC01269FC001279F900D369F86
S1132600900D1124880F892F881F990B9093F50141
S11326108093F40181E08093A00118C08091A0010F
S11326208823A1F08091F4019091F5010197909392
S1132630F5018093F4018091F4019091F501892BC7
S113264029F48081837E80831092A001809102020C
S1132650823069F48091A10191E089278093A101DE
S1132660882309F03EC080818F7180830895809112
S1132670E2019091E301C397A4F54423D1F02091A2
S1132680E2013091E30180E690E0AC01249FC001B7
S1132690259F900D349F900D1124880F892F881F3A
S11326A0990B9093F7018093F60181E080939F0149
S11326B0089580919F018823A1F08091F601909163
S11326C0F70101979093F7018093F6018091F60149
S11326D09091F701892B29F480818F718083109266
S11326E09F01089583E00E9458030E943103BC01B6
S11326F080E090E0D4D420E030E040EA50E497D584
S113270020E030E040E85AE392C5CF92DF92EF92A6
S1132710FF920F931F93CF93DF93CDB7DEB72B9721
S11327200FB6F894DEBF0FBECDBF6B017C0181E014
S11327300E94FE078130E9F400E010E081E00E948D
S1132740FE07813079F4BE01655F7F4F0E9449081E
S1132750E1E0F0E0EC0FFD1FE00FF11F8B858083BB
S11327600F5F1F4F0430110548F3C980DA80EB80F6
S1132770FC80C701B6012B960FB6F894DEBF0FBEDE
S1132780CDBFDF91CF911F910F91FF90EF90DF901C
S1132790CF900895AF92BF92CF92DF92EF92FF92C3
S11327A00F931F93CF93DF9300D000D0CDB7DEB744
S11327B099DF6B017C0169837A838B839C838E010F
S11327C00F5F1F4F5E0185E0A80EB11CF8016191F7
S11327D08F0181E00E9440090A151B05B9F7C70162
S11327E0B6010F900F900F900F90DF91CF911F9132
S11327F00F91FF90EF90DF90CF90BF90AF9008952E
S1132800CF93DF93CDB7DEB728970FB6F894DEBF2A
S11328100FBECDBF2D833E834F83588769837A8350
S11328208B839C830E94A1039C819F938B818F93B4
S11328307A817F9369816F938DE191E09F938F9368
S11328400E94181E58855F934F814F933E813F939A
S11328502D812F938CE291E09F938F930E94181EF9
S11328600FB6F894DEBF0FBECDBF28960FB6F8940E
S1132870DEBF0FBECDBFDF91CF9108950E94BE038E
S11328800E942D050E94280381E00E944D0381E0EF
S11328900E94160810E8E12E15E2F12E00E010E087
S11328A020E040E063E081E00E946B0761E081E0AA
S11328B00E94E10861E081E00E949B08C12CD12CB8
S11328C0760168DF4B015C012FEF88E09DE3215026
S11328D080409040E1F700C00000A7019601C501C7
S11328E0B4018EDFC701B60110DF6B017C019B01CF
S11328F0AC01C501B40184DF2FE784E89EE12150D7
S113290080409040E1F700C00000DBCFA3E1B0E0DD
S1132910EBE8F4E1F4C66C014B012A01FC011782D7
S11329201682838181FF2DC3AE014F5F5F4F3A0151
S1132930F6019381F40193FD859193FF81914F01F9
S1132940882309F41AC3853239F493FD859193FFE2
S113295081914F01853239F4B60190E00E94E01D67
S113296052012501E5CF10E0F12C20E02032A0F443
S11329708B3269F030F4803259F0833269F420618B
S11329802CC08D3239F0803339F4216026C02260A6
S1132990246023C0286021C027FD27C030ED380FF4
S11329A03A3078F426FF06C0FAE01F9F300D112458
S11329B0132F13C04AE0F49E300D1124F32E20622D
S11329C00CC08E3221F426FDD8C2206406C08C3699
S11329D011F4206802C0883641F4F40193FD859116
S11329E093FF81914F018111C1CF9BEB980F9330DD
S11329F018F42061805E06C09BE9980F933008F0BC
S1132A0067C12F7E26FF16E02F73322E853619F408
S1132A102064322E08C0863621F4F22FF0683F2E4F
S1132A2002C01111115037FE07C01C3350F4EE24BC
S1132A30E394E10E27E00BC0183038F027E017E0EC
S1132A4005C027E04CE3E42E02C0212FE12C520103
S1132A5044E0A40EB11CF2016081718182819381F2
S1132A600E2DA301BFD72C01098100FF02C003FF73
S1132A7007C031FC08C032FE09C030E2232E07C073
S1132A802DE2222E04C09BE2292E01C0212C802F8E
S1132A908C7019F0211054C290C237FE0FC0E40CA0
S1132AA004FF04C08A81813309F4EA941E1474F586
S1132AB0F8E0FE1578F588E0E82E2CC036FC2AC034
S1132AC0812F90E0841595059CF02CEF42162FEF92
S1132AD0520674F0432D4068342E0AC0E2E0F0E060
S1132AE0EC0FFD1FE10FF11D8081803319F41150AB
S1132AF01111F4CF37FE0EC0EE24E394E10E812FC2
S1132B0090E0481659062CF4141904C0EE24E394FA
S1132B1001C010E037FE06C01414150434F4C201D9
S1132B20019605C085E090E002C081E090E02110AC
S1132B300196112331F0212F30E02F5F3F4F820F98
S1132B40931F2F2D30E08217930714F4F81A01C055
S1132B50F12C832D897049F4FF2039F0B60180E20D
S1132B6090E00E94E01DFA94F7CF222029F0B601EC
S1132B70822D90E00E94E01D33FC09C0FF2039F053
S1132B80B60180E390E00E94E01DFA94F7CF37FE8F
S1132B9058C0942D852D57FE02C090E080E0292E68
S1132BA0382E20E030E0A2014E1951095D874C8790
S1132BB0A201421953095F874E87612F70E04427B1
S1132BC05527461B570B598B488B5FEF2516350647
S1132BD041F4B6018EE290E02A8B3B8BF1D73B891E
S1132BE02A89421453046CF04C855D8542155305C3
S1132BF044F4EE85FF85E20FF31FE60DF71D818196
S1132C0001C080E351E0251A31082F5F3F4F488906
S1132C1059892416350644F0B60190E02A8B3B8B83
S1132C20CFD72A893B89D1CF2414350439F49A812A
S1132C30963318F4953311F404FF81E3B60190E060
S1132C4045C08A81813309F00F7EB60190E0B8D780
S1132C50111105C034FC16C085E690E015C0B6011C
S1132C608EE290E0ADD782E0EE24E394E80EF30127
S1132C70E80FF11D8081B60190E0A2D711508E2D8E
S1132C8099F7E8CF85E490E0B6019AD757FC05C0E0
S1132C904114510439F404FF05C05194419451087E
S1132CA08DE201C08BE2B60190E08AD780E39AE01E
S1132CB0491651042CF08F5F5AE0451A5108F7CF9A
S1132CC0B60190E07DD7B601C201C09679D74CC158
S1132CD0833631F0833779F0833509F054C020C04E
S1132CE05201E2E0AE0EB11CF2018081898301E061
S1132CF010E0230113C05201F2E0AF0EB11CF20147
S1132D004080518026FF03C0612F70E002C06FEF46
S1132D107FEFC2012A8B49D78C012A892F7714C0EF
S1132D205201F2E0AF0EB11CF2014080518026FF47
S1132D3003C0612F70E002C06FEF7FEFC2012A8BE6
S1132D4029D78C012A892068322E23FD18C08F2DA3
S1132D5090E00817190798F4B60180E290E030D7A4
S1132D60FA94F5CFF20137FC859137FE81912F015A
S1132D70B60190E025D7F110FA940150110901151C
S1132D80110581F7F1C0843611F0893651F55201ED
S1132D9027FF09C0F4E0AF0EB11CF201608171811C
S1132DA0828193810AC0F2E0AF0EB11CF20160810E
S1132DB07181072E000C880B990B2F76322E97FF0A
S1132DC009C090958095709561957F4F8F4F9F4F67
S1132DD02068322E2AE030E0A3013ED7E82EE61820
S1132DE03EC0022F853721F40F7E2AE030E01DC05B
S1132DF0097F8F3691F018F4883559F0BEC08037BA
S1132E0019F0883711F0B9C0006104FF09C00460EB
S1132E1007C024FF08C0066006C028E030E005C0F3
S1132E2020E130E002C020E132E0520107FF09C096
S1132E30F4E0AF0EB11CF201608171818281938153
S1132E4008C0F2E0AF0EB11CF2016081718180E034
S1132E5090E0A30101D7E82EE6180F77302E36FE56
S1132E600BC0332D3E7FE11650F434FE0AC032FC11
S1132E7008C0332D3E7E05C00E2D332D03C00E2D0C
S1132E8001C0012F34FF0CC0FE01EE0DF11D808145
S1132E90803311F4397E08C032FF05C00E5F04C0D0
S1132EA0832F867809F00F5F33FD12C030FF06C010
S1132EB01E2D0F1518F41F0D101B0F2D0F1560F488
S1132EC0B60180E290E03B8B7BD60F5F3B89F6CF67
S1132ED00F1510F4F01A01C0F12C34FF11C0B60123
S1132EE080E390E03B8B6CD63B8932FF16C031FD0A
S1132EF003C088E790E002C088E590E0B6010CC00A
S1132F00832F867851F031FF02C08BE201C080E24A
S1132F1037FD8DE2B60190E053D6E11630F4B601E8
S1132F2080E390E04DD61150F8CFEA94F301EE0D12
S1132F30F11D8081B60190E043D6E110F6CF14C0B4
S1132F40F4E0FF1548F584E0F81A33FE1DC02110A3
S1132F5024C003FF27C00EEF10E0F32DF0713F2EC5
S1132F60F8018491811121C0FF2009F4FACCB60143
S1132F7080E290E025D6FA94F7CFF6018681978116
S1132F8023C08FEF9FEF20C0B60180E290E018D6F7
S1132F90FA94F110F9CFDBCFF12CB601822D90E039
S1132FA00FD6D7CF02E011E0D8CF31108052B6014E
S1132FB090E006D60F5F1F4FD3CF23E02F1510F4F8
S1132FC083E0C2CFF12CC5CF6396E2E1B4C30CD049
S1132FD0BAC0B2D040F0A9D030F021F45F3F19F06C
S1132FE09BC05111E4C09EC0BFD098F39923C9F38C
S1132FF05523B1F3951B550BBB27AA2762177307FB
S1133000840738F09F5F5F4F220F331F441FAA1FAE
S1133010A9F333D00E2E3AF0E0E830D0915050406E
S1133020E695001CCAF729D0FE2F27D0660F771F1C
S1133030881FBB1F261737074807AB07B0E809F0FE
S1133040BB0B802DBF01FF2793585F4F2AF09E3F93
S1133050510568F061C0ABC05F3FECF3983EDCF310
S1133060869577956795B795F7959F5FC9F7880F0C
S1133070911D9695879597F90895E1E0660F771F5E
S1133080881FBB1F621773078407BA0720F0621BEF
S1133090730B840BBA0BEE1F88F7E0950895E89440
S11330A009C097FB3EF490958095709561957F4F8C
S11330B08F4F9F4F9923A9F0F92F96E9BB2793953A
S11330C0F695879577956795B795F111F8CFFAF44A
S11330D0BB0F11F460FF1BC06F5F7F4F8F4F9F4F7B
S11330E016C0882311F096E911C0772321F09EE8D9
S11330F0872F762F05C0662371F096E8862F70E03F
S113310060E02AF09A95660F771F881FDAF7880F18
S11331109695879597F9089597F99F6780E870E0E9
S113312060E008959FEF80EC089500240A94161639
S1133130170618060906089500240A9412161306A1
S1133140140605060895092E0394000C11F488232F
S113315052F0BB0F40F4BF2B11F460FF04C06F5F4B
S11331607F4F8F4F9F4F089557FD9058440F551F21
S113317059F05F3F71F04795880F97FB991F61F0F5
S11331809F3F79F087950895121613061406551F6C
S1133190F2CF4695F1DF08C0161617061806991FD8
S11331A0F1CF86957105610508940895E894BB27CD
S11331B066277727CB0197F90895DEDFA8F19E579C
S11331C0A8F1985160F039F1983070F5092E9927DB
S11331D0660F771F881F991F0A94D1F71CC0BB275D
S11331E0993F4CF4B111B1E0B62B672F782F8827A3
S11331F0985FB1F708C0869577956795B79508F4F9
S1133200B1609395C1F7BB0F30F411F460FF03C0B4
S11332106F5F7F4F8F4F3EF49095809570956195C9
S11332207F4F8F4F9F4F08956894C1CFBFCF0BD06E
S11332308ACF7BDF28F080DF18F0952309F06CCF6C
S113324071CF1124B4CF90DFA0F3959FD1F3950FE4
S113325050E0551F629FF001729FBB27F00DB11D16
S1133260639FAA27F00DB11DAA1F649F6627B00DA6
S1133270A11D661F829F2227B00DA11D621F739F8F
S1133280B00DA11D621F839FA00D611D221F749F9D
S11332903327A00D611D231F849F600D211D822FE4
S11332A0762F6A2F11249F5750408AF0E1F088232B
S11332B04AF0EE0FFF1FBB1F661F771F881F915038
S11332C05040A9F79E3F510570F026CF70CF5F3F65
S11332D0ECF3983EDCF3869577956795B795F7956B
S11332E0E7959F5FC1F7FE2B880F911D96958795F3
S11332F097F90895FA01EE0FFF1F30962105310565
S113330099F16115710561F48038BFE39B0749F1B8
S113331068949038810561F08038BFEF9B0741F0D5
S1133320992342F5FF3FE1053105210511F1E894A8
S11333300894E795D901AA2329F4AB2FBE2FF85F8F
S1133340D0F310C0FF5F70F4A695E0F7F73950F0A2
S113335019F0FF3A38F49F779F930CD00F9007FC35
S1133360905808953EF0DECE60E070E080E89FE380
S113337008954FE79F775F934F933F932F939ED08A
S11333802F913F914F915F9152DF05C019F40EF0D8
S1133390C3CE0CCFC7CEF0DEC8F39638C0F707F81B
S11333A00F92E8942BE33AEA48EB5FE74EDF0F9283
S11333B00F920F924DB75EB70F92C0D0ECE7F0E0DA
S11333C016D04F915F91EF91FF91E595EE1FFF1F8E
S11333D049F0FE57E0684427EE0F441FFA95E1F7E1
S11333E04195550B32D00F9007FE26C00895DF9308
S11333F0CF931F930F93FF92EF92DF927B018C0187
S1133400689405C0DA2EEF011EDFFE01E894A59151
S11334102591359145915591AEF3EF01D4D0FE013C
S11334209701A801DA9479F7DF90EF90FF900F915C
S11334301F91CF91DF9108959B01AC0160E070E092
S113344080E89FE3C4CD68CE11C196DEE8F39923EA
S1133450D9F3940F511DBBF39150504094F059F09F
S1133460882332F0660F771F881F91505040C1F7B0
S11334709E3F510544F7880F911D9695879597F9BE
S113348008955F3FACF0983E9CF0BB2786957795F6
S11334906795B79508F4B1609395C1F7BB0F58F7DA
S11334A011F460FFE8CF6F5F7F4F8F4F9F4FE3CFE3
S11334B07ECE0EF0DBC036CE68942ECE5DDEC8F331
S11334C09923D1F3C6F3DF93CF931F930F93FF9206
S11334D0C92FDD2788232AF02197660F771F881FBD
S11334E0DAF720E030E040E85FEB9FE3883920F032
S11334F0803E30F021968F7755D0E4EAF0E003C0A7
S113350051D0E1EDF0E073DF8B01BE01EC01FB2E45
S11335106F5771097595771F880B990BC2DD28E1E8
S113352032E741E35FE38FDEAF2D9801AE01FF90F8
S11335300F911F91CF91DF9146D005CEFA01DC01A6
S1133540AA0FBB1F9B01AC01BF5728F422273327C6
S1133550442750781FC0B75188F4AB2F00244695F8
S113356037952795011CA395D2F3002069F0220F0B
S1133570331F441FB395DAF30DD013C061307105C6
S1133580A0E88A07B94630F49B01AC016627772787
S113359088279078309621F02083318342835383A7
S11335A008955058BB27AA270ED0CDCDBEDD30F0EC
S11335B0C3DD20F031F49F3F11F41EF4B3CD0EF4BB
S11335C0E095E7FBA9CDE92FCFDD80F3BA176207B9
S11335D073078407950718F071F49EF5E7CD0EF490
S11335E0E0950B2EBA2FA02D0B01B90190010C010F
S11335F0CA01A0011124FF27591B99F0593F50F427
S1133600503E68F11A16F040A22F232F342F44277E
S1133610585FF3CF469537952795A795F040539576
S1133620C9F77EF41F16BA0B620B730B840BBAF046
S11336309150A1F0FF0FBB1F661F771F881FC2F7B1
S11336400EC0BA0F621F731F841F48F487957795C5
S11336506795B795F7959E3F08F0B3CF9395880F7C
S113366008F09927EE0F9795879508959F3F31F0BD
S1133670915020F4879577956795B795880F911D9C
S11336809695879597F90895DB018F939F932DD095
S1133690BF91AF91A29F800D911DA39F900DB29FEA
S11336A0900D11240895A1E21A2EAA1BBB1BFD0143
S11336B00DC0AA1FBB1FEE1FFF1FA217B307E4070D
S11336C0F50720F0A21BB30BE40BF50B661F771F65
S11336D0881F991F1A9469F7609570958095909545
S11336E09B01AC01BD01CF01089540D0A59F900D71
S11336F0B49F900DA49F800D911D112408952F92C5
S11337003F924F925F926F927F928F929F92AF926D
S1133710BF92CF92DF92EF92FF920F931F93CF93BA
S1133720DF93CDB7DEB7CA1BDB0B0FB6F894DEBF51
S11337300FBECDBF09942A88398848885F846E8477
S11337407D848C849B84AA84B984C884DF80EE80C1
S1133750FD800C811B81AA81B981CE0FD11D0FB6CA
S1133760F894DEBF0FBECDBFED010895A29FB00156
S1133770B39FC001A39F700D811D1124911DB29FA1
S1133780700D811D1124911D0895CF93DF93823014
S1133790910510F482E090E0E0913602F091370256
S11337A020E030E0C0E0D0E0309711F14081518159
S11337B048175907C0F04817590761F4828193816B
S11337C0209719F09B838A832BC0909337028093B0
S11337D0360226C02115310519F04217530718F493
S11337E09A01BE01DF01EF010280F381E02DDCCFFD
S11337F02115310509F1281B390B2430310590F4CA
S113380012968D919C9113976115710521F0FB011E
S11338109383828304C09093370280933602FD0120
S1133820329644C0FD01E20FF31F8193919322501D
S113383031092D933C933AC02091340230913502E2
S1133840232B41F42091190130911A013093350250
S1133850209334022091170130911801211531056C
S113386041F42DB73EB740911B0150911C01241B1C
S1133870350BE0913402F0913502E217F307A0F41E
S11338802E1B3F0B2817390778F0AC014E5F5F4FB2
S11338902417350748F04E0F5F1F509335024093AD
S11338A034028193919302C0E0E0F0E0CF01DF9114
S11338B0CF9108950F931F93CF93DF93009709F44B
S11338C08CC0FC013297138212820091360210914F
S11338D037020115110581F420813181820F931F74
S11338E020913402309135022817390779F5F09385
S11338F03502E093340271C0D80140E050E0AE17C5
S1133900BF0750F412962D913C911397AD012115E8
S1133910310509F1D901F3CF9D01DA013383228303
S113392060817181860F971F8217930769F4EC01F8
S113393028813981260F371F2E5F3F4F3183208323
S11339408A819B8193838283452B29F4F0933702E8
S1133950E093360242C01396FC93EE931297ED0166
S1133960499159919E01240F351FE217F30771F411
S113397080819181840F951F029611969C938E935A
S11339808281938113969C938E931297E0E0F0E0EA
S1133990D80112968D919C911397009719F0F80114
S11339A08C01F6CF8D919C9198012E5F3F4F820F31
S11339B0931F20913402309135022817390769F496
S11339C0309729F4109237021092360202C0138203
S11339D012821093350200933402DF91CF911F912C
S11339E00F910895283008F027E03327DA01990F62
S11339F0311D87FD916000966105710539F43260CF
S1133A002E5F3D9330E32A95E1F708959F3F30F010
S1133A1080387105610509F03C5F3C5F3D9391304E
S1133A2008F08068911DDF93CF931F930F93FF924B
S1133A30EF92192F987F9695E92F96959695E90F11
S1133A40FF27E05AFE4F99273327EE24FF24A701CE
S1133A50E70105900894079428F4360FE71EF81E32
S1133A60491F511D660F771F881F991F0694A1F7E0
S1133A700590079428F4E70EF81E491F561FC11D30
S1133A80770F881F991F661F0694A1F70590079466
S1133A9028F4F80E491F561FC71FD11D880F991F00
S1133AA0661F771F0694A1F70590079420F4490F29
S1133AB0561FC71FD81F990F661F771F881F0694AC
S1133AC0A9F784911095177041F0D695C79557952D
S1133AD04795F794E7941A95C1F7E6E0F1E0689406
S1133AE01590159135916591959105907FE27395A7
S1133AF0E118F10A430B560BC90BD009C0F7E10CCE
S1133B00F11E431F561FC91FD01D7EF4703311F4DC
S1133B108A95E6CFE894015030F0080F0AF40027A4
S1133B20021708F4202F2395022F7A3328F079E323
S1133B307D932A95E9F710C07D932A9589F606941A
S1133B4097956795379517951794E118F10A430BE4
S1133B50560BC90BD00998F023957E9173957A334F
S1133B6008F070E37C932013B8F77E9170617D9325
S1133B7030F0839571E37D9370E32A95E1F7112486
S1133B80EF90FF900F911F91CF91DF91992787FDBF
S1133B9090950895FC010590615070400110D8F78C
S1133BA0809590958E0F9F1F0895FC016150704081
S1133BB001900110D8F7809590958E0F9F1F08955E
S1133BC00F931F93CF93DF93FB01238121FD03C048
S1133BD08FEF9FEF28C022FF16C0468157812481B2
S1133BE035814217530744F4A081B1819D012F5FB1
S1133BF03F4F318320838C93268137812F5F3F4F42
S1133C003783268310C0EB01092F182F0084F18518
S1133C10E02D0995892BE1F68E819F8101969F8382
S1133C208E83812F902FDF91CF911F910F91089553
S1133C30A0E0B0E0EDE1FEE172CDAE014B5F5F4F7D
S1133C40FA0161917191AF0180913A0290913B0226
S1133C500E948614E2E07FCDFA01AA27283051F1B0
S1133C60203181F1E8946F936E7F6E5F7F4F8F4FA9
S1133C709F4FAF4FB1E03ED0B4E03CD0670F781F08
S1133C80891F9A1FA11D680F791F8A1F911DA11DED
S1133C906A0F711D811D911DA11D20D009F4689426
S1133CA03F912AE0269F11243019305D3193DEF6CE
S1133CB0CF010895462F4770405D4193B3E00FD084
S1133CC0C9F7F6CF462F4F70405D4A3318F0495D6F
S1133CD031FD4052419302D0A9F7EACFB4E0A69552
S1133CE09795879577956795BA95C9F70097610574
S1133CF0710508959B01AC010A2E069457954795CA
S1133D0037952795BA95C9F7620F731F841F951FBE
S10B3D10A01D0895F894FFCFF3
S1133D181F0000000200000000E00B000000001873
S1133D280C041060C0802000003E0220004D792061
S1133D3854656D703A20252E32660A005278205454
S10F3D48656D703A20252E32660A0000DA
S9030000FC
