S00F000058426565426F542E73726563AC
S11300000AC3000024C3000022C3000020C3000070
S11300100C94760B0C949F0B0C94C80B0C94F10B62
S113002016C300000C94570A0C94800A0C94A90A75
S11300300C94240B0C94D20A0C94FB0A0C944D0BD4
S11300400C94DC090C94050A0C942E0A00C30000DD
S1130050FEC20000FCC20000FAC20000F8C20000A8
S1130060F6C20000F4C20000F2C20000F0C20000B8
S1130070EEC20000ECC20000EAC200000763423690
S1130080B79BD8A71A39685618AEBAAB558C1D3C25
S1130090B7CC5763BD6DEDFD753EF6177231BF00E9
S11300A00000803F08000000BE922449123EABAA23
S11300B0AA2ABECDCCCC4C3E00000080BEABAAAA7E
S11300C0AA3E00000000BF000000803F00000000C6
S11300D000084178D3BB4387D1133D190E3CC3BDFF
S11300E04282AD2B3E68EC8276BED98FE1A93E4CAC
S11300F080EFFFBE01C4FF7F3F00000000006E617F
S11301006E00696E660000407A10F35A00A0724EC9
S113011018090010A5D4E80000E87648170000E4A8
S11301200B54020000CA9A3B000000E1F5050000F0
S113013080969800000040420F000000A086010055
S11301400000102700000000E80300000000640025
S1130150000000000A000000000001000000000090
S11301602C76D888DC674F0823DFC1DFAE59E1B1B4
S1130170B796E5E3E453C63AE651997696E8E6C2C3
S11301808426EB898C9B62ED407C6FFCEFBC9C9FCA
S113019040F2BAA56FA5F490055A2AF75C936B6CEC
S11301A0F9676DC11BFCE0E40D47FEF520E6B500E0
S11301B0D0ED902E0300943577050080841E08004E
S11301C000204E0A000000C80C333333330F986EFE
S11301D012831141EF8D2114893BE65516CFFEE6BB
S11301E0DB18D1844B381BF77C1D901DA4BBE42481
S11301F0203284725E228100C9F124ECA1E53D27FE
S113020016050100000000000000FA000000E000F4
S1130210E00028FE28FE282454FE5448C4C81026B2
S1130220466C92AA44A000A0C0000000384482009A
S1130230008244380028107C102810107C10100014
S11302400A0C00001010101010000606000004082C
S11302501020407C8A92A27C0042FE020042868AE0
S113026092628482A2D28C182848FE08E4A2A2A238
S11302709C3C5292920C808E90A0C06C9292926C94
S11302806092929478006C6C0000006A6C0000101C
S113029028448200282828282800824428104080E6
S11302A08A90604C929E827C7E8888887EFE9292A0
S11302B0926C7C82828244FE82824438FE929292C4
S11302C082FE909090807C8292925EFE101010FECE
S11302D00082FE8200040282FC80FE10284482FE1A
S11302E002020202FE403040FEFE201008FE7C8224
S11302F082827CFE909090607C828A847AFE9098C0
S11303009462629292928C8080FE8080FC0202024F
S1130310FCF8040204F8FC021C02FCC6281028C6DF
S1130320E0100E10E0868A92A2C200FE8282004093
S113033020100804008282FE002040804020020237
S11303400202020080402000042A2A2A1EFE1222F1
S1130350221C1C222222041C222212FE1C2A2A2ACB
S113036018107E908040304A4A4A7CFE1020201E9D
S11303700022BE0200040222BC00FE081422000077
S113038082FE02003E2018201E3E1020201E1C2249
S113039022221C3E28282810102828183E3E10200F
S11303A02010122A2A2A0420FC2202043C020204FD
S11303B03E38040204383C020C023C221408142285
S11303C0300A0A0A3C22262A322200106C820000DB
S11303D000FE000000826C100008101008100000DD
S11303E00000007F8181817F7F8383837F7F878774
S11303F0877F7F8F8F8F7F7F9F9F9F7F7FBFBFBFB1
S11304007F7FFFFFFF7F2040FF40206215171565A7
S113041000FBFB00000000000000C0FF0300E0FF41
S11304200700F0FF0F00F8FF1F0078001E0078009F
S11304301E0078001E0078001E0078001E00780060
S11304401E0078001E0078001E0078001E000000C8
S113045000000000000080FF0300E0FF0700F0FF41
S11304600F00F8FF1F00F83C1F00783C1E00783C8A
S11304701E00783C1E00783C1E00783C1E00783C30
S11304801E00783C1E00783C1E00783C1E00783C20
S11304901E000000000000000000E0FF0300F0FF69
S11304A00700F8FF0F00F8FF1F00783C1E00783C9F
S11304B01E00783C1E00783C1E00783C1E00783CF0
S11304C01E00783C1E00783C1E00783C1E00783CE0
S11304D01E000000000000000000F8FF0300F8FF09
S11304E00F00F8FF1F00F8FF1F0000001E000000AF
S11304F01E0000801F0000F01F0000FF0F00E0FF3F
S11305000700F0FF0000F80F0000F800000078007A
S1130510000078000000F8FF1F00F8FF1F00F0FF44
S11305201F00E0FF1F000000000000000000F8FFB3
S11305301F00F8FF1F00F8FF1F00F8FF1F007800DE
S11305401E00783C1E00783C1E00783C1E00783C5F
S11305501E00783C1E00783C1E00F87E1F00F8FF49
S11305601F00F0FF0F00E0E70300000000000000A0
S11305703800EEFF6C002A8045003A0047FC03FF78
S11305806CFC83FF3900DEFF0B7CD0810BFCD08137
S11305900BC0D0810BFCD0810B7CDEFF0B0082FFF3
S11305A0397002FF6CF83A0047DC2A8045CCEEFF34
S11305B06CCC000038000000000C00001E0C000091
S11305C01E0000001E0000001E0000001E00F8FFB8
S11305D01F00F8FF1F00F8FF1F00F8FF1F000000B6
S11305E01E0000001E0000001E0000001E0000008F
S11305F05E000000400000007C000000400000009D
S1130600400000007C0000003000000010000000EA
S1130610300000007C0011241FBECFEFD8E0DEBF05
S1130620CDBF11E0A0E0B1E0E6E0FEE302C005903A
S11306300D92AC33B107D9F722E0ACE3B1E001C0CD
S11306401D92AE33B207E1F779D00C94011FD8CCD8
S11306508FE0D7D2882311F082E002C064D081E019
S1130660992708958FE0DBD2882319F480E090E085
S1130670089580917A00806480937A0080917A0052
S1130680829586958695837080FDF8CF20917800B9
S1130690809179009927982F88273327822B932BD1
S11306A00895ECE7F0E090819F738295880F880F9E
S11306B0807C982B90830895582F80910001652F9A
S11306C077278830D0F440917E0021E030E0F901B2
S11306D002C0EE0FFF1F8A95E2F7CF0180958423B5
S11306E080937E0080917E0002C0220F331F6A95A2
S11306F0E2F7822B80937E000CC020917E0081E083
S113070090E002C0880F991F6A95E2F7282B209386
S11307107E005093000180917C00807E5F71852B68
S113072080937C0008958FE180937C00EAE7F0E0F9
S113073087E0808380818068808308953BD632D6A9
S11307400E94B51480E090E008951F93CF93DF9347
S113075085E065D28823B1F060E080E4D2D0C0E0C7
S1130760D0E060E08C2F83D010E061E080E0C9D05D
S11307701F5F1038D1F72196C430D10591F760E09E
S113078083E0AED0DF91CF911F9108950F931F9313
S113079085E037D2882311F082E065C0CDD0182FD0
S11307A04BD21150123008F05BC08150823008F0F7
S11307B057C0C0D060E08EEAA4D060E082EAA1D045
S11307C060E080EA9ED000E513ECC8010197F1F7E0
S11307D060E080EC96D060E08FE293D060E081E846
S11307E090D060E086E18DD060E082E28AD0C801DA
S11307F00197F1F760E08FEA84D060E086EA81D067
S113080060E085EA7ED020E030E0E8E8F3E1CF0163
S11308100197F1F72F5F3F4F93E0283E3907B9F76F
S113082060E083EB6ED060E080E46BD060E083E056
S11308301ED060E083E054D01092D6011092D8010B
S11308401092D70181E091E090933B0280933A02A9
S113085088E12BD07ADF60E084EA53D081E003C0E2
S113086085E0BED187E099271F910F910895FF92EB
S11308700F931F93082FF62E85E0D1D1882389F09A
S11308801F2D1F77037060E0802F806B3AD0129584
S11308901F7060E0812F806134D060E08F2D8F70F5
S11308A030D01F910F91FF9008951F93182F85E06A
S11308B0B6D1882399F087E077D06AE082E0D2D07D
S11308C061EB82E0CFD0612F113208F060E282E068
S11308D0C9D089EE8A95F1F787E066D01F91089513
S11308E00F931F93082F162F85E099D1882331F099
S11308F003701F771093D4010093D5011F910F91BA
S113090008950F931F93082F162F85E088D188230D
S113091071F0112319F0113021F402C02B9801C099
S11309202B9A86E08A95F1F7602F80E09BD01F9187
S11309300F910895239A089582E063D1882311F0DA
S113094082E027C09CD06CE57DE080E024D064E5A3
S11309507DE081E020D06CE47DE082E01CD06BE39C
S11309607DE086E018D064E47DE083E014D064E4A4
S11309707DE084E010D064E47DE085E00CD064E4A4
S11309807DE087E008D08FEF8093D90187E00CD019
S113099081E099270895E82FFF27EE0FFF1FE45801
S11309A0FE4F7183608308951F93182F82E037D11F
S11309B0882309F455C0912F97708091D901981715
S11309C009F44EC09093D90185B1887F892B85B9EC
S11309D0933051F1943028F4913051F09230B0F4C6
S11309E00EC0953079F1953030F1963091F515C0FF
S11309F0E0917E01F0917F01309791F130C0E09158
S1130A007C01F0917D01309759F129C0E09180017A
S1130A10F0918101309721F122C0E0918801F09199
S1130A2089013097E9F01BC0E0918201F0918301C4
S1130A303097B1F014C0E0918401F09185013097B2
S1130A4079F00DC0E0918601F0918701309741F073
S1130A5006C0E0918A01F0918B01309709F0099565
S1130A601F9108951F93162F9FDF82E0D8D088230B
S1130A7021F01EBD0DB407FEFDCF1F910895259AE8
S1130A802698279A209A219A229A089587E0B9D025
S1130A90882311F082E06CC099D081E08093100229
S1130AA01092DA011092DB011092DD011092DC0148
S1130AB01092DF011092DE011092E1011092E00128
S1130AC01092E3011092E2011092E5011092E40108
S1130AD01092E7011092E6011092E9011092E801E8
S1130AE01092EB011092EA011092ED011092EC01C8
S1130AF01092EF011092EE011092F1011092F001A8
S1130B001092F3011092F2011092F8011092F9017F
S1130B101092FA011092FB011092FD011092FE0155
S1130B201092FF0110920002109201021092020230
S1130B30109203021092050210920402109207020E
S1130B4010920602109209021092080210920B02EF
S1130B5010920A021092F5011092F4011092F7011A
S1130B601092F60110920F0210920E0210921002CF
S1130B7099270895982F81E08093100281E06139CC
S1130B80780710F060E971E0913061F0913018F06D
S1130B909230C9F40EC0F8947093DD016093DC01C7
S1130BA0789411C0F8947093DF016093DE01789417
S1130BB00AC0F8947093DD016093DC017093DF0147
S1130BC06093DE0178941092100208953A9A3B9A49
S1130BD03C9A3D9A3E9A3F9A88B1837088B90895A9
S1130BE0853160F4E82FFF27ED55FE4F808188237F
S1130BF029F0808181508083808101C08FEF992703
S1130C000895853110F080E008C0E82FFF27ED55E6
S1130C10FE4F80818F5F80838150992708958531AD
S1130C2010F080E007C0E82FFF27ED55FE4F8081CC
S1130C30811181E099270895CF93DF93CDB7DEB773
S1130C4023970FB6F894DEBF0FBECDBF81E0D9DF86
S1130C50882311F082E00EC06FDE8150823038F4B8
S1130C6013D0CE0101960E94190F81E003C081E0E8
S1130C70B7DF87E0992723960FB6F894DEBF0FBE3F
S1130C80CDBFDF91CF9108951092280210922702D0
S1130C9010922A021092290210922C0210922B0216
S1130CA010922E0210922D021092300210922F02F6
S1130CB080E991E0909314028093130290931602BA
S1130CC080931502909318028093170290931A024E
S1130CD08093190290931C0280931B0284E398E092
S1130CE090931E0280931D029093200280931F0212
S1130CF090932202809321029093240280932302F2
S1130D0090932602809325020895EF92FF920F9309
S1130D101F93CF93DF93EC01F62EE42E890188E034
S1130D207EDF882311F481E025C084E090E00E94F6
S1130D303C1CFC01892B11F482E01CC0F982F0FCFC
S1130D401E8281E0E81619F489818460898389818F
S1130D50886089831B830A831D830C83D183C083AA
S1130D601382128281E080939C01CF010BD01092F8
S1130D709C0180E09927DF91CF911F910F91FF9003
S1130D80EF900895CF92DF92EF92FF920F931F930B
S1130D90CF93DF93EC0180913102882339F4D0930F
S1130DA03302C09332020E949B0F47C0C0903202AC
S1130DB0D090330200E010E0EE24FF2429C0A88183
S1130DC0B981FD0164817581F60140815181FA0187
S1130DD0848195819B01281B390B37FF0AC0861B30
S1130DE0970B95838483DB82CA82012BF1F0F70190
S1130DF022C0F601828193812115310581F0FD0124
S1130E00358324830097B1F00F5F1F4F76016C0187
S1130E108091310299270817190788F20BC0FD0148
S1130E20158214829B838A8305C0D0933302C093B6
S1130E30320203C0F601D383C283809131028F5FF3
S1130E4080933102DF91CF911F910F91FF90EF902A
S1130E50DF90CF900895CF92DF92EF92FF920F939D
S1130E601F93CF93DF937B018C01EA01690181E039
S1130E70E81681EEF80680E0080780E0180740F4E1
S1130E8024E0EE0CFF1C001F111F2A95D1F707C0A8
S1130E9093E0EE0CFF1C001F111F9A95D1F760E040
S1130EA072EC8BEE9BE0A80197010E94CA1B7901AA
S1130EB08A0186EF9FEFAFEFBFEFE80EF91E0A1F1E
S1130EC01B1FC801B7012AE030E040E050E00E9457
S1130ED0CA1B653071058105910540F08AE090E0F8
S1130EE0A0E0B0E0E80EF91E0A1F1B1FC801B701FD
S1130EF02AE030E040E050E00E94CA1B2883232F00
S1130F00342F452F5527D6012C93DF91CF911F9174
S1130F100F91FF90EF90DF90CF900895AF92BF9222
S1130F20CF92DF92EF92FF920F931F93CF93DF93B1
S1130F30CDB7DEB722970FB6F894DEBF0FBECDBF94
S1130F40A82EB62ED42EC22E882329F081E0A8160E
S1130F5009F072C03AC08DE062DE882309F46CC0E7
S1130F601A8219821092C0001092C1001092C2001D
S1130F709E012F5F3F4FAE014E5F5F4FC801B70127
S1130F806ADFBB0CDD0CDD0CDD0CDB28CC0CCC0CDF
S1130F90CC0CCC0CCD288A818093C40089818093A9
S1130FA0C500C092C20081E0E81681EEF80680E038
S1130FB0080780E0180728F08091C00082608093C1
S1130FC0C00081E08093CC0137C08EE028DE882306
S1130FD099F119821A821092C8001092C9001092D5
S1130FE0CA009E012E5F3F4FAE014F5F5F4FC801A5
S1130FF0B70131DFBB0CDD0CDD0CDD0CDB28CC0CC8
S1131000CC0CCC0CCC0CCD2889818093CC008A816B
S11310108093CD00C092CA0081E0E81681EEF80604
S113102080E0080780E0180728F08091C8008260FB
S11310308093C800A092D10122960FB6F894DEBF27
S11310400FBECDBFDF91CF911F910F91FF90EF9015
S1131050DF90CF90BF90AF900895882319F081302E
S113106091F407C08DE0DBDD882369F08091C00036
S113107006C08EE0D4DD882331F08091C800881F3B
S11310808827881F01C080E099270895882321F0CC
S11310908130C1F084E030C08DE0B3DD882359F5A0
S11310A01092CC011092CA011092CB016ED165E06E
S11310B070E080E006D128EE33E041E061E081ECAD
S11310C091E016C08EE09DDD8823A9F41092D10131
S11310D01092CF011092D00181E057D165E070E009
S11310E081E0EFD028EE33E041E061E088EB91E06D
S11310F00CDE81E001C082E099270895CF93DF934D
S1131100EB01882319F08130D9F51DC08DE087DD0E
S11311108823B1F12091CD013091CE018091CB0192
S1131120813071F50CC08091C701882321F02150D2
S113113030401092C7018091C00087FD23C0121671
S113114013068CF327C08EE06ADD8823C9F0209152
S1131150D2013091D3018091D001813089F40CC047
S11311608091BE01882321F0215030401092BE01AD
S11311708091C80087FD09C0121613068CF30AC0BB
S113118081E009C08091C60002C08091CE008883AE
S113119080E001C083E09927DF91CF9108950F93F8
S11311A01F93182F062F882329F48DE038DD882318
S11311B039F43BC0813021F48EE031DD8823A9F17C
S11311C00023F9F0013089F5112319F0113069F584
S11311D00CC09091CC01913041F58091C1008061A7
S11311E08093C1009093CB0120C08091D1018130C4
S11311F0E1F48091C90080618093C9001093D0010B
S113120014C0112319F0113081F408C08091C10079
S11312108F7E8093C1001092CB0107C08091C900DA
S11312208F7E8093C9001092D0011F910F91089571
S11312300F931F93182F062F882329F48DE0EFDCDA
S1131240882339F43BC0813021F48EE0E8DC882324
S1131250A9F10023F9F0013089F5112319F01130B7
S113126069F50CC09091CC01913041F58091C10099
S113127088608093C1009093CA0120C08091D101FD
S11312808130E1F48091C90088608093C900109393
S1131290CF0114C0112319F0113081F408C08091DA
S11312A0C100877F8093C1001092CA0107C080915A
S11312B0C900877F8093C9001092CF011F910F91BD
S11312C0089577FF03C060E070E005C06F317105D9
S11312D014F06EE170E0882319F0813051F405C0F8
S11312E07093CE016093CD0108957093D301609300
S11312F0D20108951F93162F882321F0813009F01D
S113130040C01FC08DE08BDC8823D9F18091CA01D5
S11313108130B9F58091C00082958695877080FFF1
S1131320F9CF1093C6008091C0008295869586956A
S1131330837080FFF8CF8091C00080648093C000E8
S11313401EC08DE06CDC8823E1F08091CF018130F8
S1131350C1F48091C80082958695877080FFF9CF8B
S11313601093CE008091C8008295869586958370EF
S113137080FFF8CF8091C80080648093C80080E02B
S113138001C081E099271F910895882319F08130C5
S113139041F404C0519A5098599A0895539A529816
S11313A05B9A089530D507D345D2ABD5C5DA44DC72
S11313B078940895000008951F920F920FB60F922B
S11313C011242F933F934F935F936F937F938F9346
S11313D09F93AF93BF93EF93FF93E0915C01F091E0
S11313E05D01309709F00995FF91EF91BF91AF919D
S11313F09F918F917F916F915F914F913F912F9129
S11314000F900FBE0F901F9018951F920F920FB65A
S11314100F9211242F933F934F935F936F937F9376
S11314208F939F93AF93BF93EF93FF93E0915E01EC
S1131430F0915F01309709F00995FF91EF91BF9109
S1131440AF919F918F917F916F915F914F913F9158
S11314502F910F900FBE0F901F9018951F920F920F
S11314600FB60F9211242F933F934F935F936F9373
S11314707F938F939F93AF93BF93EF93FF93E091E9
S11314806001F0916101309709F00995FF91EF91A6
S1131490BF91AF919F918F917F916F915F914F9188
S11314A03F912F910F900FBE0F901F9018951F9290
S11314B00F920FB60F9211242F933F934F935F9384
S11314C06F937F938F939F93AF93BF93EF93FF9308
S11314D0E0914E01F0914F01309709F00995FF9189
S11314E0EF91BF91AF919F918F917F916F915F9198
S11314F04F913F912F910F900FBE0F901F90189511
S11315001F920F920FB60F9211242F933F934F9374
S11315105F936F937F938F939F93AF93BF93EF9357
S1131520FF93E0915001F0915101309709F0099532
S1131530FF91EF91BF91AF919F918F917F916F91A7
S11315405F914F913F912F910F900FBE0F901F907D
S113155018951F920F920FB60F9211242F933F9359
S11315604F935F936F937F938F939F93AF93BF93A7
S1131570EF93FF93E0915201F0915301309709F0FA
S11315800995FF91EF91BF91AF919F918F917F91B9
S11315906F915F914F913F912F910F900FBE0F90DC
S11315A01F9018951F920F920FB60F9211242F932C
S11315B03F934F935F936F937F938F939F93AF93D7
S11315C0BF93EF93FF93E0915601F0915701309749
S11315D009F00995FF91EF91BF91AF919F918F9180
S11315E07F916F915F914F913F912F910F900FBE1B
S11315F00F901F9018951F920F920FB60F921124FF
S11316002F933F934F935F936F937F938F939F9306
S1131610AF93BF93EF93FF93E0915801F091590179
S1131620309709F00995FF91EF91BF91AF919F9188
S11316308F917F916F915F914F913F912F910F9077
S11316400FBE0F901F9018951F920F920FB60F9216
S113165011242F933F934F935F936F937F938F93B3
S11316609F93AF93BF93EF93FF93E0915401F09155
S11316705501309709F00995FF91EF91BF91AF9112
S11316809F918F917F916F915F914F913F912F9196
S11316900F900FBE0F901F9018951F920F920FB6C8
S11316A00F9211242F933F934F935F936F937F93E4
S11316B08F939F93AF93BF93EF93FF93E0915A015E
S11316C0F0915B01309709F00995FF91EF91BF917B
S11316D0AF919F918F917F916F915F914F913F91C6
S11316E02F910F900FBE0F901F9018951F920F927D
S11316F00FB60F9211242F933F934F935F936F93E1
S11317007F938F939F93AF93BF93EF93FF93E09156
S11317104401F0914501309709F00995FF91EF914B
S1131720BF91AF919F918F917F916F915F914F91F5
S11317303F912F910F900FBE0F901F9018951F92FD
S11317400F920FB60F9211242F933F934F935F93F1
S11317506F937F938F939F93AF93BF93EF93FF9375
S1131760E0914601F0914701309709F00995FF9106
S1131770EF91BF91AF919F918F917F916F915F9105
S11317804F913F912F910F900FBE0F901F9018957E
S11317901F920F920FB60F9211242F933F934F93E2
S11317A05F936F937F938F939F93AF93BF93EF93C5
S11317B0FF93E0914801F0914901309709F00995B0
S11317C0FF91EF91BF91AF919F918F917F916F9115
S11317D05F914F913F912F910F900FBE0F901F90EB
S11317E018951F920F920FB60F9211242F933F93C7
S11317F04F935F936F937F938F939F93AF93BF9315
S1131800EF93FF93E0914A01F0914B01309709F077
S11318100995FF91EF91BF91AF919F918F917F9126
S11318206F915F914F913F912F910F900FBE0F9049
S11318301F90189580E1E5D9882311F082E009C052
S1131840ECE3F1E01192119281E0EC37F807D1F763
S113185081E0992708950F931F93CF93DF93082F67
S113186011278A3091F08B3040F4883089F1893027
S113187018F5873009F045C036C08D3049F08B31FA
S113188081F08C3009F03DC006C01092D40103C031
S11318901092D40176C08091D50181508093D501F6
S11318A070C00E94A50379C061E080E02AD88091CD
S11318B0D4018F5F8093D4018091D40187FFF4CF4A
S11318C01092D4018091D50181508093D50165C0D7
S11318D08091D401882309F454C08091D4018650A6
S11318E08093D4014EC081E0CAD124E630E04DE7B4
S11318F050E064EF71E080E090E0CCD181E017D15A
S113190040C06091D4018091D5010E943704E80160
S1131910CC0FDD1FCC0FDD1FC00FD11FCD59DE4F03
S113192010E0FE01849161E00E9481041F5F219612
S11319301530B9F761E080E00E9481048091D40100
S11319408A5F8093D4018091D40199278C379105C3
S11319503CF01092D4018091D50181508093D5013F
S11319608091D50183708093D5018091D601813017
S1131970D9F4E091D701F091D8013097A9F00995F5
S113198013C06091D4018091D5010E9437048091E5
S1131990D50183708093D50107C06091D4018091F3
S11319A0D5010E943704DCCF80E090E0DF91CF9135
S11319B01F910F910895F8945BD081E003D081E0EA
S11319C090E00895813071F0F894813059F08130BD
S11319D030F08230C9F0833009F046C01AC080E08C
S11319E090E020C02C9A80E88093610010926100FE
S11319F080E090E00000019688329105D9F71092BA
S1131A00680010926B00089580E88093610083E081
S1131A1004C080E88093610088E08093610026C060
S1131A20000001962DE680369207D1F72C9880E0CD
S1131A3090E0000001962DE680369207D1F71092CF
S1131A407A008FEF809364008091680081608093B6
S1131A50680080916B00846080936B00789483B7F6
S1131A60816083BF88950895823008F07894089542
S1131A70249A2C9A089583E58CBD81E08DBD84EF72
S1131A8091E00197F1F7089583E58CBD81E08DBD68
S1131A908DE08A95F1F7089583E58CBD1DBC84EF34
S1131AA091E00197F1F708958FE78CBD1DBC84EF99
S1131AB091E00197F1F7089583E58CBD81E08DBD38
S1131AC08DE08A95F1F708951F93162F0E94D40490
S1131AD082E0A5D8882329F01EBD0DB407FEFDCFF2
S1131AE08EB599271F9108958AE07AD8882321F426
S1131AF081E022D110928D01089589E071D8882364
S1131B00A9F480918C01882309F05CD182E014D17E
S1131B1080919A0190919B01009731F00E94D11C11
S1131B2010929B0110929A0110928C0108958130B9
S1131B3019F0823011F4E1CFD7CF0895CF92DF921C
S1131B40EF92FF920F931F93CF93DF9380E291E084
S1131B500E943C1CEC0190939B0180939A01892B79
S1131B6011F480E044C0CC24DD24EE24FF2487015A
S1131B70C801B7010E942D19D7FE06C020E030E04D
S1131B8040E857E40E945F1820E030E040EA51E466
S1131B900E94C31827EF35E740E05FE30E94F31982
S1131BA09B01AC0160E070E080E291E40E94561A6F
S1131BB02DEC3CEC42E851E40E94F3190E94B9195F
S1131BC02AE030E040E050E00E94BB1B6993799327
S1131BD0899399930894C11CD11C0894E11CF11CAD
S1131BE0011D111D88E4C816D10411F681E099275E
S1131BF0DF91CF911F910F91FF90EF90DF90CF90E5
S1131C0008958AE00E940106882311F082E009C049
S1131C10109297011092960181E0AAD081E08093FE
S1131C208D01992708951F9389E00E940106882356
S1131C3011F082E021C08BE00E940F068823C1F4DA
S1131C407DDF182F813011F086E016C010928E01CE
S1131C5010928F01109290011092910161ED7FE03A
S1131C608DE07CD182E084D010938C0181E004C0AB
S1131C7089E00E94F00587E099271F91089581303B
S1131C8021F0823021F084E003C0BBDF01C0CBDF50
S1131C90992708956F927F928F929F92AF92BF92ED
S1131CA0CF92DF92EF92FF920F931F93CF93DF9324
S1131CB03B014C015A01E9018AE00E940F06882386
S1131CC061F1209729F1B501882777FD8095982F38
S1131CD09E01C536D10510F024E630E0442755278F
S1131CE00E94BB1B24E630E040E050E00E94CA1B87
S1131CF079018A01C401B30156D1C701D4D060E08F
S1131D0070E080E090E04FD1C5018E199F0904C0B6
S1131D10A114B10411F0C501C6D0DF91CF911F9178
S1131D200F91FF90EF90DF90CF90BF90AF909F9076
S1131D308F907F906F900895823029F48091810074
S1131D408E7F8093810080918C01813031F4809169
S1131D508D01813011F40000089580918C0181304F
S1131D6021F080918D01813011F45F985798089586
S1131D70982F80918C01882331F480918D018823E0
S1131D8011F4579A5F9880918C018823D1F4923092
S1131D90C1F41092800010928100809181008860CB
S1131DA080938100809181008160809381001092F2
S1131DB085001092840081E08093890080E98093FB
S1131DC088000895EFE6F0E080818D7F8083089598
S1131DD0982F81E080931002913071F0913018F0C7
S1131DE0923071F405C07093ED016093EC0108C06A
S1131DF07093ED016093EC017093EF016093EE0139
S1131E00109210020895CF93DF93C0E0D0E060E019
S1131E108C2F07D02196C531D105C9F7DF91CF9119
S1131E200895853128F4E82FFF27ED55FE4F608390
S1131E3008951F93CF93DF93EC01892B81F181E007
S1131E400E940F06882339F187E00E94D40418EC1D
S1131E50812F8A95F1F76AE082E00E94320564EBF3
S1131E6082E00E943205812F8A95F1F760E082E0DA
S1131E702BDE8883812F8A95F1F760E082E024DEEF
S1131E8089831A95F1F760E082E01EDE8A8387E099
S1131E900E94D40404C0188219828DE28A83DF91DF
S1131EA0CF911F9108950F931F93CF93DF93CDB7D5
S1131EB0DEB729970FB6F894DEBF0FBECDBF8C01F5
S1131EC088E00E940F06882311F491E00DC0980168
S1131ED040E061E0CE0101960E948506982F882398
S1131EE019F48F818823E9F3892F992729960FB64E
S1131EF0F894DEBF0FBECDBFDF91CF911F910F913C
S1131F00089588E00E940106882311F082E011C040
S1131F1010923102109233021092320210929C01FC
S1131F2010929D0168E370E180E12BD008D010D0BD
S1131F3081E09927089581E080939D01089584B5F7
S1131F40826084BD85B5846085BD8EE487BD0895B7
S1131F50EEE6F0E08081826080830895E82F80328D
S1131F6068F48051833050F0FF27EE0FFF1FE45CCC
S1131F70FE4F8081918171836083089580E090E0B9
S1131F800895803218F080E090E00895E82FFF274C
S1131F90EE0FFF1FE45CFE4F8081918171836083AB
S1131FA0089525C00895EF92FF920F931F937B012C
S1131FB08C018AE00E940F068823A1F080918D0194
S1131FC0882381F0D801C701880F991FAA1FBB1F5E
S1131FD09093990180939801E114F104010511058E
S1131FE009F45F981F910F91FF90EF9008958091ED
S1131FF08E0190918F01A0919001B0919101209157
S11320009201309193014091940150919501820F76
S1132010931FA41FB51F80938E0190938F01A093EB
S11320209001B093910180918E0190918F01A091C4
S11320309001B09191018851964FA040B040BCF0FE
S11320408BB180588BB980918E0190918F01A091B2
S11320509001B09191018851964FA040B040809377
S11320608E0190938F01A0939001B09391010895F4
S113207002D041D019C088E00E940F06882311F4D1
S113208084E010C080919D01882311F483E00AC08C
S113209080919C01882311F082E004C094D28130A5
S11320A0E9F380E09927089580918D01813011F53D
S11320B08091960190919701209198013091990116
S11320C0820F931F909397018093960180919601BC
S11320D090919701885E93406CF08BB180588BB9D6
S11320E08091960190919701885E93409093970117
S11320F080939601089587E00E940F06882309F4CF
S1132100A8C08091E4019091E501892B09F18091A7
S11321100802909109022091E4013091E501820FB7
S1132120931F909309028093080280910802909172
S11321300902885E9340A4F08091080290910902FC
S1132140885E9340909309028093080241E009C09D
S11321508091DC019091DD019093E1018093E00195
S113216040E08091E6019091E701892B09F180918B
S11321700A0290910B022091E6013091E701820F4F
S1132180931F90930B0280930A0280910A0290910C
S11321900B02885E9340A4F080910A0290910B0296
S11321A0885E934090930B0280930A0261E009C019
S11321B08091DE019091DF019093E3018093E2012D
S11321C060E0842F47D08091040290910502209111
S11321D0E0013091E101820F931F909305028093F7
S11321E004028091040290910502885E934014F4E5
S11321F040E00BC08091040290910502885E9340F8
S1132200909305028093040241E08091060290912C
S113221007022091E2013091E301820F931F909312
S11322200702809306028091060290910702885E5D
S1132230934014F460E00BC0809106029091070271
S1132240885E9340909307028093060261E0842F96
S113225046C008958823F1F02091DC013091DD011E
S11322608091E0019091E101281B390B12161306AD
S113227034F48091E0019091E101019607C0232B91
S113228049F08091E0019091E10101979093E1017F
S11322908093E001662311F12091DE013091DF018A
S11322A08091E2019091E301281B390B1216130669
S11322B054F48091E2019091E30101969093E3013B
S11322C08093E2010895232B49F08091E2019091DB
S11322D0E30101979093E3018093E20108950F9342
S11322E01F93082F162F80911002882309F0DFC056
S11322F08091F801882309F058C08091E001909101
S1132300E101892BE1F480919E01837E80939E01FB
S11323101092010280910C02882309F459C0609143
S1132320FA0180E02CD1E0910E02F0910F02309777
S113233009F44EC081E0808310920C0249C0809160
S1132340DA01813041F48091EC019091ED01019723
S113235011F401E002C00023D9F190919E01937E13
S1132360E091FF01FF27E15FFE4F8081982B90935E
S11323709E018091FD01882321F48091FF018F5FEC
S113238003C08091FF0181508093FF018091FF0180
S113239083708093FF0181E0809301028091DA01D0
S11323A08130B1F480E095D013C090919E01937E6A
S11323B0E091FF01FF27E15FFE4F8081982B90930E
S11323C09E0182E0809301021092E1011092E001EB
S11323D08091F901882309F057C08091E20190911E
S11323E0E301892BE1F480919E018F7180939E011A
S11323F01092020280910D02882309F458C0609162
S1132400FB0181E0BCD0E0910E02F0910F02309705
S113241009F44DC081E0818310920D0248C080917F
S1132420DB01813041F48091EE019091EF0101973D
S113243011F411E002C01123D1F190919E019F711A
S1132440E0910002FF27ED5EFE4F8081982B909370
S11324509E018091FE01882321F4809100028F5F08
S113246003C0809100028150809300028091000299
S113247083708093000281E0809302028091DB01EB
S11324808130A9F426D013C090919E019F71E091F0
S11324900002FF27ED5EFE4F8081982B90939E01F2
S11324A082E0809302021092E3011092E201809193
S11324B00302882329F4412F602F8EE991E0F1D0A3
S11324C088B1837090919E01892B88B91F910F91D7
S11324D008951F93182F882321F0813009F04DC0EF
S11324E027C08091EC019091ED01892B49F08091F6
S11324F0EC019091ED0101979093ED018093EC0133
S113250080910C028823C9F52091EC013091ED01F2
S11325108091F0019091F1012817390771F560E07D
S113252070E080E00E94BA0581E080930C0225C02F
S11325308091EE019091EF01892B49F08091EE0199
S11325409091EF0101979093EF018093EE018091B8
S11325500D02882391F42091EE013091EF018091D6
S1132560F2019091F3012817390739F460E070E023
S113257081E00E94BA0510930D021F9108950F93F4
S11325801F93182F062F662341F460E070E00E9429
S1132590BA0560E070E0812F1BDC81E080931002BB
S11325A0113051F0113018F0123041F403C000938F
S11325B0F80104C00093F8010093F901109210028D
S11325C01F910F910895FF920F931F93CF93DF9361
S11325D080913102882309F458C00091320210918D
S11325E03302F801C081D1818C819D8101979D8343
S11325F08C83181619060CF448C0898180FF05C025
S11326008E81882311F481E08E83898181FF03C048
S1132610EF81F8850995809131028230A8F0F801A4
S113262082819381909333028093320213821282C7
S1132630E0910000F091010084819581181619063B
S11326403CF081E0F82E05C0109233021092320261
S1132650FF248091310281508093310280913102B4
S1132660882309F41BD0898182FF08C08A819B8159
S11326709D838C83C8010E94C20608C0C8010E94C1
S1132680D11C89818F7E898301C0FF248F2D9927D6
S1132690DF91CF911F910F91FF90089510929D01AA
S11326A00895FC0180910102823069F48091A201B5
S11326B091E089278093A201882309F03EC080819C
S11326C0837E80833AC08091E0019091E101C397B9
S11326D0A4F56623D1F02091E0013091E10180E678
S11326E090E0BC01269FC001279F900D369F900D5E
S11326F01124880F892F881F990B9093F5018093DB
S1132700F40181E08093A00118C08091A001882386
S1132710A1F08091F4019091F50101979093F50156
S11327208093F4018091F4019091F501892B29F4AF
S11327308081837E80831092A00180910202823086
S113274069F48091A10191E089278093A1018823F4
S113275009F03EC080818F71808308958091E201E9
S11327609091E301C397A4F54423D1F02091E201B1
S11327703091E30180E690E0AC01249FC001259FE5
S1132780900D349F900D1124880F892F881F990B69
S11327909093F7018093F60181E080939F0108955F
S11327A080919F018823A1F08091F6019091F70117
S11327B001979093F7018093F6018091F60190912F
S11327C0F701892B29F480818F71808310929F01F6
S11327D0089583E00E945C030E943203BC0180E000
S11327E090E039D520E030E040EA50E4FCD520E028
S11327F030E040E85AE3F7C5CF92DF92EF92FF92C0
S11328000F931F93CF93DF93CDB7DEB72B970FB6FC
S1132810F894DEBF0FBECDBF6B017C0181E00E9446
S11328202D088130E9F400E010E081E00E942D08D9
S1132830813079F4BE01655F7F4F0E947E08E1E03C
S1132840F0E0EC0FFD1FE00FF11F8B8580830F5F1D
S11328501F4F0430110548F3C980DA80EB80FC80F7
S1132860C701B6012B960FB6F894DEBF0FBECDBFDD
S1132870DF91CF911F910F91FF90EF90DF90CF9058
S11328800895AF92BF92CF92DF92EF92FF920F938F
S11328901F93CF93DF9300D000D0CDB7DEB799DF7D
S11328A06B017C0169837A838B839C838E010F5F28
S11328B01F4F5E0185E0A80EB11CF80161918F01E4
S11328C081E00E947A090A151B05B9F7C701B60110
S11328D00F900F900F900F90DF91CF911F910F9158
S11328E0FF90EF90DF90CF90BF90AF900895CF937B
S11328F0DF93CDB7DEB728970FB6F894DEBF0FBECF
S1132900CDBF2D833E834F83588769837A838B831E
S11329109C830E94A5039C819F938B818F937A81D2
S11329207F9369816F938DE191E09F938F930E94D0
S11329308F1E58855F934F814F933E813F932D8126
S11329402F938CE291E09F938F930E948F1E0FB67A
S1132950F894DEBF0FBECDBF28960FB6F894DEBF45
S11329600FBECDBFDF91CF9108950E94C6030E9490
S113297046050E94280381E00E94510381E00E94E1
S1132980460810E8E12E15E2F12E00E010E020E008
S113299040E063E081E00E948E0761E081E00E94F4
S11329A0180961E081E00E94CF08C12CD12C760186
S11329B068DF4B015C012FEF88E09DE321508040EC
S11329C09040E1F700C00000A7019601C501B401E1
S11329D08EDFC701B60110DF6B017C019B01AC01E6
S11329E0C501B40184DF2FE784E89EE121508040D3
S11329F09040E1F700C00000DBCFA3E1B0E0E2E0EB
S1132A00F5E1F4C66C014B012A01FC011782168220
S1132A10838181FF2DC3AE014F5F5F4F3A01F60101
S1132A209381F40193FD859193FF81914F01882354
S1132A3009F41AC3853239F493FD859193FF81918A
S1132A404F01853239F4B60190E00E94571E5201BD
S1132A502501E5CF10E0F12C20E02032A0F48B32E8
S1132A6069F030F4803259F0833269F420612CC06B
S1132A708D3239F0803339F4216026C0226024601D
S1132A8023C0286021C027FD27C030ED380F3A301D
S1132A9078F426FF06C0FAE01F9F300D1124132F8F
S1132AA013C04AE0F49E300D1124F32E20620CC0B2
S1132AB08E3221F426FDD8C2206406C08C3611F46F
S1132AC0206802C0883641F4F40193FD859193FF98
S1132AD081914F018111C1CF9BEB980F933018F472
S1132AE02061805E06C09BE9980F933008F067C1AF
S1132AF02F7E26FF16E02F73322E853619F42064BC
S1132B00322E08C0863621F4F22FF0683F2E02C020
S1132B101111115037FE07C01C3350F4EE24E39416
S1132B20E10E27E00BC0183038F027E017E005C0AD
S1132B3027E04CE3E42E02C0212FE12C520144E0B3
S1132B40A40EB11CF20160817181828193810E2DEA
S1132B50A301BFD72C01098100FF02C003FF07C0F6
S1132B6031FC08C032FE09C030E2232E07C02DE23A
S1132B70222E04C09BE2292E01C0212C802F8C70B0
S1132B8019F0211054C290C237FE0FC0E40C04FFA8
S1132B9004C08A81813309F4EA941E1474F5F8E0C0
S1132BA0FE1578F588E0E82E2CC036FC2AC0812F6B
S1132BB090E0841595059CF02CEF42162FEF5206F9
S1132BC074F0432D4068342E0AC0E2E0F0E0EC0FCC
S1132BD0FD1FE10FF11D8081803319F41150111193
S1132BE0F4CF37FE0EC0EE24E394E10E812F90E083
S1132BF0481659062CF4141904C0EE24E39401C0B9
S1132C0010E037FE06C01414150434F4C201019612
S1132C1005C085E090E002C081E090E021100196BB
S1132C20112331F0212F30E02F5F3F4F820F931F8C
S1132C302F2D30E08217930714F4F81A01C0F12CF9
S1132C40832D897049F4FF2039F0B60180E290E0C9
S1132C500E94571EFA94F7CF222029F0B601822D44
S1132C6090E00E94571E33FC09C0FF2039F0B601E2
S1132C7080E390E00E94571EFA94F7CF37FE58C0C5
S1132C80942D852D57FE02C090E080E0292E382E29
S1132C9020E030E0A2014E1951095D874C87A20162
S1132CA0421953095F874E87612F70E044275527E7
S1132CB0461B570B598B488B5FEF2516350641F49D
S1132CC0B6018EE290E02A8B3B8BF1D73B892A89AF
S1132CD0421453046CF04C855D854215530544F44D
S1132CE0EE85FF85E20FF31FE60DF71D818101C01C
S1132CF080E351E0251A31082F5F3F4F48895989F5
S1132D002416350644F0B60190E02A8B3B8BCFD7CE
S1132D102A893B89D1CF2414350439F49A81963316
S1132D2018F4953311F404FF81E3B60190E045C033
S1132D308A81813309F00F7EB60190E0B8D7111172
S1132D4005C034FC16C085E690E015C0B6018EE2DD
S1132D5090E0ADD782E0EE24E394E80EF301E80FAF
S1132D60F11D8081B60190E0A2D711508E2D99F704
S1132D70E8CF85E490E0B6019AD757FC05C041142A
S1132D80510439F404FF05C05194419451088DE273
S1132D9001C08BE2B60190E08AD780E39AE049163D
S1132DA051042CF08F5F5AE0451A5108F7CFB60151
S1132DB090E07DD7B601C201C09679D74CC1833665
S1132DC031F0833779F0833509F054C020C05201C3
S1132DD0E2E0AE0EB11CF2018081898301E010E0D3
S1132DE0230113C05201F2E0AF0EB11CF201408086
S1132DF0518026FF03C0612F70E002C06FEF7FEFA8
S1132E00C2012A8B49D78C012A892F7714C0520119
S1132E10F2E0AF0EB11CF2014080518026FF03C0E6
S1132E20612F70E002C06FEF7FEFC2012A8B29D7B8
S1132E308C012A892068322E23FD18C08F2D90E042
S1132E400817190798F4B60180E290E030D7FA9495
S1132E50F5CFF20137FC859137FE81912F01B60140
S1132E6090E025D7F110FA940150110901151105CC
S1132E7081F7F1C0843611F0893651F5520127FFEC
S1132E8009C0F4E0AF0EB11CF2016081718182814E
S1132E9093810AC0F2E0AF0EB11CF201608171812E
S1132EA0072E000C880B990B2F76322E97FF09C042
S1132EB090958095709561957F4F8F4F9F4F2068B7
S1132EC0322E2AE030E0A3013ED7E82EE6183EC0B9
S1132ED0022F853721F40F7E2AE030E01DC0097FE0
S1132EE08F3691F018F4883559F0BEC0803719F048
S1132EF0883711F0B9C0006104FF09C0046007C03D
S1132F0024FF08C0066006C028E030E005C020E1C8
S1132F1030E002C020E132E0520107FF09C0F4E0D2
S1132F20AF0EB11CF201608171818281938108C06E
S1132F30F2E0AF0EB11CF2016081718180E090E09B
S1132F40A30101D7E82EE6180F77302E36FE0BC00A
S1132F50332D3E7FE11650F434FE0AC032FC08C023
S1132F60332D3E7E05C00E2D332D03C00E2D01C022
S1132F70012F34FF0CC0FE01EE0DF11D8081803362
S1132F8011F4397E08C032FF05C00E5F04C0832FE0
S1132F90867809F00F5F33FD12C030FF06C01E2D86
S1132FA00F1518F41F0D101B0F2D0F1560F4B6012B
S1132FB080E290E03B8B7BD60F5F3B89F6CF0F1509
S1132FC010F4F01A01C0F12C34FF11C0B60180E3F3
S1132FD090E03B8B6CD63B8932FF16C031FD03C0B9
S1132FE088E790E002C088E590E0B6010CC0832F2A
S1132FF0867851F031FF02C08BE201C080E237FDD8
S11330008DE2B60190E053D6E11630F4B60180E3C8
S113301090E04DD61150F8CFEA94F301EE0DF11D76
S11330208081B60190E043D6E110F6CF14C0F4E0FD
S1133030FF1548F584E0F81A33FE1DC0211024C0A2
S113304003FF27C00EEF10E0F32DF0713F2EF801BF
S11330508491811121C0FF2009F4FACCB60180E2E9
S113306090E025D6FA94F7CFF6018681978123C0A4
S11330708FEF9FEF20C0B60180E290E018D6FA945B
S1133080F110F9CFDBCFF12CB601822D90E00FD6F1
S1133090D7CF02E011E0D8CF31108052B60190E0D2
S11330A006D60F5F1F4FD3CF23E02F1510F483E014
S11330B0C2CFF12CC5CF6396E2E1B4C35058BB270D
S11330C0AA270ED01CC10DD130F012D120F031F45A
S11330D09F3F11F41EF402C10EF4E095E7FBF8C023
S11330E0E92F1ED180F3BA17620773078407950787
S11330F018F071F49EF536C10EF4E0950B2EBA2F3C
S1133100A02D0B01B90190010C01CA01A0011124E9
S1133110FF27591B99F0593F50F4503E68F11A1695
S1133120F040A22F232F342F4427585FF3CF469526
S113313037952795A795F0405395C9F77EF41F1648
S1133140BA0B620B730B840BBAF09150A1F0FF0F12
S1133150BB1F661F771F881FC2F70EC0BA0F621FFE
S1133160731F841F48F4879577956795B795F795EE
S11331709E3F08F0B3CF9395880F08F09927EE0F80
S11331809795879508950CD0BAC0B2D040F0A9D0D5
S113319030F021F45F3F19F09BC05111E4C09EC090
S11331A0BFD098F39923C9F35523B1F3951B550B5D
S11331B0BB27AA2762177307840738F09F5F5F4F06
S11331C0220F331F441FAA1FA9F333D00E2E3AF047
S11331D0E0E830D091505040E695001CCAF729D061
S11331E0FE2F27D0660F771F881FBB1F26173707B0
S11331F04807AB07B0E809F0BB0B802DBF01FF27E0
S113320093585F4F2AF09E3F510568F061C0ABC0F0
S11332105F3FECF3983EDCF3869577956795B79519
S1133220F7959F5FC9F7880F911D9695879597F934
S11332300895E1E0660F771F881FBB1F62177307AD
S11332408407BA0720F0621B730B840BBA0BEE1FC2
S113325088F7E0950895E89409C097FB3EF49095AB
S11332608095709561957F4F8F4F9F4F9923A9F05B
S1133270F92F96E9BB279395F695879577956795EA
S1133280B795F111F8CFFAF4BB0F11F460FF1BC02E
S11332906F5F7F4F8F4F9F4F16C0882311F096E9C1
S11332A011C0772321F09EE8872F762F05C066236F
S11332B071F096E8862F70E060E02AF09A95660F28
S11332C0771F881FDAF7880F9695879597F90895E1
S11332D097F99F6780E870E060E008959FEF80ECC5
S11332E0089500240A941616170618060906089568
S11332F000240A9412161306140605060895092ECE
S11333000394000C11F4882352F0BB0F40F4BF2B3C
S113331011F460FF04C06F5F7F4F8F4F9F4F08957C
S113332057FD9058440F551F59F05F3F71F0479572
S1133330880F97FB991F61F09F3F79F08795089557
S1133340121613061406551FF2CF4695F1DF08C076
S1133350161617061806991FF1CF86957105610593
S113336008940895E894BB2766277727CB0197F93B
S11333700895DEDFA8F19E57A8F1985160F039F165
S1133380983070F5092E9927660F771F881F991FAB
S11333900A94D1F71CC0BB27993F4CF4B111B1E09A
S11333A0B62B672F782F8827985FB1F708C08695CA
S11333B077956795B79508F4B1609395C1F7BB0FFE
S11333C030F411F460FF03C06F5F7F4F8F4F3EF402
S11333D090958095709561957F4F8F4F9F4F08957D
S11333E06894C1CFBFCF0BD08ACF7BDF28F080DFBA
S11333F018F0952309F06CCF71CF1124B4CF90DF6E
S1133400A0F3959FD1F3950F50E0551F629FF001F3
S1133410729FBB27F00DB11D639FAA27F00DB11D4C
S1133420AA1F649F6627B00DA11D661F829F2227D5
S1133430B00DA11D621F739FB00DA11D621F839F5C
S1133440A00D611D221F749F3327A00D611D231F32
S1133450849F600D211D822F762F6A2F11249F5780
S113346050408AF0E1F088234AF0EE0FFF1FBB1FA3
S1133470661F771F881F91505040A9F79E3F510542
S113348070F026CF70CF5F3FECF3983EDCF3869567
S113349077956795B795F795E7959F5FC1F7FE2BED
S11334A0880F911D9695879597F90895FA01EE0F67
S11334B0FF1F30962105310599F16115710561F4FD
S11334C08038BFE39B0749F168949038810561F027
S11334D08038BFEF9B0741F0992342F5FF3FE10598
S11334E03105210511F1E8940894E795D901AA233F
S11334F029F4AB2FBE2FF85FD0F310C0FF5F70F438
S1133500A695E0F7F73950F019F0FF3A38F49F77B1
S11335109F930CD00F9007FC905808953EF0DECE98
S113352060E070E080E89FE308954FE79F775F9342
S11335304F933F932F939ED02F913F914F915F9143
S113354052DF05C019F40EF0C3CE0CCFC7CEF0DEA7
S1133550C8F39638C0F707F80F92E8942BE33AEAD9
S113356048EB5FE74EDF0F920F920F924DB75EB7B5
S11335700F92C0D0ECE7F0E016D04F915F91EF913D
S1133580FF91E595EE1FFF1F49F0FE57E0684427C1
S1133590EE0F441FFA95E1F74195550B32D00F9089
S11335A007FE26C00895DF93CF931F930F93FF92D6
S11335B0EF92DF927B018C01689405C0DA2EEF0153
S11335C01EDFFE01E894A591259135914591559111
S11335D0AEF3EF0185DDFE019701A801DA9479F7D6
S11335E0DF90EF90FF900F911F91CF91DF9108959D
S11335F09B01AC0160E070E080E89FE3C4CD68CE3D
S1133600ACC096DEE8F39923D9F3940F511DBBF3B4
S11336109150504094F059F0882332F0660F771F90
S1133620881F91505040C1F79E3F510544F7880FC1
S1133630911D9695879597F908955F3FACF0983E54
S11336409CF0BB27869577956795B79508F4B1608C
S11336509395C1F7BB0F58F711F460FFE8CF6F5F84
S11336607F4F8F4F9F4FE3CF7ECE0EF076C036CE86
S113367068942ECE5DDEC8F39923D1F3C6F3DF93AD
S1133680CF931F930F93FF92C92FDD2788232AF02E
S11336902197660F771F881FDAF720E030E040E8B3
S11336A05FEB9FE3883920F0803E30F021968F77DE
S11336B006DDE4EAF0E003C002DDE1EDF0E073DFF3
S11336C08B01BE01EC01FB2E6F5771097595771FB5
S11336D0880B990BC2DD28E132E741E35FE38FDE1B
S11336E0AF2D9801AE01FF900F911F91CF91DF9103
S11336F0F7DC05CEFA01DC01AA0FBB1F9B01AC016C
S1133700BF5728F422273327442750781FC0B751C6
S113371088F4AB2F0024469537952795011CA39573
S1133720D2F3002069F0220F331F441FB395DAF35C
S11337300DD0C4CC61307105A0E88A07B94630F4D5
S11337409B01AC016627772788279078309621F073
S1133750208331834283538308959F3F31F09150F6
S113376020F4879577956795B795880F911D969561
S1133770879597F90895DB018F939F932DD0BF917F
S1133780AF91A29F800D911DA39F900DB29F900DAC
S113379011240895A1E21A2EAA1BBB1BFD010DC022
S11337A0AA1FBB1FEE1FFF1FA217B307E407F507ED
S11337B020F0A21BB30BE40BF50B661F771F881FC9
S11337C0991F1A9469F760957095809590959B015F
S11337D0AC01BD01CF01089540D0A59F900DB49FC9
S11337E0900DA49F800D911D112408952F923F9256
S11337F04F925F926F927F928F929F92AF92BF92FD
S1133800CF92DF92EF92FF920F931F93CF93DF93A8
S1133810CDB7DEB7CA1BDB0B0FB6F894DEBF0FBE05
S1133820CDBF09942A88398848885F846E847D8452
S11338308C849B84AA84B984C884DF80EE80FD8054
S11338400C811B81AA81B981CE0FD11D0FB6F894CA
S1133850DEBF0FBECDBFED010895A29FB001B39F9F
S1133860C001A39F700D811D1124911DB29F700D85
S1133870811D1124911D0895CF93DF93823091050A
S113388010F482E090E0E0913602F091370220E0FB
S113389030E0C0E0D0E0309711F140815181481709
S11338A05907C0F04817590761F482819381209722
S11338B019F09B838A832BC090933702809336023E
S11338C026C02115310519F04217530718F49A013F
S11338D0BE01DF01EF010280F381E02DDCCF211571
S11338E0310509F1281B390B2430310590F4129667
S11338F08D919C9113976115710521F0FB019383C0
S1133900828304C09093370280933602FD0132967D
S113391044C0FD01E20FF31F8193919322503109BA
S11339202D933C933AC02091340230913502232BDD
S113393041F42091190130911A01309335022093FA
S1133940340220911701309118012115310541F4F9
S11339502DB73EB740911B0150911C01241B350B20
S1133960E0913402F0913502E217F307A0F42E1B24
S11339703F0B2817390778F0AC014E5F5F4F2417CF
S1133980350748F04E0F5F1F5093350240933402C1
S11339908193919302C0E0E0F0E0CF01DF91CF91F9
S11339A008950F931F93CF93DF93009709F48CC06E
S11339B0FC01329713821282009136021091370271
S11339C00115110581F420813181820F931F20910B
S11339D03402309135022817390779F5F09335020E
S11339E0E093340271C0D80140E050E0AE17BF0745
S11339F050F412962D913C911397AD012115310588
S1133A0009F1D901F3CF9D01DA0133832283608167
S1133A107181860F971F8217930769F4EC0128813F
S1133A203981260F371F2E5F3F4F318320838A81D0
S1133A309B8193838283452B29F4F0933702E0938F
S1133A40360242C01396FC93EE931297ED0149910E
S1133A5059919E01240F351FE217F30771F48081F9
S1133A609181840F951F029611969C938E93828167
S1133A70938113969C938E931297E0E0F0E0D80123
S1133A8012968D919C911397009719F0F8018C016F
S1133A90F6CF8D919C9198012E5F3F4F820F931F1B
S1133AA020913402309135022817390769F4309790
S1133AB029F4109237021092360202C01382128245
S1133AC01093350200933402DF91CF911F910F912F
S1133AD00895283008F027E03327DA01990F311DC3
S1133AE087FD916000966105710539F432602E5F9F
S1133AF03D9330E32A95E1F708959F3F30F08038F5
S1133B007105610509F03C5F3C5F3D93913008F01D
S1133B108068911DDF93CF931F930F93FF92EF92D1
S1133B20192F987F9695E92F96959695E90FFF277B
S1133B30E05AFE4F99273327EE24FF24A701E7011B
S1133B4005900894079428F4360FE71EF81E491FC1
S1133B50511D660F771F881F991F0694A1F70590C2
S1133B60079428F4E70EF81E491F561FC11D770F4E
S1133B70881F991F661F0694A1F70590079428F4DF
S1133B80F80E491F561FC71FD11D880F991F661FA6
S1133B90771F0694A1F70590079420F4490F561F48
S1133BA0C71FD81F990F661F771F881F0694A9F790
S1133BB084911095177041F0D695C7955795479500
S1133BC0F794E7941A95C1F7E6E0F1E0689415904C
S1133BD0159135916591959105907FE27395E11862
S1133BE0F10A430B560BC90BD009C0F7E10CF11EC7
S1133BF0431F561FC91FD01D7EF4703311F48A95DC
S1133C00E6CFE894015030F0080F0AF400270217B9
S1133C1008F4202F2395022F7A3328F079E37D933B
S1133C202A95E9F710C07D932A9589F6069497950D
S1133C306795379517951794E118F10A430B560BBE
S1133C40C90BD00998F023957E9173957A3308F0C7
S1133C5070E37C932013B8F77E9170617D9330F00C
S1133C60839571E37D9370E32A95E1F71124EF9036
S1133C70FF900F911F91CF91DF91992787FD909528
S1133C800895FC010590615070400110D8F78095AB
S1133C9090958E0F9F1F0895FC0161507040019014
S1133CA00110D8F7809590958E0F9F1F08950F935C
S1133CB01F93CF93DF93FB01238121FD03C08FEF7B
S1133CC09FEF28C022FF16C0468157812481358189
S1133CD04217530744F4A081B1819D012F5F3F4FE8
S1133CE0318320838C93268137812F5F3F4F378325
S1133CF0268310C0EB01092F182F0084F185E02DD5
S1133D000995892BE1F68E819F8101969F838E838D
S1133D10812F902FDF91CF911F910F910895A0E0F3
S1133D20B0E0E4E9FEE172CDAE014B5F5F4FFA0112
S1133D3061917191AF0180913A0290913B020E948E
S1133D40FD14E2E07FCDFA01AA27283051F1203199
S1133D5081F1E8946F936E7F6E5F7F4F8F4F9F4F1B
S1133D60AF4FB1E03ED0B4E03CD0670F781F891F5D
S1133D709A1FA11D680F791F8A1F911DA11D6A0F2B
S1133D80711D811D911DA11D20D009F468943F91DE
S1133D902AE0269F11243019305D3193DEF6CF01DD
S1133DA00895462F4770405D4193B3E00FD0C9F7A3
S1133DB0F6CF462F4F70405D4A3318F0495D31FD10
S1133DC04052419302D0A9F7EACFB4E0A695979563
S1133DD0879577956795BA95C9F700976105710539
S1133DE008959B01AC010A2E069457954795379583
S1133DF02795BA95C9F7620F731F841F951FA01DDD
S1093E000895F894FFCFC1
S1133E061F00000002000000002B0C000000001838
S1133E160C041060C0802000003E0220004D792072
S1133E2654656D703A20252E32660A005278205465
S10F3E36656D703A20252E32660A0000EB
S9030000FC
