S00F000058426565426F542E73726563AC
S11300000AC3000024C3000022C3000020C3000070
S11300100C94130F0C943C0F0C94650F0C948E0FDE
S113002016C300000C94F40D0C941D0E0C94460E93
S11300300C94C10E0C946F0E0C94980E0C94EA0E52
S11300400C94790D0C94A20D0C94CB0D00C30000FC
S1130050FEC20000FCC20000FAC20000F8C20000A8
S1130060F6C20000F4C20000F2C20000F0C20000B8
S1130070EEC20000ECC20000EAC200000763423690
S1130080B79BD8A71A39685618AEBAAB558C1D3C25
S1130090B7CC5763BD6DEDFD753EF6177231BF00E9
S11300A00000803F08000000BE922449123EABAA23
S11300B0AA2ABECDCCCC4C3E00000080BEABAAAA7E
S11300C0AA3E00000000BF000000803F00000000C6
S11300D000084178D3BB4387D1133D190E3CC3BDFF
S11300E04282AD2B3E68EC8276BED98FE1A93E4CAC
S11300F080EFFFBE01C4FF7F3F00000000006E617F
S11301006E00696E660000407A10F35A00A0724EC9
S113011018090010A5D4E80000E87648170000E4A8
S11301200B54020000CA9A3B000000E1F5050000F0
S113013080969800000040420F000000A086010055
S11301400000102700000000E80300000000640025
S1130150000000000A000000000001000000000090
S11301602C76D888DC674F0823DFC1DFAE59E1B1B4
S1130170B796E5E3E453C63AE651997696E8E6C2C3
S11301808426EB898C9B62ED407C6FFCEFBC9C9FCA
S113019040F2BAA56FA5F490055A2AF75C936B6CEC
S11301A0F9676DC11BFCE0E40D47FEF520E6B500E0
S11301B0D0ED902E0300943577050080841E08004E
S11301C000204E0A000000C80C333333330F986EFE
S11301D012831141EF8D2114893BE65516CFFEE6BB
S11301E0DB18D1844B381BF77C1D901DA4BBE42481
S11301F0203284725E228100C9F124ECA1E53D27FE
S113020016050100000000000000FA000000E000F4
S1130210E00028FE28FE282454FE5448C4C81026B2
S1130220466C92AA44A000A0C0000000384482009A
S1130230008244380028107C102810107C10100014
S11302400A0C00001010101010000606000004082C
S11302501020407C8A92A27C0042FE020042868AE0
S113026092628482A2D28C182848FE08E4A2A2A238
S11302709C3C5292920C808E90A0C06C9292926C94
S11302806092929478006C6C0000006A6C0000101C
S113029028448200282828282800824428104080E6
S11302A08A90604C929E827C7E8888887EFE9292A0
S11302B0926C7C82828244FE82824438FE929292C4
S11302C082FE909090807C8292925EFE101010FECE
S11302D00082FE8200040282FC80FE10284482FE1A
S11302E002020202FE403040FEFE201008FE7C8224
S11302F082827CFE909090607C828A847AFE9098C0
S11303009462629292928C8080FE8080FC0202024F
S1130310FCF8040204F8FC021C02FCC6281028C6DF
S1130320E0100E10E0868A92A2C200FE8282004093
S113033020100804008282FE002040804020020237
S11303400202020080402000042A2A2A1EFE1222F1
S1130350221C1C222222041C222212FE1C2A2A2ACB
S113036018107E908040304A4A4A7CFE1020201E9D
S11303700022BE0200040222BC00FE081422000077
S113038082FE02003E2018201E3E1020201E1C2249
S113039022221C3E28282810102828183E3E10200F
S11303A02010122A2A2A0420FC2202043C020204FD
S11303B03E38040204383C020C023C221408142285
S11303C0300A0A0A3C22262A322200106C820000DB
S11303D000FE000000826C100008101008100000DD
S11303E00000007F8181817F7F8383837F7F878774
S11303F0877F7F8F8F8F7F7F9F9F9F7F7FBFBFBFB1
S11304007F7FFFFFFF7F2040FF40206215171565A7
S113041000FBFB00000000000000C0FF0300E0FF41
S11304200700F0FF0F00F8FF1F0078001E0078009F
S11304301E0078001E0078001E0078001E00780060
S11304401E0078001E0078001E0078001E000000C8
S113045000000000000080FF0300E0FF0700F0FF41
S11304600F00F8FF1F00F83C1F00783C1E00783C8A
S11304701E00783C1E00783C1E00783C1E00783C30
S11304801E00783C1E00783C1E00783C1E00783C20
S11304901E000000000000000000E0FF0300F0FF69
S11304A00700F8FF0F00F8FF1F00783C1E00783C9F
S11304B01E00783C1E00783C1E00783C1E00783CF0
S11304C01E00783C1E00783C1E00783C1E00783CE0
S11304D01E000000000000000000F8FF0300F8FF09
S11304E00F00F8FF1F00F8FF1F0000001E000000AF
S11304F01E0000801F0000F01F0000FF0F00E0FF3F
S11305000700F0FF0000F80F0000F800000078007A
S1130510000078000000F8FF1F00F8FF1F00F0FF44
S11305201F00E0FF1F000000000000000000F8FFB3
S11305301F00F8FF1F00F8FF1F00F8FF1F007800DE
S11305401E00783C1E00783C1E00783C1E00783C5F
S11305501E00783C1E00783C1E00F87E1F00F8FF49
S11305601F00F0FF0F00E0E70300000000000000A0
S11305703800EEFF6C002A8045003A0047FC03FF78
S11305806CFC83FF3900DEFF0B7CD0810BFCD08137
S11305900BC0D0810BFCD0810B7CDEFF0B0082FFF3
S11305A0397002FF6CF83A0047DC2A8045CCEEFF34
S11305B06CCC000038000000000C00001E0C000091
S11305C01E0000001E0000001E0000001E00F8FFB8
S11305D01F00F8FF1F00F8FF1F00F8FF1F000000B6
S11305E01E0000001E0000001E0000001E0000008F
S11305F05E000000400000007C000000400000009D
S1130600400000007C0000003000000010000000EA
S1130610300000007C0011241FBECFEFD8E0DEBF05
S1130620CDBF11E0A0E0B1E0E8EDF9E402C005902F
S11306300D92AE35B107D9F722E0AEE5B1E001C0C5
S11306401D92AD3AB207E1F775D00C94EA24D8CCE8
S11306508FE046D6882311F082E0089560D081E0CF
S113066008958FE04AD6882319F420E030E013C0BF
S113067080917A00806480937A0080917A0086FD6C
S1130680FCCF3091780020917900922F80E0232FC5
S113069030E0282B392BC9010895ECE7F0E0908174
S11306A08295880F880F807C9F73982B9083089580
S11306B0582F809100018830D8F440917E0021E0C9
S11306C030E0B90102C0660F771F8A95E2F7CB01CB
S11306D08095842380937E0080917E00052E02C045
S11306E0220F331F0A94E2F7822B80937E000DC001
S11306F020917E0081E090E0052E02C0880F991FB2
S11307000A94E2F7282B20937E00509300018091F5
S11307107C005F71807E852B80937C0008958FE13F
S113072080937C00EAE7F0E087E080838081806842
S1130730808308950E94770D0E946E0D0E94171AFF
S113074080E090E008950F931F9385E0D6D5882329
S1130750A1F080E460E0CDD000E0802F60E07FD0A5
S113076010E080E061E0C5D01F5F1038D1F70F5F63
S1130770043099F783E060E0ABD01F910F910895A6
S11307800F931F9385E0ACD5882311F082E064C0F9
S1130790F8D0182F1BD61150123008F05AC08150CF
S11307A0823008F056C0BED08EEA60E0A2D082EA61
S11307B060E09FD080EA60E09CD000E513ECC801C3
S11307C00197F1F780EC60E094D08FE260E091D083
S11307D081E860E08ED086E160E08BD082E260E068
S11307E088D0C8010197F1F78FEA60E082D086EAE9
S11307F060E07FD085EA60E07CD080E090E028E88B
S113080033E1F9013197F1F7019643E0883E94070B
S1130810C1F783EB60E06DD080E460E06AD083E0F0
S113082060E01DD083E060E053D010924502109246
S113083047021092460285E091E09093AA028093C9
S1130840A90288E12AD07FDF84EA60E052D081E007
S113085003C085E035D587E01F910F910895FF927D
S11308600F931F93082FF62E85E047D5882389F030
S11308701F2D1F770370802F806B60E03AD0129594
S11308801F70812F806160E034D08F2D8F7060E005
S113089030D01F910F91FF9008951F93182F85E07A
S11308A02CD5882399F087E0A3D082E06AE0F0D0C9
S11308B082E061EBEDD0612F113208F060E282E05A
S11308C0E7D089EE8A95F1F787E092D01F910895D9
S11308D00F931F93082F162F85E00FD5882331F02F
S11308E003701F7710934302009344021F910F91EA
S11308F008950F931F93082F162F85E0FED48823A5
S113090071F0112319F0113021F402C02B9801C0A9
S11309102B9A86E08A95F1F780E0602FB9D01F9179
S11309200F910895239A08951F93182F86E0E5D414
S1130930882311F0812F15D01F91089586E0D0D41B
S1130940882311F082E0089511D081E008951F9367
S1130950182F86E0D2D4882311F0812F0DD01F9157
S1130960089585FD5D9886FD5E980895559A569A7A
S113097080E2DADF80E4D8CF85FD5D9A86FD5E9A59
S1130980089582E0ADD4882311F082E008958DD0DB
S113099080E065EE70E123D081E06DED70E11FD061
S11309A082E065ED70E11BD086E06DEE70E117D05A
S11309B083E06DEC70E113D084E06DEC70E10FD056
S11309C085E06DEC70E10BD087E06DEC70E107D051
S11309D08FEF8093480287E00BD081E00895E82FE1
S11309E0F0E0EE0FFF1FE355FE4F7183608308951F
S11309F01F93182F82E081D4882309F447C0912FD4
S1130A00977080914802981709F440C09093480267
S1130A1085B1887F892B85B9933011F1943028F4FE
S1130A20913051F0923090F40CC0953019F195301A
S1130A30E0F0963021F50FC0E091AF01F091B001E4
S1130A4022C0E091AD01F091AE011DC0E091B10171
S1130A50F091B20118C0E091B901F091BA0113C04C
S1130A60E091B301F091B4010EC0E091B501F091B1
S1130A70B60109C0E091B701F091B80104C0E0915A
S1130A80BB01F091BC01309709F009951F910895BD
S1130A901F93162FADDF82E030D4882321F01EBDD2
S1130AA00DB407FEFDCF1F910895259A2698279A25
S1130AB0209A219A229A08952F923F924F925F9200
S1130AC06F927F928F929F92AF92BF92CF92DF925A
S1130AD0EF92FF920F931F93DF93CF930F92CDB7B3
S1130AE0DEB7582E962E442E3901C9821501CE88C0
S1130AF0DF88A88CB98C6A8D7B8D81E0981609F10A
S1130B00981628F092E0991609F068C039C080E080
S1130B10B701ACD180E0642DA30198010981EE24D2
S1130B20E39470E8C72E72E0D72E60D2552009F006
S1130B3055C000D00F92EDB7FEB7118233822282E6
S1130B401AC081E093D181E0682DA60195010C8D36
S1130B50EE24E39490E8C92E92E0D92E47D2552092
S1130B6009F03CC000D00F92EDB7FEB791828D8D95
S1130B709E8D9383828348D30F900F900F902EC045
S1130B80C70196D100D080E892E0EDB7FEB792831A
S1130B908183842DB301A8012981082D7601650183
S1130BA0AC8C88248394B0D20F900F905520B1F46C
S1130BB000D000D00F92ADB7BEB71196EDB7FEB717
S1130BC09182FD01328221828D8D9E8D9483838357
S1130BD01BD30F900F900F900F900F900F90CF9109
S1130BE0DF911F910F91FF90EF90DF90CF90BF9016
S1130BF0AF909F908F907F906F905F904F903F90B9
S1130C002F9008954F925F927F928F929F92AF920E
S1130C10BF92CF92DF92EF92FF920F931F93DF93D5
S1130C20CF93CDB7DEB7562F942E7C2CAA89BB89DF
S1130C30CC88DD886E897F89988D813009F440C025
S1130C40813008F1823009F060C0513069F05130D0
S1130C5020F0523009F059C00EC080E0B70106D12F
S1130C6080E0692DA80105C081E000D181E0682DF4
S1130C70A601CED04AC0C7011BD1892DB801482D89
S1130C809601DAD042C0EDB7FEB739970FB6F894A3
S1130C90FEBF0FBEEDBF4DB65EB60894411C511C9D
S1130CA0B283A183F201D382C28275836483968363
S1130CB0898D9A8D9087878380E0652FC72C1CC00F
S1130CC0EDB7FEB739970FB6F894FEBF0FBEEDBF70
S1130CD0ADB6BEB60894A11CB11CB283A183F501C4
S1130CE0D382C2827583648396831086178281E0DF
S1130CF0652FC72CAA24BB24DFDE8DB79EB70996C7
S1130D000FB6F8949EBF0FBE8DBFCF91DF911F9198
S1130D100F91FF90EF90DF90CF90BF90AF909F9096
S1130D208F907F905F904F90089587E0D9D2882369
S1130D3011F082E00895BAD281E080937F0210928C
S1130D40490210924A0210924C0210924B021092E5
S1130D504E0210924D021092500210924F021092C5
S1130D6052021092510210925402109253021092A5
S1130D705602109255021092580210925702109285
S1130D805A021092590210925C0210925B02109265
S1130D905E0210925D021092600210925F02109245
S1130DA0620210926102109267021092680210921D
S1130DB0690210926A0210926C0210926D021092F3
S1130DC06E0210926F0210927002109271021092D1
S1130DD072021092740210927302109276021092B0
S1130DE07502109278021092770210927A02109291
S1130DF079021092640210926302109266021092B9
S1130E00650210927E0210927D0210927F02089574
S1130E10EF92FF920F931F93182F062F7A0160E031
S1130E2084D0812F602F62D0812FB70193D01F917E
S1130E300F91FF90EF900895CF92DF92EF92FF927F
S1130E400F931F93C82E7B01D42E890182E060E0AA
S1130E506CD08C2D6D2D5FD0C701B801A8D01F9127
S1130E600F91FF90EF90DF90CF900895482F81E08D
S1130E7080937F02CB0123E0693E720710F088EE75
S1130E8093E0413071F0413018F0423071F405C004
S1130E90909354028093530208C090935402809319
S1130EA05302909356028093550210927F02089544
S1130EB021E020937F02AC0183E0493E580710F003
S1130EC048EE53E09B0183E0693E780710F028EE7A
S1130ED033E0F894509354024093530230935602F3
S1130EE020935502789410927F020895982F81E000
S1130EF080937F02913051F0913018F0923041F498
S1130F0003C060936C0204C060936C0260936D0232
S1130F1010927F02089591E090937F02ECE6F2E054
S1130F208193608310927F020895982F81E08093CB
S1130F307F02913051F0913018F0923041F403C0A7
S1130F406093490204C06093490260934A0210927C
S1130F507F020895482F81E080937F02CB0121E036
S1130F606139720710F080E991E0413061F041305D
S1130F7018F04230C9F40EC0F89490934C02809358
S1130F804B02789411C0F89490934E0280934D02D2
S1130F9078940AC0F89490934C0280934B029093F7
S1130FA04E0280934D02789410927F020895AC0112
S1130FB081E080937F02F894CB0121E061397207CC
S1130FC010F080E991E090934E0280934D029A01D3
S1130FD081E04139580710F020E931E030934C02A8
S1130FE020934B02789410927F0208958F929F92DF
S1130FF0AF92BF92CF92DF92EF92FF920F931F9323
S1131000CF93DF93182FF62E4A015901E60187E0AA
S113101074D1882309F46BC0812F61E086DF812FAE
S1131020B401A5010E94B212812F6F2D5FDF812FC1
S1131030602F0E949D12812FB4010E947512C11469
S1131040D10499F0113049F0113018F0123069F4DC
S113105006C0188210927B0208C0198204C018824C
S1131060198210927B0210927C02D0937E02C0936C
S11310707D02EE20B1F58EE591E090937E0280939F
S11310807D02812FB50166DF812F0E94601211302D
S113109071F0113018F0123051F512C010925E0147
S11310A010927B0280915E018823E1F320C01092AC
S11310B05F0110927C0280915F018823E1F317C0E5
S11310C010925E0110925F0110927B0210927C02DA
S11310D080915E018823E1F380915F018823C1F34D
S11310E006C0812FB50136DF812F0E946012DF9187
S11310F0CF911F910F91FF90EF90DF90CF90BF9011
S1131100AF909F908F9008953F924F925F926F920D
S11311107F928F929F92AF92BF92CF92DF92EF9283
S1131120FF920F931F93DF93CF93CDB7DEB7982E23
S11311302B013A01322EB02E0C891D8987E0DDD0B7
S1131140882309F44FC082E061E0EFDE80E0B20161
S1131150A3010E94B21281E0B701A6010E94B2125B
S1131160892D6B2DD8DE80E0632D0E949D1281E0D5
S11311706A2D0E949D12C201B7010E9490120115AE
S1131180110539F0F8011082118210927B0210923D
S11311907C0210937E0200937D028820E9F480E6AD
S11311A091E090937E0280937D02C301B601FFDE3D
S11311B082E00E946012109260011092610110920C
S11311C07B0210927C02809160018823E1F380917C
S11311D061018823C1F306C0C301B601E8DE82E0E1
S11311E00E946012CF91DF911F910F91FF90EF90B9
S11311F0DF90CF90BF90AF909F908F907F906F9033
S11312005F904F903F900895CF92DF92EF92FF92BC
S11312100F931F93DF93CF93CDB7DEB71B8587E082
S11312206CD08823D1F1113061F0113018F01230F4
S1131230A1F511C0EC85FD85809180028823E1F33E
S113124006C0EC85FD85809181028823E1F3309707
S113125021F1099522C0CC84DD84EE84FF8400E072
S113126010E0002351F480918002882331F0C114EE
S1131270D10411F0F601099501E0112351F4809194
S11312808102882331F0E114F10411F0F70109958A
S113129011E0002331F3112321F3CF91DF911F914A
S11312A00F91FF90EF90DF90CF9008953A9A3B9A78
S11312B03C9A3D9A3E9A3F9A88B1837088B90895C2
S11312C0853160F4E82FF0E0EE5EFD4F80818823E5
S11312D029F0808181508083808108958FEF089563
S11312E0853110F080E00895E82FF0E0EE5EFD4FC8
S11312F080818F5F808381500895853110F080E074
S11313000895E82FF0E0EE5EFD4F8081811181E0C9
S113131008951F93182F80916301882341F08091D1
S11313206A01882389F01092630110926A0124D023
S11313308093620184E691E061E040E028E230E0DD
S1131340A6D081E08093630190916201133018F07C
S1131350133079F409C0E12FF0E0EF5FFE4F808194
S1131360892341F081E006C091FF03C0892F817079
S113137001C080E01F9108950F931F9381E0BDDFAA
S1131380882311F400E01EC087E032DB82E06AE0CB
S11313907FDB82E062EB7CDB18EC812F8A95F1F72E
S11313A082E060E023D7082F812F8A95F1F782E04D
S11313B060E01CD71A95F1F787E01ADB88E893E11F
S11313C00197F1F7802F1F910F910895DF93CF9329
S11313D000D00F92CDB7DEB781E082DF882311F011
S11313E082E00EC0CEDA8150823038F40FD0CE01C4
S11313F001960E94031381E003C081E061DF87E06E
S11314000F900F900F90CF91DF9108951092970253
S113141010929602109299021092980210929B02D6
S113142010929A0210929D0210929C0210929F02B6
S113143010929E0280E991E090938302809382024D
S1131440909385028093840290938702809386020E
S1131450909389028093880290938B0280938A02EE
S113146084E398E090938D0280938C0290938F0292
S113147080938E02909391028093900290939302B2
S11314808093920290939502809394020895EF9230
S1131490FF920F931F93CF93DF93EC01F62EE42E6C
S11314A0890188E02ADF882311F481E025C084E0E3
S11314B090E00E94F521FC01009711F482E01CC029
S11314C0F982F0FC1E8281E0E81619F489818460B7
S11314D089838981886089831B830A831D830C83A4
S11314E0D183C0831382128281E08093CD01CF0126
S11314F00AD01092CD0180E0DF91CF911F910F911E
S1131500FF90EF900895CF92DF92EF92FF920F93A6
S11315101F93CF93DF93EC018091A002882339F4C9
S1131520D093A202C093A1020E94831347C0C0902B
S1131530A102D090A20200E010E0EE24FF2437C004
S1131540A881B981FD0164817581F60140815181D1
S1131550FA01848195819B01281B390B37FF0FC049
S1131560861B970B95838483DB82CA82012B29F423
S1131570D093A202C093A10221C0F7010CC0F601CE
S1131580828193812115310549F4FD01158214826C
S11315909B838A83F601D383C28310C0FD01358304
S11315A024830097B9F30F5F1F4F76016C0180917C
S11315B0A00290E00817190718F2ECCF8091A0025E
S11315C08F5F8093A002DF91CF911F910F91FF90C5
S11315D0EF90DF90CF900895CF92DF92EF92FF9239
S11315E00F931F93CF93DF937B018C01EA01690171
S11315F081E0E81681EEF80680E0080780E018072D
S113160040F444E0EE0CFF1C001F111F4A95D1F773
S113161007C033E0EE0CFF1C001F111F3A95D1F7F1
S113162060E072EC8BEE9BE0A80197010E946F21B1
S113163079018A0186EF9FEFAFEFBFEFE80EF91E45
S11316400A1F1B1FC801B7012AE030E040E050E048
S11316500E946F21653071058105910540F08AE093
S113166090E0A0E0B0E0E80EF91E0A1F1B1FC801BD
S1131670B7012AE030E040E050E00E946F21C90148
S1131680DA012883892F9A2FAB2FBB27F601808399
S1131690DF91CF911F910F91FF90EF90DF90CF904A
S11316A00895BF92CF92DF92EF92FF920F931F9310
S11316B0DF93CF9300D0CDB7DEB7B62EC42ED22E93
S11316C0882321F0813009F073C03AC08DE015DE23
S11316D0882309F46DC01A8219821092C0001092F6
S11316E0C1001092C200C801B701AE014E5F5F4F46
S11316F09E012F5F3F4F70DFBB0CDD0CDD0CDD0C5A
S1131700DD0CDB28CC0CCC0CCC0CCD288A8180934E
S1131710C40089818093C500C092C20081E0E816AC
S113172081EEF80680E0080780E0180728F0809131
S1131730C00082608093C00081E080933B0238C087
S11317408EE0DBDD8823A1F119821A821092C80091
S11317501092C9001092CA00C801B701AE014F5FD0
S11317605F4F9E012E5F3F4F37DFBB0CDD0CDD0C5E
S1131770DD0CDD0CDB28CC0CCC0CCC0CCD28898109
S11317808093CC008A818093CD00C092CA0081E00E
S1131790E81681EEF80680E0080780E0180728F0D4
S11317A08091C80082608093C80081E080934002E9
S11317B00F900F90CF91DF911F910F91FF90EF90B9
S11317C0DF90CF90BF900895882319F0813091F471
S11317D007C08DE092DD882369F08091C00006C0C7
S11317E08EE08BDD882331F08091C800881F882724
S11317F0881F089580E00895882321F08130A1F0A6
S113180084E008958DE06CDD882339F510923B0265
S11318101092390210923A0254D180E065E070E0EF
S1131820FCD080E392E012C08EE05ADD8823A9F454
S11318301092400210923E0210923F0281E041D188
S113184081E065E070E0E9D087E292E061E041E0A8
S113185028EE33E01CDE81E0089582E00895CF9302
S1131860DF93EB01882321F0813009F044C021C0CB
S11318708DE043DD882309F43EC020913C02309181
S11318803D0280913A028130B1F50FC08091360259
S1131890882321F021503040109236028091C000FC
S11318A087FF03C08091C6001FC01216130674F38D
S11318B024C08EE022DD8823F1F020914102309192
S11318C0420280913F028130B1F411C080912D0217
S11318D0882321F02150304010922D028091C800BD
S11318E087FF05C08091CE00888380E007C0121670
S11318F0130664F302C081E001C083E0DF91CF915D
S113190008950F931F93182F062F882311F48DE049
S113191003C0813021F48EE0F0DC8823A9F1002398
S1131920F9F0013089F5112319F0113069F50CC073
S113193080913B02813041F58091C10080618093A8
S1131940C10000933A0220C0809140028130E1F44A
S11319508091C90080618093C90000933F0214C044
S1131960112319F0113081F408C08091C1008F7ED9
S11319708093C10010923A0207C08091C9008F7E03
S11319808093C90010923F021F910F9108950F9305
S11319901F93182F062F882311F48DE003C0813084
S11319A021F48EE0AADC8823A9F10023F9F00130A8
S11319B089F5112319F0113069F50CC080913B02AF
S11319C0813041F58091C10088608093C10000930B
S11319D0390220C0809140028130E1F48091C90035
S11319E088608093C90000933E0214C0112319F04B
S11319F0113081F408C08091C100877F8093C100B9
S1131A001092390207C08091C900877F8093C90072
S1131A1010923E021F910F91089577FF03C060E07A
S1131A2070E005C06F31710514F06EE170E0882339
S1131A3019F0813051F405C070933D0260933C026B
S1131A400895709342026093410208951F93162FE4
S1131A50882319F0813091F518C08DE04EDC88237D
S1131A6069F180913902813049F58091C00085FF88
S1131A70FCCF1093C6008091C00086FFFCCF8091FC
S1131A80C00080648093C00017C08EE036DC8823D9
S1131A90A9F080913E02813089F48091C80085FFCD
S1131AA0FCCF1093CE008091C80086FFFCCF8091BC
S1131AB0C80080648093C80080E001C081E01F9169
S1131AC00895882319F0813041F404C0519A509844
S1131AD0599A0895539A52985B9A08957ED501D3E2
S1131AE046D2F8D50E94C10471DC789408950000B0
S1131AF008951F920F920FB60F9211242F933F93C4
S1131B004F935F936F937F938F939F93AF93BF9301
S1131B10EF93FF93E0918D01F0918E01309709F0DE
S1131B200995FF91EF91BF91AF919F918F917F9113
S1131B306F915F914F913F912F910F900FBE0F9036
S1131B401F9018951F920F920FB60F9211242F9386
S1131B503F934F935F936F937F938F939F93AF9331
S1131B60BF93EF93FF93E0918F01F0919001309731
S1131B7009F00995FF91EF91BF91AF919F918F91DA
S1131B807F916F915F914F913F912F910F900FBE75
S1131B900F901F9018951F920F920FB60F92112459
S1131BA02F933F934F935F936F937F938F939F9361
S1131BB0AF93BF93EF93FF93E0919101F091920162
S1131BC0309709F00995FF91EF91BF91AF919F91E3
S1131BD08F917F916F915F914F913F912F910F90D2
S1131BE00FBE0F901F9018951F920F920FB60F9271
S1131BF011242F933F934F935F936F937F938F930E
S1131C009F93AF93BF93EF93FF93E0917F01F09184
S1131C108001309709F00995FF91EF91BF91AF9141
S1131C209F918F917F916F915F914F913F912F91F0
S1131C300F900FBE0F901F9018951F920F920FB622
S1131C400F9211242F933F934F935F936F937F933E
S1131C508F939F93AF93BF93EF93FF93E091810191
S1131C60F0918201309709F00995FF91EF91BF91AE
S1131C70AF919F918F917F916F915F914F913F9120
S1131C802F910F900FBE0F901F9018951F920F92D7
S1131C900FB60F9211242F933F934F935F936F933B
S1131CA07F938F939F93AF93BF93EF93FF93E091B1
S1131CB08301F0918401309709F00995FF91EF9128
S1131CC0BF91AF919F918F917F916F915F914F9150
S1131CD03F912F910F900FBE0F901F9018951F9258
S1131CE00F920FB60F9211242F933F934F935F934C
S1131CF06F937F938F939F93AF93BF93EF93FF93D0
S1131D00E0918701F0918801309709F00995FF91DE
S1131D10EF91BF91AF919F918F917F916F915F915F
S1131D204F913F912F910F900FBE0F901F901895D8
S1131D301F920F920FB60F9211242F933F934F933C
S1131D405F936F937F938F939F93AF93BF93EF931F
S1131D50FF93E0918901F0918A01309709F0099588
S1131D60FF91EF91BF91AF919F918F917F916F916F
S1131D705F914F913F912F910F900FBE0F901F9045
S1131D8018951F920F920FB60F9211242F933F9321
S1131D904F935F936F937F938F939F93AF93BF936F
S1131DA0EF93FF93E0918501F0918601309709F05C
S1131DB00995FF91EF91BF91AF919F918F917F9181
S1131DC06F915F914F913F912F910F900FBE0F90A4
S1131DD01F9018951F920F920FB60F9211242F93F4
S1131DE03F934F935F936F937F938F939F93AF939F
S1131DF0BF93EF93FF93E0918B01F0918C013097A7
S1131E0009F00995FF91EF91BF91AF919F918F9147
S1131E107F916F915F914F913F912F910F900FBEE2
S1131E200F901F9018951F920F920FB60F921124C6
S1131E302F933F934F935F936F937F938F939F93CE
S1131E40AF93BF93EF93FF93E0917501F091760107
S1131E50309709F00995FF91EF91BF91AF919F9150
S1131E608F917F916F915F914F913F912F910F903F
S1131E700FBE0F901F9018951F920F920FB60F92DE
S1131E8011242F933F934F935F936F937F938F937B
S1131E909F93AF93BF93EF93FF93E0917701F091FA
S1131EA07801309709F00995FF91EF91BF91AF91B7
S1131EB09F918F917F916F915F914F913F912F915E
S1131EC00F900FBE0F901F9018951F920F920FB690
S1131ED00F9211242F933F934F935F936F937F93AC
S1131EE08F939F93AF93BF93EF93FF93E091790107
S1131EF0F0917A01309709F00995FF91EF91BF9124
S1131F00AF919F918F917F916F915F914F913F918D
S1131F102F910F900FBE0F901F9018951F920F9244
S1131F200FB60F9211242F933F934F935F936F93A8
S1131F307F938F939F93AF93BF93EF93FF93E0911E
S1131F407B01F0917C01309709F00995FF91EF91A5
S1131F50BF91AF919F918F917F916F915F914F91BD
S1131F603F912F910F900FBE0F901F90189580E115
S1131F70B7D9882311F082E00895EDE6F1E01192DB
S1131F80119281E0ED3AF807D1F781E00895FF92CC
S1131F900F931F93CF93DF93F82E8AE0F816B1F0D6
S1131FA08F1548F0E8E0FE16B9F1EF1538F1F7E0C7
S1131FB0FF1651F43BC08DE0F81659F0EBE1FE1624
S1131FC089F0FCE0FF1641F001E03EC010924302AC
S1131FD003C01092430237C0809144028150809321
S1131FE0440231C00E94A30314C080E061E00E9457
S1131FF07904809143028F5F80934302809143026E
S113200087FFF3CF10924302809144028150809362
S1132010440200E011E019C080914302882399F042
S1132020809143028650809343020DC081E0A2D187
S113203064EF71E080E090E04DE750E024E630E0AA
S1132040A1D181E005D100E010E0809144026091CB
S113205043020E942F04002351F185E0F89EC00141
S11320601124EC01CD59DE4F8C0108591E4FFE019D
S1132070849161E00E9479042196C017D107B9F7D1
S113208080E061E00E947904809143028A5F80933A
S113209043028091430290E08C3791053CF010920A
S11320A043028091440281508093440211E0809164
S11320B04402837080934402113059F480914502A4
S11320C0813039F4E0914602F0914702309709F0EB
S11320D0099580E090E0DF91CF911F910F91FF90DF
S11320E00895F89457D081E002D081E008958130BA
S11320F049F0F894813020F18230B1F0833009F056
S113210045C017C02C9A80E880936100109261004A
S113211080E090E00000019688329105D9F7109292
S1132120680010926B00089580E88093610083E05A
S113213004C080E88093610088E08093610028C037
S113214080E090E0000001962DE680369207D1F7FA
S11321502C9880E090E0000001962DE680369207EE
S1132160D1F710927A008FEF809364008091680019
S113217081608093680080916B00846080936B0021
S1132180789483B7816083BF88950895823008F07E
S113219078940895249A2C9A089583E58CBD81E05F
S11321A08DBD8DE08A95F1F7089583E58CBD1DBC46
S11321B084EF91E00197F1F708958FE78CBD1DBC82
S11321C084EF91E00197F1F7089583E58CBD81E0F8
S11321D08DBD8DE08A95F1F7089583E58CBD81E08E
S11321E08DBD84EF91E00197F1F708951F93162FA9
S11321F00E94F80482E081D8882329F01EBD0DB422
S113220007FEFDCF8EB51F9108958AE059D8882323
S113221021F481E009D11092BE01089589E050D8DB
S11322208823A9F48091BD01882309F043D182E079
S1132230FBD08091CB019091CC01009731F00E94AA
S11322408A221092CC011092CB011092BD01089504
S1132250813019F0823011F4E1CFD7CF08950F9374
S11322601F93CF93DF9380E291E00E94F5219C01BC
S11322709093CC018093CB01892B11F480E039C079
S11322808901C0E0D0E0BE0180E090E00E94BD1E64
S113229020E030E040EA51E40E94291E27EF35E7B0
S11322A040E05FE30E94851F9B01AC0160E070E0A9
S11322B080E291E40E94E81F9B01AC01CA01B901CC
S11322C02DEC3CEC42E851E40E94851F0E944B1F18
S11322D02AE030E040E050E00E944D21F801619393
S11322E07193819391938F012196C834D10559F646
S11322F081E0DF91CF911F910F9108958AE00E94B0
S11323007009882311F082E008951092C801109298
S1132310C70181E0A5D081E08093BE0108951F9399
S113232089E00E947009882311F082E021C08BE0CB
S11323300E947D098823C1F492DF182F813011F0A7
S113234086E016C01092BF011092C0011092C10124
S11323501092C2018DE06BEB73E1E8D182E080D092
S11323601093BD0181E004C089E00E94600987E008
S11323701F910895813021F0823019F084E008958E
S1132380BDCFCDCF6F927F928F929F92AF92BF922B
S1132390CF92DF92EF92FF920F931F93CF93DF932D
S11323A03B014C015A01E9018AE00E947D0988231E
S11323B061F1209729F19501442737FD4095542F69
S11323C0BE01C536D10510F064E670E080E090E00F
S11323D00E944D2124E630E040E050E00E946F214D
S11323E079018A01C401B301C8D1C70146D160E0B3
S11323F070E080E090E0C1D1C5018E199F0904C04E
S1132400A114B10411F0C50138D1DF91CF911F910E
S11324100F91FF90EF90DF90CF90BF90AF909F907F
S11324208F907F906F900895823029F4809181007D
S11324308E7F809381008091BD01813031F4809141
S1132440BE01813011F4000008958091BD018130F6
S113245021F08091BE01813011F45F98579808955E
S1132460982F8091BD01882331F48091BE01882387
S113247011F4579A5F988091BD018823D1F492306A
S1132480C1F41092800010928100809181008860D4
S113249080938100809181008160809381001092FB
S11324A085001092840081E08093890080E9809304
S11324B088000895EFE6F0E080818D7F80830895A1
S11324C0982F81E080937F02913051F0913018F081
S11324D0923041F403C01092670204C01092670264
S11324E01092680210927F020895982F81E08093E1
S11324F07F02913071F0913018F0923071F405C080
S113250070935C0260935B0208C070935C026093FA
S11325105B0270935E0260935D0210927F020895E5
S113252021E020937F02EBE5F2E0918380833296F1
S11325307183608310927F020895982F81E08093C5
S11325407F02913051F0913018F0923041F403C081
S11325506093690204C06093690260936A021092F6
S11325607F0208950F931F93CF93DF93EB018A01AA
S11325708130F9F0813018F0823051F50DC080912E
S1132580530290915402892B11F080E019C01092EB
S1132590600210925F021CC0809153029091540219
S11325A0892B19F080E04ED104C010926002109281
S11325B05F028091550290915602892B29F081E0A7
S11325C0BE01A8013FD104C01092620210926102C0
S11325D0DF91CF911F910F910895CF93DF93C0E0C6
S11325E0D0E08C2F60E007D02196C531D105C9F722
S11325F0DF91CF910895853128F4E82FF0E0EE5E65
S1132600FD4F608308951F93CF93DF93EC010097F0
S113261081F181E00E947D09882339F187E00E94DD
S1132620F80418EC812F8A95F1F782E06AE00E94A1
S1132630480582E064EB0E944805812F8A95F1F7F2
S113264082E060E0D3DD8883812F8A95F1F782E010
S113265060E0CCDD89831A95F1F782E060E0C6DDA5
S11326608A8387E00E94F80404C0188219828DE2EC
S11326708A83DF91CF911F9108950F931F93DF9366
S1132680CF93CDB7DEB729970FB6F894DEBF0FBE50
S1132690CDBF8C0188E00E947D09882311F491E06C
S11326A00DC0CE01019661E040E098010E94470A06
S11326B0982F882319F48F818823E9F3892F299689
S11326C00FB6F894DEBF0FBECDBFCF91DF911F913F
S11326D00F91089588E00E947009882311F082E028
S11326E008951092A0021092A2021092A1021092D8
S11326F0CD011092CE0180E16FE874E12BD007D0B8
S11327000FD081E0089581E08093CE01089584B5CF
S1132710826084BD85B5846085BD8EE487BD0895DF
S1132720EEE6F0E08081826080830895E82F8032B5
S113273068F48051833050F0F0E0EE0FFF1FE3594E
S1132740FE4F208131817183608302C020E030E03C
S1132750C9010895803218F020E030E00AC0E82F63
S1132760F0E0EE0FFF1FE359FE4F208131817183AA
S11327706083C901089525C00895EF92FF920F93D5
S11327801F937B018C018AE00E947D098823A1F0BC
S11327908091BE01882381F0D801C701880F991F59
S11327A0AA1FBB1F9093CA018093C901E114F104CD
S11327B00105110509F45F981F910F91FF90EF90A7
S11327C008958091BF019091C001A091C101B09181
S11327D0C2012091C3013091C4014091C5015091BF
S11327E0C601280F391F4A1F5B1F2093BF01309376
S11327F0C0014093C1015093C2018091BF019091E7
S1132800C001A091C101B091C2018851964FA0406E
S1132810B040BCF08BB180588BB98091BF019091CE
S1132820C001A091C101B091C2018851964FA0404E
S1132830B0408093BF019093C001A093C101B093B5
S1132840C2010895EF92FF920F931F93CF93DF93EA
S1132850EB01882321F0813009F05AC02DC09A0180
S113286040E050E0CA01B9010E944D212091530279
S113287030915402220F331F40E050E00E946F2138
S113288079018A01A8019701220F331F441F551FA4
S1132890CE01A0E0B0E082179307A407B50728F0A3
S11328A0F0926002E0925F0233C0D695C795D09350
S11328B06002C0935F022CC09A0140E050E0CA015C
S11328C0B9010E944D212091550230915602220FE8
S11328D0331F40E050E00E946F2179018A01A80172
S11328E09701220F331F441F551FCE01A0E0B0E013
S11328F082179307A407B50728F0F0926202E092CA
S1132900610206C0D695C795D0936202C093610256
S1132910DF91CF911F910F91FF90EF90089502D016
S113292040D018C088E00E947D09882311F484E017
S113293008958091CE01882311F483E00895809155
S1132940CD01882311F082E0089595D28130E9F316
S113295080E008958091BE01813011F58091C70116
S11329609091C8012091C9013091CA01280F391FE3
S11329703093C8012093C7018091C7019091C80189
S1132980885E93406CF08BB180588BB98091C701FD
S11329909091C801885E93409093C8018093C701C9
S11329A0089587E00E947D09882309F4A8C08091D6
S11329B0530290915402892B09F1809177029091EE
S11329C078022091530230915402820F931F909306
S11329D07802809377028091770290917802885EE2
S11329E09340A4F08091770290917802885E93409E
S11329F0909378028093770241E009C080914B0262
S1132A0090914C029093500280934F0240E0809149
S1132A10550290915602892B09F180917902909187
S1132A207A022091550230915602820F931F90939F
S1132A307A02809379028091790290917A02885E79
S1132A409340A4F08091790290917A02885E934039
S1132A5090937A028093790261E009C080914D02DB
S1132A6090914E02909352028093510260E0842F21
S1132A7047D0809173029091740220914F0230915B
S1132A805002280F391F30937402209373028091EF
S1132A90730290917402885E934014F440E00BC07A
S1132AA08091730290917402885E934090937402B3
S1132AB08093730241E08091750290917602209197
S1132AC0510230915202280F391F3093760220931D
S1132AD075028091750290917602885E934014F499
S1132AE060E00BC08091750290917602885E9340FD
S1132AF0909376028093750261E0842F46C0089516
S1132B008823F1F020914B0230914C0280914F02C6
S1132B1090915002281B390B1216130634F480913D
S1132B204F0290915002019607C0232B49F08091E7
S1132B304F029091500201979093500280934F025C
S1132B40662311F120914D0230914E028091510281
S1132B5090915202281B390B1216130654F48091DB
S1132B605102909152020196909352028093510225
S1132B700895232B49F080915102909152020197BC
S1132B80909352028093510208950F931F93182F2C
S1132B90062F80917F02882309F0E3C080916702A9
S1132BA0882309F058C080914F0290915002892BDC
S1132BB0E1F48091CF01837E8093CF011092700263
S1132BC080917B02882309F45BC06091690280E0F4
S1132BD02ED1E0917D02F0917E02309709F450C02D
S1132BE081E0808310927B024BC080914902813046
S1132BF041F480915B0290915C02019711F411E021
S1132C0002C01123E9F1E0916E02F0E0ED5EFE4FA7
S1132C109091CF01937E8081892B8093CF01809105
S1132C206C02882321F480916E028F5F03C080912F
S1132C306E02815080936E0280916E028370809345
S1132C406E0281E080937002809149028130C1F468
S1132C5080E099D015C09091CF01937E9093CF01DD
S1132C60E0916E02F0E0ED5EFE4F8081892B80934F
S1132C70CF0182E0809370021092500210924F02B2
S1132C8080916802882309F057C080915102909185
S1132C905202892BE1F48091CF018F718093CF018F
S1132CA01092710280917C02882309F45AC06091C9
S1132CB06A0281E0BCD0E0917D02F0917E023097FF
S1132CC009F44FC081E0818310927C024AC0809154
S1132CD04A02813041F480915D0290915E02019735
S1132CE011F401E002C00023E1F1E0916F02F0E091
S1132CF0E95EFE4F9091CF019F718081892B809373
S1132D00CF0180916D02882321F480916F028F5F3F
S1132D1003C080916F02815080936F0280916F0293
S1132D20837080936F0281E08093710280914A02E4
S1132D308130B9F428D015C09091CF019F71909340
S1132D40CF01E0916F02F0E0E95EFE4F8081892BB4
S1132D508093CF0182E0809371021092520210920C
S1132D60510280917202882329F48FEC91E0612F43
S1132D70402FEED088B183709091CF01892B88B910
S1132D801F910F910895882321F0813009F04EC0DE
S1132D9027C080915B0290915C02892B49F080915D
S1132DA05B0290915C02019790935C0280935B02BA
S1132DB080917B028823D1F520915B0230915C02E3
S1132DC080915F02909160022817390779F580E0BD
S1132DD060E070E00E94AA0781E080937B0208957E
S1132DE080915D0290915E02892B49F080915D0291
S1132DF090915E02019790935E0280935D028091B0
S1132E007C02882399F420915D0230915E028091C6
S1132E106102909162022817390741F481E060E071
S1132E2070E00E94AA0781E080937C0208950F93CA
S1132E301F93182F062F662341F460E070E00E9470
S1132E40AA07812F60E070E050DB81E080937F026D
S1132E50113051F0113018F0123041F403C00093D6
S1132E60670204C0009367020093680210927F0215
S1132E701F910F910895FF920F931F93CF93DF93A8
S1132E808091A002882309F458C00091A1021091F6
S1132E90A202F801C081D1818C819D8101979D831B
S1132EA08C83181619060CF448C0898180FF05C06C
S1132EB08E81882311F481E08E83898181FF03C090
S1132EC0EF81F88509958091A0028230A8F0F8017D
S1132ED0828193819093A2028093A1021382128231
S1132EE0E0910000F0910100848195811816190683
S1132EF03CF0FF24F39405C01092A2021092A102A8
S1132F00FF248091A00281508093A0028091A002AE
S1132F10882309F41AD0898182FF08C08A819B81A1
S1132F209D838C83C8010E94830A08C0C8010E9443
S1132F308A2289818F7E898301C0FF248F2DDF91AE
S1132F40CF911F910F91FF9008951092CE01089593
S1132F50FC0180917002823069F48091D30191E088
S1132F6089278093D301882309F03EC08081837E22
S1132F7080833AC080914F0290915002C397A4F588
S1132F806623D1F020914F023091500280E690E008
S1132F90BC01269FC001279F900D369F900D1124E0
S1132FA0880F892F881F990B909364028093630282
S1132FB081E08093D10118C08091D1018823A1F0D0
S1132FC080916302909164020197909364028093CC
S1132FD063028091630290916402892B29F48081B9
S1132FE0837E80831092D10180917102823069F4D2
S1132FF08091D20191E089278093D201882309F03E
S11330003EC080818F718083089580915102909198
S11330105202C397A4F54423D1F020915102309178
S1133020520280E690E0AC01249FC001259F900DE0
S1133030349F900D1124880F892F881F990B90932A
S113304066028093650281E08093D00108958091A7
S1133050D0018823A1F080916502909166020197C6
S11330609093660280936502809165029091660256
S1133070892B29F480818F7180831092D001089567
S11330808F92AF92BF92CF92EF92FF920F931F93C2
S11330901F921F921F9281E08F9380E98F931F925A
S11330A084E68F931F921F92812CA12CB12CC12CEA
S11330B080E9E82EFF24F39404E610E020E030E0F9
S11330C040E062E082E00E9402068DB79EB7099656
S11330D00FB6F8949EBF0FBE8DBF81E01F910F9174
S11330E0FF90EF90CF90BF90AF908F9008958F9204
S11330F0AF92BF92CF92DF92EF92FF920F931F9302
S1133100CF93DF9380E00E9489098130F1F50E941A
S11331108909C82F8130C9F51F921F921F928F937E
S113312040E9D42EDF921F92D8ECDF931F9284E6FD
S11331308F9388248394A12CB12CC12C50E9E52EC3
S1133140FF24F39408EC10E024E630E041E062E070
S113315080E00E9402061F921F921F92CF93DF927B
S11331601F92DF93CF938CE28F932CE231E040E007
S113317062E080E00E9402068DB79EB742960FB6C9
S1133180F8949EBF0FBE8DBF7EC080E00E94890967
S1133190C82F8130C9F51F921F921F928F9320E987
S11331A0D22EDF921F92D8ECDF931F9284E68F9386
S11331B088248394A12CB12CC12C30E9E32EFF2464
S11331C0F39408EC10E024E630E041E062E080E0B3
S11331D00E9402061F921F921F92CF93DF921F92AA
S11331E0DF931F9286E98F9326E930E040E062E0A6
S11331F080E00E9402068DB79EB742960FB6F894FF
S11332009EBF0FBE8DBF3FC081E00E948909C82FB9
S11332108130D9F51F921F921F928F9380E9D82E87
S1133220DF921F92D8ECDF931F9284E68F93882459
S11332308394A12CB12CC12C90E9E92EFF24F394A2
S113324008EC10E024E630E041E062E080E00E9417
S113325002061F921F921F92CF93DF921F92DF9359
S11332601F9286E98F93812C26E930E041E062E0E9
S113327080E00E9402068DB79EB742960FB6F8947E
S11332809EBF0FBE8DBF80E001C081E0DF91CF9172
S11332901F910F91FF90EF90DF90CF90BF90AF9070
S11332A08F9008950F931F93CF93DF930E94310360
S11332B0C0911002D09111028E0102521E4FBC0126
S11332C080E090E05AD520E030E040EA5BE31DD690
S11332D020E030E040E05FE357D420E030E048EC09
S11332E052E413D626E636E646EE5FE30ED620E039
S11332F030E040E052E449D420E030E040E05FE3D5
S113330044D40FD5F8016083C133D10529F4109258
S113331011021092100205C02196D0931102C0939D
S11333201002EEEDF1E060E070E080E090E02191C9
S1133330222321F0820F911D6F5F7F4F22E0E03145
S1133340F207A9F7B9D7862FDF91CF911F910F917B
S11333500895CF93A7DFC82F682F81E00E94260D20
S1133360811104C080E20E94A70403C080E20E948D
S113337094048C2FCF910895CF93DF931F92CDB7F0
S1133380DEB7898380E40E94940481E00E94E40B08
S1133390882351F080E40E94A704BE016F5F7F4F31
S11333A081E00E942F0CF1CF89810F90DF91CF91A2
S11333B008951F93CF93DF931F92CDB7DEB7182FD5
S11333C09A018091DD0181110AC041E061E084ED40
S11333D091E00E94470A81E08093DD0123C080913F
S11333E0DA018823F9F069830E94A30381E291E062
S11333F00E945C241F921F9386E391E09F938F9316
S11334000E9448241F9269816F9384E491E09F9302
S11334108F930E9448241092DA010FB6F894DEBF0D
S11334200FBECDBF0F90DF91CF911F9108950E94E1
S1133430C00382E591E09F938F930E9448240E94E9
S113344095060E949E040E94280381E00E944D0379
S113345083E00E94580381E00E94FC0B10E8E12EF7
S113346015E2F12E00E010E020E040E063E081E0AE
S11334700E94510B61E070E081E00E940D0D61E05B
S113348081E00E94C70C61E081E00E94810C0F90F2
S11334900F90C0E0D0E0D11101C0F2DD28DED1E010
S11334A0811101C0D0E055DF182F8C2F65DFC82FA4
S11334B044EF51E0682F812F7CDFEDCFA3E1B0E032
S11334C0E3E6FAE138C76C014B012A01FC011782DB
S11334D01682838181FF32C3AE014F5F5F4F3A0191
S11334E0F6019381F40193FD859193FF81914F013E
S11334F0882309F41FC3853239F493FD859193FF22
S113350081914F01853239F4B60190E00E94102474
S113351052012501E5CF10E0F12C20E02032A0F487
S11335208B3269F030F4803259F0833269F42061CF
S11335302CC08D3239F0803339F4216026C02260EA
S1133540246023C0286021C027FD27C030ED380F38
S11335503A3078F426FF06C0FAE01F9F300D11249C
S1133560132F13C04AE0F49E300D1124F32E206271
S11335700CC08E3221F426FDDDC2206406C08C36D8
S113358011F4206802C0883641F4F40193FD85915A
S113359093FF81914F018111C1CF9BEB980F933021
S11335A018F42061805E06C09BE9980F933008F000
S11335B06CC12F7E26FF16E02F73322E853619F448
S11335C02064322E08C0863621F4F22FF0683F2E94
S11335D002C01111115037FE07C01C3350F4EE2401
S11335E0E394E10E27E00BC0183038F027E017E031
S11335F005C027E04CE3E42E02C0212FE12C520148
S113360044E0A40EB11CF201608171818281938136
S11336100E2DA3010E9422232C01098100FF02C068
S113362003FF07C031FC08C032FE09C030E2232E7C
S113363007C02DE2222E04C09BE2292E01C0212CBA
S1133640802F8C7019F0211058C294C237FE0FC01D
S1133650E40C04FF04C08A81813309F4EA941E1443
S113366074F5F8E0FE1578F588E0E82E2CC036FCF9
S11336702AC0812F90E0841595059CF02CEF42160A
S11336802FEF520674F0432D4068342E0AC0E2E056
S1133690F0E0EC0FFD1FE10FF11D8081803319F480
S11336A011501111F4CF37FE0EC0EE24E394E10E55
S11336B0812F90E0481659062CF4141904C0EE2406
S11336C0E39401C010E037FE06C01414150434F46A
S11336D0C201019605C085E090E002C081E090E05F
S11336E021100196112331F0212F30E02F5F3F4F3D
S11336F0820F931F2F2D30E08217930714F4F81ACA
S113370001C0F12C832D897049F4FF2039F0B601F2
S113371080E290E00E941024FA94F7CF222029F04E
S1133720B601822D90E00E94102433FC09C0FF20D2
S113373039F0B60180E390E00E941024FA94F7CFA8
S113374037FE5AC0942D852D57FE02C090E080E0CC
S1133750292E382E20E030E0A2014E1951095D8750
S11337604C87A201421953095F874E87612F70E08D
S113377044275527461B570B598B488B5FEF25165B
S1133780350649F4B6018EE290E02A8B3B8B0E9409
S113379010243B892A89421453046CF04C855D85BE
S11337A04215530544F4EE85FF85E20FF31FE60D41
S11337B0F71D818101C080E351E0251A31082F5F94
S11337C03F4F48895989241635064CF0B60190E0DC
S11337D02A8B3B8B0E9410242A893B89CFCF241447
S11337E0350439F49A81963318F4953311F404FFAF
S11337F081E3B60190E047C08A81813309F00F7EEE
S1133800B60190E00E941024111105C034FC17C0C9
S113381085E690E016C0B6018EE290E00E94102486
S113382082E0EE24E394E80EF301E80FF11D8081B9
S1133830B60190E0F5D711508E2D99F7E7CF85E4C6
S113384090E0B601EDD757FC05C04114510439F49A
S113385004FF05C05194419451088DE201C08BE2EC
S1133860B60190E0DDD780E39AE0491651042CF0CC
S11338708F5F5AE0451A5108F7CFB60190E0D0D7D0
S1133880B601C201C096CCD74CC1833631F0833720
S113389079F0833509F054C020C05201E2E0AE0E45
S11338A0B11CF2018081898301E010E0230113C07F
S11338B05201F2E0AF0EB11CF2014080518026FFAC
S11338C003C0612F70E002C06FEF7FEFC2012A8B4B
S11338D09CD78C012A892F7714C05201F2E0AF0ED5
S11338E0B11CF2014080518026FF03C0612F70E0BB
S11338F002C06FEF7FEFC2012A8B7CD78C012A892B
S11339002068322E23FD18C08F2D90E00817190768
S113391098F4B60180E290E083D7FA94F5CFF201EF
S113392037FC859137FE81912F01B60190E078D75D
S1133930F110FA94015011090115110581F7F1C034
S1133940843611F0893651F5520127FF09C0F4E09D
S1133950AF0EB11CF20160817181828193810AC032
S1133960F2E0AF0EB11CF20160817181072E000CF0
S1133970880B990B2F76322E97FF09C0909580956E
S1133980709561957F4F8F4F9F4F2068322E2AE0AC
S113399030E0A301C1D7E82EE6183EC0022F8537D8
S11339A021F40F7E2AE030E01DC0097F8F3691F0AC
S11339B018F4883559F0BEC0803719F0883711F0F3
S11339C0B9C0006104FF09C0046007C024FF08C037
S11339D0066006C028E030E005C020E130E002C007
S11339E020E132E0520107FF09C0F4E0AF0EB11C40
S11339F0F201608171818281938108C0F2E0AF0E8F
S1133A00B11CF2016081718180E090E0A30184D750
S1133A10E82EE6180F77302E36FE0BC0332D3E7F8E
S1133A20E11650F434FE0AC032FC08C0332D3E7E49
S1133A3005C00E2D332D03C00E2D01C0012F34FF00
S1133A400CC0FE01EE0DF11D8081803311F4397E2E
S1133A5008C032FF05C00E5F04C0832F867809F0CA
S1133A600F5F33FD12C030FF06C01E2D0F1518F472
S1133A701F0D101B0F2D0F1560F4B60180E290E0AE
S1133A803B8BCED60F5F3B89F6CF0F1510F4F01A9F
S1133A9001C0F12C34FF11C0B60180E390E03B8BF0
S1133AA0BFD63B8932FF16C031FD03C088E790E0E2
S1133AB002C088E590E0B6010CC0832F867851F0EF
S1133AC031FF02C08BE201C080E237FD8DE2B60116
S1133AD090E0A6D6E11630F4B60180E390E0A0D6DB
S1133AE01150F8CFEA94F301EE0DF11D8081B60177
S1133AF090E096D6E110F6CF14C0F4E0FF1548F537
S1133B0084E0F81A33FE1DC0211024C003FF27C02F
S1133B100EEF10E0F32DF0713F2EF8018491811126
S1133B2021C0FF2009F4F5CCB60180E290E078D6FC
S1133B30FA94F7CFF6018681978123C08FEF9FEF28
S1133B4020C0B60180E290E06BD6FA94F110F9CF70
S1133B50DBCFF12CB601822D90E062D6D7CF02E004
S1133B6011E0D8CF31108052B60190E059D60F5FE2
S1133B701F4FD3CF23E02F1510F483E0C2CFF12CD5
S1133B80C5CF6396E2E1F3C35058BB27AA270ED0F2
S1133B9048C139D130F03ED120F031F49F3F11F4C7
S1133BA01EF42EC10EF4E095E7FB24C1E92F4AD19F
S1133BB080F3BA17620773078407950718F071F446
S1133BC09EF562C10EF4E0950B2EBA2FA02D0B01C9
S1133BD0B90190010C01CA01A0011124FF27591B4E
S1133BE099F0593F50F4503E68F11A16F040A22F54
S1133BF0232F342F4427585FF3CF469537952795C5
S1133C00A795F0405395C9F77EF41F16BA0B620BC3
S1133C10730B840BBAF09150A1F0FF0FBB1F661F0A
S1133C20771F881FC2F70EC0BA0F621F731F841F4D
S1133C3048F4879577956795B795F7959E3F08F073
S1133C40B3CF9395880F08F09927EE0F9795879532
S1133C5008950CD0E6C0DED040F0D5D030F021F489
S1133C605F3F19F0C7C0511110C1CAC0EBD098F31F
S1133C709923C9F35523B1F3951B550BBB27AA27E9
S1133C8062177307840738F09F5F5F4F220F331F5B
S1133C90441FAA1FA9F333D00E2E3AF0E0E830D027
S1133CA091505040E695001CCAF729D0FE2F27D02A
S1133CB0660F771F881FBB1F261737074807AB07F8
S1133CC0B0E809F0BB0B802DBF01FF2793585F4F6D
S1133CD02AF09E3F510568F08DC0D7C05F3FECF3DA
S1133CE0983EDCF3869577956795B795F7959F5F32
S1133CF0C9F7880F911D9695879597F90895E1E086
S1133D00660F771F881FBB1F621773078407BA07E4
S1133D1020F0621B730B840BBA0BEE1F88F7E0953F
S1133D20089598D088F09F5790F0B92F9927B751EC
S1133D30A0F0D1F0660F771F881F991F1AF0BA956B
S1133D40C9F712C0B13081F09FD0B1E008959CC092
S1133D50672F782F8827B85F39F0B93FCCF3869561
S1133D6077956795B395D9F73EF4909580957095BE
S1133D7061957F4F8F4F9F4F0895E89409C097FB3B
S1133D803EF490958095709561957F4F8F4F9F4F2E
S1133D909923A9F0F92F96E9BB279395F695879572
S1133DA077956795B795F111F8CFFAF4BB0F11F435
S1133DB060FF1BC06F5F7F4F8F4F9F4F16C08823DC
S1133DC011F096E911C0772321F09EE8872F762F12
S1133DD005C0662371F096E8862F70E060E02AF053
S1133DE09A95660F771F881FDAF7880F969587953F
S1133DF097F9089597F99F6780E870E060E0089567
S1133E009FEF80EC089500240A94161617061806EE
S1133E100906089500240A941216130614060506CA
S1133E200895092E0394000C11F4882352F0BB0F5B
S1133E3040F4BF2B11F460FF04C06F5F7F4F8F4FBE
S1133E409F4F089557FD9058440F551F59F05F3FF9
S1133E5071F04795880F97FB991F61F09F3F79F0A8
S1133E6087950895121613061406551FF2CF46952A
S1133E70F1DF08C0161617061806991FF1CF8695AC
S1133E807105610508940895E894BB276627772790
S1133E90CB0197F90895DEDFA8F19E57A8F1985158
S1133EA060F039F1983070F5092E9927660F771F65
S1133EB0881F991F0A94D1F71CC0BB27993F4CF463
S1133EC0B111B1E0B62B672F782F8827985FB1F72F
S1133ED008C0869577956795B79508F4B160939572
S1133EE0C1F7BB0F30F411F460FF03C06F5F7F4F65
S1133EF08F4F3EF490958095709561957F4F8F4FCD
S1133F009F4F08956894C1CFBFCF0BD08ACF7BDF7A
S1133F1028F080DF18F0952309F06CCF71CF1124BD
S1133F20B4CF90DFA0F3959FD1F3950F50E0551FC8
S1133F30629FF001729FBB27F00DB11D639FAA27FA
S1133F40F00DB11DAA1F649F6627B00DA11D661F49
S1133F50829F2227B00DA11D621F739FB00DA11D6A
S1133F60621F839FA00D611D221F749F3327A00D24
S1133F70611D231F849F600D211D822F762F6A2FC0
S1133F8011249F5750408AF0E1F088234AF0EE0F45
S1133F90FF1FBB1F661F771F881F91505040A9F752
S1133FA09E3F510570F026CF70CF5F3FECF3983EF3
S1133FB0DCF3869577956795B795F795E7959F5FB9
S1133FC0C1F7FE2B880F911D9695879597F9089553
S1133FD0FA01EE0FFF1F30962105310599F16115A5
S1133FE0710561F48038BFE39B0749F16894903808
S1133FF0810561F08038BFEF9B0741F0992342F5BA
S1134000FF3FE1053105210511F1E8940894E79596
S1134010D901AA2329F4AB2FBE2FF85FD0F310C027
S1134020FF5F70F4A695E0F7F73950F019F0FF3A06
S113403038F49F779F930CD00F9007FC9058089505
S11340403EF0DECE60E070E080E89FE308954FE745
S11340509F775F934F933F932F939ED02F913F91E0
S11340604F915F9152DF05C019F40EF0C3CE0CCF0F
S1134070C7CEF0DEC8F39638C0F707F80F92E8947D
S11340802BE33AEA48EB5FE74EDF0F920F920F9271
S11340904DB75EB70F92C0D0ECE7F0E016D04F9169
S11340A05F91EF91FF91E595EE1FFF1F49F0FE57D9
S11340B0E0684427EE0F441FFA95E1F74195550B4C
S11340C032D00F9007FE26C00895DF93CF931F933D
S11340D00F93FF92EF92DF927B018C01689405C0ED
S11340E0DA2EEF011EDFFE01E894A59125913591AA
S11340F045915591AEF3EF0159DDFE019701A801F9
S1134100DA9479F7DF90EF90FF900F911F91CF91A0
S1134110DF9108959B01AC0160E070E080E89FE3CB
S113412098CD68CEACC096DEE8F39923D9F3940F0A
S1134130511DBBF39150504094F059F0882332F054
S1134140660F771F881F91505040C1F79E3F51055D
S113415044F7880F911D9695879597F908955F3FC9
S1134160ACF0983E9CF0BB27869577956795B795FC
S113417008F4B1609395C1F7BB0F58F711F460FFD1
S1134180E8CF6F5F7F4F8F4F9F4FE3CF7ECE0EF010
S113419076C036CE68942ECE5DDEC8F39923D1F373
S11341A0C6F3DF93CF931F930F93FF92C92FDD279D
S11341B088232AF02197660F771F881FDAF720E0FB
S11341C030E040E85FEB9FE3883920F0803E30F038
S11341D021968F77DADCE4EAF0E003C0D6DCE1ED87
S11341E0F0E073DF8B01BE01EC01FB2E6F57710908
S11341F07595771F880B990BC2DD28E132E741E3FF
S11342005FE38FDEAF2D9801AE01FF900F911F91F8
S1134210CF91DF91CBDC05CEFA01DC01AA0FBB1FE5
S11342209B01AC01BF5728F4222733274427507839
S11342301FC0B75188F4AB2F0024469537952795B6
S1134240011CA395D2F3002069F0220F331F441FF1
S1134250B395DAF30DD098CC61307105A0E88A07E4
S1134260B94630F49B01AC016627772788279078FC
S1134270309621F0208331834283538308959F3FF6
S113428031F0915020F4879577956795B795880F0D
S1134290911D9695879597F90895DB018F939F93C8
S11342A040D0BF91AF91A29F800D911DA39F900D0F
S11342B0B29F900D1124089597FB072E16F40094D5
S11342C006D077FD08D06ED007FC05D03EF490955B
S11342D081959F4F0895709561957F4F0895A1E250
S11342E01A2EAA1BBB1BFD010DC0AA1FBB1FEE1F6C
S11342F0FF1FA217B307E407F50720F0A21BB30BB7
S1134300E40BF50B661F771F881F991F1A9469F732
S113431060957095809590959B01AC01BD01CF018E
S1134320089554D0A59F900DB49F900DA49F800D27
S1134330911D112408952F923F924F925F926F9294
S11343407F928F929F92AF92BF92CF92DF92EF9221
S1134350FF920F931F93CF93DF93CDB7DEB7CA1BA2
S1134360DB0B0FB6F894DEBF0FBECDBF09942A88CD
S1134370398848885F846E847D848C849B84AA8475
S1134380B984C884DF80EE80FD800C811B81AA8102
S1134390B981CE0FD11D0FB6F894DEBF0FBECDBFCD
S11343A0ED010895AA1BBB1B51E107C0AA1FBB1F47
S11343B0A617B70710F0A61BB70B881F991F5A95AD
S11343C0A9F780959095BC01CD010895A29FB001F5
S11343D0B39FC001A39F700D811D1124911DB29F35
S11343E0700D811D1124911D0895CF93DF938230A8
S11343F0910510F482E090E0E091A502F091A6020C
S113440020E030E0C0E0D0E0309711F140815181EC
S113441048175907C0F04817590761F482819381FE
S1134420209719F09B838A832BC09093A6028093D4
S1134430A50226C02115310519F04217530718F4B7
S11344409A01BE01DF01EF010280F381E02DDCCF90
S11344502115310509F1281B390B2430310590F45D
S113446012968D919C9113976115710521F0FB01B2
S11344709383828304C09093A6028093A502FD01D6
S1134480329644C0FD01E20FF31F819391932250B1
S113449031092D933C933AC02091A3023091A40298
S11344A0232B41F420911D0130911E013093A4026D
S11344B02093A30220911B0130911C012115310589
S11344C041F42DB73EB740911F0150912001241BA8
S11344D0350BE091A302F091A402E217F307A0F4D4
S11344E02E1B3F0B2817390778F0AC014E5F5F4F46
S11344F02417350748F04E0F5F1F5093A4024093D2
S1134500A3028193919302C0E0E0F0E0CF01DF9138
S1134510CF9108950F931F93CF93DF93009709F4DE
S11345208CC0FC013297138212820091A502109173
S1134530A6020115110581F420813181820F931F98
S11345402091A3023091A4022817390779F5F0933A
S1134550A402E093A30271C0D80140E050E0AE177A
S1134560BF0750F412962D913C911397AD0121157C
S1134570310509F1D901F3CF9D01DA013383228397
S113458060817181860F971F8217930769F4EC018C
S113459028813981260F371F2E5F3F4F31832083B7
S11345A08A819B8193838283452B29F4F093A6020D
S11345B0E093A50242C01396FC93EE931297ED018B
S11345C0499159919E01240F351FE217F30771F4A5
S11345D080819181840F951F029611969C938E93EE
S11345E08281938113969C938E931297E0E0F0E07E
S11345F0D80112968D919C911397009719F0F801A8
S11346008C01F6CF8D919C9198012E5F3F4F820FC4
S1134610931F2091A3023091A4022817390769F44B
S1134620309729F41092A6021092A50202C01382B8
S113463012821093A4020093A302DF91CF911F91E1
S11346400F910895283008F027E03327DA01990FF5
S1134650311D87FD916000966105710539F4326062
S11346602E5F3D9330E32A95E1F708959F3F30F0A4
S113467080387105610509F03C5F3C5F3D939130E2
S113468008F08068911DDF93CF931F930F93FF92DF
S1134690EF92192F987F9695E92F96959695E90FA5
S11346A0FF27E05AFE4F99273327EE24FF24A70162
S11346B0E70105900894079428F4360FE71EF81EC6
S11346C0491F511D660F771F881F991F0694A1F774
S11346D00590079428F4E70EF81E491F561FC11DC4
S11346E0770F881F991F661F0694A1F705900794FA
S11346F028F4F80E491F561FC71FD11D880F991F94
S1134700661F771F0694A1F70590079420F4490FBC
S1134710561FC71FD81F990F661F771F881F06943F
S1134720A9F784911095177041F0D695C7955795C0
S11347304795F794E7941A95C1F7E6E0F1E0689499
S11347401590159135916591959105907FE273953A
S1134750E118F10A430B560BC90BD009C0F7E10C61
S1134760F11E431F561FC91FD01D7EF4703311F470
S11347708A95E6CFE894015030F0080F0AF4002738
S1134780021708F4202F2395022F7A3328F079E3B7
S11347907D932A95E9F710C07D932A9589F60694AE
S11347A097956795379517951794E118F10A430B78
S11347B0560BC90BD00998F023957E9173957A33E3
S11347C008F070E37C932013B8F77E9170617D93B9
S11347D030F0839571E37D9370E32A95E1F711241A
S11347E0EF90FF900F911F91CF91DF91992787FD53
S11347F090950895FC010590615070400110D8F720
S1134800809590958E0F9F1F0895FC016150704014
S113481001900110D8F7809590958E0F9F1F0895F1
S11348200F931F93CF93DF93FB01238121FD03C0DB
S11348308FEF9FEF28C022FF16C046815781248145
S113484035814217530744F4A081B1819D012F5F44
S11348503F4F318320838C93268137812F5F3F4FD5
S11348603783268310C0EB01092F182F0084F185AC
S1134870E02D0995892BE1F68E819F8101969F8316
S11348808E83812F902FDF91CF911F910F910895E7
S1134890A0E0B0E0EDE4F4E25ECDAE014B5F5F4F2B
S11348A0FA0161917191AF018091A9029091AA02DC
S11348B00E945E1AE2E06BCD0F931F93CF93DF93B8
S11348C0E091A902F091AA02238121FF1BC08C016F
S11348D0D0E0C0E0F80181918F016091A90270914C
S11348E0AA02DB011896ED91FC911997882331F007
S11348F00995892B79F3DFEFCFEFECCF8AE00995A7
S1134900892B19F08FEF9FEF02C08D2F9C2FDF9121
S1134910CF911F910F910895FA01AA27283051F1E0
S1134920203181F1E8946F936E7F6E5F7F4F8F4FDC
S11349309F4FAF4FB1E03ED0B4E03CD0670F781F3B
S1134940891F9A1FA11D680F791F8A1F911DA11D20
S11349506A0F711D811D911DA11D20D009F4689459
S11349603F912AE0269F11243019305D3193DEF601
S1134970CF010895462F4770405D4193B3E00FD0B7
S1134980C9F7F6CF462F4F70405D4A3318F0495DA2
S113499031FD4052419302D0A9F7EACFB4E0A69585
S11349A09795879577956795BA95C9F700976105A7
S11349B0710508959B01AC010A2E069457954795FD
S11349C037952795BA95C9F7620F731F841F951FF2
S10B49D0A01D0895F894FFCF27
S11349D81F020103030000000200000000C70F00CB
S11349E8000000180C041060C080200000AD0220F4
S11349F8004345454E2033323530202D205842653A
S1134A0865426F540A004D792054656D703A20252B
S1134A1864460A0052782054656D703A202564462D
S1114A280A005374617274696E672E2E2E009C
S9030000FC
