S015000058426565426F745F6B6E6F776E2E73726563FA
S11300000C940B030C9428030C9428030C942803DD
S11300100C94740E0C949D0E0C94C60E0C94EF0E5E
S11300200C9428030C94550D0C947E0D0C94A70D80
S11300300C94220E0C94D00D0C94F90D0C944B0ED0
S11300400C94DA0C0C94030D0C942C0D0C942803D2
S11300500C9428030C9428030C9428030C94280370
S11300600C9428030C9428030C9428030C94280360
S11300700C9428030C9428030C9428030763423639
S1130080B79BD8A71A39685618AEBAAB558C1D3C25
S1130090B7CC5763BD6DEDFD753EF6177231BF00E9
S11300A00000803F08000000BE922449123EABAA23
S11300B0AA2ABECDCCCC4C3E00000080BEABAAAA7E
S11300C0AA3E00000000BF000000803F00000000C6
S11300D000084178D3BB4387D1133D190E3CC3BDFF
S11300E04282AD2B3E68EC8276BED98FE1A93E4CAC
S11300F080EFFFBE01C4FF7F3F00000000006E617F
S11301006E00696E660000407A10F35A00A0724EC9
S113011018090010A5D4E80000E87648170000E4A8
S11301200B54020000CA9A3B000000E1F5050000F0
S113013080969800000040420F000000A086010055
S11301400000102700000000E80300000000640025
S1130150000000000A000000000001000000000090
S11301602C76D888DC674F0823DFC1DFAE59E1B1B4
S1130170B796E5E3E453C63AE651997696E8E6C2C3
S11301808426EB898C9B62ED407C6FFCEFBC9C9FCA
S113019040F2BAA56FA5F490055A2AF75C936B6CEC
S11301A0F9676DC11BFCE0E40D47FEF520E6B500E0
S11301B0D0ED902E0300943577050080841E08004E
S11301C000204E0A000000C80C333333330F986EFE
S11301D012831141EF8D2114893BE65516CFFEE6BB
S11301E0DB18D1844B381BF77C1D901DA4BBE42481
S11301F0203284725E228100C9F124ECA1E53D27FE
S113020016050100000000000000FA000000E000F4
S1130210E00028FE28FE282454FE5448C4C81026B2
S1130220466C92AA44A000A0C0000000384482009A
S1130230008244380028107C102810107C10100014
S11302400A0C00001010101010000606000004082C
S11302501020407C8A92A27C0042FE020042868AE0
S113026092628482A2D28C182848FE08E4A2A2A238
S11302709C3C5292920C808E90A0C06C9292926C94
S11302806092929478006C6C0000006A6C0000101C
S113029028448200282828282800824428104080E6
S11302A08A90604C929E827C7E8888887EFE9292A0
S11302B0926C7C82828244FE82824438FE929292C4
S11302C082FE909090807C8292925EFE101010FECE
S11302D00082FE8200040282FC80FE10284482FE1A
S11302E002020202FE403040FEFE201008FE7C8224
S11302F082827CFE909090607C828A847AFE9098C0
S11303009462629292928C8080FE8080FC0202024F
S1130310FCF8040204F8FC021C02FCC6281028C6DF
S1130320E0100E10E0868A92A2C200FE8282004093
S113033020100804008282FE002040804020020237
S11303400202020080402000042A2A2A1EFE1222F1
S1130350221C1C222222041C222212FE1C2A2A2ACB
S113036018107E908040304A4A4A7CFE1020201E9D
S11303700022BE0200040222BC00FE081422000077
S113038082FE02003E2018201E3E1020201E1C2249
S113039022221C3E28282810102828183E3E10200F
S11303A02010122A2A2A0420FC2202043C020204FD
S11303B03E38040204383C020C023C221408142285
S11303C0300A0A0A3C22262A322200106C820000DB
S11303D000FE000000826C100008101008100000DD
S11303E00000007F8181817F7F8383837F7F878774
S11303F0877F7F8F8F8F7F7F9F9F9F7F7FBFBFBFB1
S11304007F7FFFFFFF7F2040FF40206215171565A7
S113041000FBFB00000000000000C0FF0300E0FF41
S11304200700F0FF0F00F8FF1F0078001E0078009F
S11304301E0078001E0078001E0078001E00780060
S11304401E0078001E0078001E0078001E000000C8
S113045000000000000080FF0300E0FF0700F0FF41
S11304600F00F8FF1F00F83C1F00783C1E00783C8A
S11304701E00783C1E00783C1E00783C1E00783C30
S11304801E00783C1E00783C1E00783C1E00783C20
S11304901E000000000000000000E0FF0300F0FF69
S11304A00700F8FF0F00F8FF1F00783C1E00783C9F
S11304B01E00783C1E00783C1E00783C1E00783CF0
S11304C01E00783C1E00783C1E00783C1E00783CE0
S11304D01E000000000000000000F8FF0300F8FF09
S11304E00F00F8FF1F00F8FF1F0000001E000000AF
S11304F01E0000801F0000F01F0000FF0F00E0FF3F
S11305000700F0FF0000F80F0000F800000078007A
S1130510000078000000F8FF1F00F8FF1F00F0FF44
S11305201F00E0FF1F000000000000000000F8FFB3
S11305301F00F8FF1F00F8FF1F00F8FF1F007800DE
S11305401E00783C1E00783C1E00783C1E00783C5F
S11305501E00783C1E00783C1E00F87E1F00F8FF49
S11305601F00F0FF0F00E0E70300000000000000A0
S11305703800EEFF6C002A8045003A0047FC03FF78
S11305806CFC83FF3900DEFF0B7CD0810BFCD08137
S11305900BC0D0810BFCD0810B7CDEFF0B0082FFF3
S11305A0397002FF6CF83A0047DC2A8045CCEEFF34
S11305B06CCC000038000000000C00001E0C000091
S11305C01E0000001E0000001E0000001E00F8FFB8
S11305D01F00F8FF1F00F8FF1F00F8FF1F000000B6
S11305E01E0000001E0000001E0000001E0000008F
S11305F05E000000400000007C000000400000009D
S1130600400000007C0000003000000010000000EA
S1130610300000007C0011241FBECFEFD8E0DEBF05
S1130620CDBF11E0A0E0B1E0E2EEF7E402C0059036
S11306300D92A634B107D9F722E0A6E4B1E001C0D7
S11306401D92AC34B207E1F70E949F030C94EF2390
S11306500C9400008FE00E94B709882311F082E017
S113066008950E94940381E008958FE00E94C409D4
S1130670882319F420E030E013C080917A0080646C
S113068080937A0080917A0086FDFCCF30917800C7
S113069020917900922F80E0232F30E0282B392BF2
S11306A0C9010895ECE7F0E090818295880F880FE6
S11306B0807C9F73982B90830895582F809100011C
S11306C08830D8F440917E0021E030E0B90102C0C6
S11306D0660F771F8A95E2F7CB0180958423809378
S11306E07E0080917E00052E02C0220F331F0A94E3
S11306F0E2F7822B80937E000DC020917E0081E082
S113070090E0052E02C0880F991F0A94E2F7282B67
S113071020937E005093000180917C005F71807E65
S1130720852B80937C0008958FE180937C00EAE719
S1130730F0E087E0808380818068808308950E9450
S1130740D80C0E94CA0C0E947B1880E090E00895A7
S11307500F931F9385E00E94C4098823C1F080E4AD
S113076060E00E94BC0400E0802F60E00E9450041E
S113077010E080E061E00E94BC041F5F1038C9F7FC
S11307800F5F043089F783E060E00E94AA041F91A0
S11307900F9108950F931F9385E00E94B709882352
S11307A011F082E07AC00E94D904182F0E94D00967
S11307B01150123008F06DC08150823008F069C0C9
S11307C00E94D7048EEA60E00E94BC0482EA60E0E2
S11307D00E94BC0480EA60E00E94BC0400E513ECC3
S11307E0C8010197F1F780EC60E00E94BC048FE23D
S11307F060E00E94BC0481E860E00E94BC0486E1E1
S113080060E00E94BC0482E260E00E94BC04C80173
S11308100197F1F78FEA60E00E94BC0486EA60E089
S11308200E94BC0485EA60E00E94BC0480E090E081
S113083028E833E1F9013197F1F7019643E0883E66
S11308409407C1F783EB60E00E94BC0480E460E09D
S11308500E94BC0483E060E00E94500483E060E0F6
S11308600E94AA041092E4011092E6011092E5019C
S113087081E091E0909349028093480288E10E94CC
S113088089040E94A80384EA60E00E94BC0481E019
S113089004C085E00E94A70987E01F910F91089585
S11308A0FF920F931F93082FF62E85E00E94C40930
S11308B08823A1F01F2D1F770370802F806B60E0C9
S11308C00E94BC0412951F70812F806160E00E9419
S11308D0BC048F2D8F7060E00E94BC041F910F91A7
S11308E0FF9008950F931F93082F162F85E00E9401
S11308F0C409882359F0812F153108F084E166E09A
S1130900869FB0011124802F0E94AA041F910F9189
S113091008951F93182F85E00E94C4098823C1F00D
S113092087E00E941B0582E06AE00E946C0582E079
S113093061EB0E946C05612F113208F060E282E0E5
S11309400E946C0589EE8A95F1F787E00E941B05E9
S11309501F9108950F931F93082F162F85E00E946F
S1130960C409882331F003701F771093E2010093C8
S1130970E3011F910F9108950F931F93082F162FD2
S113098085E00E94C409882379F0112319F01130FD
S113099021F402C02B9801C02B9A86E08A95F1F7C6
S11309A080E0602F0E946C051F910F910895239A97
S11309B0089582E00E94B709882311F082E0089527
S11309C00E947B0580E06CE470E10E94120581E0E6
S11309D064E470E10E94120582E06CE370E10E941D
S11309E0120586E064E570E10E94120583E064E389
S11309F070E10E94120584E064E370E10E94120534
S1130A0085E064E370E10E94120587E064E370E12D
S1130A100E9412058FEF8093E70187E00E941B0577
S1130A2081E00895E82FF0E0EE0FFF1FE657FE4F38
S1130A307183608308951F93182F82E00E94C40974
S1130A40882309F447C0912F97708091E701981784
S1130A5009F440C09093E70185B1887F892B85B95B
S1130A60933011F1943028F4913051F0923090F495
S1130A700CC0953019F19530E0F0963021F50FC097
S1130A80E0918C01F0918D0122C0E0918A01F091F6
S1130A908B011DC0E0918E01F0918F0118C0E0918F
S1130AA09601F091970113C0E0919001F0919101AA
S1130AB00EC0E0919201F091930109C0E09194017C
S1130AC0F091950104C0E0919801F091990130975B
S1130AD009F009951F9108951F93162F0E941B0575
S1130AE082E00E94C409882321F01EBD0DB407FED4
S1130AF0FDCF1F910895259A2698279A209A219A26
S1130B00229A08952F923F924F925F926F927F9212
S1130B108F929F92AF92BF92CF92DF92EF92FF9209
S1130B200F931F93DF93CF930F92CDB7DEB7582E59
S1130B30962E442E3901C9821501CE88DF88A88CEF
S1130B40B98C6A8D7B8D81E0981619F1981628F07E
S1130B5092E0991609F070C03EC080E0B7010E948F
S1130B60720780E0642DA30198010981EE24E394C7
S1130B707FE1C72E72E0D72E0E943208552009F07B
S1130B805BC000D00F92EDB7FEB711823382228290
S1130B901CC081E00E94720781E0682DA6019501C6
S1130BA00C8DEE24E3949FE1C92E92E0D92E0E948D
S1130BB03208552009F040C000D00F92EDB7FEB7BF
S1130BC091828D8D9E8D938382830E944A090F901A
S1130BD00F900F9031C0C7010E94940700D08FE19D
S1130BE092E0EDB7FEB792838183842DB301A8010F
S1130BF02981082D76016501AC8C882483940E9498
S1130C00C5080F900F905520B9F400D000D00F9272
S1130C10ADB7BEB71196EDB7FEB79182FD01328232
S1130C2021828D8D9E8D948383830E944A090F9027
S1130C300F900F900F900F900F90CF91DF911F9115
S1130C400F91FF90EF90DF90CF90BF90AF909F9067
S1130C508F907F906F905F904F903F902F9008956A
S1130C604F925F927F928F929F92AF92BF92CF9258
S1130C70DF92EF92FF920F931F93DF93CF93CDB741
S1130C80DEB7562F942E7C2CAA89BB89CC88DD88AC
S1130C906E897F89988D813009F445C0813030F1A7
S1130CA0823009F066C0513071F0513020F052307A
S1130CB009F05FC011C080E0B7010E94720780E0B4
S1130CC0692DA80106C081E00E94720781E0682DA9
S1130CD0A6010E943E074DC0C7010E949407892DBA
S1130CE0B801482D96010E94550743C0EDB7FEB7E1
S1130CF039970FB6F894FEBF0FBEEDBF4DB65EB682
S1130D000894411C511CB283A183F201D382C28294
S1130D10758364839683898D9A8D9087878380E019
S1130D20652FC72C1CC0EDB7FEB739970FB6F894E2
S1130D30FEBF0FBEEDBFADB6BEB60894A11CB11C7C
S1130D40B283A183F501D382C282758364839683BF
S1130D501086178281E0652FC72CAA24BB240E9429
S1130D6082058DB79EB709960FB6F8949EBF0FBE45
S1130D708DBFCF91DF911F910F91FF90EF90DF9086
S1130D80CF90BF90AF909F908F907F905F904F9047
S1130D90089587E00E94B709882311F082E008953E
S1130DA00E949D0981E080931E021092E801109236
S1130DB0E9011092EB011092EA011092ED011092F8
S1130DC0EC011092EF011092EE011092F1011092D9
S1130DD0F0011092F3011092F2011092F5011092B9
S1130DE0F4011092F7011092F6011092F901109299
S1130DF0F8011092FB011092FA011092FD01109279
S1130E00FC011092FF011092FE0110920102109257
S1130E100002109206021092070210920802109229
S1130E20090210920B0210920C0210920D02109201
S1130E300E0210920F0210921002109211021092E0
S1130E4013021092120210921502109214021092C0
S1130E5017021092160210921902109218021092A0
S1130E6003021092020210920502109204021092E0
S1130E701D0210921C0210921E020895EF92FF921E
S1130E800F931F93182F062F7A0160E00E94D10759
S1130E90812F602F0E94B207812FB7010E94E607BD
S1130EA01F910F91FF90EF900895CF92DF92EF92F0
S1130EB0FF920F931F93C82E7B01D42E890182E0E9
S1130EC060E00E94D1078C2D6D2D0E94C707C701D9
S1130ED0B8010E9413081F910F91FF90EF90DF90CB
S1130EE0CF900895482F81E080931E02CB0123E028
S1130EF0693E720710F088EE93E0413071F04130A2
S1130F0018F0423071F405C09093F3018093F2011C
S1130F1008C09093F3018093F2019093F5018093BC
S1130F20F40110921E02089521E020931E02AC01E8
S1130F3083E0493E580710F048EE53E09B0183E0FC
S1130F40693E780710F028EE33E0F8945093F301EB
S1130F504093F2013093F5012093F40178941092B8
S1130F601E020895982F81E080931E02913051F063
S1130F70913018F0923041F403C060930B0204C026
S1130F8060930B0260930C0210921E02089591E08C
S1130F9090931E02EBE0F2E08193608310921E02B4
S1130FA00895982F81E080931E02913051F0913082
S1130FB018F0923041F403C06093E80104C06093D8
S1130FC0E8016093E90110921E020895482F81E020
S1130FD080931E02CB0121E06139720710F080E991
S1130FE091E0413061F0413018F04230C9F40EC054
S1130FF0F8949093EB018093EA01789411C0F894EB
S11310009093ED018093EC0178940AC0F894909346
S1131010EB018093EA019093ED018093EC017894C5
S113102010921E020895AC0181E080931E02F89490
S1131030CB0121E06139720710F080E991E09093CF
S1131040ED018093EC019A0181E04139580710F0D9
S113105020E931E03093EB012093EA017894109277
S11310601E0208958F929F92AF92BF92CF92DF9209
S1131070EF92FF920F931F93CF93DF93182FF62EC7
S11310804A015901E60187E00E94C409882309F452
S11310906FC0812F61E00E94D107812FB401A501A7
S11310A00E941E12812F6F2D0E94B207812F602F84
S11310B00E940912812FB4010E94E111C114D104CC
S11310C099F0113049F0113018F0123069F406C06B
S11310D0188210921A0208C0198204C01882198258
S11310E010921A0210921B02D0931D02C0931C028C
S11310F0EE20B9F586E491E090931D0280931C02E2
S1131100812FB5010E94E607812F0E94CC11113076
S113111071F0113018F0123059F512C010924601D6
S113112010921A02809146018823E1F321C01092A3
S1131130470110921B02809147018823E1F318C0F4
S1131140109246011092470110921A0210921B024B
S1131150809146018823E1F3809147018823C1F3FC
S113116007C0812FB5010E94E607812F0E94CC1190
S1131170DF91CF911F910F91FF90EF90DF90CF906F
S1131180BF90AF909F908F9008953F924F925F923F
S11311906F927F928F929F92AF92BF92CF92DF9283
S11311A0EF92FF920F931F93DF93CF93CDB7DEB7E8
S11311B0982E2B013A01322EB02E0C891D8987E01E
S11311C00E94C409882309F453C082E061E00E94AC
S11311D0D10780E0B201A3010E941E1281E0B70191
S11311E0A6010E941E12892D6B2D0E94C70780E064
S11311F0632D0E94091281E06A2D0E940912C20126
S1131200B7010E94FC110115110539F0F801108293
S1131210118210921A0210921B0210931D02009365
S11312201C028820F1F488E491E090931D028093DD
S11312301C02C301B6010E94130882E00E94CC1173
S1131240109248011092490110921A0210921B0246
S1131250809148018823E1F3809149018823C1F3F7
S113126007C0C301B6010E94130882E00E94CC119A
S1131270CF91DF911F910F91FF90EF90DF90CF906E
S1131280BF90AF909F908F907F906F905F904F90A2
S11312903F900895CF92DF92EF92FF920F931F93A6
S11312A0DF93CF93CDB7DEB71B8587E00E94C409D7
S11312B08823D1F1113061F0113018F01230A1F50A
S11312C011C0EC85FD8580911F028823E1F306C0DF
S11312D0EC85FD85809120028823E1F3309721F18C
S11312E0099522C0CC84DD84EE84FF8400E010E004
S11312F0002351F480911F02882331F0C114D104DA
S113130011F0F601099501E0112351F480912002B6
S1131310882331F0E114F10411F0F701099511E08B
S1131320002331F3112321F3CF91DF911F910F910A
S1131330FF90EF90DF90CF9008953A9A3B9A3C9AB1
S11313403D9A3E9A3F9A88B1837088B90895853151
S113135060F4E82FF0E0EF54FE4F8081882329F0F9
S1131360808181508083808108958FEF0895853135
S113137010F080E00895E82FF0E0EF54FE4F8081F4
S11313808F5F808381500895853110F080E0089547
S1131390E82FF0E0EF54FE4F8081811181E0089541
S11313A0DF93CF9300D00F92CDB7DEB781E00E94D8
S11313B0B709882311F082E011C00E94D90481503A
S11313C0823040F40E94F409CE0101960E94721208
S11313D081E004C081E00E94A70987E00F900F908C
S11313E00F90CF91DF91089510923602109235023A
S11313F0109238021092370210923A021092390277
S113140010923C0210923B0210923E0210923D0256
S113141080E991E090932202809321029093240228
S113142080932302909326028093250290932802AE
S11314308093270290932A028093290284E398E000
S113144090932C0280932B0290932E0280932D0272
S11314509093300280932F02909332028093310252
S113146090933402809333020895CF92DF92EF92E7
S1131470FF920F931F93CF93DF937B018C01EA01BB
S1131480690181E0E81681EEF80680E0080780E053
S1131490180740F444E0EE0CFF1C001F111F4A958E
S11314A0D1F707C033E0EE0CFF1C001F111F3A9563
S11314B0D1F760E072EC8BEE9BE0A80197010E94EB
S11314C0B52079018A0186EF9FEFAFEFBFEFE80EF9
S11314D0F91E0A1F1B1FC801B7012AE030E040E0D3
S11314E050E00E94B520653071058105910540F0FA
S11314F08AE090E0A0E0B0E0E80EF91E0A1F1B1F8E
S1131500C801B7012AE030E040E050E00E94B52075
S1131510C901DA012883892F9A2FAB2FBB27F60143
S11315208083DF91CF911F910F91FF90EF90DF9017
S1131530CF900895BF92CF92DF92EF92FF920F93D4
S11315401F93DF93CF9300D0CDB7DEB7B62EC42E52
S1131550D22E882321F0813009F077C03CC08DE081
S11315600E94C409882309F470C01A821982109257
S1131570C0001092C1001092C200C801B701AE01B0
S11315804E5F5F4F9E012F5F3F4F0E94350ABB0C99
S1131590DD0CDD0CDD0CDD0CDB28CC0CCC0CCC0C18
S11315A0CD288A818093C40089818093C500C0922C
S11315B0C20081E0E81681EEF80680E0080780E0CA
S11315C0180728F08091C00082608093C00081E0F9
S11315D08093DA013AC08EE00E94C4098823A9F1FD
S11315E019821A821092C8001092C9001092CA007F
S11315F0C801B701AE014F5F5F4F9E012E5F3F4FA1
S11316000E94350ABB0CDD0CDD0CDD0CDD0CDB2887
S1131610CC0CCC0CCC0CCD2889818093CC008A8155
S11316208093CD00C092CA0081E0E81681EEF806EE
S113163080E0080780E0180728F08091C8008260E5
S11316408093C80081E08093DF010F900F90CF91C9
S1131650DF911F910F91FF90EF90DF90CF90BF909B
S11316600895882319F08130A1F408C08DE00E9408
S1131670C409882371F08091C00007C08EE00E94E5
S1131680C409882331F08091C800881F8827881FE7
S1131690089580E00895882321F08130B9F084E032
S11316A008958DE00E94B709882369F51092DA0144
S11316B01092D8011092D9010E94BD0C80E065E01F
S11316C070E00E94670C8FEC91E015C08EE00E94E0
S11316D0B7098823C1F41092DF011092DD01109242
S11316E0DE0181E00E94BD0C81E065E070E00E94B3
S11316F0670C86EC91E061E041E028EE33E00E9463
S1131700DC1281E0089582E00895CF93DF93EB012A
S1131710882321F0813009F046C022C08DE00E9468
S1131720C409882309F43FC02091DB013091DC0116
S11317308091D9018130B9F50FC08091D5018823FA
S113174021F0215030401092D5018091C00087FFD4
S113175003C08091C60020C01216130674F325C07E
S11317608EE00E94C4098823F1F02091E0013091B9
S1131770E1018091DE018130B1F411C08091CC018E
S1131780882321F0215030401092CC018091C80070
S113179087FF05C08091CE00888380E007C01216C1
S11317A0130664F302C081E001C083E0DF91CF91AE
S11317B008950F931F93182F062F882311F48DE09B
S11317C003C0813029F48EE00E94C4098823A9F162
S11317D00023F9F0013089F5112319F0113069F56E
S11317E00CC08091DA01813041F58091C1008061A3
S11317F08093C1000093D90120C08091DF01813022
S1131800E1F48091C90080618093C9000093DE01F6
S113181014C0112319F0113081F408C08091C10063
S11318208F7E8093C1001092D90107C08091C900B6
S11318308F7E8093C9001092DE011F910F9108954D
S11318400F931F93182F062F882311F48DE003C0E4
S1131850813029F48EE00E94C4098823A9F1002371
S1131860F9F0013089F5112319F0113069F50CC034
S11318708091DA01813041F58091C10088608093C4
S1131880C1000093D80120C08091DF018130E1F4D0
S11318908091C90088608093C9000093DD0114C061
S11318A0112319F0113081F408C08091C100877FA1
S11318B08093C1001092D80107C08091C900877F2E
S11318C08093C9001092DD011F910F91089577FF55
S11318D003C060E070E005C06F31710514F06EE183
S11318E070E0882319F0813051F405C07093DC0155
S11318F06093DB0108957093E1016093E001089522
S11319001F93162F882319F08130A1F519C08DE09B
S11319100E94C409882371F18091D801813051F566
S11319208091C00085FFFCCF1093C6008091C00059
S113193086FFFCCF8091C00080648093C00018C0F3
S11319408EE00E94C4098823A9F08091DD018130D2
S113195089F48091C80085FFFCCF1093CE0080915C
S1131960C80086FFFCCF8091C80080648093C800C3
S113197080E001C081E01F910895882319F081302F
S113198041F404C0519A5098599A0895539A529820
S11319905B9A08950E945B120E94D60F0E94180F52
S11319A00E941A130E94D9040E94D00978940895C1
S11319B0000008951F920F920FB60F9211242F93D7
S11319C03F934F935F936F937F938F939F93AF93C3
S11319D0BF93EF93FF93E0916A01F0916B0130970D
S11319E009F00995FF91EF91BF91AF919F918F916C
S11319F07F916F915F914F913F912F910F900FBE07
S1131A000F901F9018951F920F920FB60F921124EA
S1131A102F933F934F935F936F937F938F939F93F2
S1131A20AF93BF93EF93FF93E0916C01F0916D013D
S1131A30309709F00995FF91EF91BF91AF919F9174
S1131A408F917F916F915F914F913F912F910F9063
S1131A500FBE0F901F9018951F920F920FB60F9202
S1131A6011242F933F934F935F936F937F938F939F
S1131A709F93AF93BF93EF93FF93E0916E01F09127
S1131A806F01309709F00995FF91EF91BF91AF91E4
S1131A909F918F917F916F915F914F913F912F9182
S1131AA00F900FBE0F901F9018951F920F920FB6B4
S1131AB00F9211242F933F934F935F936F937F93D0
S1131AC08F939F93AF93BF93EF93FF93E0915C0148
S1131AD0F0915D01309709F00995FF91EF91BF9165
S1131AE0AF919F918F917F916F915F914F913F91B2
S1131AF02F910F900FBE0F901F9018951F920F9269
S1131B000FB60F9211242F933F934F935F936F93CC
S1131B107F938F939F93AF93BF93EF93FF93E09142
S1131B205E01F0915F01309709F00995FF91EF9103
S1131B30BF91AF919F918F917F916F915F914F91E1
S1131B403F912F910F900FBE0F901F9018951F92E9
S1131B500F920FB60F9211242F933F934F935F93DD
S1131B606F937F938F939F93AF93BF93EF93FF9361
S1131B70E0916001F0916101309709F00995FF91BE
S1131B80EF91BF91AF919F918F917F916F915F91F1
S1131B904F913F912F910F900FBE0F901F9018956A
S1131BA01F920F920FB60F9211242F933F934F93CE
S1131BB05F936F937F938F939F93AF93BF93EF93B1
S1131BC0FF93E0916401F0916501309709F0099564
S1131BD0FF91EF91BF91AF919F918F917F916F9101
S1131BE05F914F913F912F910F900FBE0F901F90D7
S1131BF018951F920F920FB60F9211242F933F93B3
S1131C004F935F936F937F938F939F93AF93BF9300
S1131C10EF93FF93E0916601F0916701309709F02B
S1131C200995FF91EF91BF91AF919F918F917F9112
S1131C306F915F914F913F912F910F900FBE0F9035
S1131C401F9018951F920F920FB60F9211242F9385
S1131C503F934F935F936F937F938F939F93AF9330
S1131C60BF93EF93FF93E0916201F091630130978A
S1131C7009F00995FF91EF91BF91AF919F918F91D9
S1131C807F916F915F914F913F912F910F900FBE74
S1131C900F901F9018951F920F920FB60F92112458
S1131CA02F933F934F935F936F937F938F939F9360
S1131CB0AF93BF93EF93FF93E0916801F0916901B3
S1131CC0309709F00995FF91EF91BF91AF919F91E2
S1131CD08F917F916F915F914F913F912F910F90D1
S1131CE00FBE0F901F9018951F920F920FB60F9270
S1131CF011242F933F934F935F936F937F938F930D
S1131D009F93AF93BF93EF93FF93E0915201F091B0
S1131D105301309709F00995FF91EF91BF91AF916D
S1131D209F918F917F916F915F914F913F912F91EF
S1131D300F900FBE0F901F9018951F920F920FB621
S1131D400F9211242F933F934F935F936F937F933D
S1131D508F939F93AF93BF93EF93FF93E0915401BD
S1131D60F0915501309709F00995FF91EF91BF91DA
S1131D70AF919F918F917F916F915F914F913F911F
S1131D802F910F900FBE0F901F9018951F920F92D6
S1131D900FB60F9211242F933F934F935F936F933A
S1131DA07F938F939F93AF93BF93EF93FF93E091B0
S1131DB05601F0915701309709F00995FF91EF9181
S1131DC0BF91AF919F918F917F916F915F914F914F
S1131DD03F912F910F900FBE0F901F9018951F9257
S1131DE00F920FB60F9211242F933F934F935F934B
S1131DF06F937F938F939F93AF93BF93EF93FF93CF
S1131E00E0915801F0915901309709F00995FF913B
S1131E10EF91BF91AF919F918F917F916F915F915E
S1131E204F913F912F910F900FBE0F901F901895D7
S1131E3080E10E94B709882311F082E00895EAE462
S1131E40F1E01192119281E0EA38F807D1F781E0CC
S1131E500895FF920F931F93CF93DF93F82E8AE098
S1131E60F816B1F08F1548F0E8E0FE16B9F1EF1559
S1131E7038F1F7E0FF1651F43BC08DE0F81659F045
S1131E80EBE1FE1689F0FCE0FF1641F001E041C0F1
S1131E901092E20103C01092E2013AC08091E30182
S1131EA081508093E30134C00E94A80314C080E0F1
S1131EB061E00E94BC048091E2018F5F8093E201A3
S1131EC08091E20187FFF3CF1092E2018091E30158
S1131ED081508093E30100E011E01CC08091E20195
S1131EE08823B1F08091E20186508093E20110C012
S1131EF081E00E941E1164EF71E080E090E04DE704
S1131F0050E024E630E00E942A1181E00E9485100E
S1131F1000E010E08091E3016091E2010E9450042E
S1131F20002351F185E0F89EC0011124EC01CD5944
S1131F30DE4F8C0108591E4FFE01849161E00E941E
S1131F40BC042196C017D107B9F780E061E00E9474
S1131F50BC048091E2018A5F8093E2018091E201F6
S1131F6090E08C3791053CF01092E2018091E301FE
S1131F7081508093E30111E08091E30183708093A9
S1131F80E301113059F48091E401813039F4E09196
S1131F90E501F091E601309709F0099580E090E0C1
S1131FA0DF91CF911F910F91FF900895F8940E94B3
S1131FB0311081E00E94DE0F81E00895813049F004
S1131FC0F894813020F18230B1F0833009F045C0BB
S1131FD017C02C9A80E8809361001092610080E021
S1131FE090E00000019688329105D9F710926800BC
S1131FF010926B00089580E88093610083E004C030
S113200080E88093610088E08093610028C080E0CC
S113201090E0000001962DE680369207D1F72C98C7
S113202080E090E0000001962DE680369207D1F71B
S113203010927A008FEF8093640080916800816031
S11320408093680080916B00846080936B00789427
S113205083B7816083BF88950895823008F07894AF
S11320600895249A2C9A089583E58CBD81E08DBD52
S11320708DE08A95F1F7089583E58CBD1DBC84EF4E
S113208091E00197F1F708958FE78CBD1DBC84EFB3
S113209091E00197F1F7089583E58CBD81E08DBD52
S11320A08DE08A95F1F7089583E58CBD81E08DBDBF
S11320B084EF91E00197F1F708958AE00E94A7095F
S11320C0882329F481E00E94801110929B010895D5
S11320D089E00E94A7098823B9F480919A01882392
S11320E011F00E94C61182E00E9480118091A80123
S11320F09091A901009731F00E94BD211092A9018D
S11321001092A80110929A010895813029F082302A
S113211029F40E94681008950E945D1008950F9399
S11321201F93CF93DF9380E291E00E9428219C01CA
S11321309093A9018093A801892B11F480E039C000
S11321408901C0E0D0E0BE0180E090E00E947B1DE8
S113215020E030E040EA51E40E94DA1C27EF35E742
S113216040E05FE30E94461E9B01AC0160E070E02A
S113217080E291E40E94B31E9B01AC01CA01B90143
S11321802DEC3CEC42E851E40E94461E0E94091EDC
S11321902AE030E040E050E00E94A520F80161937D
S11321A07193819391938F012196C834D10559F687
S11321B081E0DF91CF911F910F9108958AE00E94F1
S11321C0B709882311F082E008951092A5011092B6
S11321D0A40181E00E949C1181E080939B010895F9
S11321E01F9389E00E94B709882311F082E024C07C
S11321F08BE00E94C4098823D9F40E948F10182F01
S1132200813011F086E018C010929C0110929D015B
S113221010929E0110929F018DE063EE73E10E9483
S1132220AE1382E00E949C1110939A0181E004C0D5
S113223089E00E94A70987E01F910895813021F069
S1132240823029F084E008950E94DE1008950E94EF
S1132250F01008956F927F928F929F92AF92BF92E7
S1132260CF92DF92EF92FF920F931F93CF93DF935E
S11322703B014C015A01E9018AE00E94C409882308
S113228081F1209741F19501442737FD4095542F62
S1132290BE01C536D10510F064E670E080E090E040
S11322A00E94A52024E630E040E050E00E94B520E2
S11322B079018A01C401B3010E94E613C7010E9497
S11322C0AF1260E070E080E090E00E94E613C50188
S11322D08E199F0904C0A114B10419F0C5010E940C
S11322E0AF12DF91CF911F910F91FF90EF90DF908C
S11322F0CF90BF90AF909F908F907F906F900895F4
S1132300823029F4809181008E7F809381008091B6
S11323109A01813031F480919B01813011F40000E5
S1132320089580919A01813021F080919B01813040
S113233011F45F9857980895982F80919A018823F3
S113234031F480919B01882311F4579A5F9880910E
S11323509A018823D1F49230C1F410928000109233
S11323608100809181008860809381008091810048
S1132370816080938100109285001092840081E036
S11323808093890080E9809388000895EFE6F0E067
S113239080818D7F80830895982F81E080931E0231
S11323A0913051F0913018F0923041F403C0109202
S11323B0060204C0109206021092070210921E0236
S11323C00895982F81E080931E02913071F091302E
S11323D018F0923071F405C07093FB016093FA0118
S11323E008C07093FB016093FA017093FD01609340
S11323F0FC0110921E02089521E020931E02EAEFD0
S1132400F1E09183808332967183608310921E027F
S11324100895982F81E080931E02913051F09130FD
S113242018F0923041F403C06093080204C0609332
S113243008026093090210921E0208950F931F93DD
S1132440CF93DF93EB018A01813001F1813018F0E1
S1132450823061F50DC08091F2019091F301892BD6
S113246011F080E01AC01092FF011092FE011EC00C
S11324708091F2019091F301892B21F080E00E9478
S11324804B1404C01092FF011092FE018091F401DC
S11324909091F501892B31F081E0BE01A8010E94E1
S11324A04B1404C01092010210920002DF91CF91EC
S11324B01F910F910895CF93DF93C0E0D0E08C2F4C
S11324C060E00E946A122196C531D105C1F7DF91FF
S11324D0CF910895853128F4E82FF0E0EF54FE4FB2
S11324E0608308951F93CF93DF93EC01009799F1D4
S11324F081E00E94C409882351F187E00E941B05F2
S113250018EC812F8A95F1F782E06AE00E946C054D
S113251082E064EB0E946C05812F8A95F1F782E0DA
S113252060E00E94D3138883812F8A95F1F782E0BB
S113253060E00E94D31389831A95F1F782E060E08A
S11325400E94D3138A8387E00E941B0504C018826B
S113255019828DE28A83DF91CF911F9108950F93A1
S11325601F93DF93CF93CDB7DEB729970FB6F894B7
S1132570DEBF0FBECDBF8C0188E00E94C409882352
S113258011F491E00DC0CE01019661E040E09801A4
S11325900E94DC12982F882319F48F818823E9F391
S11325A0892F29960FB6F894DEBF0FBECDBFCF9109
S11325B0DF911F910F910895EF92FF920F931F9354
S11325C0CF93DF93EC01F62EE42E890188E00E947C
S11325D0C409882311F481E026C084E090E00E94BD
S11325E02821FC01009711F482E01DC0F982F0FC5F
S11325F01E8281E0E81619F48981846089838981C7
S1132600886089831B830A831D830C83D183C083E1
S11326101382128281E08093AA01CF010E943F13AA
S11326201092AA0180E0DF91CF911F910F91FF904A
S1132630EF90089588E00E94B709882311F082E0A2
S1132640089510923F02109241021092400210929B
S1132650AA011092AB0180E168EB74E10E94C213FD
S11326600E9436130E94A81381E0089584B5826005
S113267084BD85B5846085BD8EE487BD0895CF9201
S1132680DF92EF92FF920F931F93CF93DF93EC01AE
S113269080913F02882339F4D0934102C0934002D1
S11326A00E94BF1447C0C0904002D090410200E095
S11326B010E0EE24FF2437C0A881B981FD016481B4
S11326C07581F60140815181FA01848195819B01D4
S11326D0281B390B37FF0FC0861B970B9583848308
S11326E0DB82CA82012B29F4D0934102C0934002B9
S11326F021C0F7010CC0F6018281938121153105B7
S113270049F4FD01158214829B838A83F601D383E5
S1132710C28310C0FD01358324830097B9F30F5F92
S11327201F4F76016C0180913F0290E00817190752
S113273018F2ECCF80913F028F5F80933F02DF91CC
S1132740CF911F910F91FF90EF90DF90CF9008955C
S1132750EEE6F0E08081826080830895E82F803285
S113276068F48051833050F0F0E0EE0FFF1FE65B19
S1132770FE4F208131817183608302C020E030E00C
S1132780C9010895803218F020E030E00AC0E82F33
S1132790F0E0EE0FFF1FE65BFE4F20813181718375
S11327A06083C90108951F93162F0E941B0582E0C0
S11327B00E94C409882329F01EBD0DB407FEFDCF75
S11327C08EB51F9108950E940A140895EF92FF9206
S11327D00F931F937B018C018AE00E94C409882314
S11327E0A1F080919B01882381F0D801C701880F53
S11327F0991FAA1FBB1F9093A7018093A601E11400
S1132800F1040105110509F45F981F910F91FF90E0
S1132810EF90089580919C0190919D01A0919E015B
S1132820B0919F012091A0013091A1014091A2019A
S11328305091A301280F391F4A1F5B1F20939C014D
S113284030939D0140939E0150939F0180919C0180
S113285090919D01A0919E01B0919F018851964F46
S1132860A040B040BCF08BB180588BB980919C01E2
S113287090919D01A0919E01B0919F018851964F26
S1132880A040B04080939C0190939D01A0939E0131
S1132890B0939F010895EF92FF920F931F93CF93EC
S11328A0DF93EB01882321F0813009F05AC02DC059
S11328B09A0140E050E0CA01B9010E94A52020918C
S11328C0F2013091F301220F331F40E050E00E94E7
S11328D0B52079018A01A8019701220F331F441FF3
S11328E0551FCE01A0E0B0E082179307A407B507F7
S11328F028F0F092FF01E092FE0133C0D695C7950F
S1132900D093FF01C093FE012CC09A0140E050E037
S1132910CA01B9010E94A5202091F4013091F5016A
S1132920220F331F40E050E00E94B52079018A0154
S1132930A8019701220F331F441F551FCE01A0E0A9
S1132940B0E082179307A407B50728F0F0920102BC
S1132950E092000206C0D695C795D0930102C093B9
S11329600002DF91CF911F910F91FF90EF90089596
S11329700E94C3140E9403150E94DC14089581E090
S11329808093AB01089588E00E94C409882311F460
S113299084E008958091AB01882311F483E00895C5
S11329A08091AA01882311F082E008950E9475178E
S11329B08130E1F380E0089580919B01813011F52D
S11329C08091A4019091A5012091A6013091A701C5
S11329D0280F391F3093A5012093A4018091A401ED
S11329E09091A501885E93406CF08BB180588BB9AF
S11329F08091A4019091A501885E93409093A501D4
S1132A008093A401089587E00E94C409882309F4EF
S1132A10AAC08091F2019091F301892B09F1809170
S1132A201602909117022091F2013091F301820F66
S1132A30931F90931702809316028091160290912F
S1132A401702885E9340A4F08091160290911702B9
S1132A50885E9340909317028093160241E009C068
S1132A608091EA019091EB019093EF018093EE0144
S1132A7040E08091F4019091F501892B09F1809156
S1132A801802909119022091F4013091F501820FFE
S1132A90931F9093190280931802809118029091C9
S1132AA01902885E9340A4F0809118029091190253
S1132AB0885E9340909319028093180261E009C0E4
S1132AC08091EC019091ED019093F1018093F001DC
S1132AD060E0842F0E94B415809112029091130239
S1132AE02091EE013091EF01280F391F309313022A
S1132AF0209312028091120290911302885E9340F7
S1132B0014F440E00BC08091120290911302885E8D
S1132B109340909313028093120241E08091140237
S1132B20909115022091F0013091F101280F391F85
S1132B30309315022093140280911402909115028F
S1132B40885E934014F460E00BC08091140290916D
S1132B501502885E9340909315028093140261E0FD
S1132B60842F0E94F91508958823F1F02091EA0139
S1132B703091EB018091EE019091EF01281B390B0C
S1132B801216130634F48091EE019091EF01019630
S1132B9007C0232B49F08091EE019091EF0101973A
S1132BA09093EF018093EE01662311F12091EC01E3
S1132BB03091ED018091F0019091F101281B390BC6
S1132BC01216130654F48091F0019091F1010196CC
S1132BD09093F1018093F0010895232B49F08091A3
S1132BE0F0019091F10101979093F1018093F0012C
S1132BF008950F931F93182F062F80911E02882388
S1132C0009F0E7C080910602882309F05AC0809138
S1132C10EE019091EF01892BE9F48091AC01837E60
S1132C208093AC0110920F0280911A02882309F458
S1132C305DC06091080280E00E945017E0911C0280
S1132C40F0911D02309709F451C081E08083109205
S1132C501A024CC08091E801813041F48091FA015C
S1132C609091FB01019711F411E002C01123F1F1DD
S1132C70E0910D02F0E0E15FFE4F9091AC01937E94
S1132C808081892B8093AC0180910B02882321F4ED
S1132C9080910D028F5F03C080910D02815080935B
S1132CA00D0280910D02837080930D0281E0809368
S1132CB00F028091E8018130C9F480E00E94FC1683
S1132CC015C09091AC01937E9093AC01E0910D02FC
S1132CD0F0E0E15FFE4F8081892B8093AC0182E0BC
S1132CE080930F021092EF011092EE01809107027F
S1132CF0882309F059C08091F0019091F101892B4A
S1132D00E9F48091AC018F718093AC0110921002B0
S1132D1080911B02882309F45CC06091090281E060
S1132D200E945017E0911C02F0911D02309709F4A3
S1132D3050C081E0818310921B024BC08091E90155
S1132D40813041F48091FC019091FD01019711F4CF
S1132D5001E002C00023E9F1E0910E02F0E0ED5E33
S1132D60FE4F9091AC019F718081892B8093AC01BF
S1132D7080910C02882321F480910E028F5F03C09E
S1132D8080910E02815080930E0280910E02837016
S1132D9080930E0281E0809310028091E9018130DA
S1132DA0C1F40E94FC1615C09091AC019F719093E0
S1132DB0AC01E0910E02F0E0ED5EFE4F8081892BC4
S1132DC08093AC0182E0809310021092F101109282
S1132DD0F00180911102882331F48CEA91E0612F93
S1132DE0402F0E94E31788B183709091AC01892B26
S1132DF088B91F910F910895882321F0813009F03B
S1132E004EC027C08091FA019091FB01892B49F0B3
S1132E108091FA019091FB0101979093FB018093BB
S1132E20FA0180911A028823D1F52091FA01309198
S1132E30FB018091FE019091FF012817390779F574
S1132E4080E060E070E00E94E60781E080931A026F
S1132E5008958091FC019091FD01892B49F08091A6
S1132E60FC019091FD0101979093FD018093FC0179
S1132E7080911B02882399F42091FC013091FD017B
S1132E8080910002909101022817390741F481E0F2
S1132E9060E070E00E94E60781E080931B020895E1
S1132EA00F931F93182F062F662349F460E070E0F8
S1132EB00E94E607812F60E070E00E94E11181E04A
S1132EC080931E02113051F0113018F0123041F489
S1132ED003C00093060204C0009306020093070295
S1132EE010921E021F910F910895FF920F931F934A
S1132EF0CF93DF9380913F02882309F459C0009156
S1132F00400210914102F801C081D1818C819D81E0
S1132F1001979D838C83181619060CF449C0898186
S1132F2080FF05C08E81882311F481E08E8389811E
S1132F3081FF03C0EF81F885099580913F028230BB
S1132F40A8F0F8018281938190934102809340021A
S1132F5013821282E0910000F09101008481958136
S1132F60181619063CF0FF24F39405C01092410290
S1132F7010924002FF2480913F02815080933F02CF
S1132F8080913F02882311F40E94E017898182FF17
S1132F9008C08A819B819D838C83C8010E943F1352
S1132FA008C0C8010E94BD2189818F7E898301C028
S1132FB0FF248F2DDF91CF911F910F91FF900895E2
S1132FC01092AB010895FC0180910F02823069F4E4
S1132FD08091B00191E089278093B001882309F0A2
S1132FE03EC08081837E80833AC08091EE019091BF
S1132FF0EF01C397A4F56623D1F02091EE0130913F
S1133000EF0180E690E0BC01269FC001279F900D50
S1133010369F900D1124880F892F881F990B909348
S113302003028093020281E08093AE0118C0809174
S1133030AE018823A1F080910202909103020197CE
S11330409093030280930202809102029091030202
S1133050892B29F48081837E80831092AE01809134
S11330601002823069F48091AF0191E08927809346
S1133070AF01882309F03EC080818F718083089559
S11330808091F0019091F101C397A4F54423D1F00C
S11330902091F0013091F10180E690E0AC01249F91
S11330A0C001259F900D349F900D1124880F892F06
S11330B0881F990B909305028093040281E080930A
S11330C0AD0108958091AD018823A1F0809104029F
S11330D090910502019790930502809304028091D8
S11330E0040290910502892B29F480818F718083D9
S11330F01092AD010895CF93DF931F92CDB7DEB741
S11331000E94CA038DE191E09F938F930E947B23D9
S113311019820E942A0381E00E94520383E00E94E4
S11331205D0381E00E944B0B10E8E12E15E2F12EC5
S113313000E010E020E040E063E081E00E949A0AB1
S113314061E070E081E00E94670C61E081E00E9430
S1133150200C61E081E00E94D90B0E94C9060F9AFD
S11331600F900F90DD24D3940F2EF0E92F2EF02D25
S11331700F2EF8EC3F2EF02D0F2EF4E69F2EF02D9F
S11331800F2EF4E24F2EF1E05F2EF02D0F2EFCE314
S11331906F2EF1E07F2EF02D1F921F921F92DF926F
S11331A02F921F923F921F929F92812CA12CB12C9F
S11331B0C12C0F2EF0E9EF2EFF24F394F02D08EC30
S11331C010E024E630E040E062E080E00E94300657
S11331D00E943503BC0180E090E00E947B1D2DE23B
S11331E032EB4DE15EE30E94461E0E944C1D162FF9
S11331F08D2D0E94800C09810FB6F894DEBF0FBE9E
S1133200CDBF06C0BE016F5F7F4F8D2D0E94850B21
S11332108D2D0E94310B8111F5CF8981853608F0FF
S113322009830E94A80360E083E00E9472041F9255
S11332301F935F924F920E947B2360E08D2D0E942A
S1133240720489811F928F937F926F920E947B23D5
S11332509FE72AE186E0915020408040E1F700C0DA
S1133260000017981F921F921F92DF922F921F92B5
S11332703F921F929F928D2CA12CB12CC12C0F2E0A
S1133280F0E9EF2EFF24F394F02D08EC10E024E68F
S113329030E04D2D62E080E00E9430069FE72AE195
S11332A086E0915020408040E1F700C000000FB656
S11332B0F894DEBF0FBECDBF179A6ECFA3E1B0E086
S11332C0E4E6F9E10C94E2206C014B012A01FC01D3
S11332D017821682838181FF43C3AE014F5F5F4F24
S11332E03A01F6019381F40193FD859193FF819155
S11332F04F01882309F430C3853239F493FD859155
S113330093FF81914F01853239F4B60190E00E9418
S1133310432352012501E5CF10E0F12C20E02032B7
S1133320A0F48B3269F030F4803259F0833269F4BE
S113333020612CC08D3239F0803339F4216026C0ED
S11333402260246023C0286021C027FD27C030EDFF
S1133350380F3A3078F426FF06C0FAE01F9F300D8C
S11333601124132F13C04AE0F49E300D1124F32EC0
S113337020620CC08E3221F426FDEEC2206406C009
S11333808C3611F4206802C0883641F4F40193FDB0
S1133390859193FF81914F018111C1CF9BEB980FD0
S11333A0933018F42061805E06C09BE9980F933037
S11333B008F071C12F7E26FF16E02F73322E85365A
S11333C019F42064322E08C0863621F4F22FF068F6
S11333D03F2E02C01111115037FE07C01C3350F4A8
S11333E0EE24E394E10E27E00BC0183038F027E018
S11333F017E005C027E04CE3E42E02C0212FE12CA6
S1133400520144E0A40EB11CF201608171818281F9
S113341093810E2DA3010E9455222C01098100FFE6
S113342002C003FF07C031FC08C032FE09C030E20D
S1133430232E07C02DE2222E04C09BE2292E01C0B8
S1133440212C802F8C7019F0211068C2A8C237FE7D
S11334500FC0E40C04FF04C08A81813309F4EA94A8
S11334601E1474F5F8E0FE1578F588E0E82E2CC0FB
S113347036FC2AC0812F90E0841595059CF02CEF32
S113348042162FEF520674F0432D4068342E0AC0C2
S1133490E2E0F0E0EC0FFD1FE10FF11D80818033CD
S11334A019F411501111F4CF37FE0EC0EE24E39439
S11334B0E10E812F90E0481659062CF4141904C02B
S11334C0EE24E39401C010E037FE06C01414150482
S11334D034F4C201019605C085E090E002C081E0A9
S11334E090E021100196112331F0212F30E02F5F5D
S11334F03F4F820F931F2F2D30E08217930714F450
S1133500F81A01C0F12C832D897049F4FF2039F099
S1133510B60180E290E00E944323FA94F7CF222080
S113352029F0B601822D90E00E94432333FC09C0A8
S1133530FF2039F0B60180E390E00E944323FA941F
S1133540F7CF37FE5AC0942D852D57FE02C090E068
S113355080E0292E382E20E030E0A2014E195109D6
S11335605D874C87A201421953095F874E87612FFB
S113357070E044275527461B570B598B488B5FEF48
S11335802516350649F4B6018EE290E02A8B3B8B72
S11335900E9443233B892A89421453046CF04C85CE
S11335A05D854215530544F4EE85FF85E20FF31F54
S11335B0E60DF71D818101C080E351E0251A310831
S11335C02F5F3F4F48895989241635064CF0B601C0
S11335D090E02A8B3B8B0E9443232A893B89CFCFDF
S11335E02414350439F49A81963318F4953311F47C
S11335F004FF81E3B60190E04BC08A81813309F076
S11336000F7EB60190E00E944323111105C034FCE3
S113361018C085E690E017C0B6018EE290E00E94E3
S1133620432382E0EE24E394E80EF301E80FF11D56
S11336308081B60190E00E94432311508E2D91F7B2
S1133640E6CF85E490E0B6010E94432357FC05C011
S11336504114510439F404FF05C0519441945108B4
S11336608DE201C08BE2B60190E00E94432380E327
S11336709AE0491651042CF08F5F5AE0451A51081C
S1133680F7CFB60190E00E944323B601C201C09671
S11336900E94432357C1833631F0833779F0833551
S11336A009F058C021C05201E2E0AE0EB11CF20193
S11336B08081898301E010E0230114C05201F2E00B
S11336C0AF0EB11CF2014080518026FF03C0612F70
S11336D070E002C06FEF7FEFC2012A8B0E94382393
S11336E08C012A892F7715C05201F2E0AF0EB11C6C
S11336F0F2014080518026FF03C0612F70E002C0B8
S11337006FEF7FEFC2012A8B0E942D238C012A893F
S11337102068322E23FD1AC08F2D90E00817190758
S1133720A8F4B60180E290E00E944323FA94F4CF17
S1133730F20137FC859137FE81912F01B60190E0AB
S11337400E944323F110FA94015011090115110547
S113375079F7F8C0843611F0893659F5520127FFFC
S113376009C0F4E0AF0EB11CF20160817181828165
S113377093810AC0F2E0AF0EB11CF2016081718145
S1133780072E000C880B990B2F76322E97FF09C059
S113379090958095709561957F4F8F4F9F4F2068CE
S11337A0322E2AE030E0A3010E949123E82EE6188D
S11337B03FC0022F853721F40F7E2AE030E01DC080
S11337C0097F8F3691F018F4883559F0C5C08037D9
S11337D019F0883711F0C0C0006104FF09C004600B
S11337E007C024FF08C0066006C028E030E005C01A
S11337F020E130E002C020E132E0520107FF09C0BD
S1133800F4E0AF0EB11CF201608171818281938179
S113381008C0F2E0AF0EB11CF2016081718180E05A
S113382090E0A3010E949123E82EE6180F77302E32
S113383036FE0BC0332D3E7FE11650F434FE0AC031
S113384032FC08C0332D3E7E05C00E2D332D03C03F
S11338500E2D01C0012F34FF0CC0FE01EE0DF11D31
S11338608081803311F4397E08C032FF05C00E5FB9
S113387004C0832F867809F00F5F33FD13C030FF37
S113388006C01E2D0F1518F41F0D101B0F2D0F153C
S113389068F4B60180E290E03B8B0E9443230F5F03
S11338A03B89F5CF0F1510F4F01A01C0F12C34FF49
S11338B012C0B60180E390E03B8B0E9443233B8916
S11338C032FF17C031FD03C088E790E002C088E5ED
S11338D090E0B6010CC0832F867859F031FF02C006
S11338E08BE201C080E237FD8DE2B60190E00E94D8
S11338F04323E11638F4B60180E390E00E944323A9
S11339001150F7CFEA94F301EE0DF11D8081B60159
S113391090E00E944323E110F5CF14C0F4E0FF15BA
S113392058F584E0F81A33FE1EC0211026C003FFA8
S11339302AC00EEF10E0F32DF0713F2EF8018491B0
S1133940811124C0FF2009F4E5CCB60180E290E0A7
S11339500E944323FA94F6CFF6018681978126C00C
S11339608FEF9FEF23C0B60180E290E00E944323D3
S1133970FA94F110F8CFD9CFF12CB601822D90E052
S11339800E944323D4CF02E011E0D5CF31108052FE
S1133990B60190E00E9443230F5F1F4FCFCF23E077
S11339A02F1510F483E0BECFF12CC1CF6396E2E172
S11339B00C94FE200E94EE1C0C94CF1D0E94C81D86
S11339C058F00E94C11D40F029F45F3F29F00C9487
S11339D0B81D51110C94031E0C94BE1D0E94E01DD1
S11339E068F39923B1F3552391F3951B550BBB272A
S11339F0AA2762177307840738F09F5F5F4F220F6F
S1133A00331F441FAA1FA9F335D00E2E3AF0E0E865
S1133A1032D091505040E695001CCAF72BD0FE2FAF
S1133A2029D0660F771F881FBB1F26173707480743
S1133A30AB07B0E809F0BB0B802DBF01FF279358FB
S1133A405F4F3AF09E3F510578F00C94B81D0C94EA
S1133A50031E5F3FE4F3983ED4F38695779567950C
S1133A60B795F7959F5FC9F7880F911D9695879530
S1133A7097F90895E1E0660F771F881FBB1F62174F
S1133A8073078407BA0720F0621B730B840BBA0B0D
S1133A90EE1F88F7E09508950E94E81D88F09F576F
S1133AA098F0B92F9927B751B0F0E1F0660F771F5E
S1133AB0881F991F1AF0BA95C9F714C0B13091F054
S1133AC00E94021EB1E008950C94021E672F782F05
S1133AD08827B85F39F0B93FCCF386957795679519
S1133AE0B395D9F73EF490958095709561957F4F85
S1133AF08F4F9F4F0895E89409C097FB3EF490952B
S1133B008095709561957F4F8F4F9F4F9923A9F0B2
S1133B10F92F96E9BB279395F69587957795679541
S1133B20B795F111F8CFFAF4BB0F11F460FF1BC085
S1133B306F5F7F4F8F4F9F4F16C0882311F096E918
S1133B4011C0772321F09EE8872F762F05C06623C6
S1133B5071F096E8862F70E060E02AF09A95660F7F
S1133B60771F881FDAF7880F9695879597F9089538
S1133B7097F99F6780E870E060E008959FEF80EC1C
S1133B80089500240A9416161706180609060895BF
S1133B9000240A9412161306140605060895092E25
S1133BA00394000C11F4882352F0BB0F40F4BF2B94
S1133BB011F460FF04C06F5F7F4F8F4F9F4F0895D4
S1133BC057FD9058440F551F59F05F3F71F04795CA
S1133BD0880F97FB991F61F09F3F79F087950895AF
S1133BE0121613061406551FF2CF4695F1DF08C0CE
S1133BF0161617061806991FF1CF869571056105EB
S1133C0008940895E894BB2766277727CB0197F992
S1133C1008950E94E81DA8F19E57B0F1985160F0F4
S1133C2039F1983070F5092E9927660F771F881F90
S1133C30991F0A94D1F71CC0BB27993F4CF4B111CA
S1133C40B1E0B62B672F782F8827985FB1F708C0AB
S1133C50869577956795B79508F4B1609395C1F704
S1133C60BB0F30F411F460FF03C06F5F7F4F8F4FC1
S1133C703EF490958095709561957F4F8F4F9F4F3F
S1133C80089568940C94031E0C94021E0E94591EFD
S1133C900C94CF1D0E94C11D38F00E94C81D20F055
S1133CA0952311F00C94B81D0C94BE1D11240C9492
S1133CB0031E0E94E01D70F3959FC1F3950F50E021
S1133CC0551F629FF001729FBB27F00DB11D639FCA
S1133CD0AA27F00DB11DAA1F649F6627B00DA11D70
S1133CE0661F829F2227B00DA11D621F739FB00D16
S1133CF0A11D621F839FA00D611D221F749F332786
S1133D00A00D611D231F849F600D211D822F762F1E
S1133D106A2F11249F5750409AF0F1F088234AF0FB
S1133D20EE0FFF1FBB1F661F771F881F9150504067
S1133D30A9F79E3F510580F00C94B81D0C94031E06
S1133D405F3FE4F3983ED4F3869577956795B795EE
S1133D50F795E7959F5FC1F7FE2B880F911D969508
S1133D60879597F90895FA01EE0FFF1F3096210504
S1133D703105A1F16115710561F48038BFE39B073A
S1133D8049F168949038810561F08038BFEF9B0752
S1133D9041F099234AF5FF3FE1053105210519F169
S1133DA0E8940894E795D901AA2329F4AB2FBE2FF0
S1133DB0F85FD0F310C0FF5F70F4A695E0F7F73911
S1133DC050F019F0FF3A38F49F779F930DD00F907D
S1133DD007FC9058089546F00C94BE1D60E070E016
S1133DE080E89FE308954FE79F775F934F933F9356
S1133DF02F930E94AE1F2F913F914F915F910E948C
S1133E00461E0C940B1F29F416F00C94B81D0C9448
S1133E10021E0C94BE1D0E94E81DA8F39638A0F75C
S1133E2007F80F92E8942BE33AEA48EB5FE70E9425
S1133E305C1E0F920F920F924DB75EB70F920E94C5
S1133E40F61FECE7F0E00E943D1F4F915F91EF9168
S1133E50FF91E595EE1FFF1F49F0FE57E0684427E8
S1133E60EE0F441FFA95E1F74195550B0E94701F20
S1133E700F9007FE0C94641F0895DF93CF931F9354
S1133E800F93FF92EF92DF927B018C01689406C03E
S1133E90DA2EEF010E94591EFE01E894A5912591A6
S1133EA0359145915591A6F3EF010E944220FE0100
S1133EB09701A801DA9469F7DF90EF90FF900F91D2
S1133EC01F91CF91DF9108959B01AC0160E070E0F8
S1133ED080E89FE30C94DA1C0C94B81D0C94972092
S1133EE00E94E81DD8F39923C9F3940F511DA3F33D
S1133EF09150504094F059F0882332F0660F771FA8
S1133F00881F91505040C1F79E3F51052CF7880FF0
S1133F10911D9695879597F908955F3FACF0983E6B
S1133F209CF0BB27869577956795B79508F4B160A3
S1133F309395C1F7BB0F58F711F460FFE8CF6F5F9B
S1133F407F4F8F4F9F4FE3CF0C94031E16F00C94BA
S1133F5097200C94BE1D68940C94B81D0E94E81D13
S1133F60A8F39923C1F3AEF3DF93CF931F930F9379
S1133F70FF92C92FDD2788232AF02197660F771F28
S1133F80881FDAF720E030E040E85FEB9FE38839F0
S1133F9020F0803E38F021968F770E942B20E4EAAF
S1133FA0F0E004C00E942B20E1EDF0E00E943D1FF0
S1133FB08B01BE01EC01FB2E6F5771097595771FBC
S1133FC0880B990B0E947D1D28E132E741E35FE3F2
S1133FD00E94591EAF2D9801AE01FF900F911F91C1
S1133FE0CF91DF910E9442200C94CF1DFA01DC0195
S1133FF0AA0FBB1F9B01AC01BF5728F4222733270C
S11340004427507820C0B75190F4AB2F0024469534
S113401037952795011CA395D2F3002071F0220F48
S1134020331F441FB395DAF30ED00C942A20613069
S11340307105A0E88A07B94630F49B01AC016627F4
S1134040772788279078309621F020833183428324
S1134050538308955058BB27AA270E9442200C94EA
S1134060CF1D0E94C11D38F00E94C81D20F039F4F4
S11340709F3F19F426F40C94BE1D0EF4E095E7FB63
S11340800C94B81DE92F0E94E01D58F3BA1762077B
S113409073078407950720F079F4A6F50C94021EA3
S11340A00EF4E0950B2EBA2FA02D0B01B90190014F
S11340B00C01CA01A0011124FF27591B99F0593F93
S11340C050F4503E68F11A16F040A22F232F342FDB
S11340D04427585FF3CF469537952795A795F04029
S11340E05395C9F77EF41F16BA0B620B730B840B3E
S11340F0BAF09150A1F0FF0FBB1F661F771F881FF6
S1134100C2F70EC0BA0F621F731F841F48F487954D
S113411077956795B795F7959E3F08F0B0CF93953F
S1134120880F08F09927EE0F9795879508959F3F7C
S113413031F0915020F4879577956795B795880F5E
S1134140911D9695879597F90895DB018F939F9319
S11341500E94D720BF91AF91A29F800D911DA39F74
S1134160900DB29F900D11240895A1E21A2EAA1B5E
S1134170BB1BFD010DC0AA1FBB1FEE1FFF1FA21713
S1134180B307E407F50720F0A21BB30BE40BF50B10
S1134190661F771F881F991F1A9469F76095709599
S11341A0809590959B01AC01BD01CF0108950E94BB
S11341B01921A59F900DB49F900DA49F800D911D72
S11341C0112408952F923F924F925F926F927F92A3
S11341D08F929F92AF92BF92CF92DF92EF92FF9213
S11341E00F931F93CF93DF93CDB7DEB7CA1BDB0BBF
S11341F00FB6F894DEBF0FBECDBF09942A88398864
S113420048885F846E847D848C849B84AA84B9846A
S1134210C884DF80EE80FD800C811B81AA81B98176
S1134220CE0FD11D0FB6F894DEBF0FBECDBFED018A
S11342300895A29FB001B39FC001A39F700D811D7B
S11342401124911DB29F700D811D1124911D08959B
S1134250CF93DF938230910510F482E090E0E091F7
S11342604402F091450220E030E0C0E0D0E0309715
S113427011F14081518148175907C0F04817590777
S113428061F482819381209719F09B838A832BC0E8
S1134290909345028093440226C02115310519F0FC
S11342A04217530718F49A01BE01DF01EF0102809F
S11342B0F381E02DDCCF2115310509F1281B390BE1
S11342C02430310590F412968D919C9113976115C9
S11342D0710521F0FB019383828304C0909345020E
S11342E080934402FD01329644C0FD01E20FF31FA6
S11342F081939193225031092D933C933AC020919C
S1134300420230914302232B41F420911901309150
S11343101A013093430220934202209117013091F5
S113432018012115310541F42DB73EB740911B0109
S113433050911C01241B350BE0914202F091430281
S1134340E217F307A0F42E1B3F0B2817390778F068
S1134350AC014E5F5F4F2417350748F04E0F5F1FC7
S113436050934302409342028193919302C0E0E050
S1134370F0E0CF01DF91CF9108950F931F93CF9376
S1134380DF93009709F48CC0FC01329713821282E8
S113439000914402109145020115110581F4208118
S11343A03181820F931F20914202309143022817DA
S11343B0390779F5F0934302E093420271C0D801C2
S11343C040E050E0AE17BF0750F412962D913C9197
S11343D01397AD012115310509F1D901F3CF9D01E1
S11343E0DA013383228360817181860F971F8217DC
S11343F0930769F4EC0128813981260F371F2E5F5A
S11344003F4F318320838A819B8193838283452B11
S113441029F4F0934502E093440242C01396FC93BE
S1134420EE931297ED01499159919E01240F351F86
S1134430E217F30771F480819181840F951F02962E
S113444011969C938E938281938113969C938E9361
S11344501297E0E0F0E0D80112968D919C911397A9
S1134460009719F0F8018C01F6CF8D919C91980179
S11344702E5F3F4F820F931F2091420230914302DF
S11344802817390769F4309729F4109245021092DD
S1134490440202C013821282109343020093420228
S11344A0DF91CF911F910F910895283008F027E0F4
S11344B03327DA01990F311D87FD9160009661055C
S11344C0710539F432602E5F3D9330E32A95E1F7AC
S11344D008959F3F30F080387105610509F03C5F15
S11344E03C5F3D93913008F08068911DDF93CF933A
S11344F01F930F93FF92EF92192F987F9695E92FB0
S113450096959695E90FFF27E05AFE4F9927332792
S1134510EE24FF24A701E70105900894079428F4EA
S1134520360FE71EF81E491F511D660F771F881F9F
S1134530991F0694A1F70590079428F4E70EF81E36
S1134540491F561FC11D770F881F991F661F0694A8
S1134550A1F70590079428F4F80E491F561FC71FAA
S1134560D11D880F991F661F771F0694A1F7059028
S1134570079420F4490F561FC71FD81F990F661FB1
S1134580771F881F0694A9F784911095177041F03E
S1134590D695C79557954795F794E7941A95C1F71B
S11345A0E6E0F1E068941590159135916591959147
S11345B005907FE27395E118F10A430B560BC90B82
S11345C0D009C0F7E10CF11E431F561FC91FD01DAF
S11345D07EF4703311F48A95E6CFE894015030F0FC
S11345E0080F0AF40027021708F4202F2395022F3E
S11345F07A3328F079E37D932A95E9F710C07D9307
S11346002A9589F606949795679537951795179483
S1134610E118F10A430B560BC90BD00998F0239506
S11346207E9173957A3308F070E37C932013B8F786
S11346307E9170617D9330F0839571E37D9370E397
S11346402A95E1F71124EF90FF900F911F91CF91DC
S1134650DF91992787FD90950895FC01059061509D
S113466070400110D8F7809590958E0F9F1F089584
S1134670FC016150704001900110D8F7809590952D
S11346808E0F9F1F08950F931F93CF93DF93FB010A
S1134690238121FD03C08FEF9FEF28C022FF16C0A6
S11346A046815781248135814217530744F4A08100
S11346B0B1819D012F5F3F4F318320838C932681ED
S11346C037812F5F3F4F3783268310C0EB01092FBB
S11346D0182F0084F185E02D0995892BE1F68E8150
S11346E09F8101969F838E83812F902FDF91CF919D
S11346F01F910F910895A0E0B0E0E1E8F3E20C947B
S1134700F220AE014B5F5F4FFA0161917191AF01ED
S113471080914802909149020E945E19E2E00C9453
S11347200E21FA01AA27283051F1203181F1E894B1
S11347306F936E7F6E5F7F4F8F4F9F4FAF4FB1E090
S11347403ED0B4E03CD0670F781F891F9A1FA11D8B
S1134750680F791F8A1F911DA11D6A0F711D811D8C
S1134760911DA11D20D009F468943F912AE0269F51
S113477011243019305D3193DEF6CF010895462FB0
S11347804770405D4193B3E00FD0C9F7F6CF462F91
S11347904F70405D4A3318F0495D31FD40524193FA
S11347A002D0A9F7EACFB4E0A695979587957795B7
S11347B06795BA95C9F700976105710508959B013E
S11347C0AC010A2E06945795479537952795BA95C7
S11347D0C9F7620F731F841F951FA01D0895F894D5
S10547E0FFCF05
S11347E21F0000000200000000290F000000001852
S11347F20C041060C0802000004C02200068692074
S113480261766500426967204170706C65204D6174
S113481263696E746F73683A202564004D696C6530
S1094822793A2025640030
S9030000FC
